:100000000C944C0A0C947D0A0C947D0A0C947D0A85
:100010000C947D0A0C947D0A0C947D0A0C947D0A44
:100020000C947D0A0C947D0A0C947D0A0C947D0A34
:100030000C947D0A0C947D0A0C947D0A0C947D0A24
:100040000C947D0A0C9414360C947D0A0C947D0A51
:100050000C947D0A0C947D0A0C9417160C94B3151D
:100060000C947D0A0C94BF0A0C947D0A0C947D0AB2
:100070000C947D0A0C947D0A0C947D0A0C947D0AE4
:100080000C947E2B0C947D0A0C947D0A0C947D0AB2
:100090000C947D0A0C947D0A0C947D0A0C947D0AC4
:1000A0000C947D0A0C947D0A0C94502B0C947D0AC0
:1000B0000C947D0A0C947D0A0C947D0A0C94222BDE
:1000C0000C947D0A0C947D0A0C947D0A0C947D0A94
:1000D0000C947D0A0C947D0A0C947D0A0C947D0A84
:1000E0000C947D0A5613591348134C135213901352
:1000F0005D13611367136B136F13751379137D13FE
:100100009013831387138B13CF14D414D914E314CF
:10011000ED146615F714FF14071511151B15251599
:1001200034153E156615481552155C15771684165C
:10013000A016AD16C716D416EE16F016F216F41663
:10014000FC16084AD73B3BCE016E84BCBFFDC12FD5
:100150003D6C74319ABD56833DDA3D00C77F11BEB8
:10016000D9E4BB4C3E916BAAAABE000000803F05BB
:10017000A84CCDB2D44EB93836A9020C50B99186EC
:1001800088083CA6AAAA2ABE000000803F004E4173
:100190004E494E495459494E46CDCCCC3D0AD72301
:1001A0003C17B7D13877CC2B329595E6241FB14F49
:1001B0000A000020410000C84200401C4620BCBE8E
:1001C0004CCA1B0E5AAEC59D7450494420417574EB
:1001D0006F74756E652066696E6973686564212049
:1001E00050757420746865206C617374204B702C9A
:1001F000204B6920616E64204B6420636F6E7374C2
:10020000616E74732066726F6D2061626F76652017
:10021000696E746F20436F6E666967757261746989
:100220006F6E2E6800504944204175746F74756E6E
:1002300065206661696C6564212074696D656F7500
:10024000740020403A006F6B20543A006F6B2042DC
:100250003A00504944204175746F74756E6520668C
:1002600061696C6564212054656D70657261747597
:10027000726520746F6F206869676800204B643A6C
:100280002000204B693A2000204B703A2000204388
:100290006C61737369632050494420002054753A9F
:1002A0002000204B753A2000206D61783A20002014
:1002B0006D696E3A200020643A2000206269617303
:1002C0003A200053657474696E67732053746F72BB
:1002D0006564002200556E6B6E6F776E20636F6DE4
:1002E0006D616E643A2022005A204F666673657411
:1002F000203A20007A5F6D61783A20007A5F6D695C
:100300006E3A20005A204F6666736574005A204F7B
:100310006666736574206F6B007A5F6D61783A2052
:10032000007A5F6D696E3A2000795F6D61783A20DE
:1003300000795F6D696E3A2000785F6D61783A20D0
:1003400000785F6D696E3A2000205A3A0020593AD1
:100350000020436F756E7420583A200020453A0003
:10036000205A3A0020593A00583A004649524D570F
:100370004152455F4E414D453A4D61726C696E2068
:10038000312E302E322B20446576656C6F706D6592
:100390006E742046726F6D204172636869766520C5
:1003A000534F555243455F434F44455F55524C3A76
:1003B00068747470733A2F2F6769746875622E635E
:1003C0006F6D2F4D61726C696E4669726D776172E7
:1003D000652F4D61726C696E2050524F544F434FE0
:1003E0004C5F56455253494F4E3A312E30204D41C5
:1003F0004348494E455F545950453A536E617070B9
:100400007920312E352045585452554445525F438A
:100410004F554E543A3120555549443A30303030DA
:10042000303030302D303030302D303030302D30D5
:100430003030302D303030303030303030303030BF
:100440000A0020423A0020453A00543A0020573A28
:100450000020453A00543A002042403A0020403AF9
:1004600000202F003A00205400202F0020423A00A4
:10047000202F006F6B20543A002569206D696E2C87
:100480002025692073656300205A3A0020593A00FC
:1004900020583A00656E6473746F707320686974D5
:1004A0003A20006563686F3A00204400204900202C
:1004B00020204D3330312050005049442073657462
:1004C00074696E67733A00205A0020590020204D4D
:1004D000323036205800486F6D65206F6666736550
:1004E0007420286D6D293A00204500205A002058BC
:1004F0000020420020540020204D3230352053008F
:10050000416476616E636564207661726961626CD4
:1005100065733A20533D4D696E206665656472616E
:10052000746520286D6D2F73292C20543D4D696E04
:100530002074726176656C206665656472617465AD
:1005400020286D6D2F73292C20423D6D696E696DD9
:10055000756D207365676D656E742074696D6520B7
:10056000286D73292C20583D6D6178696D756D205B
:100570005859206A65726B20286D6D2F73292C20C5
:10058000205A3D6D6178696D756D205A206A6572DB
:100590006B20286D6D2F73292C2020453D6D6178CF
:1005A000696D756D2045206A65726B20286D6D2F11
:1005B00073290020540020204D3230342053004154
:1005C0006363656C65726174696F6E3A20533D6157
:1005D0006363656C65726174696F6E2C20543D7243
:1005E00065747261637420616363656C65726174C4
:1005F000696F6E00204500205A0020590020204DD0
:100600003230312058004D6178696D756D2041633D
:1006100063656C65726174696F6E20286D6D2F73F0
:1006200032293A00204500205A0020590020204D50
:100630003230332058004D6178696D756D206665E4
:100640006564726174657320286D6D2F73293A009B
:10065000204500205A0020590020204D39322058D2
:100660000053746570732070657220756E69743AFA
:100670000053746F7265642073657474696E677378
:10068000207265747269657665640048617264639E
:100690006F6465642044656661756C74205365748D
:1006A00074696E6773204C6F61646564002020502C
:1006B0006C616E6E657242756666657242797465CC
:1006C000733A20002046726565204D656D6F727922
:1006D0003A20004D617920203420323031370043F8
:1006E0006F6D70696C65643A2000286E6F6E652CC2
:1006F0002064656661756C7420636F6E6669672936
:1007000000207C20417574686F723A20004D617939
:1007100020203420323031372030333A34353A35E6
:100720003400204C61737420557064617465643AC0
:10073000200020312E302E322B004D61726C696EFC
:100740000020536F6674776172652052657365741B
:1007500000205761746368646F6720526573657425
:10076000002042726F776E206F757420526573653A
:1007700074002045787465726E616C2052657365F3
:100780007400506F776572557000737461727400F5
:10079000202D20496E76616C6964206578747275CD
:1007A000646572206E756D62657220210070012C87
:1007B0000190012701B0012201C0011D01F00118C3
:1007C000011002130130020E0160020901900204BF
:1007D00001C002FF000003FA004003F5008003F0AF
:1007E00000D003EB002004E6007004E100E004DC2C
:1007F000004005D700C005D2004006CD00D006C895
:10080000008007C3003008BE00F008B900C009B47A
:1008100000B00AAF00B00BAA00D00CA500000EA0DB
:1008200000500F9B00C01096005012910000148CD5
:1008300000C0158700B0178200B0197D00D01B786A
:1008400000001E730040206E0090226900F02464B6
:100850000040275F0090295A00E02B5500102E50D1
:100860000020304B0010324600E033410090353C10
:10087000001037370070383200A0392D00B03A2808
:1008800000A03B2300603C1E00103D1900903D1469
:1008900000103E0F00703E0A00C03E0500003F0001
:1008A000003A2045787472756465722073776974B4
:1008B00063686564206F66662E204D415854454D2F
:1008C00050207472696767657265642021003A2060
:1008D00045787472756465722073776974636865AE
:1008E00064206F66662E204D494E54454D5020744D
:1008F000726967676572656420210054656D706573
:1009000072617475726520686561746564206265E2
:1009100064207377697463686564206F66662E204F
:100920004D415854454D5020747269676765726532
:1009300064202121004572726F723A00000021008C
:10094000240027002A002D003000330001010000A0
:10095000040107010A0100002200250028002B00E5
:100960002E003100340002010000050108010B01D6
:10097000000020002300260029002C002F00320058
:100980000001000003010601090105050505070531
:1009900008080808020202020A0A080804040404FB
:1009A0000101010101010101030303030303030327
:1009B000040707070C0C0C0C0C0C0C0C02020202B6
:1009C00006060606060606060B0B0B0B0B0B0B0B9F
:1009D0000102102020080810204010204080020151
:1009E0000201080402010102040810204080804036
:1009F0002010080402018004020180402010080435
:100A000002010804020101020408102040800102D2
:100A100004081020408000000A0B02090C0D0E088B
:100A200007030401000000000000000000000000B7
:100A300000000000000000000000000000000000B6
:100A40000000121110000000000000000000000073
:100A500000000000000000000000000000003E4315
:100A600000003E4300002F43000000000000000093
:100A700000000000000000000000000000002F4304
:100A80000000A0400000A0400000004000003E43E5
:100A900000003E4300002F43FFFF0120746F6F20D2
:100AA0006C6F6E6720657874727573696F6E2070F5
:100AB000726576656E7465640020636F6C64206592
:100AC0007874727573696F6E2070726576656E7476
:100AD0006564005072696E7465722073746F707013
:100AE00065642064756520746F206572726F72731F
:100AF0002E2046697820746865206572726F7220B6
:100B0000616E6420757365204D39393920746F200A
:100B1000726573746172742E202854656D706572ED
:100B200061747572652069732072657365742E2017
:100B300053657420697420616674657220726573F0
:100B400074617274696E6729004E6F204C696E651E
:100B5000204E756D626572207769746820636865E0
:100B6000636B73756D2C204C617374204C696E65DA
:100B70003A20004E6F20436865636B73756D207774
:100B8000697468206C696E65206E756D6265722C83
:100B9000204C617374204C696E653A20006368656F
:100BA000636B73756D206D69736D617463682C2060
:100BB0004C617374204C696E653A20004C696E6517
:100BC000204E756D626572206973206E6F74204CC3
:100BD000617374204C696E65204E756D6265722B71
:100BE000312C204C617374204C696E653A20004DA5
:100BF00031313000526573656E643A20006F6B00CE
:100C00005072696E7465722068616C7465642E2020
:100C10006B696C6C28292063616C6C6564210050E1
:100C200072696E7465722073746F7070656420648D
:100C3000756520746F206572726F72732E2046691D
:100C40007820746865206572726F7220616E64200E
:100C5000757365204D39393920746F20726573744E
:100C60006172742E202854656D706572617475729E
:100C7000652069732072657365742E205365742036
:100C80006974206166746572207265737461727430
:100C9000696E67290024F4D43050C38E20C2A2406C
:100CA00017828B7011127A910D816CD90AA861E1BB
:100CB00008C7586607615143061E4B5D05C145A72D
:100CC000041A411104093D9803713931034036DBA0
:100CD0000265339102D4305402802E1D02632CEE43
:100CE00001752AC501B028A001102781018F256454
:100CF000012B244B01E0223401AC211F018D200D7A
:100D000001801FFC00841EED00971DDF00B81CD27F
:100D100000E61BC600201BBC00641AB200B219A872
:100D2000000A19A0006A189900D117910040178B8A
:100D300000B516840031167E00B31579003A15739C
:100D400000C7146F0058146A00EE1366008813631E
:100D50000025135E00C7125B006C12570015125479
:100D600000C111510070114F0021114B00D61049E4
:100D7000008D1047004610440002104200C00F4092
:100D800000800F3E00420F3C00060F3B00CB0E38A8
:100D900000930E37005C0E3500270E3400F30D3241
:100DA00000C10D3100900D3000600D2E00320D2D70
:100DB00000050D2C00D90C2B00AE0C2900850C2948
:100DC000005C0C2700350C27000E0C2600E80B24D5
:100DD00000C40B2400A00B23007D0B23005A0B2121
:100DE00000390B2100180B2000F80A1F00D90A1E39
:100DF00000BB0A1E009D0A1D00800A1D00630A1C1C
:100E000000470A1B002C0A1B00110A1A00F7091AD6
:100E100000DD091900C4091900AB0919009209176E
:100E2000007B091800630917004C091600360916E3
:100E300000200916000A091500F5081500E008143D
:100E400000CC081400B8081400A40814009008137B
:100E5000007D0812006B08130058081200460812A3
:100E600000340811002308110012081100010811B4
:100E700000F0071000E0071000D0071000C00710B6
:100E800000B0070F00A107100091070E0083070FA5
:100E90000074070F0065070E0057070E0049070E84
:100EA000003B070D002E070E0020070D0013070D55
:100EB0000006070D00F9060C00ED060D00E0060C1B
:100EC00000D4060C00C8060C00BC060C00B0060CD2
:100ED00000A4060B0099060C008D060B0082060B81
:100EE0000077060B006C060B0061060A0057060B24
:100EF000004C060A0042060A0038060A002E060ABE
:100F00000024060A001A060A001006090007060A4D
:100F100000FD050900F4050900EB050900E20509DB
:100F200000D9050900D0050900C7050900BE05095B
:100F300000B5050800AD050800A50509009C0508D9
:100F400000940508008C050800840508007C05084D
:100F500000740508006C050700650508005D0507BD
:100F600000560508004E0507004705070040050824
:100F70000038050700310507002A0507002305078B
:100F8000001C050600160507000F050700080506EA
:100F90000002050700FB040600F5040700EE040646
:100FA00000E8040600E2040700DB040600D504069E
:100FB00000CF040600C9040600C3040600BD0406F1
:100FC00000B7040600B1040500AC040600A6040640
:100FD00000A00405009B040600950405009004068B
:100FE000008A04050085040500800406007A0405D3
:100FF0000075040500700405006B04050066040517
:1010000000610405005C0405005704050052040556
:10101000004D04050048040500430405003E040497
:10102000003A04050035040500300404002C0405D2
:101030000027040400230405001E0404001A04040D
:101040000016040500110404000D04040009040541
:10105000000404040000040400FC030400F803047A
:1010600000F4030400F0030400EC030400E80304AC
:1010700000E4030400E0030400DC030400D80304DC
:1010800000D4030400D0030400CC030400C803030D
:1010900000C503030024F404D9201BC40C5C0E9883
:1010A00004C4095F0265077101F405F900FB04B38C
:1010B0000048048700C10369005803550003034535
:1010C00000BE023A008402310053022A00290225A0
:1010D0000004022000E4011C00C8011900AF011740
:1010E00000980114008401130071011000610110C7
:1010F0000051010E0043010D0036010B002B010BC6
:101100000020010B00150109000C01090003010872
:1011100000FB000800F3000800EB000700E40006F5
:1011200000DE000600D8000600D2000600CC000554
:1011300000C7000500C2000500BD000400B900049E
:1011400000B5000400B1000400AD000400A90004D3
:1011500000A5000300A20003009F0004009B000301
:101160000098000300950002009300030090000324
:10117000008D0002008B0003008800020086000240
:101180000084000300810002007F0002007D000255
:10119000007B000200790002007700010076000267
:1011A000007400020072000100710002006F000272
:1011B000006D0001006C0002006A0001006900027D
:1011C0000067000100660001006500010064000284
:1011D000006200010061000100600001005F000288
:1011E000005D0001005C0001005B0001005A00018D
:1011F000005900010058000100570001005600018D
:10120000005500010054000100530000005300018C
:10121000005200010051000100500001004F000188
:10122000004E0000004E0001004D0001004C000186
:10123000004B0000004B0001004A00010049000182
:10124000004800000048000100470001004600007F
:101250000046000100450000004500010044000177
:101260000043000000430001004200000042000172
:10127000004100000041000100400001003F00006B
:10128000003F0001003E0000003E0001003D000064
:10129000003D0001003C0000003C0000003C00015B
:1012A000003B0000003B0001003A0000003A000152
:1012B000003900000039000100380000003800004B
:1012C0000038000100370000003700010036000040
:1012D0000036000000360001003500000035000037
:1012E000003500010034000000340000003400012B
:1012F0000033000000330000003300010032000022
:101300000032000000320001003100000031000016
:10131000003100010030000000300000003000010A
:10132000002F0000002F0000002F0000002F000100
:10133000002E0000002E0000002E0001002D0000F5
:10134000002D0000002D0000002D0001002C0000E9
:10135000002C0000002C0000002C0001002B0000DD
:10136000002B0000002B0000002B0001002A0000D1
:10137000002A0000002A0000002A000100290000C5
:1013800000290000002900000029000000290001B8
:1013900000280000002800000028000000280000AD
:1013A000002800010027000000270000002700009F
:1013B0000027000000270001002600000026000092
:1013C0000026000000260000002600010025000085
:1013D0000025000000250000002500000025000079
:1013E000002500010024000000240000002400006B
:1013F000002400000024000100230000002300005E
:101400000023000000230000002300000023000050
:101410000023000100220000002200000022000042
:101420000022000000220000002200010021000034
:101430000021000000210000002100000021000028
:101440000021000000210001002000000020000019
:10145000002000000020000000200000002000000C
:101460000020000000200001001F0000001F0000FD
:10147000001F0000001F0000001F0000001F0000F0
:10148000001F0001001E0000001E0000001E0000E2
:10149000001E00000000955A11241FBECFEFD1E2BC
:1014A000DEBFCDBF00E00CBF14E0A0E0B2E0EEE68E
:1014B000FBEC00E00BBF02C007900D92A432B10715
:1014C000D9F72DE0A4E2B4E001C01D92AF33B2071A
:1014D000E1F71AE0CCE4DAE000E006C02197010968
:1014E000802FFE010E947765CB34D10780E008078A
:1014F000A9F70E9447410C94B5650C940000FC01CB
:10150000CB01BA012491222341F03091C00035FF74
:10151000FCCF2093C6003196F5CF4AE00C94F73DFE
:10152000EF92FF921F93CF93DF937C01C62FD72FAB
:10153000142F160FF701808191810E9466618993B3
:10154000F701808191810196918380831C13F2CFF2
:10155000DF91CF911F91FF90EF900895FC01CB0197
:10156000BA012491222341F03091C00035FFFCCF15
:101570002093C6003196F5CF42E00C947E3E1F9238
:101580000F920FB60F9211240BB60F922F933F9329
:101590004F936F937F938F939F93EF93FF9340911C
:1015A000C6002091CC073091CD07C90101968F77F5
:1015B00099276091CE077091CF078617970741F062
:1015C000F901E45BF84F40839093CD078093CC07FB
:1015D000FF91EF919F918F917F916F914F913F91EB
:1015E0002F910F900BBE0F900FBE0F901F9018956C
:1015F000AF92BF92CF92DF92EF92FF920F931F9321
:10160000CF93DF93CDB7DEB7E0970FB6F894DEBF88
:101610000FBECDBF80E1EBE8F2E0DE0191960190D4
:101620000D928A95E1F780E1EBE9F2E0DE01519657
:1016300001900D928A95E1F780E1EBEAF2E0DE019C
:10164000119601900D928A95E1F7DE01919664E280
:101650007DE0AE014F5E5F4F2BE636E0CE01019696
:101660005C0188E496E08E010F5C1F4FCD90DD9009
:10167000ED90FD90FB01C192D192E192F192BF01F8
:10168000FA01C190D190E190F190AF01F901C192BE
:10169000D192E192F1929F01F501C190D190E19038
:1016A000F1905F01FC01C192D192E192F192CF01E0
:1016B000A017B107D9F60E94AF3D80E090E0A8E402
:1016C000B3E48093440690934506A0934606B093F6
:1016D000470680E090E8ABE3B5E480934006909342
:1016E0004106A0934206B093430610923C06109226
:1016F0003D0610923E0610923F0680E29EE4A0E076
:10170000B0E08093340690933506A0933606B093EC
:101710003706109238061092390610923A06109247
:101720003B0680E090E0A0E7B1E480933006909320
:101730003106A0933206B09333068DEC9CECACECF2
:10174000BEE380932C0690932D06A0932E06B093B3
:101750002F0680E090E0A0EAB0E480937B069093AF
:101760007C06A0937D06B0937E0610929806109298
:10177000990610929A0610929B0610929406109267
:101780009506109296061092970610929006109267
:10179000910610929206109293068AE999E9A1EBBC
:1017A000B1E48093110290931202A0931302B093BC
:1017B000140286EA91E3A5E3BEE380930D029093C1
:1017C0000E02A0930F02B093100280E493EFADE2FB
:1017D000B4E48093090290930A02A0930B02B093A1
:1017E0000C020E94D31B80E090E0A0E8BFE380934E
:1017F000050290930602A0930702B093080210928C
:10180000580680E090E0A0E4B0E480931902909341
:101810001A02A0931B02B0931C020E94152DE3EA4A
:10182000F4E08491882341F09091C00095FFFCCFB3
:101830008093C6003196F5CFEBE8F6E084918823DB
:1018400041F09091C00095FFFCCF8093C600319687
:10185000F5CF8091C00085FFFCCF8AE08093C60061
:10186000E0960FB6F894DEBF0FBECDBFDF91CF91EB
:101870001F910F91FF90EF90DF90CF90BF90AF90AE
:101880000895CF93DF93C3EAD4E0FE0184918823C7
:1018900041F09091C00095FFFCCF8093C600319637
:1018A000F5CFE1E6F6E08491882341F09091C00005
:1018B00095FFFCCF8093C6003196F5CF8091C00094
:1018C00085FFFCCF8AE08093C600FE018491E3EAA5
:1018D000F4E0882349F09091C00095FFFCCF8093FD
:1018E000C60031968491F5CF4091240D5091250D7D
:1018F0006091260D7091270D89E596E02FDE4091CD
:10190000280D5091290D60912A0D70912B0D86E5BF
:1019100096E024DE40912C0D50912D0D60912E0DFE
:1019200070912F0D83E596E019DE4091300D5091B6
:10193000310D6091320D7091330D80E596E00EDE31
:101940008091C00085FFFCCF8AE08093C600FE0135
:101950008491E3EAF4E0882349F09091C00095FF78
:10196000FCCF8093C60031968491F5CFE6E3F6E094
:101970008491882341F09091C00095FFFCCF809323
:10198000C6003196F5CF8091C00085FFFCCF8AE07C
:101990008093C600FE018491E3EAF4E0882349F0D5
:1019A0009091C00095FFFCCF8093C6003196849142
:1019B000F5CF40916B0650916C0660916D06709169
:1019C0006E068DE296E0CADD40916F06509170067A
:1019D00060917106709172068AE296E0BFDD4091D7
:1019E000730650917406609175067091760687E2D1
:1019F00096E0B4DD409177065091780660917906C3
:101A000070917A0684E296E0A9DD8091C00085FF9E
:101A1000FCCF8AE08093C600FE018491E3EAF4E003
:101A2000882349F09091C00095FFFCCF8093C600B9
:101A300031968491F5CFE6E0F6E08491882341F079
:101A40009091C00095FFFCCF8093C6003196F5CFF2
:101A50008091C00085FFFCCF8AE08093C600FE0124
:101A60008491E3EAF4E0882349F09091C00095FF67
:101A7000FCCF8093C60031968491F5CF4091480603
:101A80005091490660914A0670914B068DEF95E0A2
:101A900036DD40914C0650914D0660914E06709196
:101AA0004F068AEF95E02BDD40915006509151068C
:101AB000609152067091530687EF95E020DD4091CA
:101AC000540650915506609156067091570684EF62
:101AD00095E015DD8091C00085FFFCCF8AE0809302
:101AE000C600FE018491E3EAF4E0882349F0909176
:101AF000C00095FFFCCF8093C60031968491F5CF4E
:101B0000EFEBF5E08491882341F09091C00095FFC0
:101B1000FCCF8093C6003196F5CF8091C00085FF41
:101B2000FCCF8AE08093C600FE018491E3EAF4E0F2
:101B3000882349F09091C00095FFFCCF8093C600A8
:101B400031968491F5CF40914406509145066091BD
:101B500046067091470686EB95E000DD4091400611
:101B600050914106609142067091430683EB95E0E7
:101B7000F5DC8091C00085FFFCCF8AE08093C60031
:101B8000FE018491E3EAF4E0882349F09091C000DB
:101B900095FFFCCF8093C60031968491F5CFE0E0AD
:101BA000F5E08491882341F09091C00095FFFCCF2F
:101BB0008093C6003196F5CF8091C00085FFFCCFA1
:101BC0008AE08093C600FE018491E3EAF4E0882372
:101BD00049F09091C00095FFFCCF8093C6003196EC
:101BE0008491F5CF40913C0650913D0660913E06B0
:101BF00070913F0687EF94E0B1DC40913806509138
:101C0000390660913A0670913B0684EF94E0A6DCB9
:101C10004091340650913506609136067091370632
:101C200081EF94E06CDC4091300650913106609178
:101C30003206709133068EEE94E090DC40912C06D3
:101C400050912D0660912E0670912F068BEE94E038
:101C500085DC40917B0650917C0660917D067091F9
:101C60007E0688EE94E07ADC8091C00085FFFCCF90
:101C70008AE08093C600FE018491E3EAF4E08823C1
:101C800049F09091C00095FFFCCF8093C60031963B
:101C90008491F5CFE6EDF4E08491882341F09091B2
:101CA000C00095FFFCCF8093C6003196F5CF8091A0
:101CB000C00085FFFCCF8AE08093C600FE018491BE
:101CC000E3EAF4E0882349F09091C00095FFFCCF4F
:101CD0008093C60031968491F5CF40919006509143
:101CE000910660919206709193068DEC94E036DC3B
:101CF00040919406509195066091960670919706D2
:101D00008AEC94E02BDC4091980650919906609102
:101D10009A0670919B0687EC94E020DC8091C000CD
:101D200085FFFCCF8AE08093C600FE018491E3EA40
:101D3000F4E0882349F09091C00095FFFCCF809398
:101D4000C60031968491F5CFE9EBF4E084918823C5
:101D500041F09091C00095FFFCCF8093C600319672
:101D6000F5CF8091C00085FFFCCF8AE08093C6004C
:101D7000FE01C491E3EAF4E0CC2349F08091C00075
:101D800085FFFCCFC093C6003196C491F5CF40913A
:101D900011025091120260911302709114028FEAA5
:101DA00094E0DCDB2CEA35EC47E25EE360910D0267
:101DB00070910E0280910F02909110020E94C562F4
:101DC000AB01BC018CEA94E0C9DB2CEA35EC47E2BC
:101DD0005EE36091090270910A0280910B0290917A
:101DE0000C020E94B95AAB01BC0189EA94E0B6DB4F
:101DF0008091C00085FFFCCF8AE08093C600DF9110
:101E0000CF910895CF93DF93CDB7DEB768970FB624
:101E1000F894DEBF0FBECDBF84E690E0988F8F8B25
:101E200086E591E3A3E3B0E089839A83AB83BC8327
:101E300044E0BE016B5F7F4FCE01479671DB43E00C
:101E400050E0BE016B5F7F4FCE0101960E94A765F7
:101E5000892B09F0C5C040E164E27DE0CE014796E0
:101E60005FDB40E16BE676E0CE01479659DB40E16F
:101E700068E476E0CE01479653DB0E94AF3D44E034
:101E800064E476E0CE0147964BDB44E060E476E024
:101E9000CE01479645DB44E06CE376E0CE01479601
:101EA0003FDB44E068E376E0CE01479639DB44E06F
:101EB00064E376E0CE01479633DB44E060E376E00E
:101EC000CE0147962DDB44E06CE276E0CE014796EA
:101ED00027DB44E06BE776E0CE01479621DB4CE060
:101EE00060E976E0CE0147961BDB42E0BE016B5E07
:101EF0007F4FCE01479614DB42E0BE016D5E7F4FFF
:101F0000CE0147960DDB42E0BE016F5E7F4FCE01F2
:101F1000479606DB42E0BE01615F7F4FCE014796E8
:101F2000FFDA42E0BE01635F7F4FCE014796F8DAE9
:101F300042E0BE01655F7F4FCE014796F1DA44E093
:101F40006FE176E0CE014796EBDA44E061E172E0C2
:101F5000CE014796E5DA44E06DE072E0CE014796A7
:101F6000DFDA44E069E072E0CE014796D9DA42E078
:101F7000BE01675F7F4FCE014796D2DA41E068E548
:101F800076E0CE014796CCDA44E069E172E0CE011A
:101F90004796C6DA0E94152D0E94D31BE3EAF4E0AF
:101FA0008491882341F09091C00095FFFCCF8093ED
:101FB000C6003196F5CFE1E7F6E08491882341F041
:101FC0009091C00095FFFCCF8093C6003196F5CF6D
:101FD0008091C00085FFFCCF8AE08093C60001C0DD
:101FE00007DB4FDC68960FB6F894DEBF0FBECDBF9F
:101FF000DF91CF910895CF93DF931F921F92CDB7BA
:10200000DEB7269A2E9882E08093C0001092C50019
:1020100087E08093C4008091C10080618093C100FB
:102020008091C10088608093C1008091C100806868
:102030008093C100EAE8F7E08491882341F0909111
:10204000C00095FFFCCF8093C6003196F5CF8091FC
:10205000C00085FFFCCF8AE08093C60083EA94E04D
:10206000FC012491222341F03091C00035FFFCCFC8
:102070002093C6003196F5CF24B720FF14C0E2E8C4
:10208000F7E03491332341F04091C00045FFFCCF8D
:102090003093C6003196F5CF3091C00035FFFCCFAC
:1020A0003AE03093C60021FF14C0E2E7F7E0349134
:1020B000332341F04091C00045FFFCCF3093C60070
:1020C0003196F5CF3091C00035FFFCCF3AE0309328
:1020D000C60022FF14C0E1E6F7E03491332341F05B
:1020E0004091C00045FFFCCF3093C6003196F5CF3C
:1020F0003091C00035FFFCCF3AE03093C60023FF9B
:1021000014C0E1E5F7E03491332341F04091C00081
:1021100045FFFCCF3093C6003196F5CF3091C0001B
:1021200035FFFCCF3AE03093C60025FF14C0E1E450
:10213000F7E02491222341F03091C00035FFFCCF1D
:102140002093C6003196F5CF2091C00025FFFCCF2B
:102150002AE02093C60014BEEAE3F7E0249122238C
:1021600041F03091C00035FFFCCF2093C60031967E
:10217000F5CFE2E3F7E02491222341F03091C00053
:1021800035FFFCCF2093C6003196F5CF2091C000DB
:1021900025FFFCCF2AE02093C600FC012491E3EA4E
:1021A000F4E0222349F03091C00035FFFCCF2093AA
:1021B000C60031962491F5CFE2E2F7E02491222384
:1021C00041F03091C00035FFFCCF2093C60031961E
:1021D000F5CFEDE0F7E02491222341F03091C000EB
:1021E00035FFFCCF2093C6003196F5CFE1E0F7E054
:1021F0002491222341F03091C00035FFFCCF209381
:10220000C6003196F5CFEAEEF6E02491222341F0A4
:102210003091C00035FFFCCF2093C6003196F5CF3A
:102220002091C00025FFFCCF2AE02093C600EFEDEF
:10223000F6E02491222341F03091C00035FFFCCF1D
:102240002093C6003196F5CFE3EDF6E024912223EA
:1022500041F03091C00035FFFCCF2093C60031968D
:10226000F5CF2091C00025FFFCCF2AE02093C600C7
:10227000FC018491E3EAF4E0882349F09091C000E6
:1022800095FFFCCF8093C60031968491F5CFE4ECA6
:10229000F6E08491882341F09091C00095FFFCCF37
:1022A0008093C6003196F5CF2091390D30913A0DCB
:1022B000CE0101962115310519F48F539D4002C0BE
:1022C000821B930B9A83898369817A81072E000C84
:1022D000880B990B0E946C3EEDEAF6E0849188230E
:1022E00041F09091C00095FFFCCF8093C6003196DD
:1022F000F5CF60ED74E080E090E00E946C3E80914C
:10230000C00085FFFCCF8AE08093C60010923207A0
:1023100010923307109234071092350773DD109234
:10232000D4061092D5061092D6061092D7062091A8
:102330000D0230910E0240910F025091100260E0A8
:1023400070E08FE793E40E94C5626093D0067093BB
:10235000D1068093D2069093D306249A80910101EE
:10236000806280930101809101018064809301016A
:1023700087ED80937A0010927E0010927D0080910C
:102380007D00806280937D0080917D0080688093D5
:102390007D0080917D00806480937D0080E888BD11
:1023A00080916E00846080936E006AEF70E080E040
:1023B00090E095D385E090E09093CF068093CE0691
:1023C00060E08091270290912802EAD620E030E078
:1023D00040EA50E40E94645E87FF0AC080912702B1
:1023E0009091280240979093280280932702E8CF8B
:1023F00083E191E0909326028093250260E0809132
:10240000DA069091DB06CCD620E030E849E853E4C8
:102410000E941464181654F48091DA069091DB0639
:1024200040969093DB068093DA06E8CF8091D80639
:102430009091D90616D620E030E046E153E40E94A0
:102440001464181654F48091D8069091D9064096D9
:102450009093D9068093D806E9CF1092D50C1092AC
:10246000D40C80E1E4E1FDE0DF011D928A95E9F7FB
:102470001092000D1092010D1092020D1092030D9A
:102480001092040D1092050D1092060D1092070D7A
:102490001092080D1092090D10920A0D10920B0D5A
:1024A00010920C0D10920D0D10920E0D10920F0D3A
:1024B0001092100D1092110D1092120D1092130D1A
:1024C000819A879A80910A01826080930A010E9A0C
:1024D0003B9A579A5F9A829A8A9A80910701816003
:1024E000809307019FB7F8948091080181608093E1
:1024F00008019FBF0A9A129A3F9A479A6D98759A57
:10250000809104018D7F809304019FB7F89480919E
:1025100005018260809305019FBF53985B9A6C9878
:10252000749A809104018E7F809304019FB7F89480
:10253000809105018160809305019FBF52985A9A4E
:10254000809A88985F9A1092D10C869A8E988A9A6F
:102550001092D20C80910A01886080930A019FB783
:10256000F89480910B01877F80930B019FBF9FB7E9
:10257000F894809108018160809308019FBF1092B8
:10258000D30C0C9A1498129A399A41988091810030
:102590008F7E80938100809181008860809381008C
:1025A000809180008D7F80938000809180008E7F5D
:1025B00080938000809180008F7380938000809151
:1025C00080008F7C8093800080918100887F826072
:1025D0008093810080E090E490938900809388004C
:1025E000109285001092840080916F008260809329
:1025F0006F0081E08093000278946BE070E083E2EA
:1026000096E00E94AC2A66E070E086E296E00E94C6
:10261000AC2A65E070E089E296E00E94AC2ABFEF48
:10262000E3EDF0E3B150E040F040E1F700C000001E
:102630000F900F90DF91CF910895EF92FF921F932B
:10264000CF93DF937C01C62FD72F142F160F6991DC
:10265000F701808191810E946E61F70180819181F3
:102660000196918380831C13F2CFDF91CF911F914C
:10267000FF90EF90089590E0FC013197E231F10571
:1026800008F04EC08827EE58FF4F8F4F0C947765A7
:10269000809180008F7703C0809180008F7D809330
:1026A0008000089580918000877FF9CF84B58F776F
:1026B00002C084B58F7D84BD08958091B0008F776E
:1026C00003C08091B0008F7D8093B0000895809109
:1026D00090008F7707C0809190008F7D03C080911C
:1026E0009000877F8093900008958091A0008F775D
:1026F00007C08091A0008F7D03C08091A000877FDC
:102700008093A0000895809120018F7707C0809169
:1027100020018F7D03C080912001877F809320015D
:1027200008953FB7F89480911B0790911C07A091E2
:102730001D07B0911E0726B5A89B05C02F3F19F0B5
:102740000196A11DB11D3FBFBA2FA92F982F882731
:10275000820F911DA11DB11DBC01CD0142E0660F8C
:10276000771F881F991F4A95D1F708958130A1F0EE
:1027700018F0823001F108955F988FB1827066235E
:1027800011F0899A01C08998889A8898882311F055
:10279000899A0895899808958A988FB1662311F0CF
:1027A0008F9A01C08F988E9A8E9887FF02C08F9A59
:1027B00008958F9808959FB7F894809108018E7FAF
:1027C000809308019FBF8091090182702FB7662313
:1027D00029F0F89490910B01926004C0F8949091C4
:1027E0000B019D7F90930B012FBF2FB7F894909111
:1027F0000B01986090930B012FBF2FB7F894909125
:102800000B01977F90930B012FBF9FB7882329F06F
:10281000F89480910B01826004C0F89480910B01C0
:102820008D7F80930B019FBF0895CF93DF93282F57
:1028300030E0F901EA5EF54F8491F901E053F64F7B
:10284000D491F901E657F64FC491CC2389F0811158
:1028500012DFEC2FF0E0EE0FFF1FE059F64FA591CD
:10286000B491EC91ED2381E090E021F480E002C08E
:1028700080E090E0DF91CF9108951F93CF93DF9395
:10288000282F30E0F901EA5EF54F8491F901E05319
:10289000F64FD491F901E657F64FC491CC23C1F01D
:1028A000162F8111E8DEEC2FF0E0EE0FFF1FEA5A41
:1028B000F64FA591B4918FB7F894111105C09C9172
:1028C000ED2FE095E92302C0EC91ED2BEC938FBF47
:1028D000DF91CF911F910895CF93DF9390E0FC019A
:1028E000E053F64F2491FC01E657F64F849188237C
:1028F00061F190E0880F991FFC01E45CF64FC591EF
:10290000D491FC01EA5AF64FA591B491611109C026
:102910009FB7F8948881209582238883EC912E2399
:102920000BC0623061F49FB7F8943881822F809594
:1029300083238883EC912E2B2C939FBF06C08FB7E7
:10294000F894E8812E2B28838FBFDF91CF910895D3
:102950001F93CF93DF93182FEB0161E0BDDF20972A
:1029600011F460E004C0CF3FD10531F461E0812F64
:10297000DF91CF911F9181CFE12FF0E0EA5EF54F1B
:10298000E4914E2F50E0FA013197E231F10508F061
:102990009DC08827EC57FF4F8F4F0C94776584B507
:1029A000806884BDC7BD97C084B5806284BDC8BD42
:1029B00092C080918000806880938000D0938900CD
:1029C000C093880088C080918000806280938000DE
:1029D000D0938B00C0938A007EC080918000886075
:1029E00080938000D0938D00C0938C0074C0809140
:1029F000B00080688093B000C093B3006CC0809139
:102A0000B00080628093B000C093B40064C0809135
:102A10009000806880939000D0939900C0939800B4
:102A20005AC080919000806280939000D0939B0068
:102A3000C0939A0050C0809190008860809390006D
:102A4000D0939D00C0939C0046C08091A0008068F8
:102A50008093A0008091A0008F7B8093A000D093F2
:102A6000A900C093A80037C08091A0008062809325
:102A7000A000D093AB00C093AA002DC08091A0000D
:102A800088608093A000D093AD00C093AC0023C0B9
:102A900080912001806880932001D0932901C09308
:102AA000280119C080912001806280932001D09379
:102AB0002B01C0932A010FC0809120018860809370
:102AC0002001D0932D01C0932C0105C0C038D10541
:102AD0000CF04CCF46CFDF91CF911F9108958F928C
:102AE0009F92AF92BF92CF92DF92EF92FF926B01D3
:102AF0007C0117DE4B015C01C114D104E104F10437
:102B0000E9F00FDEDC01CB0188199909AA09BB099C
:102B1000883E9340A105B10578F321E0C21AD1089F
:102B2000E108F10888EE880E83E0981EA11CB11C14
:102B3000C114D104E104F10421F7DECFFF90EF903E
:102B4000DF90CF90BF90AF909F908F9008952FB758
:102B5000F894609117077091180780911907909168
:102B60001A072FBF08951F920F920FB60F921124CC
:102B70002F933F938F939F93AF93BF9380911707AA
:102B800090911807A0911907B0911A073091160774
:102B900023E0230F2D3720F40196A11DB11D05C0A0
:102BA00026E8230F0296A11DB11D209316078093DE
:102BB000170790931807A0931907B0931A078091ED
:102BC0001B0790911C07A0911D07B0911E0701964D
:102BD000A11DB11D80931B0790931C07A0931D0797
:102BE000B0931E07BF91AF919F918F913F912F910D
:102BF0000F900FBE0F901F9018951092FD07109226
:102C0000FC0710928C0610928B06109291042C985F
:102C100010928C0610928B06109292049FB7F89433
:102C2000E2E0F1E080818F7D80839FBF08951F9255
:102C30000F920FB60F9211240BB60F920F931F93A2
:102C40002F933F934F935F936F937F938F939F93B4
:102C5000AF93BF93CF93DF93EF93FF9380912A02BB
:102C600081111CC08091910480931507882311F075
:102C70002C9A01C02C9880919204809314079FB7DE
:102C8000882329F0F89480910201806204C0F894AE
:102C9000809102018F7D809302019FBF9091150763
:102CA00080912A02981708F42C989091140780912B
:102CB0002A02981740F49FB7F894809102018F7D03
:102CC000809302019FBF80912A028F5F8F7780934C
:102CD0002A028091290290E08B30910508F08EC085
:102CE000FC018827EA56FF4F8F4F0C94776588E0E8
:102CF00080937B0085E480937C0080917A008064DF
:102D000080937A0081E019C0209178003091790099
:102D10008091100790911107A0911207B0911307AD
:102D2000820F931FA11DB11D80931007909311076F
:102D3000A0931207B093130782E0809329025EC02C
:102D400088E080937B0086E480937C0080917A0009
:102D5000806480937A0083E0F0CF209178003091F6
:102D6000790080910C0790910D07A0910E07B0910A
:102D70000F07820F931FA11DB11D80930C07909325
:102D80000D07A0930E07B0930F0784E0D6CF88E01D
:102D900080937B0087E480937C0080917A0080643C
:102DA00080937A0085E0C9CF209178003091790036
:102DB0008091080790910907A0910A07B0910B072D
:102DC000820F931FA11DB11D8093080790930907DF
:102DD000A0930A07B0930B0786E0AFCF87E0ADCF93
:102DE00088E0ABCF89E0A9CF109229028091070734
:102DF0008F5F8093070702C0109229028091070716
:102E0000803108F4F5C080919004811110C0809148
:102E10001007909111079093060780930507809102
:102E20000C0790910D07909304078093030781E0AE
:102E300080939004109207071092100710921107C8
:102E400010921207109213071092080710920907A8
:102E500010920A0710920B071092FF0610920007BB
:102E6000109201071092020710920C0710920D07A2
:102E700010920E0710920F07209105073091060758
:102E80008091DA069091DB0682179307A4F1B5DEF4
:102E90008091AC0681112DC0E5E3F9E0849188238F
:102EA00041F09091C00095FFFCCF8093C600319611
:102EB000F5CF60E070E0CB010E946C3E8091C000D5
:102EC00085FFFCCF8AE08093C600E1EAF8E08491B8
:102ED000882341F09091C00095FFFCCF8093C600FD
:102EE0003196F5CF8091C00085FFFCCF8AE08093BA
:102EF000C6000E94E12D20910507309106078091C0
:102F000027029091280228173907A4F176DE8091D4
:102F1000AC0681112DC0E5E3F9E08491882341F0EE
:102F20009091C00095FFFCCF8093C6003196F5CFFD
:102F300060E070E0CB010E946C3E8091C00085FF94
:102F4000FCCF8AE08093C600EEECF8E08491882301
:102F500041F09091C00095FFFCCF8093C600319660
:102F6000F5CF8091C00085FFFCCF8AE08093C6003A
:102F70000E94E12D20910307309104078091D8062B
:102F80009091D906821793079CF110928C061092AB
:102F90008B069FB7F894809102018F7D8093020188
:102FA0009FBF8091AC06811121C0E5E3F9E08491D7
:102FB000882341F09091C00095FFFCCF8093C6001C
:102FC0003196F5CFEBEFF8E08491882341F09091B2
:102FD000C00095FFFCCF8093C6003196F5CF80915D
:102FE000C00085FFFCCF8AE08093C6000E94E12DDF
:102FF00000E010E0E801CC0FDD1FC750D94F8881F9
:103000009981181619063CF461E0802FAFDB8881A6
:103010009981019708C0892B41F060E0802FA6DBE1
:10302000888199810196998388830F5F1F4F0330B0
:10303000110501F7FF91EF91DF91CF91BF91AF9112
:103040009F918F917F916F915F914F913F912F91C0
:103050001F910F910F900BBE0F900FBE0F901F90FE
:1030600018952F923F924F925F926F927F928F921C
:103070009F92AF92BF92CF92DF92EF92FF920F9307
:103080001F93CF93DF93EC0141EB57E081E090E099
:10309000FA0125913491C217D3070CF05DC09C0151
:1030A00021503109220F331F220F331FD901A1559F
:1030B000B84FFD01659174912355384FF901A590E2
:1030C000B490FC01EE0FFF1FEE0FFF1FE155F84F0C
:1030D000E590F490FD01C590D490FA01059114910A
:1030E000F90125903490072E000C880B990B0E9453
:1030F0006A5E2B013C01CA19DB09BE01DD0F880B9A
:10310000990B0E946A5E4B015C01B7016C197D0945
:10311000072E000C880B990B0E946A5E9B01AC0184
:10312000C501B4010E94B95A6B017C01B801621952
:103130007309072E000C880B990B0E946A5E9B0195
:10314000AC01C701B6010E94C5629B01AC01C3017D
:10315000B2010E94E96111C001964C5F5F4F8D334F
:10316000910509F095CFEFE9F8E065917491072E8C
:10317000000C880B990B0E946A5EDF91CF911F9122
:103180000F91FF90EF90DF90CF90BF90AF909F9006
:103190008F907F906F905F904F903F902F90089509
:1031A0002F923F924F925F926F927F928F929F9257
:1031B000AF92BF92CF92DF92EF92FF920F931F9345
:1031C000CF93DF93EC01662341F1E5E3F9E08491CD
:1031D000882341F09091C00095FFFCCF8093C600FA
:1031E0003196F5CF70E080E090E00E946C3EE0E91F
:1031F000F7E08491882341F09091C00095FFFCCFC7
:103200008093C6003196F5CF8091C00085FFFCCF3A
:103210008AE08093C6000E941C2E41EB57E081E0BB
:1032200090E0FA0125913491C217D3070CF05DC0EC
:103230009C0121503109220F331F220F331FD90166
:10324000A155B84FFD01659174912355384FF9018F
:10325000A590B490FC01EE0FFF1FEE0FFF1FE1558C
:10326000F84FE590F490FD01C590D490FA010591D6
:103270001491F90125903490072E000C880B990BBE
:103280000E946A5E2B013C01CA19DB09BE01DD0FF9
:10329000880B990B0E946A5E4B015C01B7016C19A7
:1032A0007D09072E000C880B990B0E946A5E9B011A
:1032B000AC01C501B4010E94B95A6B017C01B8018F
:1032C00062197309072E000C880B990B0E946A5E25
:1032D0009B01AC01C701B6010E94C5629B01AC0114
:1032E000C301B2010E94E96111C001964C5F5F4FBA
:1032F0008D33910509F095CFEFE9F8E06591749170
:10330000072E000C880B990B0E946A5EDF91CF910B
:103310001F910F91FF90EF90DF90CF90BF90AF90F3
:103320009F908F907F906F905F904F903F902F90E5
:10333000089560E0809105079091060731DF609362
:103340008706709388068093890690938A068091F9
:1033500003079091040785DE6093830670938406CB
:1033600080938506909386068FB7F8941092900408
:103370008FBF08952F923F924F925F926F927F92EC
:103380008F929F92AF92BF92CF92DF92EF92FF9275
:103390000F931F93CF93DF93CDB7DEB728970FB668
:1033A000F894DEBF0FBECDBF80919004882309F44E
:1033B000E1C1BFDF8090870690908806A0908906C3
:1033C000B0908A060091FC071091FD07B801012E0C
:1033D000000C880B990B0E946A5EA50194010E9463
:1033E000E8616B017C016093F5067093F6068093AB
:1033F000F7069093F80620E030E040E251E40E94A6
:103400001464181624F481E08093F406F7C020E0D9
:1034100030E040E251ECC701B6010E94645E87FDD6
:1034200002C0012B21F481E08093F4060CC180914D
:10343000F406882351F01092F0061092F1061092D3
:10344000F2061092F3061092F406209111023091C8
:1034500012024091130250911402C701B6010E945A
:10346000B95A69837A838B839C836093EC0670934B
:10347000ED068093EE069093EF062091F0063091D2
:10348000F1064091F2065091F306C701B6010E9481
:10349000E9612B013C012090D4063090D5061091B3
:1034A000D6060091D7069101412F502F0E94645EED
:1034B00087FD14C02090D0063090D1061091D2061E
:1034C0000091D3069101412F502FB201C3010E94F8
:1034D000146418161CF01201162D072DC101A12F1E
:1034E000B02F8093F0069093F106A093F206B0936C
:1034F000F30620910D0230910E0240910F0250917F
:103500001002B101812F902F0E94B95A6D837E83E2
:103510008F8398876093E8067093E9068093EA06A4
:103520009093EB062091E4063091E5064091E60683
:103530005091E706C501B4010E94E861209109029B
:1035400030910A0240910B0250910C020E94B95A2C
:1035500020ED3CEC4CE45DE30E94B95A2B013C01A8
:1035600023E333E343E75FE36091E0067091E10614
:103570008091E2069091E3060E94B95A9B01AC014A
:10358000C301B2010E94E9612B013C016093E00696
:103590007093E1068093E2069093E3062D813E81CD
:1035A0004F81588569817A818B819C810E94E96174
:1035B000A30192010E94E8612B013C0120E030E070
:1035C0004FE753E40E94146420E030E0A90118168C
:1035D000E4F4C701B6010E94146418167CF4A70134
:1035E0009601B101812F902F0E94E8616093F0064F
:1035F0007093F1068093F2069093F306412C512CC0
:103600009FE7692E93E4792E21C0C301B2010E9485
:10361000645E87FF1BC020E030E0A901C701B6014E
:103620000E94645E87FF0FC0A7019601B101812F40
:10363000902F0E94E8616093F0067093F1068093EA
:10364000F2069093F306412C512C32018092E4064D
:103650009092E506A092E606B092E7066091CE064B
:103660007091CF06072E000C880B990B0E946A5EA2
:103670009B01AC01C501B4010E9414641816DCF46E
:103680006091250270912602072E000C880B990B81
:103690000E946A5E9B01AC01C501B4010E94645E98
:1036A00087FF09C0C301B2010E942D63759567951C
:1036B0006093910402C01092910449DA0091DC06F3
:1036C0001091DD062091DE063091DF06DC01CB0192
:1036D000801B910BA20BB30B88389341A105B10558
:1036E00008F448C034DA6093DC067093DD068093FA
:1036F000DE069093DF06C0908306D0908406E090AB
:103700008506F090860620E030E040EA50E4C701EC
:10371000B6010E94146418161CF520E030E046E162
:1037200053E4C701B6010E94645E87FF19C060912F
:103730008B0670918C06072E000C880B990B0E944B
:103740006A5E9B01AC01C701B6010E94146487FD4B
:1037500003C0109292040EC08FE3809392040AC0BB
:10376000109292049FB7F894809102018F7D80930C
:1037700002019FBF28960FB6F894DEBF0FBECDBFE3
:10378000DF91CF911F910F91FF90EF90DF90CF903D
:10379000BF90AF909F908F907F906F905F904F9071
:1037A0003F902F90089520910D0230910E0240918C
:1037B0000F025091100260E070E08FE793E40E94E6
:1037C000C5626093D0067093D1068093D206909321
:1037D000D30608959091D50C8091D40C981721F0C0
:1037E000C9DD0E94B23FF6CF0895F4DF5F9AE1EDA4
:1037F000FCE010828A9A11829FB7F894A8E0B1E0A9
:103800008C9181608C939FBF1282129A08952F929F
:103810003F924F925F926F927F928F929F92AF9260
:10382000BF92CF92DF92EF92FF920F931F93CF93AD
:10383000DF93CDB7DEB768970FB6F894DEBF0FBE43
:10384000CDBF1C012A013B0148015901DC01D8967A
:103850006D917D918D919C91DB970E94685E6B01CB
:103860007C01A30192010E94B95A0E94AF620E949A
:10387000326369877A878B879C87A5019401C7018A
:10388000B6010E94B95A0E94AF620E9432636D87EE
:103890007E878F87988B29853A854B855C8528376D
:1038A00031054105510540F488E790E0A0E0B0E023
:1038B00089879A87AB87BC872D853E854F85588938
:1038C000283731054105510540F488E790E0A0E034
:1038D000B0E08D879E87AF87B88B91012C5B3F4FFF
:1038E000D9018D919D910D90BC91A02D8D839E83CA
:1038F000AF83B887BC01CD010E946A5E69837A8379
:103900008B839C8369857A858B859C850E94685E04
:10391000698B7A8B8B8B9C8B20E030E0A9016981CD
:103920007A818B819C810E94645E882339F1A70192
:103930009601C701B6010E94B95A4B015C01298961
:103940003A894B895C89CA01B9010E94B95A9B0125
:10395000AC01C501B4010E94E8614B015C01298101
:103960003A814B815C81CA01B9010E94E9619B01E6
:10397000AC01C501B4010E94C56203C060E070E003
:10398000CB010E94AF620E942D632B013C016D812F
:103990007E818F81988590958095709561957F4FF8
:1039A0008F4F9F4F0E946A5E4B015C016D857E8543
:1039B0008F8598890E94685E6D837E838F83988748
:1039C00020E030E0A901C501B4010E94645E8823B3
:1039D00049F12D813E814F815885CA01B9010E946C
:1039E000B95A6D8B7E8B8F8B988FA7019601C7017B
:1039F000B6010E94B95A9B01AC016D897E898F89FD
:103A0000988D0E94E8616B017C01A5019401C501BC
:103A1000B4010E94E9619B01AC01C701B6010E949B
:103A2000C56203C060E070E0CB010E945E63F101FB
:103A300080889188A288B38875016401C418D5086C
:103A4000E608F7080E942D63C61AD70AE80AF90AA1
:103A5000F7FE6BC020E030E0A90169817A818B819B
:103A60009C810E94645E882309F447C029813A81C1
:103A70004B815C81CA01B9010E94E9616B017C0143
:103A8000C501B4010E94685E9B01AC01C701B6018B
:103A90000E94B95A6B017C0129893A894B895C895A
:103AA000CA01B9010E94B95A9B01AC01C701B60114
:103AB0000E94E8616B017C012D813E814F81588518
:103AC000CA01B9010E94B95A9B01AC01C701B601F4
:103AD0000E94E9616B017C0120E030E040E850E4A5
:103AE00069817A818B819C810E94B95A9B01AC01CA
:103AF000C701B6010E94C56203C060E070E0CB015F
:103B00000E94AF620E942D632B013C0197FF03C00E
:103B1000412C512C3201481459046A047B0410F0E2
:103B200024013501C12CD12C76018FB7F894F10115
:103B3000E45BFF4F9081911125C0D10154964D92C5
:103B40005D926D927C925797C40CD51CE61CF71CB5
:103B5000F101C08ED18EE28EF38E29853A854B8598
:103B60005C85DC962D933D934D935C93DF97A05C31
:103B7000BF4F2D853E854F8558892D933D934D939D
:103B80005C9313978FBF68960FB6F894DEBF0FBE95
:103B9000CDBFDF91CF911F910F91FF90EF90DF90FC
:103BA000CF90BF90AF909F908F907F906F905F90DD
:103BB0004F903F902F900895CF92DF92EF92FF9217
:103BC0000F931F93CF93DF936C018B017A01EC016C
:103BD000C45DD84F888187FF04C0FB011182108229
:103BE00024C08CE08C9D90018D9D300D1124888126
:103BF000A901480F511D87FD5A9580912B0790E030
:103C00004817590794F48881A901480F511D87FD71
:103C10005A95CA01FA01EE0FFF1F8E0F9F1FFC017C
:103C2000EC5DFB4F808186FD19C088818F5F8883A2
:103C30008CE08C9D90018D9D300D11248881A9010F
:103C4000480F511D87FD5A9580912B0790E048172A
:103C50005907BCF488818C3044F113C08881280F47
:103C6000311D87FD3A95F901EE0FFF1F2E0F3F1F03
:103C7000F901EC5DFB4F808160E08F730E943D1481
:103C8000D4CFF80180819181049680349C4918F446
:103C900080E49CE904C0F801808191810496F701D9
:103CA000918380838FEF888345C0F80140815181E3
:103CB0008881B901680F711D87FD7A95CB01FB01E1
:103CC000EE0FFF1F8E0F9F1FFC01EC5DFB4F8181EC
:103CD0009281840F951FF701918380838881A901C8
:103CE000480F511D87FD5A95CA01FA01EE0FFF1FBB
:103CF0008E0F9F1FFC01EC5DFB4F808186FF1AC079
:103D00008881280F311D87FD3A95F901EE0FFF1FBD
:103D10002E0F3F1FF901EC5DFB4F808161E08F7337
:103D2000DF91CF911F910F91FF90EF90DF90CF9097
:103D30000C943D14DF91CF911F910F91FF90EF9064
:103D4000DF90CF9008952F923F924F925F926F92A3
:103D50007F928F929F92AF92BF92CF92DF92EF921B
:103D6000FF920F931F93CF93DF93CDB7DEB7C15769
:103D7000D1090FB6F894DEBF0FBECDBF2C013B01B9
:103D80004A0159013E2C2F2CDEAACDAA8091D50CD8
:103D90008F5F68968FAF6897803119F468961FAE71
:103DA000689768962FAD6897E22E220FFF088091E2
:103DB000D40C90E08E159F0521F4DCDA0E94B23F0E
:103DC000F6CF2091240D3091250D4091260D509174
:103DD000270DD2016D917D918D919C910E94B95AD0
:103DE0000E94C1646C966CAF7DAF8EAF9FAF6C9735
:103DF0002091280D3091290D40912A0D50912B0DC5
:103E0000F30160817181828193810E94B95A0E947D
:103E1000C164A0966CAF7DAF8EAF9FAFA09720918D
:103E20002C0D30912D0D40912E0D50912F0DD40160
:103E30006D917D918D919C910E94B95A0E94C164AF
:103E4000A4966CAF7DAF8EAF9FAFA4972091300D3D
:103E50003091310D4091320D5091330DF50160815B
:103E60007181828193810E94B95A0E94C1642F9608
:103E70006CAF7DAF8EAF9FAF2F978091200D90914B
:103E8000210DA091220DB091230D2F962CAD3DADAB
:103E90004EAD5FAD2F97281739074A075B0709F426
:103EA000ADC0E0918E0634E0E39FF0011124E957A4
:103EB000F94F20910102309102024091030250918A
:103EC000040260817181828193810E94645E87FF18
:103ED0002FC02F964CAD5DAD6EAD7FAD2F9740934B
:103EE000200D5093210D6093220D7093230DE3EA72
:103EF000F4E08491882341F09091C00095FFFCCFBD
:103F00008093C6003196F5CFE9EBFAE084918823DF
:103F100041F09091C00095FFFCCF8093C600319690
:103F2000F5CF8091C00085FFFCCF8AE08093C6006A
:103F30008091200D9091210DA091220DB091230D23
:103F40002F962CAD3DAD4EAD5FAD2F97281B390B95
:103F50004A0B5B0BCA01B90157FF07C090958095CA
:103F6000709561957F4F8F4F9F4F0E946A5E6B01E6
:103F70007C0120E030E04EEB53E46091300D709115
:103F8000310D8091320D9091330D0E94B95A9B01F1
:103F9000AC01C701B6010E94146418167CF52F9677
:103FA0004CAD5DAD6EAD7FAD2F974093200D50931E
:103FB000210D6093220D7093230DE3EAF4E08491C8
:103FC000882341F09091C00095FFFCCF8093C600FC
:103FD0003196F5CFEBE9FAE08491882341F0909196
:103FE000C00095FFFCCF8093C6003196F5CF80913D
:103FF000C00085FFFCCF8AE08093C600E091D50C1D
:104000006E2F70E07CA36BA37DE4E79FF001112489
:10401000E55BF74F10828091140D9091150DA091E2
:10402000160DB091170D8DA39EA3AFA3B8A76C96E4
:10403000CCACDDACEEACFFAC6C97C81AD90AEA0A7E
:10404000FB0AF7FE08C0F094E094D094C094C11C21
:10405000D11CE11CF11C8DE4ABA1BCA18A9FF00135
:104060008B9FF00D1124E150F84FC082D182E28283
:10407000F3822091180D3091190D40911A0D509135
:104080001B0D29A73AA74BA75CA7A0968CAC9DACAB
:10409000AEACBFACA097821A930AA40AB50AB7FEC9
:1040A00008C0B094A09490948094811C911CA11C91
:1040B000B11C8DE44BA15CA1849FF001859FF00DA4
:1040C0001124E150F84F84829582A682B7826091D4
:1040D0001C0D70911D0D80911E0D90911F0D6DA7EF
:1040E0007EA78FA798ABA4964CAC5DAC6EAC7FACB2
:1040F000A497461A570A680A790A77FE08C070948E
:10410000609450944094411C511C611C711C8DE4BE
:10411000ABA1BCA18A9FF0018B9FF00D1124E1504F
:10412000F84F40865186628673862091200D30912B
:10413000210D4091220D5091230D29AB3AAB4BAB91
:104140005CAB2F966CAD7DAD8EAD9FAD2F97621B96
:10415000730B840B950B97FF07C090958095709516
:1041600061957F4F8F4F9F4F0E946A5EE0918E0650
:1041700034E0E39FF0011124E95CFD4F208131819F
:10418000428153810E94B95A0E942D639B01AC0168
:10419000A0911502B09116020E94D36124E630E08E
:1041A00040E050E00E94AD618DE46BA17CA1869F50
:1041B000F001879FF00D1124E150F84F24873587D7
:1041C00046875787C901DA0184159505A605B70505
:1041D00014F4D301C201B701A60188159905AA05F7
:1041E000BB0544F0C816D906EA06FB0654F4AC0138
:1041F000BD0107C0C814D904EA04FB0414F4B501D6
:10420000A4018DE4ABA1BCA18A9FF0018B9FF00DAE
:104210001124E150F84F408B518B628B738B4630E9
:1042200051056105710514F40C94922ADF01A85B15
:10423000BF4F4091CF0C5091D00C052E000C660B57
:10424000770B4D935D936D937C9313976C962CAD88
:104250003DAD4EAD5FAD6C976DA17EA18FA198A5D0
:10426000261737074807590714F010A202C081E04B
:1042700080A3A0968CAD9DADAEADBFADA09729A596
:104280003AA54BA55CA582179307A407B5076CF464
:104290008DE44BA15CA1849FF001859FF00D11245A
:1042A000E150F84F80A1826080A3A4966CAD7DADF3
:1042B0008EAD9FADA4972DA53EA54FA558A9621719
:1042C0007307840795076CF48DE44BA15CA1849F70
:1042D000F001859FF00D1124E150F84F80A184601A
:1042E00080A32F966CAD7DAD8EAD9FAD2F9729A984
:1042F0003AA94BA95CA962177307840795076CF468
:104300008DE44BA15CA1849FF001859FF00D1124E9
:10431000E150F84F80A1886080A3ADA9BEA98C911F
:104320009DE42BA13CA1929FF001939FF00D1124DD
:10433000E150F84F81A3CD28CE28CF2809F05F980F
:104340008DE44BA15CA1849FF001859FF00D1124A9
:10435000E150F84F84819581A681B781892B8A2B02
:104360008B2B09F08A988DE46BA17CA1869FF001CC
:10437000879FF00D1124E150F84F80859185A2852B
:10438000B385892B8A2B8B2B41F09FB7F8948091B2
:1043900008018E7F809308019FBF8DE4ABA1BCA173
:1043A0008A9FF0018B9FF00D1124E150F84F848516
:1043B0009585A685B785892B8A2B8B2B71F18091EA
:1043C0002F07882319F0815080932F0780913007A1
:1043D000882319F08150809330078091310788231A
:1043E00019F0815080933107EDA9FEA980818130B9
:1043F00061F030F0823089F480E28093310708C0A8
:10440000129880E280932F0708C080E280933007E3
:1044100080912F07811101C0129A8DE42BA13CA13C
:10442000829FF001839FF00D1124E150F84F4485E5
:1044300055856685778523964CAF5DAF6EAF7FAFB0
:104440002397452B462B472B49F4C0903806D09034
:104450003906E0903A06F0903B0608C0C0903C0652
:10446000D0903D06E0903E06F0903F069601A701F1
:10447000632D722DC8010E94645E87FF03C03C2C2F
:104480002D2C87018091140D9091150DA091160D82
:10449000B091170D6C962CAD3DAD4EAD5FAD6C97E8
:1044A000281B390B4A0B5B0BCA01B9010E946A5EDB
:1044B0002091240D3091250D4091260D5091270D0E
:1044C0000E94C5626DA37EA38FA398A7698B7A8B88
:1044D0008B8B9C8B8091180D9091190DA0911A0DCA
:1044E000B0911B0DA0962CAD3DAD4EAD5FADA0972C
:1044F000281B390B4A0B5B0BCA01B9010E946A5E8B
:104500002091280D3091290D40912A0D50912B0DAD
:104510000E94C5624B015C016D8B7E8B8F8B988FE7
:1045200080911C0D90911D0DA0911E0DB0911F0D3D
:10453000A4962CAD3DAD4EAD5FADA497281B390BB5
:104540004A0B5B0BCA01B9010E946A5E20912C0DD7
:1045500030912D0D40912E0D50912F0D0E94C5626E
:104560006B017C01698F7A8F8B8F9C8F8091200DDE
:104570009091210DA091220DB091230D2F962CAD7D
:104580003DAD4EAD5FAD2F97281B390B4A0B5B0B32
:10459000CA01B9010E946A5E2091300D3091310D3F
:1045A0004091320D5091330D0E94C562E0918E060C
:1045B00034E0E39FF0011124E95CFD4F208131815B
:1045C000428153810E94B95A2B013C01609115022E
:1045D00070911602072E000C880B990B0E946A5EE0
:1045E0009B01AC01C301B2010E94B95A20E030E046
:1045F00048EC52E40E94C5626D8F7E8F8F8F98A326
:104600002DE44BA15CA1249FF001259FF00D112406
:10461000E150F84F20813181428153812FAB38AF77
:1046200049AF5AAF2630310541055105E4F44480C5
:1046300055806680778036E043165104610471042A
:1046400094F4408451846284738446E04416510497
:104650006104710444F4DC01CB01BF7786A797A7FE
:10466000A0ABB1AB2EC06DA17EA18FA198A50E9479
:10467000B65A2B013C01C501B4010E94B65A9B01F8
:10468000AC01C301B2010E94E9614B015C01C701A9
:10469000B6010E94B65A9B01AC01C501B4010E944B
:1046A000E9610E94FF642DE4ABA1BCA12A9FF00147
:1046B0002B9FF00D1124E150F84F66A777A780AB30
:1046C00091AB8DE42BA13CA1829FF001839FF00D63
:1046D0001124E150F84F46A557A560A971A94BAF29
:1046E0005CAF6DAF7EAF9A01AB0160E070E080E837
:1046F0009FE30E94C5629B01AC01632D722DC8012E
:104700000E94B95A6B017C018091D50C2091D40C88
:1047100090E0821B9109BC016F707727A6967FAF4E
:104720006EAFA697A701960160E074E284E799E472
:104730000E94C5620E94C1644B015C01A6968EADC9
:104740009FADA697823091050CF441C02C01990FC2
:1047500066087708C301B2010E946A5E20E030E07B
:1047600040E051E40E94645E87FF31C080913406CE
:1047700090913506A0913606B091370688169906B5
:10478000AA06BB0620F588199909AA09BB09BC012C
:10479000CD01660F771F881F991FA30192010E9408
:1047A0008B61CA01B9010E94685E0E94C164680DF4
:1047B000791D8A1D9B1D0E94685E9B01AC0160E013
:1047C00074E284E799E40E94C5626B017C01A70151
:1047D00096016BAD7CAD8DAD9EAD0E94B95A27960A
:1047E0006CAF7DAF8EAF9FAF27978DE4ABA1BCA11F
:1047F0008A9F80018B9F100D11240150184F27961E
:104800002CAD3DAD4EAD5FAD2797D80192962D935F
:104810003D934D935C93959750966D917D918D91BD
:104820009C9153970E94685E6DA37EA38FA398A767
:10483000A70196010E94B95A0E94AF620E9432639A
:104840002B966CAF7DAF8EAF9FAF2B97F80160AF0B
:1048500071AF82AF93AF9E012F5E3F4F3EAB2DAB4A
:10486000AE014F5F5F4F5AAB49AB6BE676E06596A2
:104870007FAF6EAF6597CE0181969AA389A36196AB
:104880005FAF4EAF6197212C312C90E899A7AFE331
:10489000ADA7EDA9FEA96191719181919191FEABB6
:1048A000EDABA70196010E94B95A6196AEADBFADBE
:1048B00061976D937D938D939D936196BFAFAEAFDE
:1048C00061974B015C01E894B7F86596EEADFFADDA
:1048D000659741905190619071906596FFAFEEAFF2
:1048E0006597A3019201C501B4010E9414641816D2
:1048F000A4F4A5019401C301B2010E94C5625B0149
:104900008C019B01AC01B10189A59DA50E94645E4B
:1049100087FD03C0150109A71DA72DA93EA949A11F
:104920005AA12417350709F0B4CF20E030E040E861
:104930005FE3B10189A59DA50E94645E87FF49C020
:104940008E010F5E1F4F910149A55DA5A9A9BAA9C6
:104950006D917D918D919C910E94B95AE9A9FAA916
:104960006193719381939193FAABE9ABE017F107EF
:1049700051F78DE42BA13CA1829F8001839F100DF4
:1049800011240150184F910149A55DA527966CADE2
:104990007DAD8EAD9FAD27970E94B95AD8019296F2
:1049A0006D937D938D939C9395972B966CAD7DAD78
:1049B0008EAD9FAD2B970E94685E910149A55DA5C4
:1049C0000E94B95A0E943263F80160AF71AF82AFA2
:1049D00093AF2BAD3CAD4DAD5EAD6DA17EA18FA172
:1049E00098A50E94C5626B017C012FA938AD49AD25
:1049F0005AAD232B242B252BA1F58DE44BA15CA1D3
:104A0000849F8001859F100D11240150184FF801DB
:104A100084819581A681B781892B8A2B8B2B09F5FF
:104A200080859185A285B385892B8A2B8B2BC9F430
:104A30002091400630914106409142065091430634
:104A4000C701B6010E94B95A0E94AF620C5B1F4FAA
:104A50000E943263D8016D937D938D939C9313973D
:104A600021C120914406309145064091460650915F
:104A70004706C701B6010E94B95A0E94AF620E9460
:104A800032632DE4EBA1FCA12E9F80012F9F100D1E
:104A900011240D5B174FD8016D937D938D939C93DB
:104AA000139780905B0690905C06A0905D06B09096
:104AB0005E060E94685E2B013C016FA978AD89AD4E
:104AC0009AAD0E946A5E9B01AC01C301B2010E94D3
:104AD000B95A2DA13EA14FA158A50E94C5622B0134
:104AE0003C01C501B4010E94685E9B01AC01C30199
:104AF000B2010E94146418162CF4F801808291828D
:104B0000A282B38280905F0690906006A0906106BA
:104B1000B09062062DE44BA15CA1249FC001259FAB
:104B2000900D1124BC016150784F1B018B010C5B6F
:104B30001F4FD8016D917D918D919C910E94685E6F
:104B40002B013C01F10164817581868197810E946E
:104B50006A5E9B01AC01C301B2010E94B95A2DA14A
:104B60003EA14FA158A50E94C5622B013C01C50181
:104B7000B4010E94685E9B01AC01C301B2010E94B6
:104B80001464181634F4D8018D929D92AD92BC92A3
:104B900013978090670690906806A0906906B09081
:104BA0006A068DE4EBA1FCA18E9F80018F9F100D02
:104BB00011240D5B174FD8016D917D918D919C91C2
:104BC0000E94685E2B013C0123966CAD7DAD8EADDD
:104BD0009FAD23970E946A5E9B01AC01C301B201A5
:104BE0000E94B95A2DA13EA14FA158A50E94C562AD
:104BF0002B013C01C501B4010E94685E9B01AC0120
:104C0000C301B2010E94146418162CF4F8018082CA
:104C10009182A282B3828090630690906406A090F5
:104C20006506B09066062DE44BA15CA1249FC001EF
:104C3000259F900D1124BC016150784F1B018B0101
:104C40000C5B1F4FD8016D917D918D919C910E94BD
:104C5000685E2B013C01F101608571858285938539
:104C60000E946A5E9B01AC01C301B2010E94B95A65
:104C70002DA13EA14FA158A50E94C5622B013C0168
:104C8000C501B4010E94685E9B01AC01C301B20181
:104C90000E941464181634F4D8018D929D92AD923E
:104CA000BC9213978DE4EBA1FCA18E9F80018F9F96
:104CB000100D11240150184FF801EC5BFF4F60817B
:104CC0007181828193810E94685E4B015C01A70122
:104CD00096010E94C562AA966CAF7DAF8EAF9FAF62
:104CE000AA97D801D2966D937D938D939C93D59777
:104CF0002DEB37E346E051E4C501B4010E94B95AF7
:104D00000E942D63F801648F758F868F978FC090F6
:104D10003006D0903106E0903206F090330620E065
:104D200030E040E05FE3C701B6010E94B95A6DA3CD
:104D300079A78DA799AB29853A854B855C85AE9679
:104D40002CAF3DAF4EAF5FAFAE9740912C06509168
:104D50002D0660912E0670912F0663964CAF5DAFC5
:104D60006EAF7FAF639720E030E040E05FE3639693
:104D70006CAD7DAD8EAD9FAD63970E94B95A5B015E
:104D80008C01AE966CAD7DAD8EAD9FADAE979F772D
:104D90009501A8010E941464181674F49501A801E5
:104DA0006DA179A58DA599A90E94645E87FD04C0B7
:104DB000ADA2B9A60DA719AB6D857E858F859889A3
:104DC000E2966CAF7DAF8EAF9FAFE29780917B068E
:104DD00090917C06A0917D06B0917E0667968CAF7F
:104DE0009DAFAEAFBFAF679720E030E040E05FE33C
:104DF000BC01CD010E94B95A5B018C01E2966CADF9
:104E00007DAD8EAD9FADE2979F779501A8010E9481
:104E10001464181674F49501A8016DA179A58DA5E7
:104E200099A90E94645E87FD04C0ADA2B9A60DA732
:104E300019AB8DE4ABA1BCA18A9FF0018B9FF00D53
:104E40001124E150F84FB2A1BBAF23A12FAF34A181
:104E500024963FAF249745A128964FAF28972B2F34
:104E60003FAD24964FAD249728965FAD28976DA14E
:104E700079A58DA599A90E94645E87FD0CC05BADE4
:104E80005DA36FAD69A724967FAD24977DA7289673
:104E90008FAD289789ABA696AEADBFADA6971297FA
:104EA0000CF4EBC0B091100DBDAB2090110DE09152
:104EB000120DEFAB3090130D27E137EB41ED58E3C6
:104EC0006B2F722D8E2F932D0E94146418160CF0E8
:104ED000DAC02091000D3091010D4091020D5091EA
:104EE000030D69817A818B819C810E94E8612B018D
:104EF0003C012091040D3091050D4091060D50911B
:104F0000070D6D817E818F8198850E94E8614B013C
:104F10005C01A3019201C301B2010E94B95A2B01A5
:104F20003C01A5019401C501B4010E94B95A9B013D
:104F3000AC01C301B2010E94E9610E94FF644B0110
:104F40005C01A70196010E94146418164CF4A50197
:104F50009401C701B6010E94C5627B018C0104C0A7
:104F6000E12CF12C00E81FE32091080D3091090D90
:104F700040910A0D50910B0DAE966CAD7DAD8EAD8E
:104F80009FADAE970E94E8614B015C01E894B7F8D1
:104F900063962CAD3DAD4EAD5FAD6397C501B401D9
:104FA0000E9414641816B4F4A501940163966CADC4
:104FB0007DAD8EAD9FAD63970E94C5625B016C01B4
:104FC0009B01AC01B701C8010E94645E87FD02C06D
:104FD0007501860120910C0D30910D0D40910E0D43
:104FE00050910F0DE2966CAD7DAD8EAD9FADE29709
:104FF0000E94E8614B015C01E894B7F867962CAD1C
:105000003DAD4EAD5FAD6797C501B4010E9414641C
:105010001816B4F4A501940167966CAD7DAD8EAD04
:105020009FAD67970E94C5625B016C019B01AC015B
:10503000B701C8010E94645E87FD02C07501860148
:105040009701A8016BAD7FAD24968FAD249728966C
:105050009FAD28970E94B95A7B018C019B01AC013E
:105060006DA9722D8FA9932D0E94645E87FD11C0DA
:10507000EDAA2F2C0FAB312E0CC0FDA1FDAB29A446
:105080002DA52FAB05C03DA13DAB29A44DA54FAB30
:1050900039A88DE46BA17CA1869F8001879F100DAC
:1050A00011240150184F8DA9922DAFA9B32DF801ED
:1050B00082A793A7A4A7B5A7AA966CAD7DAD8EAD28
:1050C0009FADAA9790589B01AC010E94E961D8015D
:1050D0009E962D913D914D915C91D1970E94B95A28
:1050E0009B01AC016BE077ED83E29BE30E94E861FA
:1050F0000E94FF64B62EC72E7C01262F372FAC01ED
:105100006DA9722D8FA9932D0E94645E87FD05C045
:10511000DB2C2C2CAE2C3F2C02C0DDA8AFA88DE4DC
:10512000EBA1FCA18E9F80018F9F100D11240150D7
:10513000184F8D2D922DAA2DB32DF80186A397A37C
:10514000A0A7B1A72B2D3C2DA7016BAD7FAD249659
:105150008FAD249728969FAD28970E94645E1816FD
:105160002CF081E0D801D7968C9302C0F80117AAE1
:105170002DE44BA15CA1249FC001259F900D11241B
:10518000BC016150784F7B0181E0DB01D6968C93A6
:1051900080E1FE013196A0E0BDE001900D928A957C
:1051A000E1F78BAD9FAD2496AFAD24972896BFADA8
:1051B00028978093100D9093110DA093120DB0932A
:1051C000130D9C01AD016DA179A58DA599A90E9432
:1051D000C5622B013C012BAD3FAD24964FAD24970A
:1051E00028965FAD28976D2D722D8A2D932D0E94E4
:1051F000C562AB01BC0193018201C7010E94071C7B
:105200006896BFAD6897B093D50C6C962CAD3DAD4C
:105210004EAD5FAD6C972093140D3093150D4093F8
:10522000160D5093170DA0964CAD5DAD6EAD7FADD4
:10523000A0974093180D5093190D60931A0D709319
:105240001B0DA4966CAD7DAD8EAD9FADA497609304
:105250001C0D70931D0D80931E0D90931F0D2F96A6
:105260008CAD9DADAEADBFAD2F978093200D9093CB
:10527000210DA093220DB093230D8091D50C8FB7F3
:10528000F8946090D40C8FBF8091D50C90E0861973
:1052900091098F70992704974CF41091D40CF12C3C
:1052A00000E080E090E02DE4E22EA0C08091D50CDB
:1052B00083508F70F82EA12CB12C00E010E09DE4FB
:1052C000492E55245394F61441F38F2DF11001C04B
:1052D00080E1FF24FA94F80E4F9CC0011124DC01F8
:1052E000A150B84FBCA3ABA30115110509F469C0C7
:1052F000A114B10409F465C0F80172A4C3A4D4A434
:10530000E5A4272D3C2D4D2D5E2D66A177A180A50E
:1053100091A50E94645E882309F453C0D801D796F2
:105320008C91811144C0F50186A097A0A0A4B1A4DE
:10533000A5019401672D7C2D8D2D9E2D0E94146456
:105340001816ACF5A5019401C501B4010E94B95A23
:105350004B015C01F80182A993A9A4A9B5A9BC01DC
:10536000CD0190589B01AC010E94E961D8019E9645
:105370002D913D914D915C91D1970E94B95A9B011D
:10538000AC01C501B4010E94E8610E94FF641B01E9
:105390005C019B01AC01672D7C2D8D2D9E2D0E9403
:1053A000645E87FD04C0722CC32CDA2CEB2C872D95
:1053B0009C2DAD2DBE2DF80186A397A3A0A7B1A764
:1053C00056AA58010BA11CA17ECFE19E9001112489
:1053D000F901E150F84F6F01009769F41F5F103138
:1053E00009F410E08F2D902FFC2C0D2D2091D50C61
:1053F0001213EBCF0AC0DC01D7962C912111EECF0E
:105400006F2D702F0E94403DE9CF009741F0FC01C5
:1054100027A9211104C06F2D702F0E94403DD0900C
:10542000D40CE12CF12C8DE4C82E4D2D0D2C000C4C
:10543000550B8091D50C90E04817590709F447C0E7
:10544000C49EC001C59E900D11249C012150384F6F
:105450001901E114F104A1F1D701D6968C918111C3
:1054600004C0F90186A9882359F1D70192964D907D
:105470005D906D907C909597C49EF001C59EF00D57
:105480001124E150F84FA301920166A177A180A5F4
:1054900091A50E94C5624B015C01A3019201F70135
:1054A00066A177A180A591A50E94C562AB01BC0150
:1054B00095018401C7010E94071CD701D6961C9252
:1054C000D394B0E1DB1201C0D12C7101AECFE11455
:1054D000F10419F1F70182A093A0A4A0B5A0A50141
:1054E00094016DEC7CEC8CE49DE30E94C5622B0181
:1054F0003C01A5019401D70196966D917D918D9106
:105500009C9199970E94C562AB01BC0193018201F5
:10551000C7010E94071CF70116AA80916F008260E4
:1055200080936F00CF58DF4F0FB6F894DEBF0FBEE9
:10553000CDBFDF91CF911F910F91FF90EF90DF9042
:10554000CF90BF90AF909F908F907F906F905F9023
:105550004F903F902F9008951F93CF93DF93EC01CE
:10556000162F8881843208F04BC061E0812F0E94A1
:105570006C148881E82FF0E09F01220F331FE20FA7
:10558000F31FEC5DFB4F1F739081907C192B1083F0
:1055900019821A826CE00E9458659CE0899FB001D4
:1055A000112440E050E09A01260F371FF901EE0F59
:1055B000FF1F2E0F3F1FF901EC5DFB4F908196FD01
:1055C00013C04F5F5F4F4C30510569F78130E9F4EC
:1055D0001092900082E080939100109295001092BA
:1055E000940088BB80937100E881F0E0CF01880FC0
:1055F000991FE80FF91FEC5DFB4F80818064808369
:105600008881DF91CF911F910895823061F41092CB
:10561000A0008093A1001092A5001092A40089BB65
:1056200080937200E1CF8111DFCF1092200182E0E0
:105630008093210110922501109224018ABB80934E
:105640007300D2CF1F920F920FB60F9211240BB698
:105650000F922F933F934F935F936F937F938F930B
:105660009F93AF93BF93EF93FF9348E251E064E2BF
:1056700071E080E090E00E94DC1DFF91EF91BF910E
:10568000AF919F918F917F916F915F914F913F91DA
:105690002F910F900BBE0F900FBE0F901F9018957B
:1056A0001F920F920FB60F9211240BB60F922F93E9
:1056B0003F934F935F936F937F938F939F93AF939A
:1056C000BF93EF93FF9348EA50E064EA70E082E012
:1056D00090E00E94DC1DFF91EF91BF91AF919F91EF
:1056E0008F917F916F915F914F913F912F910F908B
:1056F0000BBE0F900FBE0F901F9018951F920F9228
:105700000FB60F9211240BB60F922F933F934F9326
:105710005F936F937F938F939F93AF93BF93EF9319
:10572000FF9348E950E064E970E081E090E00E9476
:10573000DC1DFF91EF91BF91AF919F918F917F9170
:105740006F915F914F913F912F910F900BBE0F90F2
:105750000FBE0F901F9018952F923F924F925F921D
:105760006F927F928F929F92AF92BF92CF92DF9271
:10577000EF92FF920F931F93CF93DF93CDB7DEB7D6
:1057800028970FB6F894DEBF0FBECDBF1C01FC01F9
:10579000E856F54F74909C01220F331F220F331FE0
:1057A00038872F832051334F3A832983F9011082A0
:1057B0001182128213820E94163F8F81988584572E
:1057C000954FF9D64B015C01672D770C770B880B51
:1057D000990B0E946A5E2B013C012F81388524566B
:1057E000394F3C832B8320E030E040EC5FE3C50180
:1057F000B4010E94B95AA30192010E94B95AEB81E7
:10580000FC816083718382839383EF81F885E55403
:10581000FD4F80809180A280B3808092210290927F
:105820002202A0922302B092240220E030E040E75E
:1058300052E4C501B4010E94C5622EE8C22E26E0E2
:10584000D22E7B018C0128EA36E044EA56E060EA79
:1058500076E08CE996E00E94A31E0E94EA1BE98193
:10586000FA8110821182128213820E94163F2F81C8
:1058700038852058354F3E832D83C9019CD69058DA
:10588000A30192010E94B95AEB81FC81608371836C
:105890008283938320E030E040E752E4609121026C
:1058A0007091220280912302909124020E94C5628D
:1058B0007B018C0128EA36E044EA56E060EA76E0B3
:1058C0008CE996E00E94A31E0E94EA1B8D819E81B6
:1058D00072D69B01AC010E94E961A30192010E9472
:1058E000B95AEB81FC81608371838283938320E0CA
:1058F00030E040E05FE3C501B4010E94B95A609313
:10590000210270932202809323029093240220E0CC
:1059100030E040E752E40E94C5627B018C0128EA36
:1059200036E044EA56E060EA76E08CE996E00E94D0
:10593000A31E0E94EA1B8F8198858C58954F3BD6F9
:105940000F8118850057194FF8012081318142815C
:1059500053810E94E961E981FA81608371838283C6
:1059600093838F8198858859954F25D62F813885C7
:10597000215E384F5901F8012081318142815381E4
:105980000E94E961F50160837183828393838F8133
:105990009885845A954F0FD62F813885255D3D4FC8
:1059A0005901F80120813181428153810E94E961CE
:1059B000F5016083718382839383E981FA81808119
:1059C0009181A281B381EB81FC8180839183A28349
:1059D000B38310922102109222021092230210929D
:1059E00024021092BB061092BA061092B906F10179
:1059F000EF52F34F81E0808328960FB6F894DEBF14
:105A00000FBECDBFDF91CF911F910F91FF90EF900F
:105A1000DF90CF90BF90AF909F908F907F906F90CE
:105A20005F904F903F902F900895CF92DF92EF922A
:105A3000FF926091190270911A0280911B0290915D
:105A40001C02209158062223F1F020E030E040E0D3
:105A50005FE30E94B95A6B017C0120E030E0A901AC
:105A60000E94645E882379F0A7019601C701B60100
:105A70000E94B95A2BED3FE049E450E40E94B95A24
:105A80009B01AC0104C020E030E040E85FE360E04F
:105A900070E080E89FE30E94C562609337027093D4
:105AA00038028093390290933A02FF90EF90DF9092
:105AB000CF9008951F93CF93DF93EC0180918E06D2
:105AC00080938D0684E57DD5182F811102C010E0EA
:105AD00073C09DD50E94326360938D066623B9F32F
