:100000000C9441180C94933A0C94683A0C943D3A31
:100010000C94123A0C94E7390C94BC390C94913935
:100020000C9466390C94F2800C94E3800C94D48088
:100030000C9472180C9472180C9472180C94721818
:100040000C9472180C9457920C9472180C947218A9
:100050000C9472180C9472180C94DF420C941C3996
:100060000C9472180C94C9850C9472180C94721824
:100070000C9472180C9472180C9472180C947218D8
:100080000C9472180C9472180C9472180C947218C8
:100090000C9472180C9472180C9472180C947218B8
:1000A0000C9472180C9472180C9472180C947218A8
:1000B0000C9472180C9472180C9472180C94721898
:1000C0000C9472180C9472180C9472180C94721888
:1000D0000C9472180C9472180C9472180C94721878
:1000E0000C94721893369636853689368F36CD360F
:1000F0009A369E36A436A836AC36B236B636BA36FE
:10010000CD36C036C436C83638383D3842384C381B
:100110005638CF386038683870387A3884388E3836
:100120009D38A738CF38B138BB38C538084AD73BD7
:100130003BCE016E84BCBFFDC12F3D6C74319ABDB6
:1001400056833DDA3D00C77F11BED9E4BB4C3E91DA
:100150006BAAAABE000000803F05A84CCDB2D44EC9
:10016000B93836A9020C50B9918688083CA6AAAACB
:100170002ABE000000803F004E414E494E4954596E
:10018000494E46CDCCCC3D0AD7233C17B7D1387762
:10019000CC2B329595E6241FB14F0A000020410078
:1001A00000C84200401C4620BCBE4CCA1B0E5AAEC2
:1001B000C59D74434F4D4D554E49434154494F4E93
:1001C0000044525952554E004552524F5253004925
:1001D0004E464F004543484F0020746F6F206C6FB0
:1001E0006E6720657874727573696F6E20707265C2
:1001F00076656E7465640A0020636F6C64206578B0
:1002000074727573696F6E2070726576656E746551
:10021000640A0047322F47332062616420706172A4
:10022000616D65746572730A00536C6565702E2E7E
:100230002E00536E617070792049492072656164A7
:10024000792E00526573756D696E67207072696EE4
:100250007400436C69636B20746F20726573756DF5
:10026000652E2E2E004E6F206D6F76652E00456E2A
:10027000642066696C65206C6973740A0042656766
:10028000696E2066696C65206C6973740A0053445A
:10029000207072696E74696E6720627974652000DF
:1002A0004E6F74205344207072696E74696E670AD1
:1002B0000046696C652064656C657465643A004449
:1002C000656C6574696F6E206661696C65642C206D
:1002D00046696C653A20006F70656E206661696CD6
:1002E00065642C2046696C653A20002569730025F9
:1002F000696D20256973002569682025696D2025B1
:10030000697300256964202569682025696D2025A9
:10031000697300256979202569642025696820258D
:10032000696D20256973005072696E742074696D5F
:10033000653A2000000136372603FF3C3D380EFFAA
:100340002E303E1213FF0C0809FFFFFF1A1C18FF86
:10035000FF08440AFF4324221EFFFFFFFFFFFF5058
:10036000726F7465637465642050696E0A00452578
:100370006920257300536E6170707920494920729D
:10038000656164792E00D401CF01C801C101B301B8
:100390006F66660044454255473A004B494C4C4510
:1003A000442E20004D3131332053006F6B004865DF
:1003B0006174696E6720646F6E652E0020573A0085
:1003C00045256920257300536E6170707920494975
:1003D0002072656164792E00536E617070792049D6
:1003E00049204F66662E004361703A454D4552479D
:1003F000454E43595F5041525345523A300A0043EB
:1004000061703A434153455F4C494748545F4252FB
:10041000494748544E4553533A300A004361703AB5
:10042000544F47474C455F4C49474854533A300A6C
:10043000004361703A534F4654574152455F504F05
:100440005745523A300A004361703A4C4556454C84
:10045000494E475F444154413A300A004361703A83
:100460005A5F50524F42453A300A004361703A4158
:1004700055544F4C4556454C3A300A004361703A4A
:100480005052494E545F4A4F423A310A004361701C
:100490003A50524F47524553533A300A0043617025
:1004A0003A4155544F5245504F52545F54454D5068
:1004B0003A310A004361703A454550524F4D3A3146
:1004C0000A004649524D574152455F4E414D453A0B
:1004D0004D61726C696E20312E312E3620284769AD
:1004E000746875622920534F555243455F434F440A
:1004F000455F55524C3A68747470733A2F2F676990
:10050000746875622E636F6D2F4D61726C696E46F3
:1005100069726D776172652F4D61726C696E2050E2
:10052000524F544F434F4C5F56455253494F4E3AEA
:10053000312E30204D414348494E455F5459504576
:100540003A536E617070792049492045585452558C
:100550004445525F434F554E543A31205555494416
:100560003A63656465326132662D343161322D340F
:100570003734382D396231322D6335356336326682
:1005800033363766660A002F2F20007A325F6D6996
:100590006E3A20007A5F6D696E3A2000795F6D696E
:1005A0006E3A2000785F6D696E3A20005265706F78
:1005B0007274696E6720656E6473746F70207374F3
:1005C000617475730A004D31343520533C696E6493
:1005D00065783E206F7574206F662072616E676566
:1005E0002028302D31290A0053657474696E672004
:1005F00054726176656C20416363656C65726174E9
:10060000696F6E3A200053657474696E6720526595
:10061000747261637420416363656C6572617469AF
:100620006F6E3A200053657474696E67205072696A
:100630006E7420416363656C65726174696F6E3AB4
:10064000200053657474696E67205072696E74205F
:10065000616E642054726176656C20416363656CE1
:1006600065726174696F6E3A20004F6666736574D7
:1006700073206170706C696564004572723A205431
:100680006F6F206661722100546F6F206661722067
:1006900066726F6D207265666572656E6365207047
:1006A0006F696E740A004E6F2063617365206C6918
:1006B0006768740A004163746976652045787472CE
:1006C000756465723A2000556E6B6E6F776E2063AD
:1006D0006F6D6D616E643A2022004B494C4C45446D
:1006E0002E2000202D20496E76616C69642065788B
:1006F000747275646572206E756D62657220210A70
:10070000002020506C616E6E65724275666665727F
:1007100042797465733A20002046726565204D6504
:100720006D6F72793A2000436F6D70696C65643A41
:10073000204A616E20313520323031380A00207C69
:1007400020417574686F723A202852657661724252
:1007500061742C20536E6170707920636F6E6669CE
:1007600067290A00323031372D31302D31302031B8
:10077000323A303000204C617374205570646174DB
:1007800065643A2000312E312E360A004D61726CBC
:10079000696E0020536F66747761726520526573CD
:1007A00065740A00205761746368646F672052653E
:1007B0007365740A002042726F776E206F75742023
:1007C00052657365740A002045787465726E616CB9
:1007D0002052657365740A00506F77657255700A10
:1007E0000073746172740A006572726F722077729E
:1007F0006974696E6720746F2066696C650A0045CC
:100800006E6473746F7073202563202563202563E5
:1008100020256300205A3A0020593A0020583A0017
:10082000656E6473746F7073206869743A20004455
:100830006F6E6520736176696E672066696C652EE0
:100840000A004D32390000002100240027002A0050
:100850002D003000330001010000040107010A01EE
:1008600000002200250028002B002E00310034005B
:1008700002010000050108010B0100002000230017
:10088000260029002C002F00320000010000030187
:100890000601090105050505070508080808020203
:1008A00002020A0A0808040404040101010101010A
:1008B00001010303030303030303040707070C0CED
:1008C0000C0C0C0C0C0C02020202060606060606B4
:1008D00006060B0B0B0B0B0B0B0B01021020200859
:1008E000081020401020408002010201080402018B
:1008F00001020408102040808040201008040201FA
:100900008004020180402010080402010804020152
:1009100001020408102040800102040810204080D9
:1009200000000A0B02090C0D0E0807030401000069
:1009300000000000000000000000000000000000B7
:100940000000000000000000000000001211100074
:100950000000000000000000000000000000000097
:1009600000000000000070012C0190012701B0017F
:100970002201C0011D01F001180110021301300213
:100980000E016002090190020401C002FF00000391
:10099000FA004003F5008003F000D003EB002004D0
:1009A000E6007004E100E004DC004005D700C0056B
:1009B000D2004006CD00D006C8008007C300300832
:1009C000BE00F008B900C009B400B00AAF00B00B17
:1009D000AA00D00CA500000EA000500F9B00C01074
:1009E00096005012910000148C00C0158700B017BB
:1009F0008200B0197D00D01B7800001E73004020DB
:100A00006E0090226900F024640040275F00902966
:100A10005A00E02B5500102E500020304B001032B1
:100A20004600E033410090353C0010373700703805
:100A30003200A0392D00B03A2800A03B2300603CD2
:100A40001E00103D1900903D1400103E0F00703E36
:100A50000A00C03E0500003F0000403FFBFF803F12
:100A6000F6FFC03FF1FF4572723A204D494E5445A2
:100A70004D50004D494E54454D5020747269676782
:100A800065726564004572723A204D415854454D77
:100A900050004D415854454D502074726967676548
:100AA000726564001FFFFFFFFFFFFF600000000092
:100AB00001FF400000000000FF8000000000007FF8
:100AC00083CF00000C303F87FF80000C301F8679F9
:100AD00080000C000F8C30C7838C30E78C30CFC780
:100AE000CC31F38C30DCECEC33B98C30D86C6C331B
:100AF000198C30D06C0C33198C30D86C0C33198CA9
:100B000030DC6C0E3B198C30CF7C079F198C30C7C2
:100B10007C038F194000000000000260000000000C
:100B200000061FFFFFFFFFFFF8202F0020403A00C4
:100B3000205A3A0020593A0020436F756E742058AD
:100B40003A0020453A00205A3A0020593A00583AD3
:100B5000005A20456E6473746F702041646A757327
:100B6000746D656E742073657420746F20286D6DCC
:100B7000293A00205A00205900580020204D617861
:100B80003A2000205A00205900580020204D696E5C
:100B90003A20004F6E20004F666600536F66742047
:100BA000656E6473746F70733A200020643A00209D
:100BB000693A0020703A0043290A0061626C65645A
:100BC00020286D696E2074656D702000436F6C6421
:100BD00020657874727564657320617265200023E6
:100BE000646566696E65202044454641554C545FF6
:100BF0004B64200023646566696E65202044454689
:100C000041554C545F4B69200023646566696E65ED
:100C1000202044454641554C545F4B7020005049BC
:100C200044204175746F74756E652066696E6973D2
:100C3000686564212050757420746865206C617348
:100C400074204B702C204B6920616E64204B642013
:100C5000636F6E7374616E74732066726F6D206261
:100C6000656C6F7720696E746F20436F6E6669677D
:100C700075726174696F6E2E680A00504944204194
:100C800075746F74756E65206661696C656421208A
:100C900074696D656F75740A00504944204175741C
:100CA0006F74756E65206661696C6564212054659A
:100CB0006D706572617475726520746F6F206869FC
:100CC00067680A00204B643A2000204B693A2000F4
:100CD000204B703A20000A20436C617373696320D3
:100CE000504944200A002054753A2000204B753AA0
:100CF0002000206D61783A2000206D696E3A200056
:100D000020643A200020626961733A2000526573C2
:100D1000656E643A20006F6B00627573793A2070DB
:100D2000617573656420666F7220696E7075740AF0
:100D300000627573793A2070617573656420666F1F
:100D40007220757365720A00627573793A20707249
:100D50006F63657373696E670A004B494C4C454479
:100D60002E20004B494C4C206361757365642062F2
:100D700079204B494C4C20627574746F6E2F7069EA
:100D80006E0A004B494C4C45442E20004B494C4CBC
:100D90002063617573656420627920746F6F206DC4
:100DA00075636820696E6163746976652074696D26
:100DB00065202D2063757272656E7420636F6D6D92
:100DC000616E643A2000506C6561736520726573D2
:100DD0006574005052494E5445522048414C544588
:100DE00044005072696E7465722068616C74656449
:100DF0002E206B696C6C28292063616C6C65642102
:100E00000A000000000000000000000080BF000099
:100E10004842000048420000804000000000576146
:100E2000726E696E673A20486F6D696E6720427511
:100E30006D702044697669736F72203C20310A001E
:100E40000202040000A0400000A04000000040009A
:100E50000046430000464300002543FFFFFF507259
:100E6000696E742070617573656400005072696EFC
:100E7000742061626F72746564005072696E7420D0
:100E800066726F6D2053440053746F7020707269E6
:100E90006E7400526573756D65207072696E7400B2
:100EA0004E6F205344206361726400506175736516
:100EB000207072696E7400436F6E74726F6C0050B4
:100EC0007265706172650054756E6500496E666F7B
:100ED0002073637265656E00466C6F7700466C6FB9
:100EE000770046616E2073706565640046616E2010
:100EF0007370656564004E6F7A7A6C65004E6F7A28
:100F00007A6C6500537065656400537065656400B4
:100F10004D61696E004261636B004E6578742063B9
:100F20006F726E6572004D343238005072656865BC
:100F3000617420504C4100436F6F6C646F776E009A
:100F400044697361626C6520737465707065727357
:100F5000004D38340053657420686F6D65206F66EE
:100F600066736574730050726568656174204142F0
:100F700053004C6576656C20636F726E657273000A
:100F8000486F6D65205A00473238205A00486F6D0F
:100F900065205900473238205900486F6D65205848
:100FA000004732382058004175746F20686F6D65B6
:100FB00000473238004D6F76652061786973004DC7
:100FC00061696E004573746570732F6D6D004573B4
:100FD000746570732F6D6D005A73746570732F6D27
:100FE0006D005A73746570732F6D6D00597374655D
:100FF00070732F6D6D005973746570732F6D6D0074
:101000005873746570732F6D6D00587374657073C9
:101010002F6D6D004D6F74696F6E00537465707342
:101020002F6D6D004A65726B00416363656C65727C
:101030006174696F6E0056656C6F63697479004303
:101040006F6E74726F6C0046696C2E204469612E5D
:101050000046696C2E204469612E004F6666004F81
:101060006E20004520696E206D6D3300436F6E74F5
:10107000726F6C0043616E6E6F7420656E74657282
:10108000207375626469723A2000022E2E004D6151
:10109000696E004572726F722077726974696E674B
:1010A00020746F20454550524F4D210A00290A00F7
:1010B0002062797465733B2063726320005365740A
:1010C00074696E67732053746F7265642028002002
:1010D0002863616C63756C6174656429210A002062
:1010E000213D2000454550524F4D20435243206D35
:1010F00069736D61746368202D202873746F726545
:1011000064292000290A002062797465733B2063FA
:10111000726320002073746F726564207365747449
:10112000696E6773207265747269657665642028DC
:1011300000204D61726C696E3D563431290A0028D9
:10114000454550524F4D3D00454550524F4D20763C
:10115000657273696F6E206D69736D617463682069
:101160000048617264636F646564204465666175FC
:101170006C742053657474696E6773204C6F61647E
:1011800065640A00E8030000E80300000A000000AC
:101190001027000000009643000096430000A04086
:1011A0000000C84100002042000020420000C84367
:1011B0000000C0427C3C3E5E2B3D3F2F5B5D3B2CE4
:1011C0002A225C00496E697469616C697A65204500
:1011D0004550524F4D00436F6E74726F6C005265F4
:1011E00073746F7265206661696C73616665004C2B
:1011F0006F61642073657474696E677300496E690A
:101200007469616C697A6520454550524F4D0053B1
:10121000746F72652073657474696E6773004669D4
:101220006C616D656E74004D6F74696F6E0054650E
:101230006D7065726174757265004D61696E004D07
:10124000333033205531204525692053256900501E
:101250007265686561742041425320636F6E660059
:101260005072656865617420504C4120636F6E66F2
:1012700000504944204175746F74756E6500504983
:1012800044204175746F74756E65005049442D4457
:10129000005049442D44005049442D4900504944D0
:1012A0002D49005049442D50005049442D500020F4
:1012B00008204661637400200820466163740020A2
:1012C00008204D6178002008204D6178002008201A
:1012D0004D6178002008204D696E002008204D697E
:1012E0006E002008204D696E004F6666004F6E202C
:1012F000004175746F74656D700046616E20737087
:101300006565640046616E207370656564004E6FAC
:101310007A7A6C65004E6F7A7A6C6500436F6E74F2
:10132000726F6C0053746F72652073657474696EAC
:101330006773004E6F7A7A6C65004E6F7A7A6C65CF
:101340000046616E2073706565640046616E2073AF
:10135000706565640054656D706572617475726561
:10136000004E6F204C696E65204E756D626572206F
:101370007769746820636865636B73756D2C204CA6
:10138000617374204C696E653A20004B494C4C45A2
:10139000442E200053544F505045442E200050728C
:1013A000696E7465722073746F7070656420647503
:1013B0006520746F206572726F72732E2046697893
:1013C00020746865206572726F7220616E6420758A
:1013D0007365204D39393920746F207265737461DB
:1013E00072742E202854656D706572617475726513
:1013F0002069732072657365742E205365742069AB
:1014000074206166746572207265737461727469A8
:101410006E67290A004E6F20436865636B73756DB4
:101420002077697468206C696E65206E756D6265E1
:10143000722C204C617374204C696E653A200063F5
:101440006865636B73756D206D69736D6174636836
:101450002C204C617374204C696E653A20004C69F5
:101460006E65204E756D626572206973206E6F74B3
:10147000204C617374204C696E65204E756D6265F9
:10148000722B312C204C617374204C696E653A20AC
:10149000004D313130004D3331004D38342058206B
:1014A00059205A20450053442072656164206572BA
:1014B000726F720A00446F6E65207072696E746993
:1014C0006E672066696C650A0020496E76616C69FA
:1014D00064206578747275646572200000000000F5
:1014E00000000000000080BF0000464300004643AB
:1014F00000002443436172642072656D6F766564F9
:10150000004361726420696E7365727465640000E3
:10151000060900FE070192032120FFFF08FF07FFD5
:10152000000000060000010707060200808080809E
:10153000800080030202060105A0A005070706003F
:10154000005050F850F8505005070706000020786A
:10155000A07028F020050707060000C0C810204032
:1015600098180507070600006090A040A890680240
:101570000303060104C04080030707060100204062
:101580008080804020030707060100804020202043
:10159000408005050506000120A870A82005050566
:1015A0000600012020F820200203030602FFC040AD
:1015B00080050101060003F8020202060200C0C015
:1015C00005050506000108102040800507070600F4
:1015D000007088888888887003070706010040C06B
:1015E00040404040E0050707060000708808708012
:1015F00080F8050707060000F81020100808F0051D
:10160000070706000010305090F810100507070675
:101610000000F880F00808887005070706000070D1
:101620008080F0888870050707060000F808102001
:1016300020202005070706000070888870888870C1
:1016400005070706000070888878080870020505FD
:10165000060200C0C000C0C00206060602FFC0C0ED
:1016600000C0408004070706000010204080402092
:1016700010050303060002F800F80407070601003E
:101680008040201020408005070706000070880871
:101690001020002005070706000070880868A8A829
:1016A00070050707060000708888F8888888050795
:1016B00007060000F08888F08888F0050707060014
:1016C0000070888080808870050707060000F08819
:1016D00088888888F0050707060000F88080F08079
:1016E00080F8050707060000F88080F080808005FC
:1016F0000707060000708880B8888870050707060D
:101700000000888888F8888888010707060200801A
:101710008080808080800507070600003810101048
:101720001090600507070600008890A0C0A0908870
:10173000050707060000808080808080F805070785
:1017400006000088D8A88888888805070706000052
:101750008888C8A8988888050707060000708888C8
:1017600088888870050707060000F08888F0808068
:101770008005070706000070888888A8906805071C
:1017800007060000F08888F0A0908805070706008B
:1017900000788080700808F0050707060000F82030
:1017A00020202020200507070600008888888888D8
:1017B00088700507070600008888888888502005FB
:1017C00007070600008888888888A850050707064C
:1017D0000000888850205088880507070600008888
:1017E000888850202020050707060000F8081020F0
:1017F0004080F8030707060100E08080808080E0D9
:1018000005050506000180402010080307070601B2
:1018100000E02020202020E00503030600042050E3
:1018200088050101060000F8020202060205804058
:10183000050505060000700878887805070706008A
:10184000008080B0C88888F005050506000070801B
:10185000808870050707060000080868988888785F
:101860000505050600007088F8807005070706006A
:10187000003048E0404040400506060600FF708802
:10188000887808700507070600008080B0C888883F
:10189000880107070602008000808080808003089E
:1018A000080601FF200020202020A0400407070692
:1018B0000000808090A0C0A090030707060100C030
:1018C0004040404040E0050505060000D0A8A8A81B
:1018D000A8050505060000B0C88888880505050626
:1018E000000070888888700506060600FFF088886A
:1018F000F080800506060600FF78888878080805CD
:101900000505060000B0C8808080050505060000BA
:1019100070807008F00407070600004040E0404077
:10192000403005050506000088888898680505058B
:101930000600008888885020050505060000888874
:10194000A8A8500505050600008850205088050607
:10195000060600FF888888780870050505060000DF
:10196000F8102040F803070706010020404080409F
:10197000402001070706020080808080808080036D
:101980000707060100804040204040800502020613
:101990000002689000000006000000000006000041
:1019A0000000000600000000000600000000000625
:1019B000000000000006000000000006000000001B
:1019C0000006000000000006000000000006000005
:1019D00000000006000000000006000000000006F5
:1019E00000000000000600000000000600000000EB
:1019F00000060000000000060000000000060000D5
:101A000000000006000000000006000000000006C4
:101A100000000000000600000000000600000000BA
:101A200000060000000000060000000000060000A4
:101A30000000000600000000000600000000000694
:101A4000000000000006000000000006000000008A
:101A50000006000000000006000000000006000074
:101A6000010707060200800080808080800507074C
:101A70000600002070A8A0A8702005070706000037
:101A8000304040E04050A805050506000088705031
:101A90007088050707060000885020F820F820010C
:101AA0000707060200808080008080800508080605
:101AB00000003048205050209060030101060107CB
:101AC000A0050707060000F888B8B8B888F8050729
:101AD00007060001700878887800F80505050600FB
:101AE000012850A05028050303060001F808080249
:101AF00002020602064080050707060000F888A8D3
:101B00008898A8F8050101060006F80404040600F8
:101B100003609090600507070600002020F8202051
:101B200000F804050506000360902040F003050559
:101B3000060003E020E020E00202020602064080E8
:101B40000508080600FF8888888898E880800507CF
:101B50000706000078989878181818020202060202
:101B600002C0C00202020602FF4080030505060013
:101B70000340C04040E005070706000170888888E0
:101B80007000F8050505060001A0502850A00507C3
:101B9000070600008890A858B8080805070706003F
:101BA000008890B848982038050808060000C04012
:101BB000C048D83808080507070600002000204064
:101BC0008088700508080600004020007088F888AA
:101BD000880508080600001020007088F88888052D
:101BE00008080600002050007088F888880508085A
:101BF0000600006890007088F888880508080600CC
:101C0000005000708888F8888805080806000020C1
:101C100050207088F888880507070600003860A003
:101C2000B8E0A0B80508080600FF708880808870BA
:101C30002060050808060000402000F880F080F8C9
:101C4000050808060000081000F880F080F8050874
:101C500008060000205000F880F080F8050707060D
:101C600000005000F880F080F803080806010080AA
:101C70004000E0404040E00308080601002040002A
:101C8000E0404040E003080806010040A000E040BA
:101C90004040E0030707060100A000E0404040E0AC
:101CA000050707060000704848E84848700508081E
:101CB00006000068900088C8A898880508080600F3
:101CC0000040207088888888700508080600001089
:101CD0002070888888887005080806000020500059
:101CE0007088888870050808060000689000708871
:101CF0008888700508080600005000708888888869
:101D00007005050506000188502050880508080662
:101D100000FF1070A8A8A8A87040050808060000D9
:101D200040208888888888700508080600001020F0
:101D30008888888888700508080600002050008878
:101D40008888887005080806000050008888888800
:101D500088700508080600001020885020202020E8
:101D60000509090600FFC040704848704040E00483
:101D700008080601FF609090A09090E08005080898
:101D800006000040200070087888780508080600E2
:101D900000102000700878887805080806000020E8
:101DA00050007008788878050808060000689000E0
:101DB00070087888780507070600005000700878DA
:101DC0008878050808060000205020700878887878
:101DD000050606060000D02878A0A85005060606CD
:101DE00000FF708088702060050808060000402011
:101DF000007088F880700508080600001020007048
:101E000088F880700508080600002050007088F8E7
:101E1000807005070706000050007088F880700386
:101E2000080806010080400040C04040E003080868
:101E300006010020400040C04040E00308080601C1
:101E40000040A00040C04040E0030707060100A09A
:101E50000040C04040E0050707060000A040A01079
:101E6000788870050808060000689000B0C8888867
:101E700088050808060000402000708888887005E2
:101E8000080806000010200070888888700508087F
:101E90000600002050007088888870050808060039
:101EA0000068900070888888700507070600005059
:101EB0000070888888700505050600012000F8007C
:101EC000200507070600FF1070A8A8A870400508A5
:101ED00008060000402000888888986805080806E1
:101EE000000010200088888898680508080600000F
:101EF0002050008888889868050707060000500071
:101F000088888898680509090600FF1020008888DD
:101F100088F808700407070601FFC0406050604061
:101F2000E00508080600FF500088888878087024BB
:101F3000F4D43050C38E20C2A24017828B7011128D
:101F40007A910D816CD90AA861E108C758660761CA
:101F50005143061E4B5D05C145A7041A41110409F2
:101F60003D9803713931034036DB0265339102D469
:101F7000305402802E1D02632CEE01752AC501B07B
:101F800028A001102781018F2564012B244B01E03B
:101F9000223401AC211F018D200D01801FFC008423
:101FA0001EED00971DDF00B81CD200E61BC6002006
:101FB0001BBC00641AB200B219A8000A19A0006A7A
:101FC000189900D117910040178B00B51684003185
:101FD000167E00B31579003A157300C7146F0058C8
:101FE000146A00EE1366008813630025135E00C7B1
:101FF000125B006C12570015125400C11151007091
:10200000114F0021114B00D61049008D104700469A
:1020100010440002104200C00F4000800F3E0042FA
:102020000F3C00060F3B00CB0E3800930E37005CD0
:102030000E3500270E3400F30D3200C10D31009033
:102040000D3000600D2E00320D2D00050D2C00D935
:102050000C2B00AE0C2900850C29005C0C270035E8
:102060000C27000E0C2600E80B2400C40B2400A053
:102070000B23007D0B23005A0B2100390B21001884
:102080000B2000F80A1F00D90A1E00BB0A1E009D83
:102090000A1D00800A1D00630A1C00470A1B002C51
:1020A0000A1B00110A1A00F7091A00DD091900C4F9
:1020B000091900AB091900920917007B0918006380
:1020C0000917004C09160036091600200916000AE7
:1020D000091500F5081500E0081400CC081400B834
:1020E000081400A4081400900813007D0812006B67
:1020F0000813005808120046081200340811002383
:102100000811001208110001081100F0071000E08A
:10211000071000D0071000C0071000B0070F00A183
:1021200007100091070E0083070F0074070F00656A
:10213000070E0057070E0049070E003B070D002E43
:10214000070E0020070D0013070D0006070D00F90C
:10215000060C00ED060D00E0060C00D4060C00C8CD
:10216000060C00BC060C00B0060C00A4060B00997F
:10217000060C008D060B0082060B0077060B006C28
:10218000060B0061060A0057060B004C060A0042C7
:10219000060A0038060A002E060A0024060A001A5B
:1021A000060A001006090007060A00FD050900F4EA
:1021B000050900EB050900E2050900D9050900D071
:1021C000050900C7050900BE050900B5050800ADF1
:1021D000050800A50509009C050800940508008C69
:1021E000050800840508007C050800740508006CDB
:1021F000050700650508005D050700560508004E47
:1022000005070047050700400508003805070031AD
:102210000507002A050700230507001C0506001610
:102220000507000F0507000805060002050700FB6B
:10223000040600F5040700EE040600E8040600E2C8
:10224000040700DB040600D5040600CF040600C91D
:10225000040600C3040600BD040600B7040600B16E
:10226000040500AC040600A6040600A00405009BBB
:1022700004060095040500900406008A0405008504
:10228000040500800406007A04050075040500704A
:102290000405006B04050066040500610405005C8C
:1022A00004050057040500520405004D04050048CC
:1022B000040500430405003E0404003A040500350B
:1022C000040500300404002C040500270404002346
:1022D0000405001E0404001A04040016040500117D
:1022E0000404000D040400090405000404040000B3
:1022F000040400FC030400F8030400F4030400F0E9
:10230000030400EC030400E8030400E4030400E019
:10231000030400DC030400D8030400D4030400D049
:10232000030400CC030400C8030300C50303002416
:10233000F404D9201BC40C5C0E9804C4095F026528
:10234000077101F405F900FB04B30048048700C1DC
:102350000369005803550003034500BE023A008498
:1023600002310053022A002902250004022000E461
:10237000011C00C8011900AF011700980114008466
:10238000011300710110006101100051010E0043A2
:10239000010D0036010B002B010B0020010B001575
:1023A0000109000C01090003010800FB000800F30B
:1023B000000800EB000700E4000600DE000600D87D
:1023C000000600D2000600CC000500C7000500C2D0
:1023D000000500BD000400B9000400B5000400B110
:1023E000000400AD000400A9000400A5000300A241
:1023F0000003009F0004009B000300980003009569
:1024000000020093000300900003008D0002008B87
:10241000000300880002008600020084000300819F
:102420000002007F0002007D0002007B00020079B4
:1024300000020077000100760002007400020072C2
:10244000000100710002006F0002006D0001006CCD
:102450000002006A000100690002006700010066D6
:1024600000010065000100640002006200010061DB
:10247000000100600001005F0002005D0001005CDF
:102480000001005B0001005A0001005900010058E2
:1024900000010057000100560001005500010054E2
:1024A00000010053000000530001005200010051E0
:1024B000000100500001004F0001004E0000004EDE
:1024C0000001004D0001004C0001004B0000004BDA
:1024D0000001004A000100490001004800000048D6
:1024E00000010047000100460000004600010045D1
:1024F00000000045000100440001004300000043CB
:1025000000010042000000420001004100000041C3
:10251000000100400001003F0000003F0001003EBC
:102520000000003E0001003D0000003D0001003CB5
:102530000000003C0000003C0001003B0000003BAC
:102540000001003A0000003A0001003900000039A3
:10255000000100380000003800000038000100379A
:102560000000003700010036000000360000003691
:102570000001003500000035000000350001003486
:10258000000000340000003400010033000000337C
:102590000000003300010032000000320000003271
:1025A0000001003100000031000000310001003066
:1025B00000000030000000300001002F0000002F5C
:1025C0000000002F0000002F0001002E0000002E50
:1025D0000000002E0001002D0000002D0000002D45
:1025E0000000002D0001002C0000002C0000002C39
:1025F0000000002C0001002B0000002B0000002B2D
:102600000000002B0001002A0000002A0000002A20
:102610000000002A00010029000000290000002914
:102620000000002900000029000100280000002807
:1026300000000028000000280000002800010027FA
:1026400000000027000000270000002700000027EE
:1026500000010026000000260000002600000026E1
:1026600000000026000100250000002500000025D4
:1026700000000025000000250000002500010024C6
:1026800000000024000000240000002400000024BA
:1026900000010023000000230000002300000023AD
:1026A000000000230000002300000023000100229E
:1026B0000000002200000022000000220000002292
:1026C0000000002200010021000000210000002184
:1026D0000000002100000021000000210000002176
:1026E0000001002000000020000000200000002069
:1026F000000000200000002000000020000000205A
:102700000001001F0000001F0000001F0000001F4C
:102710000000001F0000001F0000001F0001001E3D
:102720000000001E0000001E0000001E0000004D02
:10273000383420582059205A2045006265640A0028
:102740002C2073797374656D2073746F7070656479
:1027500021204865617465725F49443A20004865EC
:102760006174696E67206661696C656400486561C3
:1027700074696E67206661696C65640043616E6EA2
:102780006F74206F70656E207375626469722000CB
:10279000544845524D414C2052554E4157415900E5
:1027A000546865726D616C2052756E617761790055
:1027B000656E7175657565696E6720220065636871
:1027C0006F3A0053442063617264206F6B0A006F9C
:1027D00070656E526F6F74206661696C65640A0083
:1027E000766F6C756D652E696E6974206661696CB3
:1027F00065640A00534420696E6974206661696CDF
:102800000A006175746F25692E67004D3234004DE2
:1028100032332025730057726974696E6720746FB4
:102820002066696C653A20006F70656E206661698C
:102830006C65642C2046696C653A20006F70656E8B
:10284000206661696C65642C2046696C653A2000DD
:1028500046696C652073656C65637465640A002065
:1028600053697A653A200046696C65206F70656E21
:1028700065643A20006F70656E206661696C6564FE
:102880002C2046696C653A20002066696C653A2008
:10289000004E6F7720002220706F7300222070613D
:1028A00072656E743A2200535542524F5554494E48
:1028B000452043414C4C207461726765743A220094
:1028C0004B494C4C45442E2000747279696E672048
:1028D000746F2063616C6C207375622D67636F6425
:1028E000652066696C6573207769746820746F6F02
:1028F000206D616E79206C6576656C732E204D417C
:1029000058206C6576656C2069733A004572726F69
:10291000723A0025753A2530327500253032753A05
:10292000253032750025756420253032753A253002
:102930003275005A005900580009200000000000BC
:1029400000000000000000007FFFE0000000000029
:10295000000000000000007000E000000000000027
:1029600000000000000061F86000000000000000AE
:10297000000000000041F8200000000000000000FE
:102980000000000040F020000000000000000000F7
:102990000000004060200000000000000000000077
:1029A00000005801A07F800000000000000000002F
:1029B000005C63A0FFC000000000000000000000F9
:1029C0005EF7A0FFC0000000000000000000005EF5
:1029D000F7A0FFC0000000000000000000005C63E2
:1029E000A07F80000000000000000000005801A04F
:1029F0007F8000000000000000000000406020FF19
:102A0000C00000000000000000000040F020FFC0F7
:102A10000000000000000000000041F820FFC0009E
:102A200000000000000000000061F8603F000000AE
:102A300000000000000000007000E01E0000000028
:102A4000000000000000007FFFE00C00000000001C
:102A50000000000000000000000000000000000076
:102A600000000000007FFFE0000000000000000008
:102A7000000000007000E000000000000000000006
:102A8000000000630C600000000000000000000077
:102A90000000470E200000000000000000000000C1
:102AA000004F0F20000000000000000000000000A8
:102AB0005F0FA00000000000000000000000005EAA
:102AC00007A07F80000000000000000000004060C0
:102AD00020FFC00000000000000000000040F020C7
:102AE000FFC00000000000000000000040F020FFD8
:102AF000C0000000000000000000004060207F8057
:102B0000000000000000000000005E07A07F8000C1
:102B10000000000000000000005F0FA0FFC00000E8
:102B200000000000000000004F0F20FFC000000068
:102B300000000000000000470E20FFC00000000061
:102B4000000000000000630C603F00000000000077
:102B500000000000007000E01E0000000000000007
:102B6000000000007FFFE00C0000000000000000FB
:102B700000000000000000060900FE000000000048
:102B800001090008FE000005080806000040F0C822
:102B90008888987810050808060000C0F88888889A
:102BA0008888F80505050600012030F83020050862
:102BB000080600002070F820202020E00509090602
:102BC00000FF2070A8A8B8888870200509090600B1
:102BD000FFE080C0B0A8283028280509090600FFBA
:102BE000F8A88888888888A8F8050A0A0600FE20C0
:102BF0005050505088A8A888700303030600034073
:102C0000A04020746F6F206C6F6E672065787472BF
:102C10007573696F6E2070726576656E7465640A8F
:102C20000020636F6C6420657874727573696F6ED1
:102C30002070726576656E7465640A005654726120
:102C400076206D696E005654726176206D696E0053
:102C50005654726176206D696E00566D696E00562D
:102C60006D696E00566D696E00566D617820450085
:102C7000566D6178204500566D6178204500566D8F
:102C80006178205A00566D6178205A00566D61783F
:102C9000205A00566D6178205900566D6178205990
:102CA00000566D6178205900566D617820580056A5
:102CB0006D6178205800566D61782058004D6F7412
:102CC000696F6E00416D6178204500416D6178202B
:102CD0004500416D6178205A00416D6178205A00AD
:102CE000416D6178205900416D6178205900416D36
:102CF0006178205800416D6178205800412D747230
:102D00006176656C00412D74726176656C00412DB1
:102D10007265747261637400412D726574726163CF
:102D20007400416363656C00416363656C004D6FC3
:102D300074696F6E0056652D6A65726B0056652D5D
:102D40006A65726B0056652D6A65726B00567A2D46
:102D50006A65726B00567A2D6A65726B0056792D22
:102D60006A65726B0056792D6A65726B0056792D13
:102D70006A65726B0056782D6A65726B0056782D05
:102D80006A65726B0056782D6A65726B004D6F74C0
:102D9000696F6E0020440020490020204D333031FF
:102DA0002050005049442073657474696E67733A0B
:102DB0000A0020460020420020480020204D3134E7
:102DC000352053004D6174657269616C20686561DE
:102DD00074757020706172616D65746572733A0A02
:102DE0000020204D363636205A005A3220456E6477
:102DF00073746F702061646A7573746D656E743A74
:102E00000A00205A0020590020204D323036205828
:102E100000486F6D65206F66667365743A0A00201E
:102E20004500205A0020590020580020420020541C
:102E30000020204D323035205300416476616E63AE
:102E400065643A20533C6D696E5F666565647261C6
:102E500074653E20543C6D696E5F74726176656C7A
:102E60005F66656564726174653E20423C6D696EA3
:102E70005F7365676D656E745F74696D655F6D73B3
:102E80003E20583C6D61785F78795F6A65726B3E71
:102E9000205A3C6D61785F7A5F6A65726B3E2045AF
:102EA0003C6D61785F655F6A65726B3E0A00205415
:102EB0000020520020204D32303420500041636306
:102EC000656C65726174696F6E2028756E697473C4
:102ED0002F7332293A20503C7072696E745F6163BF
:102EE00063656C3E20523C726574726163745F610D
:102EF0006363656C3E20543C74726176656C5F61FF
:102F00006363656C3E0A00204500205A002059008A
:102F100020204D3230312058004D6178696D756D3B
:102F200020416363656C65726174696F6E202875FA
:102F30006E6974732F7332293A0A00204500205AB3
:102F40000020590020204D3230332058004D617848
:102F5000696D756D2066656564726174657320289E
:102F6000756E6974732F73293A0A00204500205A40
:102F70000020590020204D393220580053746570CC
:102F8000732070657220756E69743A0A0020204DB6
:102F90003230302044300A0020204D32303020447E
:102FA000002044697361626C65640A0046696C6163
:102FB0006D656E742073657474696E67733A002072
:102FC000204D3134392043203B20556E69747320E5
:102FD000696E2043656C736975730A00202047325F
:102FE00031202020203B20556E69747320696E20AB
:102FF0006D6D0A004D6F76652058004D6F76652027
:1030000059004D6F7665205A004578747275646575
:1030100072004D6F766520302E316D6D004D6F76EC
:103020006520316D6D004D6F76652031306D6D001E
:103030004D6F7665206178697300457874727564A8
:103040006572004D6F7665205A004D6F7665205988
:10305000004D6F766520580045787472756465720E
:10306000004D6F7665205A004D6F76652059004DF2
:103070006F76652058005072657061726500E1D20C
:10308000B1D011241FBECFEFD1E2DEBFCDBF00E033
:103090000CBF13E0A0E0B2E0E8ECF3EC01E00BBF02
:1030A00002C007900D92A03EB107D9F723E1A0EE30
:1030B000B3E001C01D92AA3FB207E1F718E1C0E4F6
:1030C000D8E100E006C021970109802FFE010E948F
:1030D0004DE1CF33D10780E00807A9F70E94FECB6E
:1030E0000C94D3E10C9400002F923F924F925F9288
:1030F0006F927F928F929F92AF92BF92CF92DF9208
:10310000EF92FF920F931F93CF93DF93CDB7DEB76C
:10311000C45AD1090FB6F894DEBF0FBECDBF0091DF
:10312000D40520E6029F800111240C5A1B4F809188
:10313000621380FF1AC0EDEBF7E284917F013FEF4D
:10314000E31AF30A811102C0780104C00E94C08111
:10315000F701F3CFD7018D917D01882319F00E94EB
:10316000C081F8CF8AE00E94C08181E090E0909316
:1031700097078093960710920B0410920A048FE32E
:1031800080930E0410920D0410920C041092FA0316
:103190001092FB031092FC031092FD03F801808152
:1031A0000F5F1F4F8032D1F38E34B1F4818190EDE7
:1031B000980F9A3020F08D3211F08B3269F43296EC
:1031C000DF0131962C9120532A30D0F3CD01FC0140
:1031D000019620812032D9F3F0939E07E0939D075A
:1031E0007F01BFEFEB1AFB0A10816AE270E0C701B2
:1031F0000E949BE1009731F0FC0131978081803281
:10320000E1F311821D3429F0143519F0173409F057
:10321000CEC0F70180812FEFE21AF20A8032C9F3A3
:1032200080538A3008F0C3C010930E0420910C0420
:1032300030910D044AE03196429FC001439F900DAA
:103240001124DF0111972C91022E000C330B205317
:103250003109280F391F808180538A3060F3309301
:103260000D0420930C04DF0131968C918032D9F348
:103270001D3451F000919D0760910A0470910B0478
:1032800088248394912C55C02E31310591F03CF463
:103290002731310571F02C31310561F70AC025372E
:1032A000310544F32737310524F0203A43E0340751
:1032B00009F7B0930B04A0930A0479C0413209F4D2
:1032C00042C0EFEBE40FEA3108F05DC0DC017D01A4
:1032D0005D915032E1F3C701A0EDA50FAA3008F0CF
:1032E00046C0DC01EE2EF12C670153E0D594C79463
:1032F0005A95E1F7A60146505C4F6A014E2F477080
:10330000F40102C0EE0FFF1F4A95E2F7AF01F6018C
:103310005081452B40831097A1F1A01BA70140527B
:103320005C4FFA01A083DC014C9141544A3180F595
:10333000DC01CD0101964C914111C0CF70930B047B
:1033400060930A0434C01D3409F0BBCF203231052C
:1033500009F0B7CF90930B0480930A0463E270E006
:103360000E949BE1009719F1DC011C9220C0A3EDA3
:10337000A50FA23008F4B5CF5B3211F00C9449349C
:10338000B0CFA0E0CBCF6115710569F6BD01CBCF01
:10339000AD011196FA01908190539A30C8F3CA0199
:1033A0004F5F5F4FFC01A081A032C9F3C1CF809174
:1033B0000E048D3411F40C947A27843511F40C9496
:1033C000E733873411F00C94283480910C049091E9
:1033D0000D048430910509F46AC65CF497FF02C0BD
:1033E0000C94423420914A02823091050CF00DC1B8
:1033F0001CC08A35910511F40C94B82654F485301C
:10340000910509F49AC64C9711F40C949E250C94DE
:1034100042348B35910511F40C94BC268C35910502
:1034200011F40C94C1260C944234222311F40C9410
:1034300042340E94E64B83EB97E00E94CF530E94F8
:10344000B5818091621383FD8FC0C090BF07D0907B
:10345000C007E090C107F090C20720912F0430917F
:1034600030044091310450913204C701B6010E94EA
:103470002FDA882309F478C080915913811138C05C
:1034800060914B0270914C02072E000C880B990B37
:103490000E9435DA9B01AC016091191370911A13E7
:1034A00080911B1390911C130E942FDA87FF20C07C
:1034B000C0922F04D0923004E0923104F092320492
:1034C000EDEBF7E284918F010F5F1F4F882321F00E
:1034D0000E94C081F801F6CFE8EFF1E084918F01FE
:1034E0000F5F1F4F882321F00E94C081F801F6CFA3
:1034F000C090BF07D090C007E090C107F090C2070E
:1035000020912F04309130044091310450913204C5
:10351000C701B6010E9445DE20E030E048E453E4F4
:103520000E946CE0181604F5C0922F04D09230046B
:10353000E0923104F0923204EDEBF7E284918F01D6
:103540000F5F1F4F882321F00E94C081F801F6CF42
:10355000E9EDF1E084918F010F5F1F4F882321F087
:103560000E94C081F801F6CF2091B3073091B407D3
:103570004091B5075091B6076091230470912404DF
:1035800080912504909126040E942FDA81111DC09C
:103590002091B7073091B8074091B9075091BA0709
:1035A00060912704709128048091290490912A0445
:1035B0000E942FDA811109C060910002709101020E
:1035C00080910202909103021AC0609133027091BF
:1035D0003402072E000C880B990B0E9435DA2091DB
:1035E00000023091010240910202509103020E94B8
:1035F00094DA2AE037ED43E25CE30E9494DA0E9419
:10360000C57F0E94C24C0C944234222311F40C94C6
:10361000423411E0029709F010E00E94E64B82E587
:103620000E94A381882309F452C10E9441816B0149
:103630007C014090230450902404609025047090F5
:1036400026042091270430912804409129045091A8
:103650002A042BAF3CAF4DAF5EAF8091B307909182
:10366000B407A091B507B091B60723968CAF9DAF74
:10367000AEAFBFAF23972091B7073091B807409105
:10368000B9075091BA072B962CAF3DAF4EAF5FAF45
:103690002B9720E030E0A901C701B6010E942FDA84
:1036A000882309F4EAC4A301920123966CAD7DAD91
:1036B0008EAD9FAD23970E942FDA81110FC02BADE5
:1036C0003CAD4DAD5EAD2B966CAD7DAD8EAD9FAD81
:1036D0002B970E942FDA882309F4CFC420E030E032
:1036E000A901C701B6010E942FDA881F8827881F09
:1036F00018130BC080E090E0A0E8BFE367968CAFA2
:103700009DAFAEAFBFAF67970AC020E030E040E8A2
:103710005FEB67962CAF3DAF4EAF5FAF6797A301EE
:10372000920123966CAD7DAD8EAD9FAD23970E9427
:1037300045DE2F966CAF7DAF8EAF9FAF2F972BAD31
:103740003CAD4DAD5EAD2B966CAD7DAD8EAD9FAD00
:103750002B970E9445DE63966CAF7DAF8EAF9FAF17
:1037600063972F962CAD3DAD4EAD5FAD2F97CA013F
:10377000B9010E9494DA4B015C0163962CAD3DAD1A
:103780004EAD5FAD6397CA01B9010E9494DA9B0107
:10379000AC01C501B4010E9446DE0E94B1E027964B
:1037A0006CAF7DAF8EAF9FAF279720E030E040E059
:1037B0005FE30E9494DA4B015C01A7019601C70107
:1037C000B6010E9494DA6B017C01A5019401C50148
:1037D000B4010E9494DA9B01AC01C701B6010E94BA
:1037E00045DE0E94B1E09B01AC0167966CAD7DADFA
:1037F0008EAD9FAD67970E9494DA4B015C012396D2
:103800002CAD3DAD4EAD5FAD2397C301B2010E941B
:1038100046DE20E030E040E05FE30E9494DA6B0196
:103820007C0163966CAD7DAD8EAD9FAD6397905876
:1038300027962CAD3DAD4EAD5FAD27970E9422DFA0
:103840009B01AC01C501B4010E9494DA9B01AC015B
:10385000C701B6010E9446DEA30192010E9445DE27
:103860006B017C012B962CAD3DAD4EAD5FAD2B9722
:103870006BAD7CAD8DAD9EAD0E9446DE20E030E0AC
:1038800040E05FE30E9494DA2B013C0127962CADC7
:103890003DAD4EAD5FAD27972F966CAD7DAD8EAD36
:1038A0009FAD2F970E9422DF9B01AC01C501B4019F
:1038B0000E9494DA9B01AC01C301B2010E9446DE72
:1038C0002BAD3CAD4DAD5EAD0E9445DE14C089E42C
:1038D0000E94A381882329F00E9441816B017C0111
:1038E00003C0C12CD12C76018AE40E94A3818823D5
:1038F000F9F00E9441812B966CAF7DAF8EAF9FAFE8
:103900002B9720E030E0A901C701B6010E942FDA11
:1039100081111EC020E030E0A9012B966CAD7DAD79
:103920008EAD9FAD2B970E942FDA811111C0A5C3D8
:1039300020E030E0A901C701B6010E942FDA8823F8
:1039400009F49BC32B961CAE1DAE1EAE1FAE2B976B
:10395000D701C601B0588BAF9CAFADAFBEAF2B96B1
:103960002CAD3DAD4EAD5FAD2B97505823962CAF8F
:103970003DAF4EAF5FAF23979C01AD01BC01CD01C0
:103980000E9494DA4B015C0123962CAD3DAD4EAD07
:103990005FAD2397CA01B9010E9494DA9B01AC0183
:1039A000C501B4010E9446DE0E94B1E0AF966CAF43
:1039B0007DAF8EAF9FAFAF97809123049091240489
:1039C000A0912504B091260427968CAF9DAFAEAF91
:1039D000BFAF2797A7019601BC01CD010E9446DE2B
:1039E00067966CAF7DAF8EAF9FAF6797A0902704AF
:1039F000B0902804C0902904D0902A042F96ACAE31
:103A0000BDAECEAEDFAE2F972B962CAD3DAD4EADFD
:103A10005FAD2B97C601B5010E9446DE6B966CAF79
:103A20007DAF8EAF9FAF6B97C090B307D090B407B8
:103A3000E090B507F090B6076F96CCAEDDAEEEAE77
:103A4000FFAE6F9767962CAD3DAD4EAD5FAD6797FE
:103A5000C701B6010E9445DE6B017C012091B707CA
:103A60003091B8074091B9075091BA07A3962CAF8F
:103A70003DAF4EAF5FAFA3976B962CAD3DAD4EAD56
:103A80005FAD6B97A3966CAD7DAD8EAD9FADA397EB
:103A90000E9445DE4B015C0180912B0490912C0427
:103AA000A0912D04B0912E04A7968CAF9DAFAEAF20
:103AB000BFAFA7979C01AD016091BB077091BC0798
:103AC0008091BD079091BE070E9445DE63966CAF62
:103AD0007DAF8EAF9FAF63972091BF073091C00736
:103AE0004091C1075091C207E3962CAF3DAF4EAF56
:103AF0005FAFE39780912F0490913004A09131043F
:103B0000B0913204AB968CAF9DAFAEAFBFAFAB9769
:103B1000A70196016BAD7CAD8DAD9EAD0E9494DA90
:103B20002B013C01A501940123966CAD7DAD8EADBA
:103B30009FAD23970E9494DA9B01AC01C301B201AF
:103B40000E9446DE2B013C01A50194016BAD7CADCA
:103B50008DAD9EAD0E9494DA4B015C01A7019601E8
:103B600023966CAD7DAD8EAD9FAD23970E9494DA08
:103B70009B01AC01C501B4010E9445DEA301920185
:103B80000E94B9DE6B017C0120E030E0A9010E94B7
:103B90002FDA87FF0AC02BED3FE049EC50E4C70164
:103BA000B6010E9446DE6B017C01112351F02BED22
:103BB0003FE049EC50E4C701B6010E9445DE6B01CD
:103BC0007C0120E030E0A901C701B6010E942FDA94
:103BD000811128C06F962CAD3DAD4EAD5FAD6F9796
:103BE00027966CAD7DAD8EAD9FAD27970E942FDAE5
:103BF000811118C0A3962CAD3DAD4EAD5FADA3971E
:103C00002F966CAD7DAD8EAD9FAD2F970E942FDAB4
:103C1000811108C04BEDC42E4FE0D42E49ECE42EA8
:103C200040E4F42EAF962CAD3DAD4EAD5FADAF97F9
:103C3000C701B6010E9494DA9B01AC010E9494DA9C
:103C40004B015C0163962CAD3DAD4EAD5FAD63970E
:103C5000CA01B9010E9494DA9B01AC01C501B4010B
:103C60000E9446DE0E94B1E04B015C012FE632E18A
:103C700043E85AE30E942FDA87FDFBC1C501B40176
:103C80000E94BBDF0E948FDF2D967FAF6EAF2D9716
:103C9000672B31F421E030E02D963FAF2EAF2D970A
:103CA0002D96AEACBFAC2D97B50180E090E00E94A0
:103CB00033DA4B015C019B01AC01C701B6010E94E4
:103CC00022DF27966CAF7DAF8EAF9FAF2797A50100
:103CD000940163966CAD7DAD8EAD9FAD63970E94F0
:103CE00022DFAF966CAF7DAF8EAF9FAFAF97AB9635
:103CF0002CAD3DAD4EAD5FADAB97E3966CAD7DADFC
:103D00008EAD9FADE3970E9445DEA50194010E9410
:103D100022DFE3966CAF7DAF8EAF9FAFE397279620
:103D20002CAD3DAD4EAD5FAD2797CA01B9010E94E4
:103D300094DA20E030E040E05FE30E9494DA9B01F7
:103D4000AC0160E070E080E89FE30E9445DE63968E
:103D50006CAF7DAF8EAF9FAF6397A796CCACDDAC59
:103D6000EEACFFACA797C986DA86EB86FC86AB96ED
:103D7000ACACBDACCEACDFACAB97AD86BE86CF866F
:103D8000D88A6091330270913402072E000C880BA0
:103D9000990B0E9435DA2091000230910102409186
:103DA0000202509103020E9494DA2AE037ED43E2C6
:103DB0005CE30E9494DA6F966CAF7DAF8EAF9FAFDD
:103DC0006F970E9410399B01AC0128533F4F4F4F12
:103DD0005F4FA3962CAF3DAF4EAF5FAFA3974BACF9
:103DE0005CAC6DAC7EAC22242394312C39E1D32E13
:103DF0002D96AEACBFAC2D972A143B0409F425C117
:103E00000E9430910E941039DC01CB01A3962CADA9
:103E10003DAD4EAD5FADA397821B930BA40BB50BCD
:103E2000B7FD10C00E9410399B01AC0128533F4FD1
:103E30004F4F5F4FA3962CAF3DAF4EAF5FAFA397F1
:103E40000E942A51DA94DD2009F44BC063962CAD10
:103E50003DAD4EAD5FAD639723966CAD7DAD8EAD40
:103E60009FAD23970E9494DA4B015C0127962CADFD
:103E70003DAD4EAD5FAD2797B201C3010E9494DA0C
:103E8000A50194010E9446DE7B018C0163962CAD56
:103E90003DAD4EAD5FAD6397B201C3010E9494DAB0
:103EA0004B015C0127962CAD3DAD4EAD5FAD279724
:103EB00023966CAD7DAD8EAD9FAD23970E9494DAB5
:103EC0009B01AC01C501B4010E9445DE2B013C0100
:103ED000C701D80123968CAF9DAFAEAFBFAF23977C
:103EE00057C0B10180E090E00E9433DA27962CADF4
:103EF0003DAD4EAD5FAD27970E9494DA4B015C015A
:103F00000E941FDF6B017C01C501B4010E94A7E084
:103F10004B015C01A70196016BAD7CAD8DAD9EADF3
:103F20000E9494DA2B013C01A50194012B966CAD03
:103F30007DAD8EAD9FAD2B970E9494DA9B01AC01B5
:103F4000C301B2010E9446DE2B013C01A501940190
:103F50006BAD7CAD8DAD9EAD0E9494DA4B015C01E2
:103F6000A70196012B966CAD7DAD8EAD9FAD2B97C5
:103F70000E9494DA9B01AC01C501B4010E9445DEA8
:103F800023966CAF7DAF8EAF9FAF239799E1D92E6B
:103F90009201A30167966CAD7DAD8EAD9FAD679725
:103FA0000E9446DE69837A838B839C8323962CADA3
:103FB0003DAD4EAD5FAD23976B966CAD7DAD8EADD7
:103FC0009FAD6B970E9446DE6D837E838F839887BB
:103FD000AF962CAD3DAD4EAD5FADAF9769857A859F
:103FE0008B859C850E9446DE69877A878B879C87B4
:103FF000E3962CAD3DAD4EAD5FADE3976D857E850F
:104000008F8598890E9446DE6D877E878F87988B83
:10401000CE0101960E94CF53C090CE076F96ECACB4
:10402000FDAC0EAD1FAD6F979E01235F3F4FAE01FC
:10403000475F5F4FBE016B5F7F4FCE0101960E94CD
:10404000A2A93FEF231A330AD3CEC090CE076F96B2
:10405000ECACFDAC0EAD1FAD6F972FEB37E04BEB2B
:1040600057E067EB77E083EB97E00E94A2A90E94FC
:10407000C24C0E94B5810C944234ECE0F9E2849188
:104080008F010F5F1F4F882321F00E94C081F8012C
:10409000F6CFE3E1F2E084918F010F5F1F4F882399
:1040A00011F40C9442340E94C081F801F4CF80E5F1
:1040B0000E94A381882329F00E9401816B017C0169
:1040C00003C0C12CD12C760183E50E94A3818823F3
:1040D00061F00E94418120E030E04AE754E40E9410
:1040E00094DA0E948FDF6B017C010E941192809113
:1040F0006902811105C060E089E292E00E94728C41
:104100000E94B58180919F079091A007A091A1077F
:10411000B091A207C80ED91EEA1EFB1E0E941039DC
:10412000DC01CB018C199D09AE09BF09B7FD02C0A6
:104130000C9442340E942A51F1CF80914A02882384
:1041400011F40C9442340E94E64B89E40E94A3814E
:10415000882329F00E9441812B013C0103C0412C9E
:10416000512C32018AE40E94A381882329F00E9405
:1041700041814B015C0103C0812C912C540180E5ED
:104180000E94A381882329F00E9441816B017C0158
:1041900003C0C12CD12C760181E50E94A381882324
:1041A00039F00E9441816BAF7CAF8DAF9EAF04C0F0
:1041B0001BAE1CAE1DAE1EAE2091CE07C456DF4F07
:1041C0002883CC59D0406091330270913402072E7D
:1041D000000C880B990B0E9435DA20910002309177
:1041E000010240910202509103020E9494DA2AE0F7
:1041F00037ED43E25CE30E9494DAC356DF4F6883F5
:1042000079838A839B83CD59D040809123049091F8
:104210002404A0912504B091260423968CAF9DAF71
:10422000AEAFBFAF2397A3019201BC01CD010E94A5
:1042300046DEAF966CAF7DAF8EAF9FAFAF9740902D
:104240002704509028046090290470902A04A50146
:104250009401C301B2010E9446DEE3966CAF7DAFCC
:104260008EAF9FAFE3972091B3073091B407409191
:10427000B5075091B607C701B6010E9446DEEB961E
:104280006CAF7DAF8EAF9FAFEB972091B7073091AA
:10429000B8074091B9075091BA076BAD7CAD8DADB1
:1042A0009EAD0E9446DEEF966CAF7DAF8EAF9FAFA6
:1042B000EF972396ACACBDACCEACDFAC2397A98214
:1042C000BA82CB82DC824D825E826F8278860E94C7
:1042D00010399B01AC0128533F4F4F4F5F4FC956D8
:1042E000DF4F288339834A835B83C759D0408DECE5
:1042F000882E8CEC982EA92C8DE3B82E1BAE1FAE09
:1043000028961FAE289724961FAE24970E943091BE
:104310000E9410398B019C01C956DF4FC880D9809B
:10432000EA80FB80C759D0400C191D092E093F09AE
:1043300037FD10C09B01AC0128533F4F4F4F5F4FDB
:10434000C956DF4F288339834A835B83C759D040DE
:104350000E942A51A5019401BBADAFAD2896FFADD7
:1043600028972496EFAD24976B2F7A2F8F2F9E2FAF
:104370000E9446DE2B011C0120E030E040E85FE3B4
:104380000E946CE0181634F4412C512C10E8212EB8
:104390000FE3302E8091B3079091B407A091B50739
:1043A000B091B607C158DF4F88839983AA83BB8336
:1043B000CF57D040A0902304B0902404C09025048F
:1043C000D0902604CD57DF4FA882B982CA82DB8203
:1043D000C358D0403F922F925F924F92C158DF4F07
:1043E000A880B980CA80DB80CF57D040EB96ECAC78
:1043F000FDAC0EAD1FADEB97AF962CAD3DAD4EAD08
:104400005FADAF97CD57DF4F688179818A819B81FE
:10441000C358D0400E94EAC60F900F900F900F90A3
:104420002C966FAF2C9760967FAF609764968FAF96
:10443000649768969FAF6897C090B707D090B80709
:10444000E090B907F090BA07C957DF4FC882D98208
:10445000EA82FB82C758D04020912704309128047B
:104460004091290450912A04C557DF4F288339838E
:104470004A835B83CB58D0403F922F925F924F92FA
:10448000C957DF4FA880B980CA80DB80C758D040A9
:10449000EF96ECACFDAC0EAD1FADEF97E3962CADF7
:1044A0003DAD4EAD5FADE397C557DF4F6881798174
:1044B0008A819B81CB58D0400E94EAC60F900F9012
:1044C0000F900F906C966FAF6C97A0967FAFA097F0
:1044D000A4968FAFA497A8969FAFA89789819A8139
:1044E000AB81BC81C157DF4F88839983AA83BB838B
:1044F000CF58D040AD80BE80CF80D884CD56DF4F1E
:10450000A882B982CA82DB82C359D040E4961FAE2A
:10451000E4977BAD6FAD28969FAD289724968FAD1D
:104520002497272F362F492F582F642D752D822D34
:10453000932D0E9445DE2FE632E143E05BE30E94CB
:104540002FDA87FF06C0E496BFACE497B11031C202
:1045500013C2242D352D422D532DBBADAFAD289662
:10456000FFAD28972496EFAD24976B2F7A2F8F2FCE
:104570009E2F0E9446DE20E030E040E05FE30E9494
:1045800094DA3B014C019F928F937F926F93C158B5
:10459000DF4FA880B980CA80DB80CF57D040EB9630
:1045A000ECACFDAC0EAD1FADEB97AF962CAD3DADB9
:1045B0004EAD5FADAF97CD57DF4F688179818A816E
:1045C0009B81C358D0400E94EAC60F900F900F9075
:1045D0000F90E5966FAFE597E6967FAFE697E79683
:1045E0008FAFE797C556DF4F9883CB59D0409F9246
:1045F0008F927F926F92C957DF4FA880B980CA808F
:10460000DB80C758D040EF96ECACFDAC0EAD1FADD3
:10461000EF97E3962CAD3DAD4EAD5FADE397C5573B
:10462000DF4F688179818A819B81CB58D0400E947D
:10463000EAC60F900F900F900F905B018C012C96A3
:104640002FAD2C9760963FAD609764964FAD649701
:1046500068965FAD6897C157DF4F688179818A811D
:104660009B81CF58D0400E9446DE20E030E040E001
:104670005FE30E9494DA9B01AC01E5966FADE5978C
:10468000E6967FADE697E7968FADE797C556DF4F85
:104690009881CB59D0400E9445DE6B017C01E894A3
:1046A000F7F86C962FAD6C97A0963FADA097A496A7
:1046B0004FADA497A8965FADA897CD56DF4F688100
:1046C00079818A819B81C359D0400E9446DE20E0D7
:1046D00030E040E05FE30E9494DA9B01AC01B50159
:1046E000C8010E9445DE9B01AC015F77C701B6019E
:1046F0000E9446DE2DEC3CEC4CEC5DE30E942FDA90
:1047000018160CF020CF6C96AFAE6C97A096BFAE8B
:10471000A097A4960FAFA497A8961FAFA897E59669
:10472000CFACE5972C96CFAE2C97E696DFACE6970C
:104730006096DFAE6097E796EFACE7976496EFAED2
:104740006497C556DF4FF880CB59D0406896FFAECE
:1047500068972301140121E0E4962FAFE497D9CEA6
:10476000A7019601C701B6010E9446DE9B01AC017C
:10477000BBADAFAD2896FFAD28972496EFAD24973B
:104780006B2F7A2F8F2F9E2F0E9446DE962E872E1C
:10479000782E692E20E030E040E85FE3D401F30199
:1047A0006B2F7A2F8F2F9E2F0E946CE087FF01C105
:1047B0006F927F928F929F92C158DF4FA880B980ED
:1047C000CA80DB80CF57D040EB96ECACFDAC0EAD91
:1047D0001FADEB97AF962CAD3DAD4EAD5FADAF9736
:1047E000CD57DF4F688179818A819B81C358D04042
:1047F0000E94EAC60F900F900F900F90E4966FAF53
:10480000E497E5967FAFE597E6968FAFE697E79654
:104810009FAFE7976F927F928F929F92C957DF4F1A
:10482000A880B980CA80DB80C758D040EF96ECAC36
:10483000FDAC0EAD1FADEF97E3962CAD3DAD4EAD8B
:104840005FADE397C557DF4F688179818A819B818E
:10485000CB58D0400E94EAC60F900F900F900F9057
:104860005B018C01E4962FADE497E5963FADE597AB
:10487000E6964FADE697E7965FADE797C157DF4FF6
:10488000688179818A819B81CF58D0400E9446DE21
:1048900020E030E040E05FE30E9494DA9B01AC014D
:1048A0002C966FAD2C9760967FAD609764968FAD18
:1048B000649768969FAD68970E9445DE6B017C0106
:1048C000E894F7F89501A801CD56DF4F688179810A
:1048D0008A819B81C359D0400E9446DE20E030E0AF
:1048E00040E05FE30E9494DA9B01AC016C966FADEF
:1048F0006C97A0967FADA097A4968FADA497A8962D
:104900009FADA8970E9445DE9B01AC015F77C70170
:10491000B6010E9446DE2DEC3CEC4CEC5DE30E94BF
:104920006CE018160CF445C06C96AFAE6C97A09670
:10493000BFAEA097A4960FAFA497A8961FAFA89755
:10494000E4963FADE4972C963FAF2C97E5964FAD9C
:10495000E59760964FAF6097E6965FADE6976496F1
:104960005FAF6497E7968FADE79768968FAF6897CC
:10497000492C582C272C362C7BAD6FAD28969FAD3B
:10498000289724968FAD2497272F362F492F582FFD
:10499000642D752D822D932D0E9445DE6B017C01C7
:1049A0002DEC3CEC4CEC5DE30E946CE018160CF036
:1049B000D7CE7BAD6FAD28969FAD289724968FAD4F
:1049C0002497272F362F492F582F642D752D822D90
:1049D000932D0E9445DE4B015C012C968FAD2C97E8
:1049E00060969FAD60976496AFAD64976896BFADD3
:1049F000689789839A83AB83BC836C968FAD6C97E1
:104A0000A0969FADA097A496AFADA497A896BFAD72
:104A1000A8978D839E83AF83B887242D352D422D93
:104A2000532D60E070E080E89FE30E9445DE6B015B
:104A30007C0120912B0430912C0440912D04509145
:104A40002E040E9494DA6BAF7CAF8DAF9EAF2091A5
:104A5000BB073091BC074091BD075091BE07642D44
:104A6000752D822D932D0E9494DA9B01AC016BADC4
:104A70007CAD8DAD9EAD0E9446DE69877A878B87BF
:104A80009C8720912F043091300440913104509143
:104A90003204C701B6010E9494DA6B017C012091B7
:104AA000BF073091C0074091C1075091C207642DE4
:104AB000752D822D932D0E9494DA9B01AC01C701C4
:104AC000B6010E9446DE6D877E878F87988BCE0168
:104AD00001960E94CF53C456DF4FC880CC59D040B6
:104AE000C356DF4FE880F9800A811B81CD59D04041
:104AF0009E01235F3F4FAE01475F5F4FBE016B5F7B
:104B00007F4FCE0101960E94A2A920E030E040E84C
:104B10005FE3642D752D822D932D0E942FDA87FF80
:104B200009C04BAE5FAE28962FAE289724963FAEB5
:104B30002497ECCB0E94C24C0C9442340E941192F8
:104B400040900002509001026090020270900302B7
:104B5000409206045092070460920804709209047F
:104B60008091330290913402909305048093040461
:104B700084E690E090933402809333020E94B581E2
:104B800081E08093130488E50E947481282E89E5D2
:104B90000E947481082F8AE50E947481382E2110AA
:104BA00005C0011105C011E0182705C0011102C0A0
:104BB00010E001C0182F80E1E3E2F4E0A3EBB7E0DE
:104BC00001900D928A95E1F7111105C0211003C0E3
:104BD000002309F4A0C020E030E040EA50E46091F6
:104BE000D7077091D8078091D9079091DA070E9472
:104BF00046DE6B017C016093BB077093BC0780931A
:104C0000BD079093BE0780902B0490902C04A09039
:104C10002D04B0902E04A50194010E946CE018169A
:104C20000CF066C0A7019601C501B4010E942FDAFD
:104C300087FF18C0E6E1FEE085919591A591B491BA
:104C40008093000290930102A0930202B0930302AA
:104C5000C0922B04D0922C04E0922D04F0922E04EA
:104C60000E94DE7F85E595E5A5E0B3E48093000230
:104C700090930102A0930202B09303020E94DE7F90
:104C8000C090BB07D090BC07E090BD07F090BE0776
:104C9000A701960160912B0470912C0480912D0442
:104CA00090912E040E946CE01816C4F4E6E1FEE038
:104CB00085919591A591B491809300029093010202
:104CC000A0930202B0930302C0922B04D0922C0452
:104CD000E0922D04F0922E040E94DE7F0E94119239
:104CE000409200025092010260920202709203020E
:104CF000111105C0211003C0011107C00CC080E0D4
:104D000090E00E946D4F1123B9F381E090E00E9482
:104D10006D4F111102C0332021F082E090E00E941B
:104D20006D4F0E94CA808091FE078093130480918A
:104D3000060490910704A0910804B091090480939F
:104D4000000290930102A0930202B09303028091AB
:104D500004049091050490933402809333020E94DE
:104D6000B58183E0809368020E9414470C9442341A
:104D7000109203040C94423481E0809303040C9459
:104D8000423485E40E94A381B82E811102C00E94A2
:104D90001192FCEA8F2EF2E09F2EA3E2CA2EA4E02D
:104DA000DA2EB7EAEB2EB7E0FB2E00E010E0A12CE4
:104DB000D4018D914D010E94A381882309F44EC036
:104DC000F6012081318142815381CF55DF4F288305
:104DD000C15AD040CE55DF4F3883C25AD040CD554E
:104DE000DF4F4883C35AD040CC55DF4F5883C45A55
:104DF000D0400E944181D6016D937D938D939C9309
:104E00001397CF55DF4F2881C15AD040CE55DF4F81
:104E10003881C25AD040CD55DF4F4881C35AD04067
:104E2000CC55DF4F5881C45AD04003301105B1F042
:104E30000E9445DE9B01AC01F70160817181828196
:104E400093810E9446DED7016D937D938D939C9351
:104E50001397C8010E94FD7FAA24A3940F5F1F4FE0
:104E6000B4E0CB0ED11CE4E0EE0EF11C04301105D1
:104E700009F09ECFAA2019F00E94CA8037C0BB203B
:104E8000A9F1C0902F04D0903004E0903104F0904C
:104E900032042091EF073091F0074091F1075091D3
:104EA000F207C701B6010E9494DA0E9477E060938E
:104EB000450E7093460E8093470E9093480EC7019F
:104EC000B6010E948ADF2FB7F89460939F0D70930C
:104ED000A00D8093A10D9093A20D2FBF1092350EBF
:104EE0001092360E1092370E1092380E0E94144710
:104EF0000C94423480910C0490910D0481379105FB
:104F000009F415C60CF0D3C08B34910509F42CC5F7
:104F10000CF068C08831910509F485C20CF03EC0E0
:104F20008231910509F4D1C6FCF497FF02C00C94BC
:104F30004234823091050CF494C1419711F00C94E5
:104F4000423460E085E692E00E94728C5F988A9815
:104F50009FB7F894809108018E7F809308019FBFCE
:104F6000479812980C9442348531910509F444C253
:104F70003CF4449711F00C944234EDE7F2E0F9C1AF
:104F80008631910509F43CC2479711F00C944234E4
:104F900080910A0490910B04FC013CC28C31910574
:104FA00009F496C264F48A31910509F447C20CF001
:104FB00053C21092790E0E9409C50C9442348F316D
:104FC000910509F4F1C32CF44E9709F48BC20C94AB
:104FD00042348032910509F49DC38A9709F489C44B
:104FE0000C9442348836910509F4C7C40CF040C0D3
:104FF0008235910509F462C614F58D34910509F4E2
:10500000B9C40CF4B4C48135910511F00C94423448
:105010000E945D440E9411920E949E5010920E08C0
:1050200010920D0868EE73E080E090E00E94898B9A
:1050300060E088ED93E00E94728C0C9442348435D9
:10504000910509F442C60CF43CC68535910509F476
:105050006DC68C35910511F00C9442349CEAC92E32
:1050600092E0D92E23EEE22E27E0F22E10E077C652
:105070008C36910509F455C53CF48A36910509F43E
:10508000F0C50CF490C50AC68E36910509F4C8C463
:105090000CF4CFC58F36910509F4D3C48037910540
:1050A00011F00C9442348BE993E00E94B0508C3D97
:1050B000910511F40C948F320CF05BC0813991058D
:1050C00011F40C948A304CF58637910509F45CC7CD
:1050D000A4F48337910509F4C6C60CF4BFC685371E
:1050E000910511F00C94423460E080910A04909193
:1050F0000B040E94928C0C9442348837910509F479
:10510000FEC70CF478C78937910509F4FEC78C38BF
:10511000910509F435C50C9442348B3C910511F48A
:105120000C94523184F4883C910511F40C94E830CD
:10513000893C910511F40C9430318B39910511F0B3
:105140000C9442344DC58D3C910511F40C94DA3128
:1051500014F40C9470318E3C910511F40C9445328A
:10516000833D910511F00C9442340E9460460C94EA
:1051700042348A39F1E09F0709F4D6C49CF58D3298
:1051800031E0930711F40C94BE32A4F4823E9105F1
:1051900011F40C9492328C3251E0950711F40C9476
:1051A00095328D3D910511F00C9442340E943946A0
:1051B0000C9442348F32A1E09A0711F40C94C4325B
:1051C00014F40C94C1328336E1E09E0711F40C9480
:1051D000BC338039914011F00C9442340E941192FA
:1051E0000C944234863F21E0920711F40C94AB33C7
:1051F000F4F4843F41E0940711F40C94A53314F0C7
:105200000C94A8338C3A914011F00C94423487E10D
:10521000C82E84E0D82E93E2E92E94E0F92E2BEDEF
:10522000222E27E0322E00E010E00C94C7328A399B
:10523000B2E09B0711F40C948C323CF4873F914010
:1052400011F40C94AE330C944234803A23E092076C
:1052500009F49DC2873E934011F40C94D5330C940D
:105260004234A0900A04B0900B0480E50E94A38110
:10527000882359F00E9401816B017C0111E0672BAA
:10528000682B692B31F410E004C010E0C12CD12C44
:10529000760183E50E94A3818823F1F00E94418179
:1052A00020E030E04AE754E40E9494DA0E948FDF65
:1052B0006B017C01111112C0672B682B692B71F4F3
:1052C000A114B10459F0D5018C91882339F061E023
:1052D000C5010E94928C07C0112391F360E082E522
:1052E00092E00E94728C83E090E090939707809305
:1052F000960781E08093A0080E9411920E94B581D8
:10530000C114D104E104F104E9F080919F07909168
:10531000A007A091A107B091A207C80ED91EEA1E4E
:10532000FB1E0E941039DC01CB018C199D09AE09CE
:10533000BF09B7FF1AC08091A0088823B1F00E946E
:105340002A51EFCF8091A008882319F00E942A519A
:10535000F9CF8091790E60E0882319F083E492E020
:1053600002C082E392E00E94728C1092A0080C941A
:10537000423484918F010F5F1F4F882321F00E94D8
:10538000C081F801F6CF1092FF101092FE1040E09D
:1053900050E0BA018AEA9EE00E9493708BE1EAEA4B
:1053A000FEE0DE01159601900D928A95E1F780915D
:1053B000A80E9091A90E9C838B8386E193E09A833B
:1053C000898340E050E0BE016F5F7F4F81ED93E045
:1053D0000E94E89BCE0101960E949650EEE6F2E014
:1053E00084918F010F5F1F4F882311F40C94423476
:1053F0000E94C081F801F4CF0E94B3A20C94423401
:105400001092790E10927A0E0C944234203209F4E4
:105410001082319620812111F9CF40E061E00E9495
:10542000879F0C94423480917A0E882319F081E092
:105430008093790E0E94C9C40C94423480917A0EF4
:10544000882311F40C94423483E50E94A3818111D6
:105450000C9453340C94423480917A0E882351F189
:10546000EEE8F2E084918F010F5F1F4F882321F057
:105470000E94C081F801F6CF6091F5107091F6108E
:105480008091F7109091F8104AE00E94C7818FE256
:105490000E94C0816091F1107091F2108091F31020
:1054A0009091F4104AE00E94C7818AE00E94C08176
:1054B0000C944234E0EAF2E084918F010F5F1F4FB9
:1054C000882311F40C9442340E94C081F801F4CF77
:1054D00040E060E080910A0490910B040E94879F55
:1054E0000C94423480917A0E882311F40C94423447
:1054F00084E490E10E94527084E490E10E94DE76A0
:105500001092780E1092770EE0900A04F0900B043F
:1055100080917A0E882311F40C9442340E947A9977
:105520001D8218861C821B8286E193E09A83898300
:1055300086EA9EE09093C60E8093C50EF7018081A7
:105540008F3209F068C06FE270E0C7010E949BE1F2
:105550008C010F5F1F4F9E012F5F3F4F49010115C7
:10556000110509F45EC06FE270E0C8010E949BE182
:105570006C01009709F456C00817190708F052C0CB
:105580005C01A01AB10AA501B801CE0180960E9463
:10559000C4E1E0E2F0E0EC0FFD1FEA0DFB1D10821C
:1055A0008E01005E1F4FD8018D918D01882319F067
:1055B0000E94C081F8CF8AE00E94C0816091C50E30
:1055C0007091C60E6115710511F06C5F7F4F21E07F
:1055D000AE01405E5F4FCE0105960E94E6768111D6
:1055E00012C0BE01605E7F4F87ED92E00E94C2C68E
:1055F0008EE20E94C0818AE00E94C081C4010E94A4
:1056000096500C9442349092C60E8092C50E86013C
:105610000F5F1F4FA4CF87EC9EE09093C60E809340
:10562000C50E87016091C50E7091C60E611571059A
:1056300011F06C5F7F4F18A21BA222E0A801CE01DF
:1056400080960E94E676811102C0F12C1EC0CE0128
:1056500080960E94E8988823C1F36CA57DA58EA54D
:105660009FA541E00E94A26E882379F3E8A9B0E2E9
:10567000EB9FF0011124E45FFE4E309731F385EE8D
:1056800080831BA20E94626EF82ECE0180960E943B
:10569000AF81FF2009F1E1EBF2E084917F012FEF70
:1056A000E21AF20A882321F00E94C081F701F5CFA7
:1056B000D8018D918D01882319F00E94C081F8CF07
:1056C0008AE00E94C0811092F5101092F61010929C
:1056D000F7101092F81018C0EFEBF2E084917F0100
:1056E000BFEFEB1AFB0A882321F00E94C081F7016B
:1056F000F5CFF80181918F01882319F00E94C081B4
:10570000F8CF8EE20E94C081CE0101960E94965091
:105710000C9442348091790E81110E941192E09094
:105720000A04F0900B0480E50E947481182F8823EE
:1057300019F00E943281182F80917A0E882311F47B
:105740000C944234412F61E0C7010E94879F83E59A
:105750000E94A381882381F00E941181AB01BC01CA
:105760004093F5105093F6106093F7107093F81073
:1057700084E490E10E94937080917A0E882319F05E
:1057800081E08093790E11110C94423453CE8091B4
:105790000A0490910B0421E02093780E40E060E031
:1057A0000E94879F0C9442340E94B29BECE3CE2E61
:1057B000D12CE12CF12CA70196010E940ADE762E55
:1057C000672ECA01B901A70196010E940ADE6B018A
:1057D0007C01CA01B90128E130E040E050E00E94BC
:1057E0000ADE4B015C01C9016DE671E00E940AE12D
:1057F0008E010F5F1F4F6115710599F06F927F92B7
:10580000DF92CF929F928F929F938F937F936F930C
:1058100083E193E09F938F931F930F930E94C8D9C6
:1058200012C00097B1F06F927F92DF92CF929F9259
:105830008F929F938F9383E093E09F938F931F9317
:105840000F930E94C8D90FB6F894DEBF0FBECDBF2C
:1058500036C081149104A104B10479F06F927F9253
:10586000DF92CF929F928F9287EF92E09F938F93D8
:105870001F930F930E94C8D9E6CFC114D104E1044D
:10588000F10469F06F927F92DF92CF928FEE92E0F7
:105890009F938F931F930F930E94C8D9D4CF6F9279
:1058A0007F928BEE92E09F938F931F930F930E94B2
:1058B000C8D90F900F900F900F900F900F9060E04D
:1058C000C8010E94928CEDEBF7E284917F01BFEF5B
:1058D000EB1AFB0A882321F00E94C081F701F5CF63
:1058E000B80187E293E00E94C2C68AE00E94C081AC
:1058F000C9C783E50E94A381882309F4C3C70E9416
:105900002181E82E80E50E94A381882331F00E9446
:1059100011818B0177FF03C0B5C70DE010E0902F18
:10592000E4E3F3E08BE28E0F2491921721F031969D
:105930008E13FACFC9C7ECE0F9E284918F010F5FB3
:105940001F4F882321F00E94C081F801F6CFEFE5B8
:10595000F3E084918F010F5F1F4F882309F492C7F2
:105960000E94C081F801F5CF0E94C9C48BC70E9474
:1059700009C588C70E94859985C788E690E00E947E
:105980002D8281117FC78091621383FD7BC783E5E0
:105990000E94A381882309F440C00E9441810E9493
:1059A0008ADF7093100860930F0880E00E94124411
:1059B0000E94418120E030E04AEA52E40E942FDA5E
:1059C00018163CF00E94859960E085E793E00E94FC
:1059D000728C0E9441812091191330911A134091C9
:1059E0001B1350911C130E946CE01816B4F489E349
:1059F00093E09F938F938091FE0390E001969F9395
:105A00008F938EE693E09F938F931F920E94ACC476
:105A10000FB6F894DEBF0FBECDBF0E948DD532C742
:105A20008EE40E94A381882309F42CC70E9411816F
:105A300060939207709393078093940790939507D0
:105A400021C783E50E947481882359F083E50E9471
:105A5000A381882319F00E94218101C080E08093F6
:105A60006213EDEBF7E284918F010F5F1F4F8823E4
:105A700021F00E94C081F801F6CFE4E9F3E08491BF
:105A80008F010F5F1F4F882321F00E94C081F80112
:105A9000F6CF809162138823A1F156E8C52E53E01A
:105AA000D52EE12CF12C20E08091621390E00E2C99
:105AB00002C0959587950A94E2F780FF17C0BB2432
:105AC000B394B20E222319F08CE20E94C081F60139
:105AD00025913491F901849189010F5F1F4F88232B
