:100000000C948F1A0C94885D0C945D5D0C94325D99
:100010000C94075D0C94DC5C0C94B15C0C94865CD5
:100020000C945B5C0C94853A0C94763A0C94673A89
:100030000C94C01A0C94C01A0C94C01A0C94C01AD8
:100040000C94C01A0C94607A0C94C01A0C94C01AC8
:100050000C94C01A0C94C01A0C94EACA0C94115C4B
:100060000C94C01A0C94BD440C94C01A0C94C01A81
:100070000C94C01A0C94C01A0C94C01A0C94C01A98
:100080000C94C01A0C94C01A0C94C01A0C94C01A88
:100090000C94C01A0C94C01A0C94C01A0C94C01A78
:1000A0000C94C01A0C94C01A0C94C01A0C94C01A68
:1000B0000C94C01A0C94C01A0C94C01A0C94C01A58
:1000C0000C94C01A0C94C01A0C94C01A0C94C01A48
:1000D0000C94C01A0C94C01A0C94C01A0C94C01A38
:1000E0000C94C01A88598B597A597E598459C2592F
:1000F0008F59935999599D59A159A759AB59AF593E
:10010000C259B559B959BD592D5B325B375B415B5B
:100110004B5BC45B555B5D5B655B6F5B795B835B76
:10012000925B9C5BC45BA65BB05BBA5BB871C17150
:10013000CB71D471DD71F87105720E72E671EF71D9
:10014000084AD73B3BCE016E84BCBFFDC12F3D6C3E
:1001500074319ABD56833DDA3D00C77F11BED9E4A4
:10016000BB4C3E916BAAAABE000000803F05A84C84
:10017000CDB2D44EB93836A9020C50B99186880850
:100180003CA6AAAA2ABE000000803F004E414E496C
:100190004E495459494E46CDCCCC3D0AD7233C1745
:1001A000B7D13877CC2B329595E6241FB14F0A0092
:1001B0000020410000C84200401C4620BCBE4CCA82
:1001C0001B0E5AAEC59D74434F4D4D554E4943418C
:1001D00054494F4E0044525952554E004552524FC9
:1001E000525300494E464F004543484F0020746F1C
:1001F0006F206C6F6E6720657874727573696F6EAF
:100200002070726576656E7465640A0020636F6C99
:100210006420657874727573696F6E20707265768C
:10022000656E7465640A00536C6565702E2E2E0031
:10023000536E617070792049492072656164792E2E
:1002400000526573756D696E67207072696E740017
:10025000436C69636B20746F20726573756D652ED6
:100260002E2E004E6F206D6F76652E00456E642039
:1002700066696C65206C6973740A00426567696E13
:100280002066696C65206C6973740A004D313235E3
:10029000005344207072696E74696E6720627974CD
:1002A0006520004E6F74205344207072696E74692B
:1002B0006E670A0046696C652064656C65746564E8
:1002C0003A0044656C6574696F6E206661696C659F
:1002D000642C2046696C653A20006F70656E20665C
:1002E00061696C65642C2046696C653A200025695B
:1002F000730025696D2025697300256968202569CB
:100300006D202569730025696420256968202569A9
:100310006D20256973002569792025696420256988
:10032000682025696D20256973005072696E7420FC
:1003300074696D653A200050726F7465637465640A
:100340002050696E0A00E801E301DC01D501C70114
:100350006F66660044454255473A004B494C4C4550
:10036000442E20004D3131332053004361703A4513
:100370004D455247454E43595F5041525345523ABD
:10038000300A004361703A434153455F4C49474846
:10039000545F4252494748544E4553533A300A003D
:1003A0004361703A544F47474C455F4C4947485466
:1003B000533A300A004361703A534F465457415202
:1003C000455F504F5745523A300A004361703A4CEE
:1003D0004556454C494E475F444154413A300A0026
:1003E0004361703A5A5F50524F42453A300A0043D7
:1003F00061703A4155544F4C4556454C3A300A00CD
:100400004361703A5052494E545F4A4F423A310A62
:10041000004361703A50524F47524553533A300AA5
:10042000004361703A4155544F5245504F52545F0A
:1004300054454D503A310A004361703A4545505297
:100440004F4D3A310A004649524D574152455F4E91
:10045000414D453A4D61726C696E20312E312E3618
:1004600020284769746875622920534F55524345C7
:100470005F434F44455F55524C3A68747470733A09
:100480002F2F6769746875622E636F6D2F4D6172CF
:100490006C696E4669726D776172652F4D61726C21
:1004A000696E2050524F544F434F4C5F5645525344
:1004B000494F4E3A312E30204D414348494E455F19
:1004C000545950453A536E6170707920494920451E
:1004D000585452554445525F434F554E543A31207B
:1004E000555549443A63656465326132662D34314D
:1004F00061322D343734382D396231322D63353540
:100500006336326633363766660A002F2F20007A4C
:10051000325F6D61783A20007A5F6D61783A200031
:10052000795F6D696E3A2000785F6D696E3A2000E0
:100530005265706F7274696E6720656E6473746F54
:1005400070207374617475730A004D313435205313
:100550003C696E6465783E206F7574206F6620720A
:10056000616E67652028302D31290A005365747447
:10057000696E672054726176656C20416363656CB7
:1005800065726174696F6E3A200053657474696EA8
:1005900067205265747261637420416363656C65A2
:1005A000726174696F6E3A200053657474696E6786
:1005B000205072696E7420416363656C657261746A
:1005C000696F6E3A200053657474696E67205072CB
:1005D000696E7420616E642054726176656C20418E
:1005E0006363656C65726174696F6E3A20005A20AE
:1005F000456E6473746F702041646A7573746D65C1
:100600006E742073657420746F20286D6D293A0014
:10061000205A00205900580020204D61783A2000CF
:10062000205A00205900580020204D696E3A2000C1
:100630004F6E20004F666600536F667420656E64CF
:1006400073746F70733A2000000136372603FF3C45
:100650003D380EFF2E303E1213FF0C0809FFFFFF3E
:100660001A1C18FFFF08440AFF4324221EFFFFFF45
:10067000FFFFFF20643A0020693A0020703A0043EF
:10068000290A0061626C656420286D696E207465BA
:100690006D702000436F6C642065787472756465BA
:1006A0007320617265200023646566696E65202091
:1006B00044454641554C545F4B64200023646566B5
:1006C000696E65202044454641554C545F4B692076
:1006D0000023646566696E65202044454641554C9B
:1006E000545F4B702000504944204175746F7475FD
:1006F0006E652066696E6973686564212050757443
:1007000020746865206C617374204B702C204B69D9
:1007100020616E64204B6420636F6E7374616E742D
:10072000732066726F6D2062656C6F7720696E74DE
:100730006F20436F6E66696775726174696F6E2EA4
:10074000680A00504944204175746F74756E6520C5
:100750006661696C6564212074696D656F75740AE2
:1007600000504944204175746F74756E6520666150
:10077000696C6564212054656D7065726174757271
:100780006520746F6F20686967680A00204B643ABF
:100790002000204B693A2000204B703A20000A20AC
:1007A000436C617373696320504944200A002054EC
:1007B000753A2000204B753A2000206D61783A2070
:1007C00000206D696E3A200020643A2000206269A2
:1007D00061733A20004F66667365747320617070B0
:1007E0006C696564004572723A20546F6F206661CF
:1007F000722100546F6F206661722066726F6D20E7
:100800007265666572656E636520706F696E740AE5
:10081000004E6F2063617365206C696768740A001D
:100820004163746976652045787472756465723ABF
:100830002000556E6B6E6F776E20636F6D6D616E0D
:10084000643A2022004E6F204C696E65204E756D13
:10085000626572207769746820636865636B73757D
:100860006D2C204C617374204C696E653A20004BEE
:10087000494C4C45442E200053544F505045442E73
:1008800020005072696E7465722073746F707065A9
:10089000642064756520746F206572726F72732EA8
:1008A0002046697820746865206572726F722061D5
:1008B0006E6420757365204D39393920746F20724C
:1008C0006573746172742E202854656D7065726151
:1008D000747572652069732072657365742E205378
:1008E0006574206974206166746572207265737422
:1008F000617274696E67290A004E6F2043686563F0
:100900006B73756D2077697468206C696E65206EF5
:10091000756D6265722C204C617374204C696E6534
:100920003A2000636865636B73756D206D69736D44
:10093000617463682C204C617374204C696E653A55
:1009400020004C696E65204E756D6265722069737A
:10095000206E6F74204C617374204C696E65204E5C
:10096000756D6265722B312C204C617374204C695B
:100970006E653A20004D313130004D3331004D3835
:100980003420582059205A20450053442072656174
:1009900064206572726F720A00446F6E6520707217
:1009A000696E74696E672066696C650A0020496E1D
:1009B00076616C6964206578747275646572200074
:1009C0000000000000000000000080BF000046435F
:1009D000000046430000244347322F473320626122
:1009E0006420706172616D65746572730A004B49B1
:1009F0004C4C45442E2000202D20496E76616C69B8
:100A000064206578747275646572206E756D6265B8
:100A10007220210A002020506C616E6E6572427552
:100A20006666657242797465733A20002046726585
:100A300065204D656D6F72793A2000436F6D706966
:100A40006C65643A204E6F76203235203230313773
:100A50000A00207C20417574686F723A2028526524
:100A60007661724261742C20536E617070792063DC
:100A70006F6E666967290A00323031372D31302DAB
:100A800031302031323A303000204C6173742055BF
:100A90007064617465643A2000312E312E360A008C
:100AA0004D61726C696E0020536F66747761726578
:100AB0002052657365740A00205761746368646F1F
:100AC000672052657365740A002042726F776E204A
:100AD0006F75742052657365740A002045787465DB
:100AE000726E616C2052657365740A00506F776591
:100AF0007255700A0073746172740A006572726FC5
:100B0000722077726974696E6720746F2066696CF1
:100B1000650A00456E6473746F7073202563202529
:100B20006320256320256300205A3A0020593A00AB
:100B300020583A00656E6473746F7073206869742E
:100B40003A2000446F6E6520736176696E67206697
:100B5000696C652E0A004D3239000000000000006B
:100B6000000000002443000048420000484200000A
:100B70008040000000005761726E696E673A20483D
:100B80006F6D696E672042756D7020446976697378
:100B90006F72203C20310A000202040000A04000D5
:100BA00000A0400000004000004643000046430013
:100BB000002543FFFF014D36303020486F74656ECD
:100BC0006420746F6F20636F6C6420746F2063689F
:100BD000616E67652066696C616D656E740A000000
:100BE000002110422063308440A550C660E77008A1
:100BF0008129914AA16BB18CC1ADD1CEE1EFF13128
:100C000012100273325222B5529442F772D66239F0
:100C10009318837BB35AA3BDD39CC3FFF3DEE36277
:100C200024433420040114E664C774A44485546A40
:100C3000A54BB528850995EEE5CFF5ACC58DD55307
:100C400036722611163006D776F6669556B4465B90
:100C5000B77AA719973887DFF7FEE79DD7BCC7C4D7
:100C600048E5588668A7784008611802282338CCE0
:100C7000C9EDD98EE9AFF9488969990AA92BB9F567
:100C80005AD44AB77A966A711A500A333A122AFD30
:100C9000DBDCCBBFFB9EEB799B588B3BBB1AABA637
:100CA0006C877CE44CC55C222C033C600C411CAE80
:100CB000ED8FFDECCDCDDD2AAD0BBD688D499D9747
:100CC0007EB66ED55EF44E133E322E511E700E9FD0
:100CD000FFBEEFDDDFFCCF1BBF3AAF599F788F8897
:100CE00091A981CAB1EBA10CD12DC14EF16FE18068
:100CF00010A100C230E3200450254046706760B95F
:100D0000839893FBA3DAB33DC31CD37FE35EF3B1B7
:100D1000029012F322D2323542145277625672EAAE
:100D2000B5CBA5A89589856EF54FE52CD50DC5E207
:100D300034C324A01481046674476424540544DB3E
:100D4000A7FAB79987B8975FE77EF71DC73CD7D357
:100D500026F2369106B01657667676154634564C0E
:100D6000D96DC90EF92FE9C899E9898AB9ABA944A7
:100D700058654806782768C018E1088238A3287D9E
:100D8000CB5CDB3FEB1EFBF98BD89BBBAB9ABB75F7
:100D90004A545A376A167AF10AD01AB32A923A2E6E
:100DA000FD0FED6CDD4DCDAABD8BADE89DC98D2647
:100DB0007C076C645C454CA23C832CE01CC10C1F7E
:100DC000EF3EFF5DCF7CDF9BAFBABFD98FF89F1797
:100DD0006E367E554E745E932EB23ED10EF01E7C62
:100DE0003C3E5E2B3D3F2F5B5D3B2C2A225C004549
:100DF00072726F722077726974696E6720746F20E7
:100E0000454550524F4D210A00290A00206279744D
:100E100065733B20637263200053657474696E6769
:100E2000732053746F726564202800202863616CFE
:100E300063756C6174656429210A0020213D2000DE
:100E4000454550524F4D20435243206D69736D61AB
:100E5000746368202D202873746F726564292000E4
:100E6000290A002062797465733B20637263200055
:100E70002073746F7265642073657474696E677330
:100E800020726574726965766564202800204D6162
:100E9000726C696E3D563431290A0028454550521E
:100EA0004F4D3D00454550524F4D20766572736958
:100EB0006F6E206D69736D6174636820000000219E
:100EC00000240027002A002D00300033000101001B
:100ED00000040107010A0100002200250028002B60
:100EE000002E003100340002010000050108010B52
:100EF00001000020002300260029002C002F0032D2
:100F000000000100000301060109010505050507B0
:100F10000508080808020202020A0A080804040474
:100F200004010101010101010103030303030303A0
:100F300003040707070C0C0C0C0C0C0C0C0202022F
:100F40000206060606060606060B0B0B0B0B0B0B22
:100F50000B010210202008081020401020408002C1
:100F600001020108040201010204081020408080EF
:100F70004020100804020180040201804020100873
:100F8000040201080402010102040810204080014B
:100F90000204081020408000000A0B02090C0D0E0C
:100FA000080703040100000000000000000000002A
:100FB0000000000000000000000000000000000031
:100FC00000000012111000000000000000000000EE
:100FD00000000000000000000000000000486172F6
:100FE00064636F6465642044656661756C74205346
:100FF000657474696E6773204C6F616465640A0080
:10100000E8030000E80300000A00000010270000C9
:1010100000009643000096430000A0400000C84135
:1010200000002042000020420000C8430000C042EF
:1010300020440020490020204D3330312050005002
:1010400049442073657474696E67733A0A002046D8
:101050000020420020480020204D3134352053002C
:101060004D6174657269616C20686561747570208A
:10107000706172616D65746572733A0A0020204D6B
:10108000363636205A005A3220456E6473746F70BB
:101090002061646A7573746D656E743A0A00205A33
:1010A0000020590020204D323036205800486F6D06
:1010B00065206F66667365743A0A00204500205A01
:1010C0000020590020580020420020540020204DCC
:1010D000323035205300416476616E6365643A2096
:1010E000533C6D696E5F66656564726174653E2030
:1010F000543C6D696E5F74726176656C5F666565A0
:1011000064726174653E20423C6D696E5F73656711
:101110006D656E745F74696D655F6D733E20583CDC
:101120006D61785F78795F6A65726B3E205A3C6DBD
:1011300061785F7A5F6A65726B3E20453C6D6178CD
:101140005F655F6A65726B3E0A00205400205200A2
:1011500020204D323034205000416363656C65724D
:101160006174696F6E2028756E6974732F733229EC
:101170003A20503C7072696E745F616363656C3EC7
:1011800020523C726574726163745F616363656C65
:101190003E20543C74726176656C5F616363656C7C
:1011A0003E0A00204500205A0020590020204D32E0
:1011B00030312058004D6178696D756D2041636351
:1011C000656C65726174696F6E2028756E697473E1
:1011D0002F7332293A0A00204500205A0020590076
:1011E00020204D3230332058004D6178696D756D87
:1011F000206665656472617465732028756E697414
:10120000732F73293A0A00204500205A0020590004
:1012100020204D393220580053746570732070655A
:101220007220756E69743A0A0020204D32303020E9
:1012300044300A0020204D323030204400204469E0
:101240007361626C65640A0046696C616D656E74F9
:101250002073657474696E67733A0020204D3134D1
:10126000392043203B20556E69747320696E2043FA
:10127000656C736975730A00202047323120202085
:10128000203B20556E69747320696E206D6D0A00D5
:1012900020204E6F7A7A6C653A20006368616E6731
:1012A00065006F66207468652066696C616D656EA7
:1012B00074005761697420666F7220737461727470
:1012C000005052494E54205041555345440020206F
:1012D0004E6F7A7A6C653A2000200066696C616D09
:1012E000656E7420756E6C6F61640057616974205F
:1012F000666F72005052494E542050415553454438
:101300000020204E6F7A7A6C653A20002000506CE5
:101310006561736520776169742E2E2E00486561C2
:1013200074696E67206E6F7A7A6C65005052494E10
:1013300054205041555345440020204E6F7A7A6C1A
:10134000653A2000200068656174206E6F7A7A6CBF
:10135000652E00507265737320627574746F6E2011
:10136000746F005052494E5420504155534544002B
:1013700020204E6F7A7A6C653A2000746F20636F7C
:101380006E74696E75652E2E2E00616E642070720B
:1013900065737320627574746F6E00496E73657245
:1013A000742066696C616D656E74005052494E54CC
:1013B000205041555345440020204E6F7A7A6C6589
:1013C0003A2000200066696C616D656E74206C6F58
:1013D0006164005761697420666F72005052494E13
:1013E00054205041555345440020204E6F7A7A6C6A
:1013F000653A2000200066696C616D656E74206539
:10140000787472756465005761697420666F720044
:101410005052494E542050415553454400746F205A
:10142000726573756D65005761697420666F72200F
:101430007072696E74005052494E54205041555399
:10144000454400496E697469616C697A6520454557
:1014500050524F4D00436F6E74726F6C0052657343
:10146000746F7265206661696C73616665004C6FAC
:1014700061642073657474696E677300496E697482
:1014800069616C697A6520454550524F4D0053742F
:101490006F72652073657474696E67730046696C5A
:1014A000616D656E74004D6F74696F6E0054656D8B
:1014B0007065726174757265004D61696E004D33BF
:1014C000303320553120452569205325690050725D
:1014D00065686561742041425320636F6E660050F9
:1014E00072656865617420504C4120636F6E6600C0
:1014F000504944204175746F74756E6500504944BD
:10150000204175746F74756E65005049442D440018
:101510005049442D44005049442D49005049442D20
:1015200049005049442D50005049442D5000200896
:10153000204661637400200820466163740020081F
:10154000204D6178002008204D6178002008204D52
:101550006178002008204D696E002008204D696EDA
:10156000002008204D696E004F6666004F6E200017
:101570004175746F74656D700046616E207370659F
:1015800065640046616E207370656564004E6F7A15
:101590007A6C65004E6F7A7A6C6500436F6E747278
:1015A0006F6C0053746F72652073657474696E6735
:1015B00073004E6F7A7A6C65004E6F7A7A6C6500B4
:1015C00046616E2073706565640046616E207370BD
:1015D0006565640054656D7065726174757265004F
:1015E00024F4D43050C38E20C2A24017828B7011D5
:1015F000127A910D816CD90AA861E108C758660773
:10160000615143061E4B5D05C145A7041A411104F3
:10161000093D9803713931034036DB02653391028D
:10162000D4305402802E1D02632CEE01752AC501B0
:10163000B028A001102781018F2564012B244B01C4
:10164000E0223401AC211F018D200D01801FFC0020
:10165000841EED00971DDF00B81CD200E61BC600FB
:10166000201BBC00641AB200B219A8000A19A0001D
:101670006A189900D117910040178B00B5168400A5
:1016800031167E00B31579003A157300C7146F0048
:1016900058146A00EE1366008813630025135E0079
:1016A000C7125B006C12570015125400C111510093
:1016B00070114F0021114B00D61049008D104700CA
:1016C0004610440002104200C00F4000800F3E0050
:1016D000420F3C00060F3B00CB0E3800930E370044
:1016E0005C0E3500270E3400F30D3200C10D3100C1
:1016F000900D3000600D2E00320D2D00050D2C00D8
:10170000D90C2B00AE0C2900850C29005C0C27009D
:10171000350C27000E0C2600E80B2400C40B240017
:10172000A00B23007D0B23005A0B2100390B210055
:10173000180B2000F80A1F00D90A1E00BB0A1E0061
:101740009D0A1D00800A1D00630A1C00470A1B0039
:101750002C0A1B00110A1A00F7091A00DD091900EA
:10176000C4091900AB091900920917007B09180078
:10177000630917004C0916003609160020091600E7
:101780000A091500F5081500E0081400CC0814003B
:10179000B8081400A4081400900813007D08120073
:1017A0006B08130058081200460812003408110094
:1017B000230811001208110001081100F0071000A1
:1017C000E0071000D0071000C0071000B0070F009E
:1017D000A107100091070E0083070F0074070F0088
:1017E00065070E0057070E0049070E003B070D0066
:1017F0002E070E0020070D0013070D0006070D0031
:10180000F9060C00ED060D00E0060C00D4060C00F5
:10181000C8060C00BC060C00B0060C00A4060B00A9
:1018200099060C008D060B0082060B0077060B0054
:101830006C060B0061060A0057060B004C060A00F6
:1018400042060A0038060A002E060A0024060A008C
:101850001A060A001006090007060A00FD0509001D
:10186000F4050900EB050900E2050900D9050900A6
:10187000D0050900C7050900BE050900B505080027
:10188000AD050800A50509009C05080094050800A1
:101890008C050800840508007C0508007405080014
:1018A0006C050700650508005D0507005605080082
:1018B0004E050700470507004005080038050700EA
:1018C000310507002A050700230507001C0506004F
:1018D000160507000F0507000805060002050700AA
:1018E000FB040600F5040700EE040600E804060009
:1018F000E2040700DB040600D5040600CF0406005E
:10190000C9040600C3040600BD040600B7040600AF
:10191000B1040500AC040600A6040600A0040500FE
:101920009B04060095040500900406008A04050047
:1019300085040500800406007A040500750405008E
:10194000700405006B0405006604050061040500D1
:101950005C04050057040500520405004D04050011
:1019600048040500430405003E0404003A04050051
:1019700035040500300404002C040500270404008D
:10198000230405001E0404001A04040016040500C4
:10199000110404000D0404000904050004040400FB
:1019A00000040400FC030400F8030400F403040032
:1019B000F0030400EC030400E8030400E403040063
:1019C000E0030400DC030400D8030400D403040093
:1019D000D0030400CC030400C8030300C5030300C4
:1019E00024F404D9201BC40C5C0E9804C4095F02C3
:1019F00065077101F405F900FB04B3004804870092
:101A0000C10369005803550003034500BE023A00B4
:101A10008402310053022A0029022500040220001A
:101A2000E4011C00C8011900AF011700980114005F
:101A300084011300710110006101100051010E00BA
:101A400043010D0036010B002B010B0020010B00A0
:101A5000150109000C01090003010800FB00080042
:101A6000F3000800EB000700E4000600DE000600BB
:101A7000D8000600D2000600CC000500C700050013
:101A8000C2000500BD000400B9000400B500040058
:101A9000B1000400AD000400A9000400A50003008B
:101AA000A20003009F0004009B00030098000300B5
:101AB0009500020093000300900003008D000200D7
:101AC0008B000300880002008600020084000300EF
:101AD000810002007F0002007D0002007B00020006
:101AE0007900020077000100760002007400020015
:101AF00072000100710002006F0002006D00010021
:101B00006C0002006A000100690002006700010029
:101B1000660001006500010064000200620001002F
:101B200061000100600001005F0002005D00010033
:101B30005C0001005B0001005A0001005900010037
:101B40005800010057000100560001005500010037
:101B50005400010053000000530001005200010036
:101B600051000100500001004F0001004E00000034
:101B70004E0001004D0001004C0001004B00000030
:101B80004B0001004A00010049000100480000002C
:101B90004800010047000100460000004600010027
:101BA0004500000045000100440001004300000022
:101BB000430001004200000042000100410000001B
:101BC00041000100400001003F0000003F00010013
:101BD0003E0000003E0001003D0000003D0001000D
:101BE0003C0000003C0000003C0001003B00000005
:101BF0003B0001003A0000003A00010039000000FB
:101C000039000100380000003800000038000100F1
:101C100037000000370001003600000036000000E9
:101C200036000100350000003500000035000100DD
:101C300034000000340000003400010033000000D4
:101C400033000000330001003200000032000000C9
:101C500032000100310000003100000031000100BD
:101C60003000000030000000300001002F000000B4
:101C70002F0000002F0000002F0001002E000000A8
:101C80002E0000002E0001002D0000002D0000009D
:101C90002D0000002D0001002C0000002C00000091
:101CA0002C0000002C0001002B0000002B00000085
:101CB0002B0000002B0001002A0000002A00000079
:101CC0002A0000002A00010029000000290000006D
:101CD0002900000029000000290001002800000060
:101CE0002800000028000000280000002800010053
:101CF0002700000027000000270000002700000048
:101D00002700010026000000260000002600000039
:101D1000260000002600010025000000250000002C
:101D2000250000002500000025000000250001001E
:101D30002400000024000000240000002400000013
:101D40002400010023000000230000002300000005
:101D500023000000230000002300000023000100F6
:101D600022000000220000002200000022000000EB
:101D700022000000220001002100000021000000DC
:101D800021000000210000002100000021000000CF
:101D900021000100200000002000000020000000C1
:101DA00020000000200000002000000020000000B3
:101DB000200001001F0000001F0000001F000000A5
:101DC0001F0000001F0000001F0000001F00010096
:101DD0001E0000001E0000001E0000001E0000008B
:101DE0004D383420582059205A2045006265640A35
:101DF000002C2073797374656D2073746F70706537
:101E00006421204865617465725F49443A20004549
:101E100073746570732F6D6D004573746570732FE7
:101E20006D6D005A73746570732F6D6D005A737405
:101E30006570732F6D6D005973746570732F6D6DC0
:101E4000005973746570732F6D6D005873746570ED
:101E5000732F6D6D005873746570732F6D6D004D29
:101E60006F74696F6E0053746570732F6D6D004AE7
:101E700065726B00416363656C65726174696F6E56
:101E80000056656C6F6369747900436F6E74726F8E
:101E90006C0046696C2E204469612E0046696C2EE8
:101EA000204469612E004F6666004F6E2000452079
:101EB000696E206D6D3300436F6E74726F6C0043FA
:101EC000616E6E6F7420656E7465722073756264E6
:101ED00069723A2000022E2E004D61696E002020AA
:101EE0004E6F7A7A6C653A200020004261636B0085
:101EF0004D696E696D756D2054656D702069732034
:101F00003137302E0048656174696E6720666169FB
:101F10006C65640045787472756465206D6F7265D8
:101F200000526573756D65207072696E740052455C
:101F300053554D45204F5054494F4E533A0042613E
:101F4000627973746570205A004D3630302042300B
:101F5000004368616E67652066696C616D656E74CB
:101F6000004261627973746570205A00466C6F7725
:101F700000466C6F770046616E2073706565640083
:101F800046616E207370656564004E6F7A7A6C6589
:101F9000004E6F7A7A6C650053706565640053700B
:101FA000656564004D61696E004261636B004E655A
:101FB000787420636F726E6572004D343238005051
:101FC00072656865617420504C4100436F6F6C64AA
:101FD0006F776E004368616E67652066696C616D3E
:101FE000656E740044697361626C6520737465701A
:101FF00070657273004D38340053657420686F6DDE
:1020000065206F666673657473004C6576656C2039
:10201000636F726E657273005072656865617420DB
:1020200041425300486F6D65205A00473238205AAC
:1020300000486F6D65205900473238205900486FBD
:102040006D652058004732382058004175746F2064
:10205000686F6D6500473238004D6F766520617896
:102060006973004D61696E0043616E6E6F74206F1D
:1020700070656E2073756264697220005448455221
:102080004D414C2052554E4157415900546865729C
:102090006D616C2052756E6177617900656E717546
:1020A000657565696E672022006563686F3A004355
:1020B0006172642072656D6F76656400436172645D
:1020C00020696E7365727465640000060900FE077E
:1020D0000192032120FFFF08FF07FF000000060018
:1020E00000010707060200808080808000800302D4
:1020F00002060105A0A00507070600005050F85091
:10210000F850500507070600002078A07028F0203E
:10211000050707060000C0C81020409818050707EB
:102120000600006090A040A8906802030306010426
:10213000C0408003070706010020408080804020C7
:102140000307070601008040202020408005050588
:1021500006000120A870A820050505060001202022
:10216000F820200203030602FFC04080050101069B
:102170000003F8020202060200C0C00505050600C1
:102180000108102040800507070600007088888835
:1021900088887003070706010040C040404040E0C7
:1021A000050707060000708808708080F80507079B
:1021B000060000F81020100808F0050707060000C8
:1021C00010305090F81010050707060000F880F056
:1021D00008088870050707060000708080F088886E
:1021E00070050707060000F80810202020200507CA
:1021F0000706000070888870888870050707060049
:102200000070888878080870020505060200C0C0C2
:1022100000C0C00206060602FFC0C000C040800425
:102220000707060000102040804020100503030629
:102230000002F800F8040707060100804020102083
:102240004080050707060000708808102000200560
:10225000070706000070880868A8A8700507070629
:102260000000708888F8888888050707060000F055
:102270008888F08888F0050707060000708880804D
:10228000808870050707060000F08888888888F035
:10229000050707060000F88080F08080F805070732
:1022A000060000F88080F0808080050707060000A7
:1022B000708880B8888870050707060000888888BD
:1022C000F888888801070706020080808080808067
:1022D00080050707060000381010101090600507F1
:1022E000070600008890A0C0A09088050707060098
:1022F00000808080808080F805070706000088D86D
:10230000A8888888880507070600008888C8A898D4
:102310008888050707060000708888888888700507
:102320000707060000F08888F08080800507070610
:10233000000070888888A89068050707060000F0EC
:102340008888F0A0908805070706000078808070D4
:102350000808F0050707060000F8202020202020AC
:1023600005070706000088888888888870050707A1
:102370000600008888888888502005070706000026
:102380008888888888A85005070706000088885034
:10239000205088880507070600008888885020207C
:1023A00020050707060000F80810204080F8030702
:1023B00007060100E08080808080E00505050600BA
:1023C000018040201008030707060100E0202020BC
:1023D0002020E005030306000420508805010106C3
:1023E0000000F8020202060205804005050506000D
:1023F0000070087888780507070600008080B0C85C
:102400008888F00505050600007080808870050743
:102410000706000008086898888878050505060002
:10242000007088F880700507070600003048E0401B
:102430004040400506060600FF7088887808700551
:1024400007070600008080B0C88888880107070653
:102450000200800080808080800308080601FF2041
:102460000020202020A04004070706000080809064
:10247000A0C0A090030707060100C04040404040B4
:10248000E0050505060000D0A8A8A8A805050506D2
:102490000000B0C888888805050506000070888897
:1024A00088700506060600FFF08888F08080050623
:1024B000060600FF788888780808050505060000EC
:1024C000B0C880808005050506000070807008F0A7
:1024D0000407070600004040E04040403005050585
:1024E0000600008888889868050505060000888829
:1024F0008850200505050600008888A8A850050515
:102500000506000088502050880506060600FF8852
:102510008888780870050505060000F8102040F846
:1025200003070706010020404080404020010707C4
:1025300006020080808080808080030707060100FB
:102540008040402040408005020206000268900062
:102550000000060000000000060000000000060069
:10256000000000000600000000000600000000005F
:102570000600000000000600000000000600000049
:102580000000060000000000060000000000060039
:10259000000000000600000000000600000000002F
:1025A0000600000000000600000000000600000019
:1025B0000000060000000000060000000000060009
:1025C00000000000060000000000060000000000FF
:1025D00006000000000006000000000006000000E9
:1025E00000000600000000000600000000000600D9
:1025F00000000000060000000000060000000000CF
:1026000006000000000006000000000006000000B8
:102610000000060000000000060000010707060297
:102620000080008080808080050707060000207001
:10263000A8A0A87020050707060000304040E04031
:1026400050A805050506000088705070880507072A
:10265000060000885020F820F82001070706020035
:1026600080808000808080050808060000304820B7
:102670005050209060030101060107A005070706DE
:102680000000F888B8B8B888F80507070600017098
:102690000878887800F80505050600012850A05044
:1026A00028050303060001F80808020202060206D4
:1026B0004080050707060000F888A88898A8F80554
:1026C0000101060006F8040404060003609090600F
:1026D0000507070600002020F8202000F804050563
:1026E00006000360902040F0030505060003E0208B
:1026F000E020E0020202060206408005080806000B
:10270000FF8888888898E880800507070600007899
:10271000989878181818020202060202C0C0020235
:10272000020602FF408003050506000340C040404A
:10273000E0050707060001708888887000F8050525
:1027400005060001A0502850A005070706000088D4
:1027500090A858B808080507070600008890B848F0
:10276000982038050808060000C040C048D838083E
:102770000805070706000020002040808870050833
:10278000080600004020007088F8888805080806C0
:1027900000001020007088F88888050808060000EE
:1027A0002050007088F888880508080600006890A6
:1027B000007088F8888805080806000050007088B6
:1027C00088F888880508080600002050207088F8DE
:1027D00088880507070600003860A0B8E0A0B805A3
:1027E00008080600FF70888080887020600508084F
:1027F000060000402000F880F080F8050808060078
:1028000000081000F880F080F80508080600002095
:102810005000F880F080F80507070600005000F827
:1028200080F080F8030808060100804000E0404086
:1028300040E0030808060100204000E0404040E07E
:1028400003080806010040A000E0404040E0030704
:1028500007060100A000E0404040E0050707060031
:1028600000704848E848487005080806000068906D
:102870000088C8A8988805080806000040207088CD
:1028800088888870050808060000102070888888ED
:10289000887005080806000020500070888888703D
:1028A0000508080600006890007088888870050890
:1028B00008060000500070888888887005050506A5
:1028C000000188502050880508080600FF1070A8F5
:1028D000A8A8A8704005080806000040208888883D
:1028E0008888700508080600001020888888888875
:1028F0007005080806000020500088888888700548
:102900000808060000500088888888887005080834
:10291000060000102088502020202005090906000C
:10292000FFC040704848704040E00408080601FFBE
:10293000609090A09090E08005080806000040207C
:1029400000700878887805080806000010200070DC
:10295000087888780508080600002050007008787C
:102960008878050808060000689000700878887864
:1029700005070706000050007008788878050808E9
:1029800006000020502070087888780506060600AA
:1029900000D02878A0A8500506060600FF708088A1
:1029A0007020600508080600004020007088F8804C
:1029B000700508080600001020007088F880700577
:1029C00008080600002050007088F880700507078E
:1029D00006000050007088F88070030808060100A7
:1029E00080400040C04040E003080806010020404D
:1029F0000040C04040E003080806010040A000403D
:102A0000C04040E0030707060100A00040C040406E
:102A1000E0050707060000A040A0107888700508B0
:102A200008060000689000B0C88888880508080675
:102A300000004020007088888870050808060000A3
:102A40001020007088888870050808060000205053
:102A5000007088888870050808060000689000707B
:102A600088888870050707060000500070888888ED
:102A7000700505050600012000F80020050707067F
:102A800000FF1070A8A8A8704005080806000040C4
:102A90002000888888986805080806000010200033
:102AA00088888898680508080600002050008888F3
:102AB000889868050707060000500088888898688D
:102AC0000509090600FF102000888888F8087004AE
:102AD00007070601FFC04060506040E00508080697
:102AE00000FF500088888878087053442063617222
:102AF00064206F6B0A006F70656E526F6F74206692
:102B000061696C65640A00766F6C756D652E696E1F
:102B10006974206661696C65640A00534420696EBB
:102B20006974206661696C0A006175746F25692E8D
:102B300067004D3234004D323320257300577269DF
:102B400074696E6720746F2066696C653A20006F47
:102B500070656E206661696C65642C2046696C65E1
:102B60003A20006F70656E206661696C65642C2088
:102B700046696C653A200046696C652073656C6532
:102B8000637465640A002053697A653A20004669D7
:102B90006C65206F70656E65643A20006F70656EBD
:102BA000206661696C65642C2046696C653A20007A
:102BB0002066696C653A20004E6F772000222070F5
:102BC0006F73002220706172656E743A2200535553
:102BD00042524F5554494E452043414C4C2074615C
:102BE000726765743A22004B494C4C45442E2000D4
:102BF000747279696E6720746F2063616C6C2073E6
:102C000075622D67636F64652066696C65732077F4
:102C100069746820746F6F206D616E79206C6576C1
:102C2000656C732E204D4158206C6576656C20696B
:102C3000733A004572726F723A001FFFFFFFFFFF89
:102C4000FF600000000001FF400000000000FF8066
:102C500000000000007F83CF00000C303F87FF8022
:102C6000000C301F867980000C000F8C30C7838CDD
:102C700030E78C30CFC7CC31F38C30DCECEC33B99F
:102C80008C30D86C6C33198C30D06C0C33198C3080
:102C9000D86C0C33198C30DC6C0E3B198C30CF7C2B
:102CA000079F198C30C77C038F194000000000007B
:102CB00002600000000000061FFFFFFFFFFFF84555
:102CC000256920257300536E617070792049492071
:102CD00072656164792E00202F0020403A006F6BEE
:102CE0000048656174696E6720646F6E652E002010
:102CF000573A0045256920257300536E617070793D
:102D00002049492072656164792E00536E617070AC
:102D100079204949204F66662E00205A3A002059F2
:102D20003A0020436F756E7420583A0020453A00EF
:102D3000205A3A0020593A00583A0025753A253071
:102D4000327500253032753A2530327500257564AC
:102D500020253032753A25303275005A0059005816
:102D6000000920000000000000000000000000003A
:102D70007FFFE00000000000000000000000007085
:102D800000E000000000000000000000000061F80A
:102D90006000000000000000000000000041F8207A
:102DA00000000000000000000000000040F02000D3
:102DB0000000000000000000000000406020000053
:102DC000000000000000000000005801A07F80000B
:102DD0000000000000000000005C63A0FFC00000D5
:102DE00000000000000000005EF7A0FFC00000002F
:102DF000000000000000005EF7A0FFC0000000001F
:102E00000000000000005C63A07F80000000000064
:102E100000000000005801A07F80000000000000BA
:102E200000000000406020FFC00000000000000023
:102E300000000040F020FFC0000000000000000083
:102E4000000041F820FFC00000000000000000006A
:102E50000061F8603F00000000000000000000007A
:102E60007000E01E00000000000000000000007F75
:102E7000FFE00C0000000000000000000000000067
:102E8000000000000000000000000000007FFFE0E4
:102E90000000000000000000000000007000E000E2
:102EA0000000000000000000000000630C60000053
:102EB00000000000000000000000470E200000009D
:102EC0000000000000000000004F0F200000000084
:102ED00000000000000000005F0FA00000000000E4
:102EE000000000000000005E07A07F8000000000DE
:102EF000000000000000406020FFC0000000000053
:102F0000000000000040F020FFC0000000000000B2
:102F10000000000040F020FFC000000000000000A2
:102F20000000004060207F800000000000000000E2
:102F300000005E07A07F800000000000000000008D
:102F4000005F0FA0FFC000000000000000000000B4
:102F50004F0F20FFC00000000000000000000047ED
:102F60000E20FFC000000000000000000000630C05
:102F7000603F00000000000000000000007000E062
:102F80001E00000000000000000000007FFFE00CB9
:102F9000000000000000000000000000000000062B
:102FA0000900FE000000000001090008FE00000505
:102FB000080806000040F0C88888987810050808BE
:102FC000060000C0F88888888888F805050506008E
:102FD000012030F830200508080600002070F82095
:102FE000202020E00509090600FF2070A8A8B88865
:102FF0008870200509090600FFE080C0B0A82830CD
:1030000028280509090600FFF8A88888888888A864
:10301000F8050A0A0600FE205050505088A8A888DB
:103020007003030306000340A040565472617620EB
:103030006D696E005654726176206D696E0056544B
:10304000726176206D696E00566D696E00566D690D
:103050006E00566D696E00566D6178204500566DA4
:103060006178204500566D6178204500566D617885
:10307000205A00566D6178205A00566D6178205AAA
:1030800000566D6178205900566D617820590056C0
:103090006D6178205900566D6178205800566D6139
:1030A00078205800566D61782058004D6F74696F14
:1030B0006E00416D6178204500416D6178204500CA
:1030C000416D6178205A00416D6178205A00416D50
:1030D0006178205900416D6178205900416D617817
:1030E000205800416D6178205800412D747261763E
:1030F000656C00412D74726176656C00412D7265BE
:10310000747261637400412D72657472616374003E
:10311000416363656C00416363656C004D6F746966
:103120006F6E0056652D6A65726B0056652D6A6577
:10313000726B0056652D6A65726B00567A2D6A6552
:10314000726B00567A2D6A65726B0056792D6A652E
:10315000726B0056792D6A65726B0056792D6A651F
:10316000726B0056782D6A65726B0056782D6A6511
:10317000726B0056782D6A65726B004D6F74696FC3
:103180006E0020746F6F206C6F6E672065787472AC
:103190007573696F6E2070726576656E7465640A0A
:1031A0000020636F6C6420657874727573696F6E4C
:1031B0002070726576656E7465640A005265736589
:1031C0006E643A20006F6B00627573793A2070610B
:1031D0007573656420666F7220696E7075740A007D
:1031E000627573793A2070617573656420666F72D9
:1031F00020757365720A00627573793A2070726F78
:1032000063657373696E670A004B494C4C45442EE5
:1032100020004B494C4C20636175736564206279D2
:10322000204B494C4C20627574746F6E2F70696E20
:103230000A004B494C4C45442E20004B494C4C2035
:1032400063617573656420627920746F6F206D759A
:10325000636820696E6163746976652074696D6561
:10326000202D2063757272656E7420636F6D6D61C1
:103270006E643A2000506C656173652072657365F9
:1032800074005052494E5445522048414C544544D4
:10329000005072696E7465722068616C7465642E8A
:1032A000206B696C6C28292063616C6C6564210A51
:1032B0000070012C0190012701B0012201C0011D05
:1032C00001F00118011002130130020E0160020921
:1032D0000190020401C002FF000003FA004003F560
:1032E000008003F000D003EB002004E6007004E14E
:1032F00000E004DC004005D700C005D2004006CD48
:1033000000D006C8008007C3003008BE00F008B92E
:1033100000C009B400B00AAF00B00BAA00D00CA5E1
:1033200000000EA000500F9B00C01096005012919C
:103330000000148C00C0158700B0178200B0197D02
:1033400000D01B7800001E730040206E00902269A0
:1033500000F024640040275F0090295A00E02B55BC
:1033600000102E500020304B0010324600E0334158
:103370000090353C001037370070383200A0392DEE
:1033800000B03A2800A03B2300603C1E00103D190D
:1033900000903D1400103E0F00703E0A00C03E0534
:1033A00000003F0000403FFBFF803FF6FFC03FF1C1
:1033B000FF48656174696E67206661696C656400C9
:1033C00048656174696E67206661696C6564004573
:1033D00072723A204D494E54454D50004D494E545D
:1033E000454D502074726967676572656400457267
:1033F000723A204D415854454D50004D4158544566
:103400004D5020747269676765726564004D6F7610
:10341000652058004D6F76652059004D6F76652008
:103420005A004578747275646572004D6F76652038
:10343000302E316D6D004D6F766520316D6D004D14
:103440006F76652031306D6D004D6F766520617847
:103450006973004578747275646572004D6F7665A6
:10346000205A004D6F76652059004D6F76652058C3
:10347000004578747275646572004D6F7665205AE8
:10348000004D6F76652059004D6F766520580050CD
:10349000726570617265005072696E74207061753A
:1034A000736564004D31323500004D323400507286
:1034B000696E742061626F72746564005072696E27
:1034C000742066726F6D2053440053746F702070C7
:1034D00072696E7400526573756D65207072696EE5
:1034E00074004E6F20534420636172640050617514
:1034F0007365207072696E7400436F6E74726F6CC6
:1035000000507265706172650054756E6500496E99
:10351000666F2073637265656E002AE478E6112495
:103520001FBECFEFD1E2DEBFCDBF00E00CBF13E086
:10353000A0E0B2E0E2E0F9EE01E00BBF02C00790CC
:103540000D92A03EB107D9F724E1A0EEB3E001C08F
:103550001D92AC32B207E1F71AE1CEE8DAE100E001
:1035600006C021970109802FFE010E94EAF3CD38A1
:10357000D10780E00807A9F70E945ADE0C9470F486
:103580000C9400002F923F924F925F926F927F9225
:103590008F929F92AF92BF92CF92DF92EF92FF9263
:1035A0000F931F93CF93DF93CDB7DEB7CE59D109D9
:1035B0000FB6F894DEBF0FBECDBF0091340620E6F3
:1035C000029F800111240C541B4F8091B50B80FF8A
:1035D0001AC0E9EAF0E284917F013FEFE31AF30AAF
:1035E000811102C0780104C00E94C23BF701F3CFF1
:1035F000D7018D917D01882319F00E94C23BF8CF3D
:103600008AE00E94C23B81E090E090934306809361
:10361000420610920B0410920A048FE380930E046A
:1036200010920D0410920C041092FA031092FB03F6
:103630001092FC031092FD03F80180810F5F1F4F71
:103640008032D1F38E34B1F4818190ED980F9A30AD
:1036500020F08D3211F08B3269F43296DF01319611
:103660002C9120532A30D0F3CD01FC01019620810A
:103670002032D9F3F0935513E09354137F01BFEF39
:10368000EB1AFB0A10816AE270E0C7010E9438F46D
:10369000009731F0FC01319780818032E1F3118293
:1036A0001D3429F0143519F0173409F0CEC0F70194
:1036B00080812FEFE21AF20A8032C9F380538A30F8
:1036C00008F0C3C010930E0420910C0430910D0437
:1036D0004AE03196429FC001439F900D1124DF01C3
:1036E00011972C91022E000C330B20533109280F17
:1036F000391F808180538A3060F330930D0420930A
:103700000C04DF0131968C918032D9F31D3451F0D5
:1037100060910A0470910B040091541388248394DF
:10372000912C55C02E31310591F03CF427313105F3
:1037300071F02C31310561F70AC02537310544F3AA
:103740002737310524F0203A43E0340709F7B093D6
:103750000B04A0930A0479C0413209F442C0EFEB94
:10376000E40FEA3108F05DC0DC017D015D9150326B
:10377000E1F3C701A0EDA50FAA3008F046C0DC01B7
:10378000EE2EF12C670153E0D594C7945A95E1F7DA
:10379000A60146505C4F6A014E2F4770F40102C0EB
:1037A000EE0FFF1F4A95E2F7AF01F6015081452B5E
:1037B00040831097A1F1A01BA70140525C4FFA0172
:1037C000A083DC014C9141544A3180F5DC01CD01EC
:1037D00001964C914111C0CF70930B0460930A0481
:1037E00034C01D3409F0BBCF2032310509F0B7CF0A
:1037F00090930B0480930A0463E270E00E9438F413
:10380000009719F1DC011C9220C0A3EDA50FA23096
:1038100008F4B5CF5B3211F00C940C35B0CFA0E0BA
:10382000CBCF6115710569F6BD01CBCFAD01119606
:10383000FA01908190539A30C8F3CA014F5F5F4FED
:10384000FC01A081A032C9F3C1CF80910E048D3458
:1038500009F4C6C7843511F40C94B234873411F0DE
:103860000C94EE3420910C0430910D042430310579
:1038700009F41EC14CF437FF02C00C940535223008
:1038800031050CF00CC119C02A35310509F41AC7ED
:1038900054F42530310509F452C12C31310509F4B5
:1038A00092C60C9405352B35310509F40FC72C351C
:1038B000310509F410C70C9405358091270288233F
:1038C00011F40C9405350E94423B84E496E00E947A
:1038D00006C80E94B73B8091B50B83FD8FC0C09096
:1038E0005006D0905106E0905206F0905306209179
:1038F000FA133091FB134091FC135091FD13C70153
:10390000B6010E94CCEC882309F478C08091C70BE3
:10391000811138C060912C0270912D02072E000C8D
:10392000880B990B0E94D2EC9B01AC016091C30BF8
:103930007091C40B8091C50B9091C60B0E94CCEC8A
:1039400087FF20C0C092FA13D092FB13E092FC13C1
:10395000F092FD13E9EAF0E284918F010F5F1F4FAF
:10396000882321F00E94C23BF801F6CFECE0F2E0A0
:1039700084918F010F5F1F4F882321F00E94C23B6B
:10398000F801F6CFC0905006D0905106E090520654
:10399000F09053062091FA133091FB134091FC13E1
:1039A0005091FD13C701B6010E94E2F020E030E023
:1039B00048E453E40E9409F3181604F5C092FA1380
:1039C000D092FB13E092FC13F092FD13E9EAF0E2CF
:1039D00084918F010F5F1F4F882321F00E94C23B0B
:1039E000F801F6CFEDEEF1E084918F010F5F1F4FEC
:1039F000882321F00E94C23BF801F6CF20914406B3
:103A00003091450640914606509147066091EE136D
:103A10007091EF138091F0139091F1130E94CCEC10
:103A200081111DC0209148063091490640914A06F7
:103A300050914B066091F2137091F3138091F4133F
:103A40009091F5130E94CCEC811109C060910002A5
:103A50007091010280910202909103021AC060915C
:103A60002A0270912B02072E000C880B990B0E94E2
:103A7000D2EC20910002309101024091020250915B
:103A800003020E9431ED2AE037ED43E25CE30E943D
:103A900031ED0E9410390E9406390C94053581E001
:103AA0002230310509F080E00E94C93B0C940535B5
:103AB00080E50E94363B882329F00E94943A6B01EE
:103AC0007C0103C0C12CD12C760183E50E94363BDA
:103AD000882361F00E94D43A20E030E04AE754E4C1
:103AE0000E9431ED0E942CF26B017C010E940C7A45
:103AF00080916802811105C060E087E292E00E9437
:103B0000C5990E94B73B8091561390915713A0918D
:103B10005813B0915913C80ED91EEA1EFB1E0E94FD
:103B2000055CDC01CB018C199D09AE09BF09B7FD0D
:103B300002C00C94053580E00E945BC5F0CF8091F7
:103B40002702882311F40C9405350E94423B89E436
:103B50000E94363B882329F00E94D43A2B013C0175
:103B600003C0412C512C32018AE40E94363B882349
:103B700029F00E94D43A4B015C0103C0812C912CA6
:103B8000540180E50E94363B882329F00E94D43AF4
:103B90006B017C0103C0C12CD12C760181E50E9410
:103BA000363B882349F00E94D43A63966CAF7DAFD0
:103BB0008EAF9FAF639706C063961CAE1DAE1EAE60
:103BC0001FAE6397F091B60BCA56DF4FF883C65904
:103BD000D04060912A0270912B02072E000C880BB6
:103BE000990B0E94D2EC2091000230910102409189
:103BF0000202509103020E9431ED2AE037ED43E2C8
:103C00005CE30E9431EDC956DF4F688379838A8374
:103C10009B83C759D0402091EE133091EF13409110
:103C2000F0135091F11367962CAF3DAF4EAF5FAFDD
:103C30006797A301920167966CAD7DAD8EAD9FAD88
:103C400067970E94E3F0A6966CAF7DAF8EAF9FAFF3
:103C5000A6974090F2135090F3136090F413709075
:103C6000F513A5019401C301B2010E94E3F0AA96E5
:103C70006CAF7DAF8EAF9FAFAA9720914406309175
:103C800045064091460650914706C701B6010E947D
:103C9000E3F0AE966CAF7DAF8EAF9FAFAE97209145
:103CA00048063091490640914A0650914B0663966A
:103CB0006CAD7DAD8EAD9FAD63970E94E3F0E29653
:103CC0006CAF7DAF8EAF9FAFE2976796ACACBDACEB
:103CD000CEACDFAC6797A982BA82CB82DC824D8200
:103CE0005E826F8278860E94055C9B01AC0128533E
:103CF0003F4F4F4F5F4FCF56DF4F288339834A8363
:103D00005B83C159D0404DEC842E4CEC942EA92CF1
:103D10004DE3B42E60961FAE609764961FAE649715
:103D200068961FAE68976A961FAE6A970E9470CD1C
:103D30000E94055C8B019C01CF56DF4FC880D98063
:103D4000EA80FB80C159D0400C191D092E093F099A
:103D500037FD11C09B01AC0128533F4F4F4F5F4FC0
:103D6000CF56DF4F288339834A835B83C159D040C4
:103D700080E00E945BC5A50194016096BFAD60978D
:103D80006496AFAD64976896FFAD68976A96EFAD9D
:103D90006A976B2F7A2F8F2F9E2F0E94E3F02B01B3
:103DA0001C0120E030E040E85FE30E9409F31816B0
:103DB00034F4412C512C20E8222E3FE3332E809105
:103DC000440690914506A0914606B0914706E696B6
:103DD0008CAF9DAFAEAFBFAFE697A090EE13B090A3
:103DE000EF13C090F013D090F113EE96ACAEBDAED1
:103DF000CEAEDFAEEE973F922F925F924F92E69655
:103E0000ACACBDACCEACDFACE697AE96ECACFDACEA
:103E10000EAD1FADAE97A6962CAD3DAD4EAD5FADD0
:103E2000A697EE966CAD7DAD8EAD9FADEE970E94E0
:103E3000FCDB0F900F900F900F906B966FAF6B970E
:103E40006C967FAF6C976D968FAF6D976E969FAFA8
:103E50006E97C0904806D0904906E0904A06F090D0
:103E60004B06C258DF4FC882D982EA82FB82CE5706
:103E7000D0402091F2133091F3134091F4135091FC
:103E8000F513CE57DF4F288339834A835B83C258AB
:103E9000D0403F922F925F924F92C258DF4FA8803E
:103EA000B980CA80DB80CE57D040E296ECACFDAC46
:103EB0000EAD1FADE297AA962CAD3DAD4EAD5FADF8
:103EC000AA97CE57DF4F688179818A819B81C2583A
:103ED000D0400E94FCDB0F900F900F900F906F96D8
:103EE0006FAF6F97A0967FAFA097A1968FAFA19766
:103EF000A2969FAFA29789819A81AB81BC81CA5754
:103F0000DF4F88839983AA83BB83C658D040AD8096
:103F1000BE80CF80D884C657DF4FA882B982CA82BC
:103F2000DB82CA58D040E7961FAEE79760967FAD18
:103F3000609764966FAD649768969FAD68976A9630
:103F40008FAD6A97272F362F492F582F642D752D47
:103F5000822D932D0E94E2F02FE632E143E05BE3F5
:103F60000E94CCEC87FF06C0E796BFACE797B11084
:103F700059C237C2242D352D422D532D6096BFAD29
:103F800060976496AFAD64976896FFAD68976A9640
:103F9000EFAD6A976B2F7A2F8F2F9E2F0E94E3F041
:103FA00020E030E040E05FE30E9431ED3B014C0156
:103FB0009F928F937F926F93E696ACACBDACCEACE4
:103FC000DFACE697AE96ECACFDAC0EAD1FADAE9798
:103FD000A6962CAD3DAD4EAD5FADA697EE966CAD01
:103FE0007DAD8EAD9FADEE970E94FCDB0F900F90E4
:103FF0000F900F90C257DF4F6883CE58D040C15703
:10400000DF4F7883CF58D040C057DF4F8883C059E7
:10401000D040CB56DF4F9883C559D0409F928F92A6
:104020007F926F92C258DF4FA880B980CA80DB8030
:10403000CE57D040E296ECACFDAC0EAD1FADE29792
:10404000AA962CAD3DAD4EAD5FADAA97CE57DF4FD2
:10405000688179818A819B81C258D0400E94FCDBB3
:104060000F900F900F900F905B018C016B962FAD0E
:104070006B976C963FAD6C976D964FAD6D976E9646
:104080005FAD6E97CA57DF4F688179818A819B81C6
:10409000C658D0400E94E3F020E030E040E05FE30B
:1040A0000E9431ED9B01AC01C257DF4F6881CE58B1
:1040B000D040C157DF4F7881CF58D040C057DF4F35
:1040C0008881C059D040CB56DF4F9881C559D04028
:1040D0000E94E2F06B017C01E894F7F86F962FAD37
:1040E0006F97A0963FADA097A1964FADA197A296CE
:1040F0005FADA297C657DF4F688179818A819B8126
:10410000CA58D0400E94E3F020E030E040E05FE396
:104110000E9431ED9B01AC01B501C8010E94E2F0A3
:104120009B01AC015F77C701B6010E94E3F02DEC63
:104130003CEC4CEC5DE30E94CCEC18160CF014CF78
:104140006F96AFAE6F97A096BFAEA097A1960FAF38
:10415000A197A2961FAFA297C257DF4FC880CE5833
:10416000D0406B96CFAE6B97C157DF4FD880CF58FA
:10417000D0406C96DFAE6C97C057DF4FE880C059D7
:10418000D0406D96EFAE6D97CB56DF4FF880C55996
:10419000D0406E96FFAE6E972301140121E0E796A2
:1041A0002FAFE797C3CEA7019601C701B6010E94C2
:1041B000E3F09B01AC016096BFAD60976496AFAD34
:1041C00064976896FFAD68976A96EFAD6A976B2F14
:1041D0007A2F8F2F9E2F0E94E3F0962E872E782E17
:1041E000692E20E030E040E85FE3D401F3016B2F5B
:1041F0007A2F8F2F9E2F0E9409F387FF13C16F9292
:104200007F928F929F92E696ACACBDACCEACDFAC09
:10421000E697AE96ECACFDAC0EAD1FADAE97A69694
:104220002CAD3DAD4EAD5FADA697EE966CAD7DADC0
:104230008EAD9FADEE970E94FCDB0F900F900F901C
:104240000F90E7966FAFE797C257DF4F7883CE584E
:10425000D040C157DF4F8883CF58D040C057DF4F81
:104260009883C059D0406F927F928F929F92C2588C
:10427000DF4FA880B980CA80DB80CE57D040E2965D
:10428000ECACFDAC0EAD1FADE297AA962CAD3DADEA
:104290004EAD5FADAA97CE57DF4F688179818A8195
:1042A0009B81C258D0400E94FCDB0F900F900F9072
:1042B0000F905B018C01E7962FADE797C257DF4F58
:1042C0003881CE58D040C157DF4F4881CF58D040B9
:1042D000C057DF4F5881C059D040CA57DF4F68815F
:1042E00079818A819B81C658D0400E94E3F020E00A
:1042F00030E040E05FE30E9431ED9B01AC016B9642
:104300006FAD6B976C967FAD6C976D968FAD6D971B
:104310006E969FAD6E970E94E2F06B017C01E8946F
:10432000F7F89501A801C657DF4F688179818A8126
:104330009B81CA58D0400E94E3F020E030E040E08A
:104340005FE30E9431ED9B01AC016F966FAD6F97FB
:10435000A0967FADA097A1968FADA197A2969FAD95
:10436000A2970E94E2F09B01AC015F77C701B60102
:104370000E94E3F02DEC3CEC4CEC5DE30E9409F371
:1043800018160CF44FC06F96AFAE6F97A096BFAEE5
:10439000A097A1960FAFA197A2961FAFA297E796FD
:1043A0003FADE7976B963FAF6B97C257DF4F4881A2
:1043B000CE58D0406C964FAF6C97C157DF4F5881A5
:1043C000CF58D0406D965FAF6D97C057DF4F888153
:1043D000C059D0406E968FAF6E97492C582C272C21
:1043E000362C60967FAD609764966FAD6497689643
:1043F0009FAD68976A968FAD6A97272F362F492F02
:10440000582F642D752D822D932D0E94E2F06B01A3
:104410007C012DEC3CEC4CEC5DE30E9409F318169A
:104420000CF0C1CE60967FAD609764966FAD6497D7
:1044300068969FAD68976A968FAD6A97272F362F3B
:10444000492F582F642D752D822D932D0E94E2F057
:104450004B015C016B968FAD6B976C969FAD6C9723
:104460006D96AFAD6D976E96BFAD6E9789839A834B
:10447000AB83BC836F968FAD6F97A0969FADA097CF
:10448000A196AFADA197A296BFADA2978D839E8353
:10449000AF83B887242D352D422D532D60E070E079
:1044A00080E89FE30E94E2F06B017C012091F6130B
:1044B0003091F7134091F8135091F9130E9431EDA8
:1044C00063966CAF7DAF8EAF9FAF639720914C0624
:1044D00030914D0640914E0650914F06642D752D3A
:1044E000822D932D0E9431ED9B01AC0163966CAD42
:1044F0007DAD8EAD9FAD63970E94E3F069877A87AB
:104500008B879C872091FA133091FB134091FC1309
:104510005091FD13C701B6010E9431ED6B017C0182
:104520002091500630915106409152065091530609
:10453000642D752D822D932D0E9431ED9B01AC01D0
:10454000C701B6010E94E3F06D877E878F87988B45
:10455000CE0101960E9406C8CA56DF4FC880C659D0
:10456000D040C956DF4FE880F9800A811B81C759C6
:10457000D0409E01235F3F4FAE01475F5F4FBE01BA
:104580006B5F7F4FCE0101960E94C9B720E030E0FB
:1045900040E85FE3642D752D822D932D0E94CCECB5
:1045A00087FF0DC060964FAE609764965FAE6497CC
:1045B00068962FAE68976A963FAE6A97B7CB0E940F
:1045C00006390C9405350E940C7A80910002909176
:1045D0000102A0910202B09103028093060490931D
:1045E0000704A0930804B093090480912A029091D3
:1045F0002B02909305048093040484E690E090934A
:104600002B0280932A020E94B73B81E080938304AF
:1046100088E50E94073BE82E89E50E94073B082FAA
:104620008AE50E94073BF82EE11005C0011105C084
:1046300011E0182705C0011102C010E001C0182FB9
:104640000E94FC38111105C0F11003C0E11007C031
:104650000CC082E090E00E94604D1123B9F380E02D
:1046600090E00E94604D111102C0002321F081E012
:1046700090E00E94604D0E94F63980917006809310
:1046800083048091060490910704A0910804B091DE
:1046900009048093000290930102A0930202B09358
:1046A0000302809104049091050490932B0280935F
:1046B0002A020E94B73B83E0809367020E94D5A73D
:1046C0000C940535109203040C94053581E0809319
:1046D00003040C94053585E40E94363BB82E811105
:1046E00002C00E940C7A0CEA802E02E0902E8EEE20
:1046F000C82E83E1D82E96E3E92E96E0F92E00E04D
:1047000010E0A12CD4018D914D010E94363B8823ED
:1047100009F44EC0F6012081318142815381C55692
:10472000DF4F2883CB59D040C456DF4F3883CC5954
:10473000D040C356DF4F4883CD59D040C256DF4FDB
:104740005883CE59D0400E94D43AD6016D937D93C0
:104750008D939C931397C556DF4F2881CB59D0403A
:10476000C456DF4F3881CC59D040C356DF4F488103
:10477000CD59D040C256DF4F5881CE59D04003307A
:104780001105B1F00E94E2F09B01AC01F7016081DC
:104790007181828193810E94E3F0D7016D937D93B3
:1047A0008D939C931397C8010E942939AA24A3943E
:1047B0000F5F1F4FB4E0CB0ED11CE4E0EE0EF11CF6
:1047C0000430110509F09ECFAA2019F00E94F63995
:1047D00003C0B1100E9470D80E94D5A70C94053573
:1047E00080910C0490910D048237910509F45CC608
:1047F0000CF0CAC08B34910509F437C50CF070C0B9
:104800008831910509F481C20CF03EC082319105D6
:1048100009F42BC6FCF497FF02C00C9405358230D6
:1048200091050CF48EC1419711F00C94053560E0B0
:1048300083E692E00E94C5995F988A989FB7F894A2
:10484000809108018E7F809308019FBF479812983E
:104850000C9405358531910509F440C23CF4449728
:1048600011F00C940535EBE7F2E0F5C186319105C6
:1048700009F438C2479711F00C94053580910A0469
:1048800090910B04FC0138C28C31910509F4A6C249
:10489000A4F48A31910509F457C20CF063C2109256
:1048A000680C0E94AED88CE892E09093311180930E
:1048B00030110E949D390C9405358F31910509F412
:1048C000EFC32CF44E9709F493C20C940535803253
:1048D000910509F49BC38A9709F488C40C940535A3
:1048E0008836910509F4CDC43CF58235910509F46B
:1048F000B3C57CF48D34910509F4BFC40CF4B9C47C
:104900008135910511F00C9405350E948BA90C940A
:1049100005358435910509F4A8C50CF4A1C5853584
:10492000910509F4A6C58C35910511F00C94053557
:104930000E9494A80C9405358D36910509F47CC528
:104940009CF48A36910509F47BC50CF46DC58B3651
:10495000910509F479C58C36910511F00C94053553
:104960001092AB020C9405358F36910509F4A0C462
:104970000CF48BC48037910509F40BC58137910580
:1049800009F40FC50C9405358C3D910511F40C9478
:104990007A2E0CF053C08139910509F4ECC61CF550
:1049A0008737910509F456C674F48537910509F4E3
:1049B00011C60CF018C68337910511F00C9405351B
:1049C000E6E4F4E077C58937910509F4CEC60CF426
:1049D000C5C68D37910509F43BC58C38910509F49E
:1049E0000CC50C9405358B3C910509F492C78CF4E9
:1049F000883C910509F420C7893C910509F466C7F4
:104A00008B39910511F00C9405350E94D0A90C94B6
:104A100005358D3C910511F40C94132D0CF498C7B9
:104A20008E3C910511F40C947E2D833D910511F07F
:104A30000C940535E9EAF0E20C94E42D8A39F1E0B2
:104A40009F0709F4AAC48CF58D3231E0930711F465
:104A50000C94F22E94F4823E910511F40C94A02E45
:104A60008C3251E0950711F40C94C92E8D3D9105BF
:104A700011F00C9405350C94872E8F32A1E09A0723
:104A800011F40C94E42F14F40C94902F8336E1E08D
:104A90009E0711F40C948B348039914011F00C94E2
:104AA00005350E940C7A0C940535873F21E092076A
:104AB00011F40C948C335CF5843F41E0940711F4BD
:104AC0000C948633ACF48C3A914011F00C9405357B
:104AD00097E8C92E94E0D92E2EEEE22E23E1F22E95
:104AE00038EC232E3BE0332E00E010E00C94A6328D
:104AF000853FB1E09B0711F40C948933863F9140C8
:104B000011F00C9405350E940C680C9405358A3917
:104B1000F2E09F0711F40C94C52D3CF488359240C7
:104B200011F40C9498330C940535803A43E09407C3
:104B300009F4A9C2873E934011F40C94A2340C945A
:104B40000535A0900A04B0900B0480E50E94363B26
:104B5000882359F00E94943A6B017C0111E0672B85
:104B6000682B692B31F410E004C010E0C12CD12C6B
:104B7000760183E50E94363B8823F1F00E94D43A07
:104B800020E030E04AE754E40E9431ED0E942CF22C
:104B90006B017C01111112C0672B682B692B71F41A
:104BA000A114B10459F0D5018C91882339F061E04A
:104BB000C5010E94E59907C0112391F360E080E5EB
:104BC00092E00E94C59983E090E090934306809321
:104BD000420681E080930B0F0E940C7A0E94B73B43
:104BE000C114D104E104F104F1F0809156139091C5
:104BF0005713A0915813B0915913C80ED91EEA1E2D
:104C0000FB1E0E94055CDC01CB018C199D09AE09DD
:104C1000BF09B7FF1CC080910B0F8823C1F080E053
:104C20000E945BC5EECF80910B0F882321F080E0BE
:104C30000E945BC5F8CF8091680C60E0882319F072
:104C400081E492E002C080E392E00E94C599109254
:104C50000B0F0C94053584918F010F5F1F4F882334
:104C600021F00E94C23BF801F6CF1092EE0E109296
:104C7000ED0E40E050E0BA0189E99CE00E9461CF6E
:104C80008BE1E9E9FCE0DE01159601900D928A9531
:104C9000E1F78091970C9091980C9C838B838EEE1A
:104CA00092E09A83898340E050E0BE016F5F7F4FBE
:104CB0008CEA93E00E941E92CE0101960E94C7C426
:104CC000ECE6F2E084918F010F5F1F4F882311F40F
:104CD0000C9405350E94C23BF801F4CF0E94D8A184
:104CE0000C9405351092680C1092690C0C940535E3
:104CF000203209F41082319620812111F9CF40E051
:104D000061E00E94AC9E0C94053519821A821B82C8
:104D10001C8218A219A21AA21BA2809154068823F1
:104D200041F040E0BE016F5F7F4FCE0180960E9450
:104D30002A4C8091690C882319F081E08093680CDB
:104D40000E9430D80C9405358091690C882311F4A9
:104D50000C94053583E50E94363B81110C94163581
:104D60000C9405358091690C882351F1E1E9F2E05A
:104D700084918F010F5F1F4F882321F00E94C23B57
:104D8000F801F6CF6091E40E7091E50E8091E60E89
:104D90009091E70E4AE00E94B1408FE20E94C23B30
:104DA0006091E00E7091E10E8091E20E9091E30E21
:104DB0004AE00E94B1408AE00E94C23B0C94053553
:104DC000E3EAF2E084918F010F5F1F4F882311F413
:104DD0000C9405350E94C23BF801F4CF40E060E03E
:104DE00080910A0490910B040E94AC9E0C940535AE
:104DF0008091690C882311F40C94053583E39EE0BF
:104E00000E942FCF83E39EE00E94E6441092670C3D
:104E10001092660CE0900A04F0900B048091690CEB
:104E2000882311F40C9405350E94808F1D8218860A
:104E30001C821B828EEE92E09A83898385E99CE036
:104E40009093B50C8093B40CF70180818F3209F0F8
:104E500068C06FE270E0C7010E9438F48C010F5FF8
:104E60001F4F9E012F5F3F4F49010115110509F4A6
:104E70005EC06FE270E0C8010E9438F46C010097D8
:104E800009F456C00817190708F052C05C01A01AAF
:104E9000B10AA501B801CE0180960E9461F4E0E25A
:104EA000F0E0EC0FFD1FEA0DFB1D10828E01005E8D
:104EB0001F4FD8018D918D01882319F00E94C23BAC
:104EC000F8CF8AE00E94C23B6091B40C7091B50C9F
:104ED0006115710511F06C5F7F4F21E0AE01405EFE
:104EE0005F4FCE0105960E942A49811112C0BE0172
:104EF000605E7F4F8AED92E00E94D4DB8EE20E94DA
:104F0000C23B8AE00E94C23BC4010E94C7C40C9409
:104F100005359092B50C8092B40C86010F5F1F4F3F
:104F2000A4CF86EB9CE09093B50C8093B40C8701E2
:104F30006091B40C7091B50C6115710511F06C5F46
:104F40007F4F18A21BA222E0A801CE0180960E94EA
:104F50002A49811102C0F12C14C0CE0180960E9412
:104F6000EE8E8823C1F361E0CE0180960E94EF446B
:104F7000009789F325EEFC0120831BA20E94B7CE87
:104F8000F82ECE0180960E94B13BFF2009F1E4EBA0
:104F9000F2E084917F012FEFE21AF20A882321F0D8
:104FA0000E94C23BF701F5CFD8018D918D01882376
:104FB00019F00E94C23BF8CF8AE00E94C23B1092D7
:104FC000E40E1092E50E1092E60E1092E70E18C055
:104FD000E2ECF2E084917F01BFEFEB1AFB0A882339
:104FE00021F00E94C23BF701F5CFF80181918F01BA
:104FF000882319F00E94C23BF8CF8EE20E94C23B88
:10500000CE0101960E94C7C40C9405358091680CAE
:1050100081110E940C7AE0900A04F0900B0480E564
:105020000E94073B182F882319F00E94C53A182FB9
:105030008091690C882311F40C940535412F61E0AF
:10504000C7010E94AC9E83E50E94363B882381F015
:105050000E94A43AAB01BC014093E40E5093E50ECC
:105060006093E60E7093E70E83E39EE00E9461CFAB
:105070008091690C882319F081E08093680C1111EC
:105080000C9405355DCE80910A0490910B0421E0CB
:105090002093670C40E060E00E94AC9E0C940535C4
:1050A0000E94E8911CE3C12ED12CE12CF12CA70128
:1050B00096010E94A7F0762E672ECA01B901A701BA
:1050C00096010E94A7F06B017C01CA01B90128E199
:1050D00030E040E050E00E94A7F04B015C01C901C4
:1050E0006DE671E00E94A7F38E010F5F1F4F6115FF
:1050F000710599F06F927F92DF92CF929F928F927B
:105100009F938F937F936F9386E193E09F938F9309
:105110001F930F930E9465EC12C00097B1F06F923D
:105120007F92DF92CF929F928F929F938F9386E090
:1051300093E09F938F931F930F930E9465EC0FB69C
:10514000F894DEBF0FBECDBF36C081149104A10418
:10515000B10479F06F927F92DF92CF929F928F92FB
:105160008AEF92E09F938F931F930F930E9465ECB9
:10517000E6CFC114D104E104F10469F06F927F928B
:10518000DF92CF9282EF92E09F938F931F930F93C2
:105190000E9465ECD4CF6F927F928EEE92E09F9347
:1051A0008F931F930F930E9465EC0F900F900F90B9
:1051B0000F900F900F9060E0C8010E94E599E9EA16
:1051C000F0E284917F01BFEFEB1AFB0A882321F004
:1051D0000E94C23BF701F5CFB8018AE293E00E943A
:1051E000D4DB8AE00E94C23B0C94053583E50E9423
:1051F000363B882311F40C9405350E94B43AE82E0E
:1052000080E50E94363B882339F00E94A43A8B0146
:1052100077FF04C00C9405350DE010E0902FE8E412
:10522000F6E08BE28E0F2491921729F031968E13BF
:10523000FACF0C942635E3E3FCE284918F010F5FF3
:105240001F4F882321F00E94C23BF801F6CFE7E30D
:10525000F3E084918F010F5F1F4F882311F40C94AA
:1052600005350E94C23BF801F4CF0E9430D80C945F
:1052700005350E94AED80C9405350E948B8F0C9496
:1052800005350E9433AC0C9405358EE40E94363B04
:10529000882311F40C9405350E94A43A60934B13B3
:1052A00070934C1380934D1390934E130C940535CB
:1052B00083E50E94073B882359F083E50E94363B33
:1052C000882319F00E94B43A01C080E08093B50BA6
:1052D000E9EAF0E284918F010F5F1F4F882321F0EC
:1052E0000E94C23BF801F6CFE4E5F3E084918F0120
:1052F0000F5F1F4F882321F00E94C23BF801F6CFB9
:105300008091B50B8823A1F1B6E4CB2EB3E0DB2E60
:10531000E12CF12C20E08091B50B90E00E2C02C026
:10532000959587950A94E2F780FF17C0BB24B39444
:10533000B20E222319F08CE20E94C23BF6012591A5
:105340003491F901849189010F5F1F4F882321F067
:105350000E94C23B9801F5CF2B2DFFEFEF1AFF0AF9
:1053600032E0C30ED11C45E0E416F104A1F60CC0F6
:10537000E0E5F3E084918F010F5F1F4F882321F058
:105380000E94C23BF801F6CF8AE00E94C23B0C9417
:1053900005358BE593E00E94E2C40E94F8A60C94C8
:1053A000053583E50E94363B882369F00E94B43AB4
:1053B00080933F028D3310F40C9405358CE3809379
:1053C0003F020C940535E9EAF0E284918F010F5F0A
:1053D0001F4F882321F00E94C23BF801F6CF409175
:1053E0003F0250E060E070E084E693E00E94C280FB
:1053F0008AE00E94C23B0C9405358091B50B83FF77
:1054000002C00C94053583E50E94363B882311F4D5
:105410000C9405350E94D43A0E9427F270936D13C4
:1054200060936C130C9405350E9417AC10924306E0
:10543000109242060C94EE360E9450AA0C94053548
:105440000E94AFA90C9405350E94A0A90C940535C3
:105450000E9451A70C940535109202040C94053556
:1054600081E0809302040C9405350E9432A90C94CB
:10547000053583E50E94073B882311F40C9405351C
:105480000E94D43A20E030E04AE754E40E9431ED33
:105490000E942CF260935A1370935B1380935C13F9
:1054A00090935D130C9405350E940C7A0E94D5A749
:1054B0000C94053584918F010F5F1F4F882321F0D5
:1054C0000E94C23BF801F6CFE8E3F4E084918F013B
:1054D0000F5F1F4F882321F00E94C23BF801F6CFD7
:1054E000E1E2F4E084918F010F5F1F4F882321F0E8
:1054F0000E94C23BF801F6CFE1E1F4E084918F0114
:105500000F5F1F4F882321F00E94C23BF801F6CFA6
:10551000E0E0F4E084918F010F5F1F4F882321F0BA
:105520000E94C23BF801F6CFEFEEF3E084918F01C9
:105530000F5F1F4F882321F00E94C23BF801F6CF76
:10554000E0EEF3E084918F010F5F1F4F882321F07D
:105550000E94C23BF801F6CFEBECF3E084918F019F
:105560000F5F1F4F882321F00E94C23BF801F6CF46
:10557000E5EBF3E084918F010F5F1F4F882321F04B
:105580000E94C23BF801F6CFE0EAF3E084918F017C
:105590000F5F1F4F882321F00E94C23BF801F6CF16
:1055A000E3E8F3E084918F010F5F1F4F882321F020
:1055B0000E94C23BF801F6CFEBE6F3E084918F0145
:1055C0000F5F1F4F882311F40C9405350E94C23BD6
:1055D000F801F4CF60E080910A0490910B040E94DE
:1055E000E5990C94053585E40E94073B882381F0FA
:1055F0000E94C53A882361F0E9EAF0E284918F01C4
:105600000F5F1F4F882321F00E94C23BF801F6CFA5
:1056100081E40E94073B882381F00E94C53A8823D9
:1056200061F0EBE0F5E084918F010F5F1F4F88235D
:1056300021F00E94C23BF801F6CF00910A041091BC
:105640000B04D8018D918D01882309F49DCE0E9411
:10565000C23BF7CFE0E3F5E084918F010F5F1F4F6E
:10566000882321F00E94C23BF801F6CFE8E2F5E082
:1056700084918F010F5F1F4F882321F00E94C23B4E
:10568000F801F6CF659903C00AE213E002C00FE209
:1056900013E0F80181918F01882319F00E94C23B29
:1056A000F8CF8AE00E94C23BE0E2F5E084918F01EE
:1056B0000F5F1F4F882321F00E94C23BF801F6CFF5
:1056C0008091030181FD03C00AE213E002C00FE2F2
:1056D00013E0D8018D918D01882319F00E94C23BFF
:1056E000F8CF8AE00E94C23BE8E1F5E084918F01A7
:1056F0000F5F1F4F882321F00E94C23BF801F6CFB5
:105700004A9903C00AE213E002C00FE213E0F80175
:1057100081918F01882319F00E94C23BF8CF8AE063
:105720000E94C23BEFE0F5E084918F010F5F1F4FB5
:10573000882321F00E94C23BF801F6CF4B9903C0A9
:105740000AE213E002C00FE213E0D8018D918D014F
:10575000882309F419CE0E94C23BF7CF81E08093E1
:105760008304809370060C94053510928304109284
:1057700070060C94053583E50E94363B882319F0AA
:105780000E94A43A02C060E070E08B011127023051
:105790001105D4F0E3E3FCE284918F010F5F1F4F0A
:1057A000882321F00E94C23BF801F6CFEAE4F5E03D
:1057B00084918F010F5F1F4F882311F40C940535DE
:1057C0000E94C23BF801F4CF88E40E94363B882354
:1057D000A9F00E94A43A6A3A71053CF06530B1E044
:1057E0007B072CF064E071E002C06AEA70E0F80127
:1057F000EE0FFF1FE956F94F7183608386E40E9424
:10580000363B882311F40C9405350E94A43A000F0E
:10581000111FF801E556F94F718360836F3F7105E1
:1058200019F014F06FEF70E077FF02C060E070E0F5
:10583000718360830C94053588EC90E00E941741D9
:1058400081110C94053584E40E94073B8823D1F133
:105850000E94D43A11E020E030E0A9010E94CCEC93
:10586000811101C010E01093A70B112359F1009191
:10587000FE0310E00E94D43A000F111F000F111F09
:10588000F801ED55F44F608371838283938320E0A8
:1058900030E0A9016091A30B7091A40B8091A50B3E
:1058A0009091A60B0E94CCEC81110CC080E090E09E
:1058B000A0EEBFE38093A30B9093A40BA093A50B42
:1058C000B093A60B0E9482C40C9405356DE8E62EB9
:1058D00062E1F62E0CEA12E074E0D72ED00EF80149
:1058E00081918F010E94073B882351F00E94D43A96
:1058F0000E942CF2D7016D937D938D939C93139707
:10590000B4E0EB0EF11CD012EACF0E9403DD0C9440
:1059100005354DE7E42E42E1F42E0CEA12E054E0A6
:10592000D52ED00EF80181918F010E94073B88236C
:1059300041F00E94D43AD7016D937D938D939C934F
:105940001397B4E0EB0EF11CD012ECCF0C9405359C
:1059500083E50E94073B8823D9F00E94D43AAB012B
:10596000BC014093A5125093A6126093A7127093A6
:10597000A81240939D1250939E1260939F127093B1
:10598000A01286EC95E00E94FC808AE00E94C23B57
:1059900080E50E94073B882399F00E94D43AAB012E
:1059A000BC014093A5125093A6126093A712709366
:1059B000A81289EA95E00E94FC808AE00E94C23B1E
:1059C00082E50E94073B882399F00E94D43AAB01FC
:1059D000BC014093A1125093A2126093A312709342
:1059E000A4128AE895E00E94FC808AE00E94C23BF3
:1059F00084E50E94073B882311F40C9405350E942E
:105A0000D43AAB01BC0140939D1250939E12609317
:105A10009F127093A0128CE695E00E94FC808AE0B1
:105A20000E94C23BF2C783E50E94073B882351F0E6
:105A30000E94D43A6093791270937A1280937B1209
:105A400090937C1284E50E94073B882351F00E94CA
:105A5000D43A609375127093761280937712909374
:105A6000781282E40E94073B882351F00E94943A06
:105A70006093BC127093BD128093BE129093BF12BC
:105A800088E50E94073B882351F00E94D43A609336
:105A9000A9127093AA128093AB129093AC1289E56D
:105AA0000E94073B882351F00E94D43A6093AD12C4
:105AB0007093AE128093AF129093B0128AE50E9459
:105AC000073B882351F00E94D43A6093B11270933F
:105AD000B2128093B3129093B41285E40E94073BF4
