:100000000C948A1A0C94C8860C949D860C94728663
:100010000C9447860C941C860C94F1850C94C68530
:100020000C949B850C94123D0C94033D0C94F43C71
:100030000C94BB1A0C94BB1A0C94BB1A0C94BB1AEC
:100040000C94BB1A0C94E3440C94BB1A0C94BB1A8A
:100050000C94BB1A0C94BB1A0C9498CD0C9451853B
:100060000C94BB1A0C94E1430C94BB1A0C94BB1A6D
:100070000C94BB1A0C94BB1A0C94BB1A0C94BB1AAC
:100080000C94BB1A0C94BB1A0C94BB1A0C94BB1A9C
:100090000C94BB1A0C94BB1A0C94BB1A0C94BB1A8C
:1000A0000C94BB1A0C94BB1A0C94BB1A0C94BB1A7C
:1000B0000C94BB1A0C94BB1A0C94BB1A0C94BB1A6C
:1000C0000C94BB1A0C94BB1A0C94BB1A0C94BB1A5C
:1000D0000C94BB1A0C94BB1A0C94BB1A0C94BB1A4C
:1000E0000C94BB1ABE5EC75ED15EDA5EE35EFE5E56
:1000F0000B5F145FEC5EF55EEE82F182E082E482DB
:10010000EA822883F582F982FF82038307830D83C5
:100110001183158328831B831F8323836D8472843B
:10012000778481848B84048595849D84A584AF84A1
:10013000B984C384D284DC840485E684F084FA84A0
:10014000084AD73B3BCE016E84BCBFFDC12F3D6C3E
:1001500074319ABD56833DDA3D00C77F11BED9E4A4
:10016000BB4C3E916BAAAABE000000803F05A84C84
:10017000CDB2D44EB93836A9020C50B99186880850
:100180003CA6AAAA2ABE000000803F004E414E496C
:100190004E495459494E46CDCCCC3D0AD7233C1745
:1001A000B7D13877CC2B329595E6241FB14F0A0092
:1001B0000020410000C84200401C4620BCBE4CCA82
:1001C0001B0E5AAEC59D74434F4D4D554E4943418C
:1001D00054494F4E0044525952554E004552524FC9
:1001E000525300494E464F004543484F0020746F1C
:1001F0006F206C6F6E6720657874727573696F6EAF
:100200002070726576656E7465640A0020636F6C99
:100210006420657874727573696F6E20707265768C
:10022000656E7465640A0047322F4733206261644B
:1002300020706172616D65746572730A00536C653C
:1002400065702E2E2E00536E6170707933207265AA
:100250006164792E00526573756D696E67207072E6
:10026000696E7400436C69636B20746F20726573F0
:10027000756D652E2E2E004E6F206D6F76652E00EB
:10028000456E642066696C65206C6973740A00426F
:100290006567696E2066696C65206C6973740A0015
:1002A0004D313235005344207072696E74696E6747
:1002B000206279746520004E6F7420534420707260
:1002C000696E74696E670A0046696C652064656CC6
:1002D000657465643A0044656C6574696F6E206688
:1002E00061696C65642C2046696C653A20006F700A
:1002F000656E206661696C65642C2046696C653AA0
:1003000020002569730025696D2025697300256922
:10031000682025696D202569730025696420256999
:10032000682025696D202569730025697920256974
:1003300064202569682025696D2025697300507245
:10034000696E742074696D653A20000001363726A5
:1003500003FF3C3D380EFF2E303E1213FF0C080900
:10036000FFFFFF1A1C18FFFF08440AFF4324221E48
:10037000FFFFFFFFFFFF50726F74656374656420B9
:1003800050696E0A0045256920257300536E61701F
:100390007079332072656164792E00E801E301DC35
:1003A00001D501C7016F66660044454255473A00D2
:1003B0004B494C4C45442E20004D313133205300E5
:1003C0006F6B0048656174696E6720646F6E652E9F
:1003D0000020573A0045256920257300536E61704F
:1003E0007079332072656164792E00536E6170708C
:1003F0007933204F66662E004361703A454D455271
:1004000047454E43595F5041525345523A300A00D6
:100410004361703A434153455F4C494748545F42FA
:1004200052494748544E4553533A300A004361708D
:100430003A544F47474C455F4C49474854533A302C
:100440000A004361703A534F4654574152455F503A
:100450004F5745523A300A004361703A4C45564571
:100460004C494E475F444154413A300A0043617061
:100470003A5A5F50524F42453A300A004361703A4F
:100480004155544F4C4556454C3A300A0043617033
:100490003A5052494E545F4A4F423A310A00436142
:1004A000703A50524F47524553533A300A00436115
:1004B000703A4155544F5245504F52545F54454D38
:1004C000503A310A004361703A454550524F4D3A17
:1004D000310A004649524D574152455F4E414D4504
:1004E0003A4D61726C696E20312E312E36202847CC
:1004F00069746875622920534F555243455F434FD5
:1005000044455F55524C3A68747470733A2F2F67A4
:1005100069746875622E636F6D2F4D61726C696EC0
:100520004669726D776172652F4D61726C696E20DC
:1005300050524F544F434F4C5F56455253494F4EC4
:100540003A312E30204D414348494E455F54595071
:10055000453A536E61707079332045585452554472
:1005600045525F434F554E543A3120555549443A10
:1005700063656465326132662D343161322D343702
:1005800034382D396231322D633535633632663376
:10059000363766660A002F2F20007A325F6D696E4B
:1005A0003A20007A5F6D696E3A2000795F6D696E5E
:1005B0003A2000785F6D696E3A20005265706F7264
:1005C00074696E6720656E6473746F7020737461F4
:1005D0007475730A004D31343520533C696E64657F
:1005E000783E206F7574206F662072616E6765209B
:1005F00028302D31290A0053657474696E672054C0
:10060000726176656C20416363656C6572617469C3
:100610006F6E3A200053657474696E67205265747A
:100620007261637420416363656C65726174696FA4
:100630006E3A200053657474696E67205072696E5B
:100640007420416363656C65726174696F6E3A20F2
:100650000053657474696E67205072696E7420610E
:100660006E642054726176656C20416363656C65CD
:10067000726174696F6E3A20005A20456E6473741B
:100680006F702041646A7573746D656E7420736554
:100690007420746F20286D6D293A004F666673656B
:1006A0007473206170706C696564004572723A20E1
:1006B000546F6F206661722100546F6F2066617203
:1006C0002066726F6D207265666572656E63652067
:1006D000706F696E740A004E6F2063617365206CE1
:1006E000696768740A0041637469766520457874A7
:1006F00072756465723A2000556E6B6E6F776E206E
:10070000636F6D6D616E643A2022004E6F204C69FC
:100710006E65204E756D626572207769746820631E
:100720006865636B73756D2C204C617374204C6924
:100730006E653A20004B494C4C45442E20005354E2
:100740004F505045442E20005072696E74657220DF
:1007500073746F707065642064756520746F2065B4
:1007600072726F72732E20466978207468652065F6
:1007700072726F7220616E6420757365204D393915
:100780003920746F20726573746172742E2028543E
:10079000656D70657261747572652069732072652C
:1007A0007365742E205365742069742061667465C6
:1007B000722072657374617274696E67290A004EE3
:1007C0006F20436865636B73756D2077697468206B
:1007D0006C696E65206E756D6265722C204C61735C
:1007E00074204C696E653A2000636865636B7375AD
:1007F0006D206D69736D617463682C204C61737436
:10080000204C696E653A20004C696E65204E756D0E
:10081000626572206973206E6F74204C617374205E
:100820004C696E65204E756D6265722B312C204CC3
:10083000617374204C696E653A20004D313130008F
:100840004D3331004D383420582059205A2045006E
:1008500053442072656164206572726F720A0044AD
:100860006F6E65207072696E74696E672066696C60
:10087000650A0020496E76616C696420657874723F
:100880007564657220000000000000000000000098
:100890000000000046430000464300005C43202F58
:1008A0000020403A00205A3A0020593A0020436F75
:1008B000756E7420583A0020453A00205A3A0020BC
:1008C000593A00583A004B494C4C45442E200020E0
:1008D0002D20496E76616C69642065787472756448
:1008E0006572206E756D62657220210A00202050AD
:1008F0006C616E6E6572427566666572427974658A
:10090000733A20002046726565204D656D6F7279DF
:100910003A2000436F6D70696C65643A204A616EDD
:1009200020323520323031380A00207C2041757465
:10093000686F723A202852657661724261742C2089
:10094000536E6170707920636F6E666967290A0063
:10095000323031372D31302D31302031323A303094
:1009600000204C61737420557064617465643A2092
:1009700000312E312E360A004D61726C696E0020F6
:10098000536F6674776172652052657365740A00EF
:10099000205761746368646F672052657365740AD9
:1009A000002042726F776E206F75742052657365F8
:1009B000740A002045787465726E616C205265730C
:1009C00065740A00506F77657255700A0073746120
:1009D00072740A006572726F722077726974696E40
:1009E0006720746F2066696C650A00456E647374D5
:1009F0006F70732025632025632025632025630005
:100A0000205A3A0020593A0020583A00656E647323
:100A1000746F7073206869743A2000446F6E6520AB
:100A2000736176696E672066696C652E0A004D32C7
:100A3000390024F4D43050C38E20C2A24017828BD8
:100A40007011127A910D816CD90AA861E108C7581A
:100A50006607615143061E4B5D05C145A7041A4157
:100A60001104093D9803713931034036DB026533C7
:100A70009102D4305402802E1D02632CEE01752A9F
:100A8000C501B028A001102781018F2564012B2406
:100A90004B01E0223401AC211F018D200D01801F8C
:100AA000FC00841EED00971DDF00B81CD200E61B81
:100AB000C600201BBC00641AB200B219A8000A19B3
:100AC000A0006A189900D117910040178B00B51645
:100AD000840031167E00B31579003A157300C714EF
:100AE0006F0058146A00EE13660088136300251324
:100AF0005E00C7125B006C12570015125400C11142
:100B0000510070114F0021114B00D61049008D107B
:100B100047004610440002104200C00F4000800F02
:100B20003E00420F3C00060F3B00CB0E3800930EF8
:100B300037005C0E3500270E3400F30D3200C10D76
:100B40003100900D3000600D2E00320D2D00050D8E
:100B50002C00D90C2B00AE0C2900850C29005C0C54
:100B60002700350C27000E0C2600E80B2400C40BD0
:100B70002400A00B23007D0B23005A0B2100390B0E
:100B80002100180B2000F80A1F00D90A1E00BB0A1A
:100B90001E009D0A1D00800A1D00630A1C00470AF2
:100BA0001B002C0A1B00110A1A00F7091A00DD09A4
:100BB0001900C4091900AB091900920917007B0933
:100BC0001800630917004C091600360916002009A1
:100BD00016000A091500F5081500E0081400CC08F5
:100BE0001400B8081400A4081400900813007D082D
:100BF00012006B081300580812004608120034084F
:100C00001100230811001208110001081100F0075B
:100C10001000E0071000D0071000C0071000B00758
:100C20000F00A107100091070E0083070F00740743
:100C30000F0065070E0057070E0049070E003B071F
:100C40000D002E070E0020070D0013070D000607EC
:100C50000D00F9060C00ED060D00E0060C00D406B0
:100C60000C00C8060C00BC060C00B0060C00A40664
:100C70000B0099060C008D060B0082060B00770610
:100C80000B006C060B0061060A0057060B004C06B1
:100C90000A0042060A0038060A002E060A00240648
:100CA0000A001A060A001006090007060A00FD05D8
:100CB0000900F4050900EB050900E2050900D90562
:100CC0000900D0050900C7050900BE050900B505E2
:100CD0000800AD050800A50509009C05080094055D
:100CE00008008C050800840508007C0508007405D0
:100CF00008006C050700650508005D05070056053E
:100D000008004E05070047050700400508003805A4
:100D10000700310507002A050700230507001C0509
:100D20000600160507000F05070008050600020566
:100D30000700FB040600F5040700EE040600E804C3
:100D40000600E2040700DB040600D5040600CF0419
:100D50000600C9040600C3040600BD040600B7046B
:100D60000600B1040500AC040600A6040600A004B9
:100D700005009B04060095040500900406008A0403
:100D8000050085040500800406007A04050075044A
:100D90000500700405006B0405006604050061048D
:100DA00005005C04050057040500520405004D04CD
:100DB000050048040500430405003E0404003A040D
:100DC000050035040500300404002C040500270448
:100DD0000400230405001E0404001A040400160481
:100DE0000500110404000D040400090405000404B6
:100DF000040000040400FC030400F8030400F403EE
:100E00000400F0030400EC030400E8030400E4031E
:100E10000400E0030400DC030400D8030400D4034E
:100E20000400D0030400CC030400C8030300C5037E
:100E3000030024F404D9201BC40C5C0E9804C409DC
:100E40005F0265077101F405F900FB04B300480473
:100E50008700C10369005803550003034500BE0223
:100E60003A008402310053022A00290225000402BC
:100E70002000E4011C00C8011900AF01170098010F
:100E80001400840113007101100061011000510170
:100E90000E0043010D0036010B002B010B00200159
:100EA0000B00150109000C01090003010800FB00FB
:100EB0000800F3000800EB000700E4000600DE0075
:100EC0000600D8000600D2000600CC000500C700CE
:100ED0000500C2000500BD000400B9000400B50013
:100EE0000400B1000400AD000400A9000400A50046
:100EF0000300A20003009F0004009B000300980071
:100F000003009500020093000300900003008D0091
:100F100002008B00030088000200860002008400AB
:100F20000300810002007F0002007D0002007B00C0
:100F300002007900020077000100760002007400D0
:100F4000020072000100710002006F0002006D00DB
:100F500001006C0002006A000100690002006700E5
:100F600001006600010065000100640002006200EB
:100F7000010061000100600001005F0002005D00EF
:100F800001005C0001005B0001005A0001005900F3
:100F900001005800010057000100560001005500F3
:100FA00001005400010053000000530001005200F2
:100FB000010051000100500001004F0001004E00EF
:100FC00000004E0001004D0001004C0001004B00EC
:100FD00000004B0001004A000100490001004800E8
:100FE00000004800010047000100460000004600E4
:100FF00001004500000045000100440001004300DD
:1010000000004300010042000000420001004100D6
:10101000000041000100400001003F0000003F00CF
:1010200001003E0000003E0001003D0000003D00C8
:1010300001003C0000003C0000003C0001003B00BF
:1010400000003B0001003A0000003A0001003900B6
:1010500000003900010038000000380000003800AE
:1010600001003700000037000100360000003600A4
:10107000000036000100350000003500000035009A
:10108000010034000000340000003400010033008F
:101090000000330000003300010032000000320085
:1010A000000032000100310000003100000031007A
:1010B00001003000000030000000300001002F006F
:1010C00000002F0000002F0000002F0001002E0064
:1010D00000002E0000002E0001002D0000002D0059
:1010E00000002D0000002D0001002C0000002C004D
:1010F00000002C0000002C0001002B0000002B0041
:1011000000002B0000002B0001002A0000002A0034
:1011100000002A0000002A00010029000000290028
:10112000000029000000290000002900010028001B
:10113000000028000000280000002800000028000F
:101140000100270000002700000027000000270002
:1011500000002700010026000000260000002600F5
:1011600000002600000026000100250000002500E8
:1011700000002500000025000000250000002500DB
:1011800001002400000024000000240000002400CE
:1011900000002400010023000000230000002300C1
:1011A00000002300000023000000230000002300B3
:1011B00001002200000022000000220000002200A6
:1011C0000000220000002200010021000000210098
:1011D000000021000000210000002100000021008B
:1011E000000021000100200000002000000020007D
:1011F000000020000000200000002000000020006F
:101200000000200001001F0000001F0000001F0060
:1012100000001F0000001F0000001F0000001F0052
:1012200001001E0000001E0000001E0000001E0045
:1012300000004D383420582059205A20450062655E
:10124000640A002C2073797374656D2073746F7059
:1012500070656421204865617465725F49443A2075
:101260000048617264636F646564204465666175FB
:101270006C742053657474696E6773204C6F61647D
:1012800065640A00E8030000E80300000A000000AB
:101290001027000000001643000016430000A04085
:1012A0000000C84100002042000020420000C84366
:1012B0000000C04220440020490020204D3330313E
:1012C0002050005049442073657474696E67733A06
:1012D0000A0020460020420020480020204D3134E2
:1012E000352053004D6174657269616C20686561D9
:1012F00074757020706172616D65746572733A0AFD
:101300000020204D363636205A005A3220456E6471
:1013100073746F702061646A7573746D656E743A6E
:101320000A00205A0020590020204D323036205823
:1013300000486F6D65206F66667365743A0A002019
:101340004500205A00205900205800204200205417
:101350000020204D323035205300416476616E63A9
:1013600065643A20533C6D696E5F666565647261C1
:1013700074653E20543C6D696E5F74726176656C75
:101380005F66656564726174653E20423C6D696E9E
:101390005F7365676D656E745F74696D655F6D73AE
:1013A0003E20583C6D61785F78795F6A65726B3E6C
:1013B000205A3C6D61785F7A5F6A65726B3E2045AA
:1013C0003C6D61785F655F6A65726B3E0A00205410
:1013D0000020520020204D32303420500041636301
:1013E000656C65726174696F6E2028756E697473BF
:1013F0002F7332293A20503C7072696E745F6163BA
:1014000063656C3E20523C726574726163745F6107
:101410006363656C3E20543C74726176656C5F61F9
:101420006363656C3E0A00204500205A0020590085
:1014300020204D3230312058004D6178696D756D36
:1014400020416363656C65726174696F6E202875F5
:101450006E6974732F7332293A0A00204500205AAE
:101460000020590020204D3230332058004D617843
:10147000696D756D20666565647261746573202899
:10148000756E6974732F73293A0A00204500205A3B
:101490000020590020204D393220580053746570C7
:1014A000732070657220756E69743A0A0020204DB1
:1014B0003230302044300A0020204D323030204479
:1014C000002044697361626C65640A0046696C615E
:1014D0006D656E742073657474696E67733A00206D
:1014E000204D3134392043203B20556E69747320E0
:1014F000696E2043656C736975730A00202047325A
:1015000031202020203B20556E69747320696E20A5
:101510006D6D0A0020204E6F7A7A6C653A20006368
:1015200068616E6765006F66207468652066696C27
:10153000616D656E74005761697420666F72207307
:1015400074617274005052494E54205041555345B5
:10155000440020204E6F7A7A6C653A2000200066A5
:10156000696C616D656E7420756E6C6F6164005797
:1015700061697420666F72005052494E5420504188
:10158000555345440020204E6F7A7A6C653A20000E
:101590002000506C6561736520776169742E2E2E72
:1015A0000048656174696E67206E6F7A7A6C6500B9
:1015B0005052494E54205041555345440020204E2E
:1015C0006F7A7A6C653A2000200068656174206E3D
:1015D0006F7A7A6C652E0050726573732062757431
:1015E000746F6E20746F005052494E542050415514
:1015F0005345440020204E6F7A7A6C653A2000747F
:101600006F20636F6E74696E75652E2E2E00616E8D
:101610006420707265737320627574746F6E004914
:101620006E736572742066696C616D656E740050CE
:1016300052494E54205041555345440020204E6F8E
:101640007A7A6C653A2000200066696C616D656E7F
:1016500074206C6F6164005761697420666F72005A
:101660005052494E54205041555345440020204E7D
:101670006F7A7A6C653A2000200066696C616D654E
:101680006E742065787472756465005761697420A2
:10169000666F72005052494E542050415553454494
:1016A00000746F20726573756D65005761697420F1
:1016B000666F72207072696E74005052494E5420E9
:1016C00050415553454400496E697469616C697AAB
:1016D0006520454550524F4D00436F6E74726F6CDC
:1016E00000526573746F7265206661696C73616620
:1016F00065004C6F61642073657474696E67730074
:10170000496E697469616C697A6520454550524F2C
:101710004D0053746F72652073657474696E6773DE
:101720000046696C616D656E74004D6F74696F6E13
:101730000054656D7065726174757265004D616904
:101740006E004D3330332055312045256920532517
:101750006900507265686561742041425320636F6F
:101760006E66005072656865617420504C4120635C
:101770006F6E6600504944204175746F74756E65D4
:1017800000504944204175746F74756E650050496E
:10179000442D44005049442D44005049442D4900F3
:1017A0005049442D49005049442D50005049442D82
:1017B00050002008204661637400200820466163C1
:1017C00074002008204D6178002008204D617800C9
:1017D0002008204D6178002008204D696E00200807
:1017E000204D696E002008204D696E004F6666002E
:1017F0004F6E20004175746F74656D700046616EA8
:101800002073706565640046616E20737065656461
:10181000004E6F7A7A6C65004E6F7A7A6C65004381
:101820006F6E74726F6C0053746F726520736574A1
:1018300074696E6773004E6F7A7A6C65004E6F7ACA
:101840007A6C650046616E20737065656400466160
:101850006E2073706565640054656D7065726174A7
:1018600075726500436172642072656D6F766564A0
:10187000004361726420696E736572746564000070
:10188000060900FE070192032120FFFF08FF07FF62
:10189000000000060000010707060200808080802B
:1018A000800080030202060105A0A00507070600CC
:1018B000005050F850F850500507070600002078F7
:1018C000A07028F020050707060000C0C8102040BF
:1018D00098180507070600006090A040A8906802CD
:1018E0000303060104C040800307070601002040EF
:1018F00080808040200307070601008040202020D0
:10190000408005050506000120A870A820050505F2
:101910000600012020F820200203030602FFC04039
:1019200080050101060003F8020202060200C0C0A1
:101930000505050600010810204080050707060080
:10194000007088888888887003070706010040C0F7
:1019500040404040E005070706000070880870809E
:1019600080F8050707060000F81020100808F005A9
:10197000070706000010305090F810100507070602
:101980000000F880F008088870050707060000705E
:101990008080F0888870050707060000F80810208E
:1019A000202020050707060000708888708888704E
:1019B000050707060000708888780808700205058A
:1019C000060200C0C000C0C00206060602FFC0C07A
:1019D00000C040800407070600001020408040201F
:1019E00010050303060002F800F8040707060100CB
:1019F00080402010204080050707060000708808FE
:101A00001020002005070706000070880868A8A8B5
:101A100070050707060000708888F8888888050721
:101A200007060000F08888F08888F00507070600A0
:101A30000070888080808870050707060000F088A5
:101A400088888888F0050707060000F88080F08005
:101A500080F8050707060000F88080F08080800588
:101A60000707060000708880B88888700507070699
:101A70000000888888F888888801070706020080A7
:101A800080808080808005070706000038101010D5
:101A90001090600507070600008890A0C0A09088FD
:101AA000050707060000808080808080F805070712
:101AB00006000088D8A888888888050707060000DF
:101AC0008888C8A898888805070706000070888855
:101AD00088888870050707060000F08888F08080F5
:101AE0008005070706000070888888A890680507A9
:101AF00007060000F08888F0A09088050707060018
:101B000000788080700808F0050707060000F820BC
:101B10002020202020050707060000888888888864
:101B20008870050707060000888888888850200587
:101B300007070600008888888888A85005070706D8
:101B40000000888850205088880507070600008814
:101B5000888850202020050707060000F80810207C
:101B60004080F8030707060100E08080808080E065
:101B7000050505060001804020100803070706013F
:101B800000E02020202020E0050303060004205070
:101B900088050101060000F80202020602058040E5
:101BA0000505050600007008788878050707060017
:101BB000008080B0C88888F00505050600007080A8
:101BC00080887005070706000008086898888878EC
:101BD0000505050600007088F880700507070600F7
:101BE000003048E0404040400506060600FF70888F
:101BF000887808700507070600008080B0C88888CC
:101C0000880107070602008000808080808003082A
:101C1000080601FF200020202020A040040707061E
:101C20000000808090A0C0A090030707060100C0BC
:101C30004040404040E0050505060000D0A8A8A8A7
:101C4000A8050505060000B0C888888805050506B2
:101C5000000070888888700506060600FFF08888F6
:101C6000F080800506060600FF7888887808080559
:101C70000505060000B0C880808005050506000047
:101C800070807008F00407070600004040E0404004
:101C90004030050505060000888888986805050518
:101CA0000600008888885020050505060000888801
:101CB000A8A8500505050600008850205088050694
:101CC000060600FF8888887808700505050600006C
:101CD000F8102040F803070706010020404080402C
:101CE00040200107070602008080808080808003FA
:101CF00007070601008040402040408005020206A0
:101D000000026890000000060000000000060000CD
:101D100000000006000000000006000000000006B1
:101D200000000000000600000000000600000000A7
:101D30000006000000000006000000000006000091
:101D40000000000600000000000600000000000681
:101D50000000000000060000000000060000000077
:101D60000006000000000006000000000006000061
:101D70000000000600000000000600000000000651
:101D80000000000000060000000000060000000047
:101D90000006000000000006000000000006000031
:101DA0000000000600000000000600000000000621
:101DB0000000000000060000000000060000000017
:101DC0000006000000000006000000000006000001
:101DD00001070706020080008080808080050707D9
:101DE0000600002070A8A0A87020050707060000C4
:101DF000304040E04050A8050505060000887050BE
:101E00007088050707060000885020F820F8200198
:101E10000707060200808080008080800508080691
:101E20000000304820505020906003010106010757
:101E3000A0050707060000F888B8B8B888F80507B5
:101E400007060001700878887800F8050505060087
:101E5000012850A05028050303060001F8080802D5
:101E600002020602064080050707060000F888A85F
:101E70008898A8F8050101060006F8040404060085
:101E800003609090600507070600002020F82020DE
:101E900000F804050506000360902040F0030505E6
:101EA000060003E020E020E0020202060206408075
:101EB0000508080600FF8888888898E8808005075C
:101EC000070600007898987818181802020206028F
:101ED00002C0C00202020602FF40800305050600A0
:101EE0000340C04040E0050707060001708888886D
:101EF0007000F8050505060001A0502850A0050750
:101F0000070600008890A858B808080507070600CB
:101F1000008890B848982038050808060000C0409E
:101F2000C048D838080805070706000020002040F0
:101F30008088700508080600004020007088F88836
:101F4000880508080600001020007088F8888805B9
:101F500008080600002050007088F88888050808E6
:101F60000600006890007088F88888050808060058
:101F7000005000708888F88888050808060000204E
:101F800050207088F888880507070600003860A090
:101F9000B8E0A0B80508080600FF70888080887047
:101FA0002060050808060000402000F880F080F856
:101FB000050808060000081000F880F080F8050801
:101FC00008060000205000F880F080F8050707069A
:101FD00000005000F880F080F80308080601008037
:101FE0004000E0404040E0030808060100204000B7
:101FF000E0404040E003080806010040A000E04047
:102000004040E0030707060100A000E0404040E038
:10201000050707060000704848E8484870050808AA
:1020200006000068900088C8A8988805080806007F
:102030000040207088888888700508080600001015
:1020400020708888888870050808060000205000E5
:1020500070888888700508080600006890007088FD
:1020600088887005080806000050007088888888F5
:1020700070050505060001885020508805080806EF
:1020800000FF1070A8A8A8A8704005080806000066
:10209000402088888888887005080806000010207D
:1020A0008888888888700508080600002050008805
:1020B000888888700508080600005000888888888D
:1020C0008870050808060000102088502020202075
:1020D0000509090600FFC040704848704040E00410
:1020E00008080601FF609090A09090E08005080825
:1020F000060000402000700878887805080806006F
:102100000010200070087888780508080600002074
:10211000500070087888780508080600006890006C
:102120007008788878050707060000500070087866
:102130008878050808060000205020700878887804
:10214000050606060000D02878A0A8500506060659
:1021500000FF70808870206005080806000040209D
:10216000007088F8807005080806000010200070D4
:1021700088F880700508080600002050007088F874
:10218000807005070706000050007088F880700313
:10219000080806010080400040C04040E0030808F5
:1021A00006010020400040C04040E003080806014E
:1021B0000040A00040C04040E0030707060100A027
:1021C0000040C04040E0050707060000A040A01006
:1021D000788870050808060000689000B0C88888F4
:1021E000880508080600004020007088888870056F
:1021F000080806000010200070888888700508080C
:1022000006000020500070888888700508080600C5
:1022100000689000708888887005070706000050E5
:102220000070888888700505050600012000F80008
:10223000200507070600FF1070A8A8A87040050831
:10224000080600004020008888889868050808066D
:10225000000010200088888898680508080600009B
:1022600020500088888898680507070600005000FD
:1022700088888898680509090600FF10200088886A
:1022800088F808700407070601FFC04060506040EE
:10229000E00508080600FF50008888887808707CF0
:1022A0003C3E5E2B3D3F2F5B5D3B2C2A225C004574
:1022B00072726F722077726974696E6720746F2012
:1022C000454550524F4D210A00290A002062797479
:1022D00065733B20637263200053657474696E6795
:1022E000732053746F726564202800202863616C2A
:1022F00063756C6174656429210A0020213D20000A
:10230000454550524F4D20435243206D69736D61D6
:10231000746368202D202873746F7265642920000F
:10232000290A002062797465733B20637263200080
:102330002073746F7265642073657474696E67735B
:1023400020726574726965766564202800204D618D
:10235000726C696E3D563431290A00284545505249
:102360004F4D3D00454550524F4D20766572736983
:102370006F6E206D69736D617463682000000021C9
:1023800000240027002A002D003000330001010046
:1023900000040107010A0100002200250028002B8B
:1023A000002E003100340002010000050108010B7D
:1023B00001000020002300260029002C002F0032FD
:1023C00000000100000301060109010505050507DC
:1023D0000508080808020202020A0A0808040404A0
:1023E00004010101010101010103030303030303CC
:1023F00003040707070C0C0C0C0C0C0C0C0202025B
:102400000206060606060606060B0B0B0B0B0B0B4D
:102410000B010210202008081020401020408002EC
:10242000010201080402010102040810204080801A
:10243000402010080402018004020180402010089E
:102440000402010804020101020408102040800176
:102450000204081020408000000A0B02090C0D0E37
:102460000807030401000000000000000000000055
:10247000000000000000000000000000000000005C
:102480000000001211100000000000000000000019
:102490000000000000000000000000000045737410
:1024A0006570732F6D6D004573746570732F6D6D5E
:1024B000005A73746570732F6D6D005A7374657074
:1024C000732F6D6D005973746570732F6D6D0059A6
:1024D00073746570732F6D6D005873746570732F0E
:1024E0006D6D005873746570732F6D6D004D6F7452
:1024F000696F6E0053746570732F6D6D004A65725D
:102500006B00416363656C65726174696F6E005640
:10251000656C6F6369747900436F6E74726F6C00E1
:1025200046696C2E204469612E0046696C2E204459
:1025300069612E004F6666004F6E20004520696E6F
:10254000206D6D3300436F6E74726F6C0043616E6B
:102550006E6F7420656E7465722073756264697243
:102560003A2000022E2E004D61696E0020204E6F31
:102570007A7A6C653A200020004261636B004D69F5
:102580006E696D756D2054656D70206973203137EB
:10259000302E0048656174696E67206661696C65FC
:1025A000640045787472756465206D6F72650052C1
:1025B0006573756D65207072696E74005245535570
:1025C0004D45204F5054494F4E533A004261627975
:1025D00073746570205A004D36303020423000430D
:1025E00068616E67652066696C616D656E74004236
:1025F00061627973746570205A00466C6F7700468B
:102600006C6F770046616E2073706565640046618B
:102610006E207370656564004E6F7A7A6C65004E4B
:102620006F7A7A6C650053706565640053706565F8
:1026300064004D61696E004261636B004E657874A1
:1026400020636F726E6572004D34323800507265CF
:102650006865617420504C4100436F6F6C646F7704
:102660006E00507265686561742041425300436892
:10267000616E67652066696C616D656E74004469A2
:102680007361626C65207374657070657273004D60
:1026900038340053657420686F6D65206F6666730B
:1026A000657473004C6576656C20636F726E65723D
:1026B0007300486F6D65205A00473238205A004831
:1026C0006F6D65205900473238205900486F6D659D
:1026D0002058004732382058004175746F20686FC9
:1026E0006D6500473238004D6F76652061786973FB
:1026F000004D61696E0053442063617264206F6B0A
:102700000A006F70656E526F6F74206661696C6548
:10271000640A00766F6C756D652E696E697420664B
:1027200061696C65640A00534420696E69742066AF
:1027300061696C0A006175746F25692E67004D32FE
:1027400034004D32332025730057726974696E6707
:1027500020746F2066696C653A20006F70656E208A
:102760006661696C65642C2046696C653A20006F6F
:1027700070656E206661696C65642C2046696C65C5
:102780003A200046696C652073656C656374656406
:102790000A002053697A653A200046696C65206F0B
:1027A00070656E65643A20006F70656E20666169C1
:1027B0006C65642C2046696C653A20002066696C63
:1027C000653A20004E6F7720002220706F73002240
:1027D00020706172656E743A2200535542524F5513
:1027E00054494E452043414C4C20746172676574D6
:1027F0003A22004B494C4C45442E200074727969B2
:102800006E6720746F2063616C6C207375622D6736
:10281000636F64652066696C6573207769746820EE
:10282000746F6F206D616E79206C6576656C732EA8
:10283000204D4158206C6576656C2069733A0045DF
:1028400072726F723A0043616E6E6F74206F7065C2
:102850006E207375626469722000544845524D4180
:102860004C2052554E4157415900546865726D6174
:102870006C2052756E6177617900656E7175657552
:1028800065696E672022006563686F3A001FFFFF6D
:10289000FFFFFFFF600000000001FF40000000009C
:1028A00000FF8000000000007F83CF00000C303F5D
:1028B00087FF80000C301F867980000C000F8C3061
:1028C000C7838C30E78C30CFC7CC31F38C30DCEC55
:1028D000EC33B98C30D86C6C33198C30D06C0C3331
:1028E000198C30D86C0C33198C30DC6C0E3B198C85
:1028F00030CF7C079F198C30C77C038F19400000B4
:1029000000000002600000000000061FFFFFFFFF44
:10291000FFF8205A00205900580020204D61783AD5
:102920002000205A00205900580020204D696E3A9E
:1029300020004F6E20004F666600536F667420655E
:102940006E6473746F70733A200020643A002069DB
:102950003A0020703A0043290A0061626C656420E5
:10296000286D696E2074656D702000436F6C642063
:1029700065787472756465732061726520002364E4
:102980006566696E65202044454641554C545F4B51
:1029900064200023646566696E65202044454641D5
:1029A000554C545F4B69200023646566696E652051
:1029B0002044454641554C545F4B702000504944DB
:1029C000204175746F74756E652066696E697368F1
:1029D0006564212050757420746865206C6173747F
:1029E000204B702C204B6920616E64204B64206367
:1029F0006F6E7374616E74732066726F6D206265A2
:102A00006C6F7720696E746F20436F6E66696775AF
:102A1000726174696F6E2E680A00504944204175D6
:102A2000746F74756E65206661696C6564212074CD
:102A3000696D656F75740A00504944204175746F63
:102A400074756E65206661696C6564212054656DDE
:102A5000706572617475726520746F6F2068696744
:102A6000680A00204B643A2000204B693A2000207D
:102A70004B703A20000A20436C61737369632050E5
:102A80004944200A002054753A2000204B753A2012
:102A900000206D61783A2000206D696E3A20002098
:102AA000643A200020626961733A2000000000004F
:102AB0000000000000000000000048420000484202
:102AC00000008040000000005761726E696E673A36
:102AD00020486F6D696E672042756D70204469767D
:102AE00069736F72203C20310A000202040000A0CA
:102AF000400000A0400000004000004643000046A7
:102B00004300005C43FFFFFF4D36303020486F74B8
:102B1000656E6420746F6F20636F6C6420746F2027
:102B20006368616E67652066696C616D656E740AC5
:102B30000000002110422063308440A550C660E7A9
:102B400070088129914AA16BB18CC1ADD1CEE1EF62
:102B5000F13112100273325222B5529442F772D6FA
:102B600062399318837BB35AA3BDD39CC3FFF3DEB2
:102B7000E36224433420040114E664C774A444854A
:102B8000546AA54BB528850995EEE5CFF5ACC58D02
:102B9000D55336722611163006D776F6669556B49A
:102BA000465BB77AA719973887DFF7FEE79DD7BC52
:102BB000C7C448E5588668A77840086118022823EA
:102BC00038CCC9EDD98EE9AFF9488969990AA92BA2
:102BD000B9F55AD44AB77A966A711A500A333A123A
:102BE0002AFDDBDCCBBFFB9EEB799B588B3BBB1AF2
:102BF000ABA66C877CE44CC55C222C033C600C418A
:102C00001CAEED8FFDECCDCDDD2AAD0BBD688D4941
:102C10009D977EB66ED55EF44E133E322E511E70D9
:102C20000E9FFFBEEFDDDFFCCF1BBF3AAF599F7891
:102C30008F8891A981CAB1EBA10CD12DC14EF16F42
:102C4000E18010A100C230E32004502540467067A7
:102C500060B9839893FBA3DAB33DC31CD37FE35ED3
:102C6000F3B1029012F322D23235421452776256F7
:102C700072EAB5CBA5A89589856EF54FE52CD50DE3
:102C8000C5E234C324A01481046674476424540547
:102C900044DBA7FAB79987B8975FE77EF71DC73C73
:102CA000D7D326F2369106B0165766767615463497
:102CB000564CD96DC90EF92FE9C899E9898AB9AB83
:102CC000A94458654806782768C018E1088238A3E7
:102CD000287DCB5CDB3FEB1EFBF98BD89BBBAB9A13
:102CE000BB754A545A376A167AF10AD01AB32A9237
:102CF0003A2EFD0FED6CDD4DCDAABD8BADE89DC923
:102D00008D267C076C645C454CA23C832CE01CC186
:102D10000C1FEF3EFF5DCF7CDF9BAFBABFD98FF8B2
:102D20009F176E367E554E745E932EB23ED10EF0D6
:102D30001E25753A2530327500253032753A25301A
:102D400032750025756420253032753A253032758C
:102D5000005A00590058000920000000000000003F
:102D60000000000000007FFFE00000000000000005
:102D700000000000007000E0000000000000000003
:102D80000000000061F8600000000000000000008A
:102D900000000041F82000000000000000000000DA
:102DA000000040F0200000000000000000000000D3
:102DB0000040602000000000000000000000000053
:102DC0005801A07F80000000000000000000005CAF
:102DD00063A0FFC0000000000000000000005EF7DC
:102DE000A0FFC0000000000000000000005EF7A08F
:102DF000FFC0000000000000000000005C63A07F36
:102E000080000000000000000000005801A07F804A
:102E100000000000000000000000406020FFC00033
:102E200000000000000000000040F020FFC0000093
:102E3000000000000000000041F820FFC00000007A
:102E40000000000000000061F8603F00000000008A
:102E50000000000000007000E01E00000000000004
:102E600000000000007FFFE00C00000000000000F8
:102E70000000000000000000000000000000000052
:102E80000000007FFFE000000000000000000000E4
:102E900000007000E00000000000000000000000E2
:102EA00000630C6000000000000000000000000053
:102EB000470E200000000000000000000000004F4E
:102EC0000F200000000000000000000000005F0F65
:102ED000A00000000000000000000000005E07A04D
:102EE0007F8000000000000000000000406020FF24
:102EF000C00000000000000000000040F020FFC003
:102F00000000000000000000000040F020FFC000B2
:102F10000000000000000000004060207F800000F2
:102F200000000000000000005E07A07F800000009D
:102F3000000000000000005F0FA0FFC000000000C4
:102F40000000000000004F0F20FFC0000000000044
:102F50000000000000470E20FFC00000000000003D
:102F600000000000630C603F000000000000000053
:102F70000000007000E01E000000000000000000E3
:102F800000007FFFE00C00000000000000000000D7
:102F90000000000000060900FE000000000001091A
:102FA0000008FE000005080806000040F0C88888F8
:102FB000987810050808060000C0F8888888888876
:102FC000F80505050600012030F830200508080640
:102FD00000002070F820202020E00509090600FFED
:102FE0002070A8A8B8888870200509090600FFE0AD
:102FF00080C0B0A8283028280509090600FFF8A8D5
:103000008888888888A8F8050A0A0600FE2050509B
:10301000505088A8A8887003030306000340A0400E
:103020005654726176206D696E0056547261762036
:103030006D696E005654726176206D696E00566D32
:10304000696E00566D696E00566D696E00566D6151
:1030500078204500566D6178204500566D617820D6
:103060004500566D6178205A00566D6178205A00EF
:10307000566D6178205A00566D6178205900566D62
:103080006178205900566D6178205900566D61783D
:10309000205800566D6178205800566D6178205890
:1030A000004D6F74696F6E00416D6178204500417D
:1030B0006D6178204500416D6178205A00416D6155
:1030C00078205A00416D6178205900416D61782067
:1030D0005900416D6178205800416D617820580099
:1030E000412D74726176656C00412D747261766554
:1030F0006C00412D7265747261637400412D7265BC
:10310000747261637400416363656C00416363655D
:103110006C004D6F74696F6E0056652D6A65726B39
:103120000056652D6A65726B0056652D6A65726B77
:1031300000567A2D6A65726B00567A2D6A65726B3D
:103140000056792D6A65726B0056792D6A65726B2F
:103150000056792D6A65726B0056782D6A65726B20
:103160000056782D6A65726B0056782D6A65726B11
:10317000004D6F74696F6E0020746F6F206C6F6EFE
:103180006720657874727573696F6E2070726576EA
:10319000656E7465640A0020636F6C6420657874E2
:1031A000727573696F6E2070726576656E74656492
:1031B0000A0070012C0190012701B0012201C00119
:1031C0001D01F00118011002130130020E0160020E
:1031D000090190020401C002FF000003FA0040034D
:1031E000F5008003F000D003EB002004E60070043B
:1031F000E100E004DC004005D700C005D200400635
:10320000CD00D006C8008007C3003008BE00F0081B
:10321000B900C009B400B00AAF00B00BAA00D00CCE
:10322000A500000EA000500F9B00C0109600501289
:10323000910000148C00C0158700B0178200B019EF
:103240007D00D01B7800001E730040206E0090228D
:103250006900F024640040275F0090295A00E02BA9
:103260005500102E500020304B0010324600E03345
:10327000410090353C001037370070383200A039DB
:103280002D00B03A2800A03B2300603C1E00103DFA
:103290001900903D1400103E0F00703E0A00C03E21
:1032A0000500003F0000403FFBFF803FF6FFC03FAE
:1032B000F1FF48656174696E67206661696C6564D9
:1032C0000048656174696E67206661696C656400B9
:1032D0004572723A204D494E54454D50004D494E6D
:1032E00054454D5020747269676765726564004586
:1032F00072723A204D415854454D50004D4158543A
:10330000454D502074726967676572656400526547
:1033100073656E643A20006F6B00627573793A20B2
:1033200070617573656420666F7220696E70757464
:103330000A00627573793A2070617573656420665E
:103340006F7220757365720A00627573793A207026
:10335000726F63657373696E670A004B494C4C4525
:10336000442E20004B494C4C2063617573656420EA
:103370006279204B494C4C20627574746F6E2F70CB
:10338000696E0A004B494C4C45442E20004B494C79
:103390004C2063617573656420627920746F6F20BF
:1033A0006D75636820696E61637469766520746900
:1033B0006D65202D2063757272656E7420636F6D6C
:1033C0006D616E643A2000506C65617365207265B2
:1033D000736574005052494E5445522048414C5434
:1033E0004544005072696E7465722068616C746542
:1033F000642E206B696C6C28292063616C6C656499
:10340000210A004D6F76652058004D6F7665205972
:10341000004D6F7665205A00457874727564657248
:10342000004D6F766520302E316D6D004D6F7665E5
:1034300020316D6D004D6F76652031306D6D004D22
:103440006F7665206178697300457874727564657C
:1034500072004D6F7665205A004D6F7665205900D9
:103460004D6F7665205800457874727564657200FA
:103470004D6F7665205A004D6F76652059004D6F6F
:1034800076652058005072657061726500507269EF
:103490006E7420706175736564004D3132350000C3
:1034A0004D3234005072696E742061626F727465BF
:1034B00064005072696E742066726F6D2053440010
:1034C00053746F70207072696E7400526573756DFD
:1034D00065207072696E74004E6F205344206361E2
:1034E0007264005061757365207072696E74004378
:1034F0006F6E74726F6C005072657061726500540B
:10350000756E6500496E666F2073637265656E0047
:1035100030E4C6E511241FBECFEFD1E2DEBFCDBF40
:1035200000E00CBF13E0A0E0B2E0EEE9F7EE01E04E
:103530000BBF02C007900D92A43DB107D9F724E15B
:10354000A4EDB3E001C01D92AC32B207E1F71AE17D
:10355000C9E8DAE100E006C021970109802FFE01E9
:103560000E9438F3C838D10780E00807A9F70E9405
:10357000C1DD0C94BEF30C9400002F923F924F9249
:103580005F926F927F928F929F92AF92BF92CF92F3
:10359000DF92EF92FF920F931F93CF93DF93CDB7FC
:1035A000DEB7C85BD1090FB6F894DEBF0FBECDBF42
:1035B0000091280620E6029F8001112408551B4F28
:1035C0008091B70B80FF1AC0E7E8F8E284917F0191
:1035D0003FEFE31AF30A811102C0780104C00E9490
:1035E000DC3EF701F3CFD7018D917D01882319F0DF
:1035F0000E94DC3EF8CF8AE00E94DC3E81E090E051
:1036000090932312809322121092FF031092FE03D4
:103610008FE3809302041092010410920004109230
:10362000EE031092EF031092F0031092F103F801F1
:1036300080810F5F1F4F8032D1F38E34B1F48181CE
:1036400090ED980F9A3020F08D3211F08B3269F4A2
:103650003296DF0131962C9120532A30D0F3CD01E0
:10366000FC01019620812032D9F3F093AE13E09350
:10367000AD137F01BFEFEB1AFB0A10816AE270E025
:10368000C7010E9486F3009731F0FC0131978081D9
:103690008032E1F311821D3429F0143519F017340A
:1036A00009F0CEC0F70180812FEFE21AF20A8032D2
:1036B000C9F380538A3008F0C3C0109302042091EC
:1036C0000004309101044AE03196429FC001439FBB
:1036D000900D1124DF0111972C91022E000C330B59
:1036E00020533109280F391F808180538A3060F3BD
:1036F0003093010420930004DF0131968C918032D5
:10370000D9F31D3451F00091AD136091FE03709117
:10371000FF0388248394912C55C02E31310591F0FC
:103720003CF42731310571F02C31310561F70AC0C5
:103730002537310544F32737310524F0203A43E09B
:10374000340709F7B093FF03A093FE0379C0413219
:1037500009F442C0EFEBE40FEA3108F05DC0DC0190
:103760007D015D915032E1F3C701A0EDA50FAA30B4
:1037700008F046C0DC01EE2EF12C670153E0D59431
:10378000C7945A95E1F7A60142515C4F6A014E2F4A
:103790004770F40102C0EE0FFF1F4A95E2F7AF0138
:1037A000F6015081452B40831097A1F1A01BA70182
:1037B0004C525C4FFA01A083DC014C9141544A31D8
:1037C00080F5DC01CD0101964C914111C0CF709381
:1037D000FF036093FE0334C01D3409F0BBCF2032D9
:1037E000310509F0B7CF9093FF038093FE0363E2A6
:1037F00070E00E9486F3009719F1DC011C9220C052
:10380000A3EDA50FA23008F4B5CF5B3211F00C94F4
:103810006137B0CFA0E0CBCF6115710569F6BD016E
:10382000CBCFAD011196FA01908190539A30C8F335
:10383000CA014F5F5F4FFC01A081A032C9F3C1CF25
:10384000809102048D3411F40C94D529843511F43F
:103850000C940937873411F00C944337809100049D
:10386000909101048430910509F497C65CF497FFA8
:1038700002C00C945A3720911902823091050CF045
:103880000DC11CC08A35910511F40C94472954F4DC
:103890008530910509F4C8C64C9711F40C94902812
:1038A0000C945A378B35910511F40C944B298C35B7
:1038B000910511F40C9450290C945A37222311F4D9
:1038C0000C945A370E945C3E84E292E10E9471D4CB
:1038D0000E94D13E8091B70B83FD8FC0C090301203
:1038E000D0903112E0903212F090331220910E14E9
:1038F00030910F144091101450911114C701B6016A
:103900000E941AEC882309F478C08091C90B8111B8
:1039100038C060912E0270912F02072E000C880B88
:10392000990B0E9420EC9B01AC016091C50B70913A
:10393000C60B8091C70B9091C80B0E941AEC87FFB1
:1039400020C0C0920E14D0920F14E0921014F09286
:103950001114E7E8F8E284918F010F5F1F4F88236D
:1039600021F00E94DC3EF801F6CFECE0F2E0849119
:103970008F010F5F1F4F882321F00E94DC3EF8016A
:10398000F6CFC0903012D0903112E0903212F09009
:10399000331220910E1430910F1440911014509155
:1039A0001114C701B6010E9430F020E030E048E475
:1039B00053E40E9457F2181604F5C0920E14D092E8
:1039C0000F14E0921014F0921114E7E8F8E28491D9
:1039D0008F010F5F1F4F882321F00E94DC3EF8010A
:1039E000F6CFEDEEF1E084918F010F5F1F4F88233A
:1039F00021F00E94DC3EF801F6CF20912412309194
:103A00002512409126125091271260910214709154
:103A1000031480910414909105140E941AEC8111F2
:103A20001DC0209128123091291240912A125091E4
:103A30002B126091061470910714809108149091D4
:103A400009140E941AEC811109C060910002709162
:103A5000010280910202909103021AC060912C022F
:103A600070912D02072E000C880B990B0E9420EC00
:103A70002091000230910102409102025091030214
:103A80000E947FEC2AE037ED43E25CE30E947FEC8A
:103A90000E949E3B0E94943B0C945A37222311F4BF
:103AA0000C945A3711E0029709F010E00E945C3E36
:103AB00082E50E94D93D882309F45CC10E94613DE2
:103AC0006B017C0140900214509003146090041428
:103AD0007090051420910614309107144091081439
:103AE0005091091463962CAF3DAF4EAF5FAF639713
:103AF0008091241290912512A0912612B091271244
:103B000067968CAF9DAFAEAFBFAF6797209128127D
:103B10003091291240912A1250912B126F962CAF9E
:103B20003DAF4EAF5FAF6F9720E030E0A901C70116
:103B3000B6010E941AEC882309F415C5A30192016D
:103B400067966CAD7DAD8EAD9FAD67970E941AEC08
:103B5000811111C063962CAD3DAD4EAD5FAD639745
:103B60006F966CAD7DAD8EAD9FAD6F970E941AECD8
:103B7000882309F4F8C420E030E0A901C701B601A8
:103B80000E941AEC881F8827881F18130BC080E03A
:103B900090E0A0E8BFE3AB968CAF9DAFAEAFBFAFF8
:103BA000AB970AC020E030E040E85FEBAB962CAF6B
:103BB0003DAF4EAF5FAFAB97A301920167966CAD7F
:103BC0007DAD8EAD9FAD67970E9430F0A3966CAF30
:103BD0007DAF8EAF9FAFA39763962CAD3DAD4EAD3D
:103BE0005FAD63976F966CAD7DAD8EAD9FAD6F97FA
:103BF0000E9430F0A7966CAF7DAF8EAF9FAFA797B6
:103C0000A3962CAD3DAD4EAD5FADA397CA01B901F2
:103C10000E947FEC4B015C01A7962CAD3DAD4EADF3
:103C20005FADA797CA01B9010E947FEC9B01AC016F
:103C3000C501B4010E9431F00E949CF26B966CAFFA
:103C40007DAF8EAF9FAF6B9720E030E040E05FE349
:103C50000E947FEC4B015C01A7019601C701B601F0
:103C60000E947FEC6B017C01A5019401C501B401A8
:103C70000E947FEC9B01AC01C701B6010E9430F0AD
:103C80000E949CF29B01AC01AB966CAD7DAD8EADFC
:103C90009FADAB970E947FEC4B015C0167962CAD0A
:103CA0003DAD4EAD5FAD6797C301B2010E9431F0EB
:103CB00020E030E040E05FE30E947FEC6B017C019C
:103CC000A7966CAD7DAD8EAD9FADA79790586B96C6
:103CD0002CAD3DAD4EAD5FAD6B970E940DF19B01DC
:103CE000AC01C501B4010E947FEC9B01AC01C7018E
:103CF000B6010E9431F0A30192010E9430F06B01E5
:103D00007C016F962CAD3DAD4EAD5FAD6F97639668
:103D10006CAD7DAD8EAD9FAD63970E9431F020E01C
:103D200030E040E05FE30E947FEC2B013C016B96AA
:103D30002CAD3DAD4EAD5FAD6B97A3966CAD7DAD3B
:103D40008EAD9FADA3970E940DF19B01AC01C50103
:103D5000B4010E947FEC9B01AC01C301B2010E943F
:103D600031F063962CAD3DAD4EAD5FAD63970E94D3
:103D700030F014C089E40E94D93D882329F00E94C4
:103D8000613D6B017C0103C0C12CD12C76018AE41A
:103D90000E94D93D8823F9F00E94613D6F966CAF77
:103DA0007DAF8EAF9FAF6F9720E030E0A901C701D4
:103DB000B6010E941AEC81111EC020E030E0A9017A
:103DC0006F966CAD7DAD8EAD9FAD6F970E941AEC76
:103DD000811111C0C8C320E030E0A901C701B601BC
:103DE0000E941AEC882309F4BEC36F961CAE1DAE68
:103DF0001EAE1FAE6F97D701C601B05863968CAF49
:103E00009DAFAEAFBFAF63976F962CAD3DAD4EADDE
:103E10005FAD6F97505867962CAF3DAF4EAF5FAF19
:103E200067979C01AD01BC01CD010E947FEC4B0165
:103E30005C0167962CAD3DAD4EAD5FAD6797CA0195
:103E4000B9010E947FEC9B01AC01C501B4010E9445
:103E500031F00E949CF2C158DF4F688379838A83D6
:103E60009B83CF57D0408091021490910314A0916E
:103E70000414B09105146B968CAF9DAFAEAFBFAF7D
:103E80006B97A7019601BC01CD010E9431F0AB9662
:103E90006CAF7DAF8EAF9FAFAB97A0900614B09084
:103EA0000714C0900814D0900914A396ACAEBDAE10
:103EB000CEAEDFAEA3976F962CAD3DAD4EAD5FADF0
:103EC0006F97C601B5010E9431F0AF966CAF7DAF20
:103ED0008EAF9FAFAF97C0902412D0902512E09084
:103EE0002612F0902712E396CCAEDDAEEEAEFFAE1A
:103EF000E397AB962CAD3DAD4EAD5FADAB97C70133
:103F0000B6010E9430F06B017C01209128123091A3
:103F1000291240912A1250912B12E7962CAF3DAFF7
:103F20004EAF5FAFE797AF962CAD3DAD4EAD5FADF9
:103F3000AF97E7966CAD7DAD8EAD9FADE7970E94D4
:103F400030F04B015C0180910A1490910B14A09108
:103F50000C14B0910D14EB968CAF9DAFAEAFBFAF0C
:103F6000EB979C01AD0160912C1270912D12809104
:103F70002E1290912F120E9430F0A7966CAF7DAF59
:103F80008EAF9FAFA79720913012309131124091A0
:103F9000321250913312CD57DF4F288339834A8331
:103FA0005B83C358D04080910E1490910F14A09160
:103FB0001014B0911114EF968CAF9DAFAEAFBFAFA0
:103FC000EF97A701960163966CAD7DAD8EAD9FAD69
:103FD00063970E947FEC2B013C01A5019401679639
:103FE0006CAD7DAD8EAD9FAD67970E947FEC9B0160
:103FF000AC01C301B2010E9431F02B013C01A501CB
:10400000940163966CAD7DAD8EAD9FAD63970E94BC
:104010007FEC4B015C01A701960167966CAD7DAD0D
:104020008EAD9FAD67970E947FEC9B01AC01C501EF
:10403000B4010E9430F0A30192010E94A4F06B0130
:104040007C0120E030E0A9010E941AEC87FF0AC041
:104050002BED3FE049EC50E4C701B6010E9431F07E
:104060006B017C01112351F02BED3FE049EC50E452
:10407000C701B6010E9430F06B017C0120E030E006
:10408000A901C701B6010E941AEC811128C0E3966C
:104090002CAD3DAD4EAD5FADE3976B966CAD7DAD98
:1040A0008EAD9FAD6B970E941AEC811118C0E796F8
:1040B0002CAD3DAD4EAD5FADE797A3966CAD7DAD3C
:1040C0008EAD9FADA3970E941AEC811108C04BEDF5
:1040D000C42E4FE0D42E49ECE42E40E4F42EC15817
:1040E000DF4F288139814A815B81CF57D040C7019A
:1040F000B6010E947FEC9B01AC010E947FEC4B015A
:104100005C01A7962CAD3DAD4EAD5FADA797CA0142
:10411000B9010E947FEC9B01AC01C501B4010E9472
:1041200031F00E949CF24B015C012FE632E143E842
:104130005AE30E941AEC87FD12C2C501B4010E9425
:10414000A6F10E947AF1A1967FAF6EAFA197672B7F
:1041500031F421E030E0A1963FAF2EAFA197A196B8
:10416000AEACBFACA197B50180E090E00E941EEC20
:104170004B015C019B01AC01C701B6010E940DF12E
:104180006B966CAF7DAF8EAF9FAF6B97A50194011F
:10419000A7966CAD7DAD8EAD9FADA7970E940DF13A
:1041A000C158DF4F688379838A839B83CF57D04080
:1041B000EF962CAD3DAD4EAD5FADEF97CD57DF4FD8
:1041C000688179818A819B81C358D0400E9430F0F8
:1041D000A50194010E940DF1CD57DF4F68837983CB
:1041E0008A839B83C358D0406B962CAD3DAD4EADBA
:1041F0005FAD6B97CA01B9010E947FEC20E030E00F
:1042000040E05FE30E947FEC9B01AC0160E070E066
:1042100080E89FE30E9430F0A7966CAF7DAF8EAF31
:104220009FAFA797EB96CCACDDACEEACFFACEB97B9
:10423000C986DA86EB86FC86EF96ACACBDACCEAC1C
:10424000DFACEF97AD86BE86CF86D88A60912C0210
:1042500070912D02072E000C880B990B0E9420EC08
:10426000209100023091010240910202509103021C
:104270000E947FEC2AE037ED43E25CE30E947FEC92
:10428000E3966CAF7DAF8EAF9FAFE3970E944585FD
:104290009B01AC0128533F4F4F4F5F4FE7962CAF28
:1042A0003DAF4EAF5FAFE79760964FAC60976196BA
:1042B0005FAC619762966FAC629763967FAC6397D1
:1042C00022242394312C39E1D32EA196AEACBFAC7D
:1042D000A1972A143B0409F42EC10E941AD00E940F
:1042E0004585DC01CB01E7962CAD3DAD4EAD5FAD14
:1042F000E797821B930BA40BB50BB7FD11C00E946F
:1043000045859B01AC0128533F4F4F4F5F4FE796C8
:104310002CAF3DAF4EAF5FAFE79780E00E94C6D1B4
:10432000DA94DD2009F44BC0A7962CAD3DAD4EAD1F
:104330005FADA79767966CAD7DAD8EAD9FAD67976E
:104340000E947FEC4B015C016B962CAD3DAD4EADF8
:104350005FAD6B97B201C3010E947FECA501940190
:104360000E9431F07B018C01A7962CAD3DAD4EAD86
:104370005FADA797B201C3010E947FEC4B015C01C6
:104380006B962CAD3DAD4EAD5FAD6B9767966CAD4A
:104390007DAD8EAD9FAD67970E947FEC9B01AC0118
:1043A000C501B4010E9430F02B013C01C701D801C6
:1043B00067968CAF9DAFAEAFBFAF67975BC0B101E3
:1043C00080E090E00E941EEC6B962CAD3DAD4EADB2
:1043D0005FAD6B970E947FEC4B015C010E940AF17C
:1043E0006B017C01C501B4010E9492F24B015C019A
:1043F000A701960163966CAD7DAD8EAD9FAD6397C1
:104400000E947FEC2B013C01A50194016F966CADDD
:104410007DAD8EAD9FAD6F970E947FEC9B01AC018F
:10442000C301B2010E9431F02B013C01A5019401AE
:1044300063966CAD7DAD8EAD9FAD63970E947FECB2
:104440004B015C01A70196016F966CAD7DAD8EAD01
:104450009FAD6F970E947FEC9B01AC01C501B40139
:104460000E9430F067966CAF7DAF8EAF9FAF6797BD
:1044700099E1D92E9201A301AB966CAD7DAD8EADC5
:104480009FADAB970E9431F069837A838B839C83C5
:1044900067962CAD3DAD4EAD5FAD6797AF966CADF9
:1044A0007DAD8EAD9FADAF970E9431F06D837E8361
:1044B0008F839887C158DF4F288139814A815B817A
:1044C000CF57D04069857A858B859C850E9431F0D5
:1044D00069877A878B879C87CD57DF4F2881398101
:1044E0004A815B81C358D0406D857E858F859889D0
:1044F0000E9431F06D877E878F87988BCE01019661
:104500000E9471D4C090B80BE396ECACFDAC0EAD3C
:104510001FADE3979E01235F3F4FAE01475F5F4FA3
:10452000BE016B5F7F4FCE0101960E94DBBE3FEF65
:10453000231A330ACACEC090B80BE396ECACFDAC9C
:104540000EAD1FADE39720E332E14CE252E168E2A9
:1045500072E184E292E10E94DBBE0E94943B0E94E1
:10456000D13E0C945A37EFE3F8E284918F010F5F4C
:104570001F4F882321F00E94DC3EF801F6CFE7E2CE
:10458000F2E084918F010F5F1F4F882311F40C9488
:104590005A370E94DC3EF801F4CF80E50E94D93DF5
:1045A000882329F00E94213D6B017C0103C0C12CAE
:1045B000D12C760183E50E94D93D882361F00E94C9
:1045C000613D20E030E04AE754E40E947FEC0E9425
:1045D0007AF16B017C010E948F4480915C02811111
:1045E00005C060E08DE392E00E94916C0E94D13E94
:1045F0008091AF139091B013A091B113B091B21309
:10460000C80ED91EEA1EFB1E0E944585DC01CB01A7
:104610008C199D09AE09BF09B7FD02C00C945A3729
:1046200080E00E94C6D1F0CF80911902882311F456
:104630000C945A370E945C3E89E40E94D93D88233D
:1046400029F00E94613D2B013C0103C0412C512CFB
:1046500032018AE40E94D93D882329F00E94613DFD
:104660004B015C0103C0812C912C540180E50E9418
:10467000D93D882329F00E94613D6B017C0103C074
:10468000C12CD12C760181E50E94D93D882349F0C7
:104690000E94613D63966CAF7DAF8EAF9FAF639715
:1046A00006C063961CAE1DAE1EAE1FAE6397209172
:1046B000B80BC055DF4F2883C05BD04060912C02FF
:1046C00070912D02072E000C880B990B0E9420EC94
:1046D00020910002309101024091020250910302A8
:1046E0000E947FEC2AE037ED43E25CE30E947FEC1E
:1046F000CF54DF4F688379838A839B83C15BD0402B
:104700008091021490910314A0910414B0910514A7
:1047100067968CAF9DAFAEAFBFAF6797A301920115
:10472000BC01CD010E9431F0C158DF4F688379830D
:104730008A839B83CF57D040409006145090071433
:104740006090081470900914A5019401C301B2018E
:104750000E9431F0CD57DF4F688379838A839B8332
:10476000C358D04020912412309125124091261236
:1047700050912712C701B6010E9431F0C557DF4F93
:10478000688379838A839B83CB58D04020912812F9
:104790003091291240912A1250912B1263966CADE0
:1047A0007DAD8EAD9FAD63970E9431F0C157DF4F55
:1047B000688379838A839B83CF58D0406796ACAC5B
:1047C000BDACCEACDFAC6797A982BA82CB82DC826B
:1047D0004D825E826F8278860E9445859B01AC0186
:1047E00028533F4F4F4F5F4FC555DF4F28833983C5
:1047F0004A835B83CB5AD0408DEC882E8CEC982E6C
:10480000A92C8DE3B82E60961FAE609764961FAEFC
:1048100064976C961FAE6C9768961FAE68970E945F
:104820001AD00E9445858B019C01C555DF4FC88079
:10483000D980EA80FB80CB5AD0400C191D092E0983
:104840003F0937FD11C09B01AC0128533F4F4F4F2B
:104850005F4FC555DF4F288339834A835B83CB5A2B
:10486000D04080E00E94C6D1A50194016096BFAD02
:1048700060976496AFAD64976C96FFAD6C97689641
:10488000EFAD68976B2F7A2F8F2F9E2F0E9431F0FC
:104890002B011C0120E030E040E85FE30E9457F26A
:1048A000181634F4412C512C10E8212E0FE3302E31
:1048B0008091241290912512A0912612B091271276
:1048C000CD56DF4F88839983AA83BB83C359D040D9
:1048D000A0900214B0900314C0900414D09005145A
:1048E000C956DF4FA882B982CA82DB82C759D0403D
:1048F0003F922F925F924F92CD56DF4FA880B980A2
:10490000CA80DB80C359D040C557DF4FE880F980AB
:104910000A811B81CB58D040C158DF4F2881398193
:104920004A815B81CF57D040C956DF4F688179817A
:104930008A819B81C759D0400E94D64B0F900F901F
:104940000F900F90A0966FAFA097A4967FAFA497FB
:10495000A8968FAFA897AC969FAFAC97C09028123F
:10496000D0902912E0902A12F0902B12C556DF4FFA
:10497000C882D982EA82FB82CB59D04020910614AA
:10498000309107144091081450910914C156DF4F1B
:10499000288339834A835B83CF59D0403F922F923B
:1049A0005F924F92C556DF4FA880B980CA80DB80E6
:1049B000CB59D040C157DF4FE880F9800A811B8175
:1049C000CF58D040CD57DF4F288139814A815B8154
:1049D000C358D040C156DF4F688179818A819B815D
:1049E000CF59D0400E94D64B0F900F900F900F9050
:1049F000E0966FAFE097E4967FAFE497E8968FAFCD
:104A0000E897EC969FAFEC9789819A81AB81BC8146
:104A1000CD55DF4F88839983AA83BB83C35AD04087
:104A2000AD80BE80CF80D884C955DF4FA882B982BF
:104A3000CA82DB82C75AD040C957DF4F1882C75895
:104A4000D04060967FAD609764966FAD64976C962A
:104A50009FAD6C9768968FAD6897272F362F492F9B
:104A6000582F642D752D822D932D0E9430F02FE646
:104A700032E143E05BE30E941AEC87FF08C0C957AC
:104A8000DF4FB880C758D040B11079C257C2242D2B
:104A9000352D422D532D6096BFAD60976496AFAD16
:104AA00064976C96FFAD6C976896EFAD68976B2F27
:104AB0007A2F8F2F9E2F0E9431F020E030E040E0CF
:104AC0005FE30E947FEC3B014C019F928F937F92AA
:104AD0006F93CD56DF4FA880B980CA80DB80C35961
:104AE000D040C557DF4FE880F9800A811B81CB5841
:104AF000D040C158DF4F288139814A815B81CF572F
:104B0000D040C956DF4F688179818A819B81C7591E
:104B1000D0400E94D64B0F900F900F900F90C85727
:104B2000DF4F6883C858D040C757DF4F7883C958D4
:104B3000D040C657DF4F8883CA58D040C155DF4F99
:104B40009883CF5AD0409F928F927F926F92C55692
:104B5000DF4FA880B980CA80DB80CB59D040C157D5
:104B6000DF4FE880F9800A811B81CF58D040CD57B4
:104B7000DF4F288139814A815B81C358D040C156BB
:104B8000DF4F688179818A819B81CF59D0400E9413
:104B9000D64B0F900F900F900F905B018C01A09659
:104BA0002FADA097A4963FADA497A8964FADA89718
:104BB000AC965FADAC97CD55DF4F688179818A8126
:104BC0009B81C35AD0400E9431F020E030E040E0A9
:104BD0005FE30E947FEC9B01AC01C857DF4F688107
:104BE000C858D040C757DF4F7881C958D040C65702
:104BF000DF4F8881CA58D040C155DF4F9881CF5AC6
:104C0000D0400E9430F06B017C01E894F7F8E09608
:104C10002FADE097E4963FADE497E8964FADE89767
:104C2000EC965FADEC97C955DF4F688179818A8139
:104C30009B81C75AD0400E9431F020E030E040E034
:104C40005FE30E947FEC9B01AC01B501C8010E94AB
:104C500030F09B01AC015F77C701B6010E9431F0D3
:104C60002DEC3CEC4CEC5DE30E941AEC18160CF0B9
:104C700006CFE096AFAEE097E496BFAEE497E89635
:104C80000FAFE897EC961FAFEC97C857DF4FC8807F
:104C9000C858D040A096CFAEA097C757DF4FD88056
:104CA000C958D040A496DFAEA497C657DF4FE8801E
:104CB000CA58D040A896EFAEA897C155DF4FF880EC
:104CC000CF5AD040AC96FFAEAC972301140121E03F
:104CD000C957DF4F2883C758D040B3CEA7019601EC
:104CE000C701B6010E9431F09B01AC016096BFADD7
:104CF00060976496AFAD64976C96FFAD6C976896BD
:104D0000EFAD68976B2F7A2F8F2F9E2F0E9431F077
:104D1000962E872E782E692E20E030E040E85FE363
:104D2000D401F3016B2F7A2F8F2F9E2F0E9457F201
:104D300087FF25C16F927F928F929F92CD56DF4F52
:104D4000A880B980CA80DB80C359D040C557DF4FE7
:104D5000E880F9800A811B81CB58D040C158DF4FD1
:104D6000288139814A815B81CF57D040C956DF4FB6
:104D7000688179818A819B81C759D0400E94D64B36
:104D80000F900F900F900F90C957DF4F6883C7584F
:104D9000D040C857DF4F7883C858D040C757DF4F3F
:104DA0008883C958D040C657DF4F9883CA58D0402F
:104DB0006F927F928F929F92C556DF4FA880B980E5
:104DC000CA80DB80CB59D040C157DF4FE880F980E3
:104DD0000A811B81CF58D040CD57DF4F28813981C0
:104DE0004A815B81C358D040C156DF4F68817981C9
:104DF0008A819B81CF59D0400E94D64B0F900F9053
:104E00000F900F905B018C01C957DF4F2881C75865
:104E1000D040C857DF4F3881C858D040C757DF4F00
:104E20004881C958D040C657DF4F5881CA58D04032
:104E3000CD55DF4F688179818A819B81C35AD040EB
:104E40000E9431F020E030E040E05FE30E947FEC20
:104E50009B01AC01A0966FADA097A4967FADA497DF
:104E6000A8968FADA897AC969FADAC970E9430F0F6
:104E70006B017C01E894F7F89501A801C955DF4F53
:104E8000688179818A819B81C75AD0400E9431F024
:104E900020E030E040E05FE30E947FEC9B01AC014A
:104EA000E0966FADE097E4967FADE497E8968FAD1E
:104EB000E897EC969FADEC970E9430F09B01AC0117
:104EC0005F77C701B6010E9431F02DEC3CEC4CEC51
:104ED0005DE30E9457F218160CF451C0E096AFAE95
:104EE000E097E496BFAEE497E8960FAFE897EC96AC
:104EF0001FAFEC97C957DF4F3881C758D040A096F5
:104F00003FAFA097C857DF4F4881C858D040A496FC
:104F10004FAFA497C757DF4F5881C958D040A896C4
:104F20005FAFA897C657DF4F8881CA58D040AC966C
:104F30008FAFAC97492C582C272C362C60967FAD20
:104F4000609764966FAD64976C969FAD6C9768960A
:104F50008FAD6897272F362F492F582F642D752D29
:104F6000822D932D0E9430F06B017C012DEC3CECE6
:104F70004CEC5DE30E9457F218160CF0AFCE609631
:104F80007FAD609764966FAD64976C969FAD6C979C
:104F900068968FAD6897272F362F492F582F642D8D
:104FA000752D822D932D0E9430F04B015C01A0964F
:104FB0008FADA097A4969FADA497A896AFADA897E4
:104FC000AC96BFADAC9789839A83AB83BC83E096E4
:104FD0008FADE097E4969FADE497E896AFADE89784
:104FE000EC96BFADEC978D839E83AF83B887242D5D
:104FF000352D422D532D60E070E080E89FE30E9444
:1050000030F06B017C0120910A1430910B14409117
:105010000C1450910D140E947FEC63966CAF7DAF21
:105020008EAF9FAF639720912C1230912D1240913B
:105030002E1250912F12642D752D822D932D0E94CA
:105040007FEC9B01AC0163966CAD7DAD8EAD9FADE9
:1050500063970E9431F069877A878B879C872091BC
:105060000E1430910F144091101450911114C70177
:10507000B6010E947FEC6B017C01209130123091CF
:1050800031124091321250913312642D752D822DC0
:10509000932D0E947FEC9B01AC01C701B6010E94D9
:1050A00031F06D877E878F87988BCE0101960E94A5
:1050B00071D4C055DF4FC880C05BD040CF54DF4FA4
:1050C000E880F9800A811B81C15BD0409E01235F8B
:1050D0003F4FAE01475F5F4FBE016B5F7F4FCE0119
:1050E00001960E94DBBE20E030E040E85FE3642DE3
:1050F000752D822D932D0E941AEC87FF0DC06096AE
:105100004FAE609764965FAE64976C962FAE6C97C7
:1051100068963FAE689783CB0E94943B0C945A37B5
:105120000E948F448091000290910102A09102029E
:10513000B09103028093FA039093FB03A093FC03C6
:10514000B093FD0380912C0290912D029093F9036E
:105150008093F80384E690E090932D0280932C02D4
:105160000E94D13E81E08093770488E50E94943DBF
:10517000E82E89E50E94943D082F8AE50E94943D1F
:10518000F82EE11005C0011105C011E0182705C077
:10519000011102C010E001C0182F0E948A3B1111BA
:1051A00005C0E11003C0002309F444C020E030E052
:1051B00040EA50E46091C10B7091C20B8091C30B27
:1051C0009091C40B0E9431F060932C1270932D12B9
:1051D00080932E1290932F1220910A1430910B1469
:1051E00040910C1450910D140E9457F218167CF443
:1051F00019821A821B821C829E012F5F3F4F4CE254
:1052000052E166E074E182E094E10E94A93A111152
:1052100005C0E11003C0011107C00CC080E090E0A0
:105220000E94B9B21123B9F381E090E00E94B9B2B3
:10523000111102C0FF2021F082E090E00E94B9B27B
:105240000E94843C8091360B809377048091FA030E
:105250009091FB03A091FC03B091FD0380930002A9
:1052600090930102A0930202B09303028091F8038D
:105270009091F90390932D0280932C020E94D13ECD
:1052800083E080935B020E94E6420C945A371092AE
:10529000F7030C945A3781E08093F7030C945A3744
:1052A00085E40E94D93DB82E811102C00E948F442E
:1052B000F0EA8F2EF2E09F2EA2E0CA2EA4E1DA2EB1
:1052C000B6E1EB2EB2E1FB2E00E010E0A12CD40100
:1052D0008D914D010E94D93D882309F44EC0F601FD
:1052E0002081318142815381CB54DF4F2883C55BBC
:1052F000D040CA54DF4F3883C65BD040C954DF4F1B
:105300004883C75BD040C854DF4F5883C85BD04048
:105310000E94613DD6016D937D938D939C9313976D
:10532000CB54DF4F2881C55BD040CA54DF4F388152
:10533000C65BD040C954DF4F4881C75BD040C854DA
:10534000DF4F5881C85BD04003301105B1F00E9497
:1053500030F09B01AC01F701608171818281938102
:105360000E9431F0D7016D937D938D939C93139799
:10537000C8010E94B73BAA24A3940F5F1F4FB4E05B
:10538000CB0ED11CE4E0EE0EF11C0430110509F047
:105390009ECFAA2019F00E94843C03C0B1100E9445
:1053A00062DA0E94E6420C945A3780910004909190
:1053B00001048237910509F468C70CF0E4C08B340E
:1053C000910509F449C50CF070C08831910509F4C4
:1053D0009EC20CF03EC08231910509F4D1C6FCF4A6
:1053E00097FF02C00C945A37823091050CF4ABC180
:1053F000419711F00C945A3760E087E792E00E94E1
:10540000916C5F988A989FB7F894809108018E7F7D
:10541000809308019FBF479812980C945A378531A2
:10542000910509F45DC23CF4449711F00C945A378D
:10543000EFE8F2E012C28631910509F455C24797B0
:1054400011F00C945A378091FE039091FF03FC01F8
:1054500055C28C31910509F4C3C2A4F48A31910577
:1054600009F474C20CF080C21092770E0E94A0DA88
:1054700080EA92E09093E10D8093E00D0E942B3C36
:105480000C945A378F31910509F401C42CF44E97CE
:1054900009F4B0C20C945A378032910509F4ADC3B7
:1054A0008A9709F49AC40C945A378836910509F4FE
:1054B000DFC40CF040C08235910509F45AC614F5DA
:1054C0008D34910509F4D0C40CF4CAC4813591051A
:1054D00011F00C945A370E94E5CF0E948F440E942D
:1054E0003DD110925A0B1092590B68EE73E080E098
:1054F00090E00E94A66B60E08BEE93E00E94916CBE
:105500000C945A378435910509F43AC60CF434C624
:105510008535910509F437C68C35910511F00C9449
:105520005A3720EAC22E22E0D22E32E1E32E34E1B5
:10553000F32E10E02BC68D36910509F4F9C59CF4C5
:105540008A36910509F40CC60CF4ACC58B3691056E
:1055500009F409C68C36910511F00C945A37109253
:105560009F020C945A378F36910509F4E8C40CF465
:10557000D5C48037910509F452C58137910509F4E6
:1055800055C50C945A378C3D910511F40C94C634D2
:105590000CF054C08139910509F4D9C71CF587373F
:1055A000910509F445C774F48537910509F401C7DD
:1055B0000CF007C78337910511F00C945A37E3EDCF
:1055C000F4E068C68937910509F4BCC70CF4B4C788
:1055D0008D37910509F4CAC58C38910509F44FC57A
:1055E0000C945A378B3C910511F40C946F3384F46E
:1055F000883C910511F40C940533893C910511F414
:105600000C944D338B39910511F00C945A3767C5C2
:105610008D3C910511F40C94F73314F40C948D33F4
:105620008E3C910511F40C946234833D910511F088
:105630000C945A370E943FAC0C945A378A39F1E0E7
:105640009F0709F4F0C49CF58D3231E0930711F403
:105650000C94F534A4F4823E910511F40C94C934F1
:105660008C3251E0950711F40C94CC348D3D9105AA
:1056700011F00C945A370E9418AC0C945A378F32A0
:10568000A1E09A0711F40C94FB3414F40C94F83450
:105690008336E1E09E0711F40C94E23680399140A4
:1056A00011F00C945A370E948F440C945A37873F5C
:1056B00021E0920711F40C94E4355CF5843F41E05D
:1056C000940711F40C94DE35ACF48C3A914011F04F
:1056D0000C945A379BE7C92E94E0D92E22E0E22E93
:1056E00024E1F22E3AEC232E3BE0332E00E010E0D2
:1056F0000C94FE34853FB1E09B0711F40C94E13526
:10570000863F914011F00C945A370E9413550C9427
:105710005A378A39F2E09F0711F40C94A7343CF40D
:105720008835924011F40C94F0350C945A37803A35
:1057300043E0940709F49EC2873E934011F40C9411
:10574000F9360C945A37A090FE03B090FF0380E521
:105750000E94D93D882359F00E94213D6B017C01B4
:1057600011E0672B682B692B31F410E004C010E0C6
:10577000C12CD12C760183E50E94D93D8823F1F01C
:105780000E94613D20E030E04AE754E40E947FEC53
:105790000E947AF16B017C01111112C0672B682BFA
:1057A000692B71F4A114B10459F0D5018C918823AF
:1057B00039F061E0C5010E94B16C07C0112391F37B
:1057C00060E084E692E00E94916C83E090E0909328
:1057D00023128093221281E08093810B0E948F44D8
:1057E0000E94D13EC114D104E104F104F1F0809192
:1057F000AF139091B013A091B113B091B213C80E32
:10580000D91EEA1EFB1E0E944585DC01CB018C19C6
:105810009D09AE09BF09B7FF1CC08091810B882389
:10582000C1F080E00E94C6D1EECF8091810B882329
:1058300021F080E00E94C6D1F8CF8091770E60E021
:10584000882319F085E592E002C086E492E00E9488
:10585000916C1092810B0C945A3784918F010F5FD9
:105860001F4F882321F00E94DC3EF801F6CF1092F2
:10587000FD101092FC1040E050E0BA0188EA9EE072
:105880000E941C728BE1E8EAFEE0DE0115960190B1
:105890000D928A95E1F78091A60E9091A70E9C83B8
:1058A0008B838CEE92E09A83898340E050E0BE01C6
:1058B0006F5F7F4F8BE693E00E943EA1CE01019681
:1058C0000E94E6B3E0E8F2E084918F010F5F1F4F82
:1058D000882311F40C945A370E94DC3EF801F4CF6F
:1058E0000E945D9C0C945A371092770E1092780E9D
:1058F0000C945A37203209F41082319620812111FC
:10590000F9CF40E061E00E943D990C945A3719822A
:105910001A821B821C8218A219A21AA21BA28091B1
:105920003412882341F040E0BE016F5F7F4FCE010B
:1059300080960E9483B18091780E882319F081E0CF
:105940008093770E0E9422DA0C945A378091780E59
:10595000882311F40C945A3783E50E94D93D8111B4
:105960000C946B370C945A378091780E882351F140
:10597000E5EAF2E084918F010F5F1F4F882321F049
:105980000E94DC3EF801F6CF6091F3107091F410A4
:105990008091F5109091F6104AE00E94E33E8FE26C
:1059A0000E94DC3E6091EF107091F0108091F11038
:1059B0009091F2104AE00E94E33E8AE00E94DC3EB1
:1059C0000C945A37E7EBF2E084918F010F5F1F4F81
:1059D000882311F40C945A370E94DC3EF801F4CF6E
:1059E00040E060E08091FE039091FF030E943D99AA
:1059F0000C945A378091780E882311F40C945A37FE
:105A000082E490E10E94EA7182E490E10E9433789E
:105A10001092760E1092750EE090FE03F090FF0348
:105A20008091780E882311F40C945A370E94A09E1E
:105A3000FE0131966F01CF010E94F06F84EA9EE073
:105A40009093C40E8093C30ED7018C918F3209F0CE
:105A500060C06FE270E0C7010E9486F38C010F5FA7
:105A60001F4F09F45CC06FE270E0C8010E9486F32A
:105A70005C01009709F454C00817190708F050C0DA
:105A80004C01801A910AA401B801CE0180960E94AF
:105A9000AFF3E0E2F0E0EC0FFD1FE80DF91D10821E
:105AA0008E01005E1F4FF80181918F01882319F04C
:105AB0000E94DC3EF8CF8AE00E94DC3E6091C30E7B
:105AC0007091C40E6115710511F06C5F7F4F21E07C
:105AD000AE01405E5F4FCE0105960E943B7881117A
