:100000000C9414240C9445240C9445240C944524FD
:100010000C9445240C9445240C9445240C944524BC
:100020000C9445240C9445240C9445240C944524AC
:100030000C9445240C94CF5F0C9445240C944524D7
:100040000C9445240C94CAB80C9445240C94452473
:100050000C9445240C9445240C94866B0C9401ACB0
:100060000C9445240C94DF4A0C9445240C944524AC
:100070000C9445240C9445240C9445240C9445245C
:100080000C945B9F0C9445240C9445240C944524BB
:100090000C9445240C9445240C9445240C9445243C
:1000A0000C9445240C9445240C942D9F0C944524C9
:1000B0000C9445240C9445240C9445240C94FF9EE8
:1000C0000C9445240C9445240C9445240C9445240C
:1000D0000C9445240C9445240C9445240C944524FC
:1000E0000C944524E66BF56B116C206C3A6C496CF2
:1000F000636C676C696C6D6C756C7EAA81AA70AA62
:1001000074AA7AAAB8AA85AA89AA8FAA93AA97AA32
:100110009DAAA1AAA5AAB8AAABAAAFAAB3AA1DABC9
:1001200022AB27AB31AB3BABB4AB45AB4DAB55AB27
:100130005FAB69AB73AB82AB8CABB4AB96ABA0AB34
:10014000AAAB084AD73B3BCE016E84BCBFFDC12F92
:100150003D6C74319ABD56833DDA3D00C77F11BEB8
:10016000D9E4BB4C3E916BAAAABE000000803F05BB
:10017000A84CCDB2D44EB93836A9020C50B99186EC
:1001800088083CA6AAAA2ABE000000803F004E4173
:100190004E494E495459494E46CDCCCC3D0AD72301
:1001A0003C17B7D13877CC2B329595E6241FB14F49
:1001B0000A000020410000C84200401C4620BCBE8E
:1001C0004CCA1B0E5AAEC59D742F0053442070724A
:1001D000696E74696E67206279746520004E6F7471
:1001E000205344207072696E74696E67002E00445B
:1001F000656C6574696F6E206661696C65642C203E
:1002000046696C653A200046696C652064656C65DA
:100210007465643A002E006F70656E206661696CCB
:1002200065642C2046696C653A20005049442041A1
:1002300075746F74756E652066696E697368656440
:10024000212050757420746865206C617374204B94
:10025000702C204B6920616E64204B6420636F6EAC
:100260007374616E74732066726F6D2061626F7655
:100270006520696E746F20436F6E66696775726181
:1002800074696F6E2E6800504944204175746F7414
:10029000756E65206661696C6564212074696D65A1
:1002A0006F75740020403A006F6B20543A006F6BFA
:1002B00020423A00504944204175746F74756E6550
:1002C000206661696C6564212054656D706572619A
:1002D0007475726520746F6F206869676800204BC1
:1002E000643A2000204B693A2000204B703A2000ED
:1002F00020436C617373696320504944200020548B
:10030000753A2000204B753A2000206D61783A2024
:1003100000206D696E3A200020643A200020626956
:1003200061733A20002200556E6B6E6F776E20630A
:100330006F6D6D616E643A2022004368616E67657F
:100340002066696C616D656E74005A204F66667335
:100350006574203A20007A5F6D61783A20007A5FF8
:100360006D696E3A20005A204F6666736574005AB4
:10037000204F6666736574206F6B006C6364206346
:100380006F6E74726173742076616C75653A2000CB
:100390007A5F6D61783A20007A5F6D696E3A20006D
:1003A000795F6D61783A2000795F6D696E3A20005F
:1003B000785F6D61783A2000785F6D696E3A200051
:1003C000205A3A0020593A0020436F756E74205825
:1003D0003A200020453A00205A3A0020593A005865
:1003E0003A004649524D574152455F4E414D453ABC
:1003F0004D61726C696E20312E302E322B20446597
:1004000076656C6F706D656E742046726F6D2041FD
:1004100072636869766520534F555243455F434F79
:1004200044455F55524C3A68747470733A2F2F6785
:1004300069746875622E636F6D2F4D61726C696EA1
:100440004669726D776172652F4D61726C696E20BD
:1004500050524F544F434F4C5F56455253494F4EA5
:100460003A312E30204D414348494E455F54595052
:10047000453A536E6170707920312E3520455854BD
:1004800052554445525F434F554E543A31205555CD
:1004900049443A30303030303030302D3030303028
:1004A0002D303030302D303030302D303030303055
:1004B000303030303030300A00536E617070792047
:1004C000312E35204F66662E00536E617070792094
:1004D000312E352072656164792E00426564206496
:1004E0006F6E652E0020423A0020453A00543A00D3
:1004F0004265642048656174696E672E00486561D5
:1005000074696E6720646F6E652E0020573A002074
:10051000453A00543A0048656174696E672E2E2E84
:10052000002042403A0020403A00202F003A0020AC
:100530005400202F0020423A00202F006F6B2054DF
:100540003A002569206D696E2C202569207365634A
:1005500000456E642066696C65206C6973740042A6
:100560006567696E2066696C65206C697374004EFE
:100570006F206D6F76652E00536E6170707920313B
:100580002E352072656164792E00526573756D6930
:100590006E67207072696E74005761697420666FAF
:1005A0007220757365722E2E2E00536C6565702E49
:1005B0002E2E0053657474696E67732053746F72C6
:1005C0006564002044002049002020204D33303154
:1005D0002050005049442073657474696E67733A03
:1005E00000205A0020590020204D3230362058007B
:1005F000486F6D65206F666673657420286D6D2980
:100600003A00204500205A00205800204200205483
:100610000020204D323035205300416476616E63F6
:100620006564207661726961626C65733A20533D3E
:100630004D696E20666565647261746520286D6D14
:100640002F73292C20543D4D696E2074726176659C
:100650006C20666565647261746520286D6D2F730A
:10066000292C20423D6D696E696D756D207365673B
:100670006D656E742074696D6520286D73292C205A
:10068000583D6D6178696D756D205859206A6572A5
:100690006B20286D6D2F73292C20205A3D6D6178B9
:1006A000696D756D205A206A65726B20286D6D2FFB
:1006B00073292C2020453D6D6178696D756D20454D
:1006C000206A65726B20286D6D2F732900205400FD
:1006D00020204D323034205300416363656C6572D5
:1006E0006174696F6E3A20533D616363656C657236
:1006F0006174696F6E2C20543D726574726163740D
:1007000020616363656C65726174696F6E0020457A
:1007100000205A0020590020204D3230312058004E
:100720004D6178696D756D20416363656C657261BB
:1007300074696F6E20286D6D2F7332293A00204541
:1007400000205A0020590020204D3230332058001C
:100750004D6178696D756D2066656564726174655B
:100760007320286D6D2F73293A00204500205A0010
:1007700020590020204D3932205800537465707381
:100780002070657220756E69743A0053746F7265DB
:10079000642073657474696E67732072657472691E
:1007A000657665640048617264636F6465642044C3
:1007B000656661756C742053657474696E67732027
:1007C0004C6F61646564002200656E717565696EC9
:1007D000672022004D383420582059205A204500E7
:1007E000256920686F757273202569206D696E75A3
:1007F00074657300446F6E65207072696E74696E03
:10080000672066696C650053544F505045442E2054
:10081000005072696E7465722073746F70706564D5
:100820002064756520746F206572726F72732E205C
:1008300046697820746865206572726F7220616EF7
:100840006420757365204D39393920746F207265C5
:1008500073746172742E202854656D7065726174B2
:100860007572652069732072657365742E205365F7
:100870007420697420616674657220726573746196
:100880007274696E6729004E6F204C696E65204E48
:10089000756D626572207769746820636865636B43
:1008A00073756D2C204C617374204C696E653A2011
:1008B000004E6F20436865636B73756D20776974B4
:1008C00068206C696E65206E756D6265722C204CB7
:1008D000617374204C696E653A2000636865636BD0
:1008E00073756D206D69736D617463682C204C6144
:1008F0007374204C696E653A20004C696E65204E19
:10090000756D626572206973206E6F74204C61731F
:1009100074204C696E65204E756D6265722B312CAA
:10092000204C617374204C696E653A20004D313162
:10093000300057726974696E6720746F2066696C45
:10094000653A20002E006F70656E206661696C65E7
:10095000642C2046696C653A20002E006F70656E2D
:10096000206661696C65642C2046696C653A2000DC
:1009700046696C652073656C65637465640020531B
:10098000697A653A200046696C65206F70656E650E
:10099000643A20002E006F70656E206661696C6598
:1009A000642C2046696C653A20004E6F7720667291
:1009B0006573682066696C653A20004E6F77206425
:1009C0006F696E672066696C653A20002220706F3F
:1009D00073002220706172656E743A220053554292
:1009E000524F5554494E452043414C4C207461723E
:1009F0006765743A2200747279696E6720746F209B
:100A000063616C6C207375622D67636F646520662B
:100A1000696C6573207769746820746F6F206D61ED
:100A20006E79206C6576656C732E204D4158206C74
:100A30006576656C2069733A004D3234004D32336F
:100A4000202573006175746F25692E67005344205B
:100A500063617264206F6B006F70656E526F6F74AC
:100A6000206661696C656400766F6C756D652E69D2
:100A70006E6974206661696C6564004572726F729C
:100A80003A00534420696E6974206661696C0065A0
:100A900063686F3A0000002200250028002B002E1A
:100AA000003100340002010000050108010B0100C3
:100AB0000020002300260029002C002F0032000017
:100AC00001000003010601090105050505070508E8
:100AD000080808020202020A0A08080404040401C1
:100AE00001010101010101030303030303030304E3
:100AF0000707070C0C0C0C0C0C0C0C020202020673
:100B0000060606060606060B0B0B0B0B0B0B0B0162
:100B1000021020200808102040102040800201020E
:100B200001080402010102040810204080804020D6
:100B30001008040201800402018040201008040211
:100B4000010804020101020408102040800102048F
:100B5000081020408000000A0B02090C0D0E080747
:100B6000030401000000000000000000000000007D
:100B70000000000000000000000000000000000075
:100B80000012111000000000000000000000000032
:100B90000000000000000000000000022020506C57
:100BA000616E6E65724275666665724279746573D0
:100BB0003A20002046726565204D656D6F72793A66
:100BC00020004D6179202034203230313700436FCE
:100BD0006D70696C65643A2000286E6F6E652C201C
:100BE00064656661756C7420636F6E666967290061
:100BF000207C20417574686F723A20004D61792025
:100C0000203420323031372030323A35393A3236DA
:100C100000204C61737420557064617465643A20DF
:100C20000020312E302E322B004D61726C696E0027
:100C300020536F6674776172652052657365740026
:100C4000205761746368646F672052657365740030
:100C50002042726F776E206F7574205265736574D1
:100C6000002045787465726E616C205265736574FE
:100C700000506F776572557000737461727400650F
:100C800072726F722077726974696E6720746F2058
:100C900066696C6500656E6473746F707320686953
:100CA000743A205A00205A3A00656E6473746F706B
:100CB00073206869743A20590020593A00656E64BF
:100CC00073746F7073206869743A20580020583A22
:100CD00000656E6473746F7073206869743A2000E5
:100CE000446F6E6520736176696E672066696C6516
:100CF0002E006F6B004D3239007C3C3E5E2B3D3F39
:100D00002F5B5D3B2C2A225C00202D20496E7661F2
:100D10006C6964206578747275646572206E756D97
:100D200062657220210070012C0190012701B00141
:100D30002201C0011D01F00118011002130130024F
:100D40000E016002090190020401C002FF000003CD
:100D5000FA004003F5008003F000D003EB0020040C
:100D6000E6007004E100E004DC004005D700C005A7
:100D7000D2004006CD00D006C8008007C30030086E
:100D8000BE00F008B900C009B400B00AAF00B00B53
:100D9000AA00D00CA500000EA000500F9B00C010B0
:100DA00096005012910000148C00C0158700B017F7
:100DB0008200B0197D00D01B7800001E7300402017
:100DC0006E0090226900F024640040275F009029A3
:100DD0005A00E02B5500102E500020304B001032EE
:100DE0004600E033410090353C0010373700703842
:100DF0003200A0392D00B03A2800A03B2300603C0F
:100E00001E00103D1900903D1400103E0F00703E72
:100E10000A00C03E0500003F00004572723A204DB6
:100E2000415854454D50003A2045787472756465B8
:100E300072207377697463686564206F66662E201C
:100E40004D415854454D502074726967676572650D
:100E5000642021004572723A204D494E54454D5050
:100E6000003A2045787472756465722073776974EE
:100E700063686564206F66662E204D494E54454D6B
:100E8000502074726967676572656420210045723D
:100E9000723A204D415854454D502042454400542B
:100EA000656D7065726174757265206865617465E1
:100EB0006420626564207377697463686564206F79
:100EC00066662E204D415854454D50207472696716
:100ED00067657265642021210050726568656174E0
:100EE0002041425320426564005072656865617418
:100EF0002041425320310050726570617265004D8F
:100F000033303020533639382050323030004D33B2
:100F1000303020533635392050323030004D6F7626
:100F2000652061786973004D3830005377697463C8
:100F30006820706F776572206F6E004D38310053F6
:100F4000776974636820706F776572206F666600DA
:100F5000436F6F6C646F776E005072656865617483
:100F600020414253005072656865617420504C41C5
:100F70000053657420686F6D65206F6666736574D5
:100F80007300473238004175746F20686F6D6500DB
:100F90004D38340044697361626C65207374657008
:100FA00070657273004D61696E00580059005A00F7
:100FB00045787472756465720045787472756465FD
:100FC00072004D6F7665205A004D6F76652059008E
:100FD0004D6F76652058004D6F7665206178697396
:100FE000004D6F766520302E316D6D004D6F76654A
:100FF00020316D6D004D6F76652031306D6D005084
:1010000072657061726500526573746F72652066F7
:1010100061696C73616665004C6F6164206D656D1C
:101020006F72790053746F7265206D656D6F7279A0
:10103000004C434420636F6E7472617374004669A0
:101040006C616D656E74004D6F74696F6E005465F0
:101050006D7065726174757265004D61696E0052E4
:101060006573656E643A20006F6B004B494C4C45CC
:10107000442E20005072696E7465722068616C7431
:1010800065642E206B696C6C28292063616C6C652B
:1010900064210053544F505045442E200050726933
:1010A0006E7465722073746F70706564206475650A
:1010B00020746F206572726F72732E2046697820DB
:1010C000746865206572726F7220616E642075733A
:1010D00065204D39393920746F20726573746172DF
:1010E000742E202854656D70657261747572652068
:1010F00069732072657365742E205365742069745A
:101100002061667465722072657374617274696EB1
:1011100067290000003E4300003E4300002F4300CB
:1011200000000000000000000000000000000000BF
:1011300000000000002F430000A0400000A040007D
:1011400000004000003E4300003E4300002F43FFEC
:10115000FF012200656E717565696E67202200537C
:10116000746F7265206D656D6F7279004265640001
:10117000426564004E6F7A7A6C65004E6F7A7A6CC5
:10118000650046616E2073706565640046616E207F
:1011900073706565640054656D7065726174757215
:1011A00065004573746570732F6D6D0045737465CC
:1011B00070732F6D6D005A73746570732F6D6D00B1
:1011C0005A73746570732F6D6D0059737465707305
:1011D0002F6D6D005973746570732F6D6D005873AA
:1011E000746570732F6D6D005873746570732F6D17
:1011F0006D00412D7265747261637400412D7265DA
:10120000747261637400416D6178206500416D61A5
:1012100078206500416D6178207A00416D61782009
:101220007A00416D6178207900416D617820790004
:10123000416D6178207800416D61782078005654C6
:10124000726176206D696E005654726176206D6908
:101250006E00566D696E00566D696E00566D617850
:10126000206500566D6178206500566D6178207AA2
:1012700000566D6178207A00566D617820790056AD
:101280006D6178207900566D6178207800566D6127
:101290007820780056652D6A65726B0056652D6A58
:1012A00065726B00567A2D6A65726B00567A2D6AEC
:1012B00065726B005678792D6A65726B0056787985
:1012C0002D6A65726B00416363656C004163636501
:1012D0006C00436F6E74726F6C0020746F6F206CC3
:1012E0006F6E6720657874727573696F6E207072A7
:1012F0006576656E7465640020636F6C6420657844
:1013000074727573696F6E2070726576656E746540
:1013100064004D383420582059205A2045004E6F23
:101320002053442063617264005072696E742066B9
:10133000726F6D2053440053746F70207072696E29
:101340007400526573756D65207072696E7400501B
:1013500061757365207072696E7400436F6E74728C
:101360006F6C00507265706172650054756E650037
:10137000496E666F2073637265656E0042616279C3
:101380007374657070696E6720580042616279738A
:1013900074657070696E6720590042616279737478
:1013A000657070696E67205A004D363030004368B2
:1013B000616E67652066696C616D656E740042617F
:1013C000627973746570205A004261627973746542
:1013D000702059004261627973746570205800462C
:1013E0006C6F77203000466C6F77203000466C6F52
:1013F0007700466C6F770046616E20737065656498
:101400000046616E20737065656400426564004249
:101410006564004E6F7A7A6C65004E6F7A7A6C65FF
:10142000005370656564005370656564004D6169C3
:101430006E005072656865617420504C41204265B1
:1014400064005072656865617420504C4120310021
:101450005072657061726500000021002400270051
:101460002A002D00300033000101000004010701B3
:101470000A0146696C2E204469612E2031004669BC
:101480006C2E204469612E2031004F6666004F6E3D
:1014900020004F6666004F6E20004520696E206D6B
:1014A0006D3300436F6E74726F6C004C4344206365
:1014B0006F6E7472617374004D3234004D3233209C
:1014C000257300F92E2E004D61696E0024F4D4308E
:1014D00050C38E20C2A24017828B7011127A910DD8
:1014E000816CD90AA861E108C758660761514306B3
:1014F0001E4B5D05C145A7041A411104093D98031F
:10150000713931034036DB0265339102D430540225
:10151000802E1D02632CEE01752AC501B028A001A2
:10152000102781018F2564012B244B01E022340117
:10153000AC211F018D200D01801FFC00841EED00D9
:10154000971DDF00B81CD200E61BC600201BBC00A4
:10155000641AB200B219A8000A19A0006A1899000A
:10156000D117910040178B00B516840031167E000C
:10157000B31579003A157300C7146F0058146A0048
:10158000EE1366008813630025135E00C7125B002C
:101590006C12570015125400C111510070114F0008
:1015A00021114B00D61049008D1047004610440011
:1015B00002104200C00F4000800F3E00420F3C006E
:1015C000060F3B00CB0E3800930E37005C0E350043
:1015D000270E3400F30D3200C10D3100900D3000A4
:1015E000600D2E00320D2D00050D2C00D90C2B00A6
:1015F000AE0C2900850C29005C0C2700350C270057
:101600000E0C2600E80B2400C40B2400A00B2300C2
:101610007D0B23005A0B2100390B2100180B2000F1
:10162000F80A1F00D90A1E00BB0A1E009D0A1D00F1
:10163000800A1D00630A1C00470A1B002C0A1B00BD
:10164000110A1A00F7091A00DD091900C409190066
:10165000AB091900920917007B09180063091700EC
:101660004C09160036091600200916000A09150053
:10167000F5081500E0081400CC081400B8081400A0
:10168000A4081400900813007D0812006B081300D2
:1016900058081200460812003408110023081100EF
:1016A0001208110001081100F0071000E0071000F7
:1016B000D0071000C0071000B0070F00A1071000EE
:1016C00091070E0083070F0074070F0065070E00D7
:1016D00057070E0049070E003B070D002E070E00AE
:1016E00020070D0013070D0006070D00F9060C007A
:1016F000ED060D00E0060C00D4060C00C8060C0038
:10170000BC060C00B0060C00A4060B0099060C00E9
:101710008D060B0082060B0077060B006C060B0093
:1017200061060A0057060B004C060A0042060A0032
:1017300038060A002E060A0024060A001A060A00C5
:101740001006090007060A00FD050900F405090056
:10175000EB050900E2050900D9050900D0050900DB
:10176000C7050900BE050900B5050800AD0508005C
:10177000A50509009C050800940508008C050800D3
:10178000840508007C050800740508006C05070046
:10179000650508005D050700560508004E050700B1
:1017A0004705070040050800380507003105070018
:1017B0002A050700230507001C050600160507007B
:1017C0000F0507000805060002050700FB040600D8
:1017D000F5040700EE040600E8040600E204070032
:1017E000DB040600D5040600CF040600C904060089
:1017F000C3040600BD040600B7040600B1040500DA
:10180000AC040600A6040600A00405009B04060024
:1018100095040500900406008A040500850405006F
:10182000800406007A0405007504050070040500B4
:101830006B04050066040500610405005C040500F6
:1018400057040500520405004D0405004804050036
:10185000430405003E0404003A0405003504050075
:10186000300404002C0405002704040023040500B0
:101870001E0404001A0404001604050011040400E8
:101880000D0404000904050004040400000404001D
:10189000FC030400F8030400F4030400F003040054
:1018A000EC030400E8030400E4030400E003040084
:1018B000DC030400D8030400D4030400D0030400B4
:1018C000CC030400C8030300C503030024F404D9B7
:1018D000201BC40C5C0E9804C4095F0265077101EB
:1018E000F405F900FB04B30048048700C103690054
:1018F0005803550003034500BE023A00840231003C
:1019000053022A002902250004022000E4011C00E1
:10191000C8011900AF0117009801140084011300D9
:10192000710110006101100051010E0043010D0012
:1019300036010B002B010B0020010B0015010900E3
:101940000C01090003010800FB000800F300080077
:10195000EB000700E4000600DE000600D8000600E9
:10196000D2000600CC000500C7000500C20005003B
:10197000BD000400B9000400B5000400B10004007B
:10198000AD000400A9000400A5000300A2000300AC
:101990009F0004009B0003009800030095000200D4
:1019A00093000300900003008D0002008B000300F1
:1019B000880002008600020084000300810002000B
:1019C0007F0002007D0002007B000200790002001F
:1019D000770001007600020074000200720001002E
:1019E000710002006F0002006D0001006C00020037
:1019F0006A00010069000200670001006600010042
:101A00006500010064000200620001006100010045
:101A1000600001005F0002005D0001005C00010049
:101A20005B0001005A00010059000100580001004C
:101A3000570001005600010055000100540001004C
:101A4000530000005300010052000100510001004A
:101A5000500001004F0001004E0000004E00010048
:101A60004D0001004C0001004B0000004B00010044
:101A70004A00010049000100480000004800010040
:101A8000470001004600000046000100450000003C
:101A90004500010044000100430000004300010034
:101AA000420000004200010041000000410001002E
:101AB000400001003F0000003F0001003E00000028
:101AC0003E0001003D0000003D0001003C00000020
:101AD0003C0000003C0001003B0000003B00010016
:101AE0003A0000003A00010039000000390001000E
:101AF0003800000038000000380001003700000006
:101B000037000100360000003600000036000100FA
:101B100035000000350000003500010034000000F1
:101B200034000000340001003300000033000000E6
:101B300033000100320000003200000032000100DA
:101B400031000000310000003100010030000000D1
:101B500030000000300001002F0000002F000000C6
:101B60002F0000002F0001002E0000002E000000BA
:101B70002E0001002D0000002D0000002D000000AF
:101B80002D0001002C0000002C0000002C000000A3
:101B90002C0001002B0000002B0000002B00000097
:101BA0002B0001002A0000002A0000002A0000008B
:101BB0002A0001002900000029000000290000007F
:101BC0002900000029000100280000002800000072
:101BD0002800000028000000280001002700000065
:101BE0002700000027000000270000002700010058
:101BF000260000002600000026000000260000004D
:101C0000260001002500000025000000250000003E
:101C10002500000025000000250001002400000030
:101C20002400000024000000240000002400010023
:101C30002300000023000000230000002300000018
:101C40002300000023000000230001002200000008
:101C500022000000220000002200000022000000FC
:101C600022000100210000002100000021000000EE
:101C700021000000210000002100000021000100DF
:101C800020000000200000002000000020000000D4
:101C900020000000200000002000000020000100C3
:101CA0001F0000001F0000001F0000001F000000B8
:101CB0001F0000001F0000001F0001001E000000A8
:101CC0001E0000001E0000001E00000000060900AB
:101CD000FE070199032B20FFFE08FE07FE0000000F
:101CE00006000001070706020080808080800080D7
:101CF000030303060104A0A0A00507070600005087
:101D000050F850F850500507070600002070A070EA
:101D100028702005070706000048A8502050A8900A
:101D200005070706000040A0A040A8906801030333
:101D3000060204808080030707060100204080809F
:101D400080402003070706010080402020204080BB
:101D50000505050600018850F850880505050600B0
:101D6000012020F820200303030601FF60408005C6
:101D70000101060003F80303030601FF40E04005EC
:101D800007070600000808102040808005070706A6
:101D90000000205088888850200507070600002092
:101DA00060A0202020F80507070600007088083092
:101DB0004080F8050707060000F808103008887012
:101DC00005070706000010305090F81010050707AF
:101DD000060000F880B0C8088870050707060000F4
:101DE000304080B0C88870050707060000F808106A
:101DF000102040400507070600007088887088881A
:101E000070050707060000708898680810600307CF
:101E1000070601FF40E0400040E0400307070601DD
:101E2000FF40E040006040800407070601001020EA
:101E30004080402010050303060002F800F8040764
:101E4000070601008040201020408005070706009B
:101E50000070881020200020050707060000708809
:101E600098A8B0807005070706000020508888F801
:101E70008888050707060000F04848704848F005C4
:101E800007070600007088808080887005070706B5
:101E90000000F04848484848F0050707060000F8E9
:101EA0008080F08080F8050707060000F88080F049
:101EB0008080800507070600007088808098887001
:101EC000050707060000888888F8888888030707C0
:101ED000060100E04040404040E0050707060000E2
:101EE000381010101090600507070600008890A0B9
:101EF000C0A0908805070706000080808080808051
:101F0000F80507070600008888D8A888888805078C
:101F1000070600008888C8A8988888050707060073
:101F20000070888888888870050707060000F08898
:101F300088F08080800508080600FF7088888888FF
:101F4000A87008050707060000F08888F0A09088B0
:101F5000050707060000708880700888700507076D
:101F6000060000F82020202020200507070600009A
:101F70008888888888887005070706000088888810
:101F800050505020050707060000888888A8A8D868
:101F900088050707060000888850205088880507B4
:101FA000070600008888502020202005070706002B
:101FB00000F80810204080F8030707060100E080C1
:101FC00080808080E00507070600008080402010A8
:101FD0000808030707060100E02020202020E00574
:101FE00003030600042050880501010600FFF802E3
:101FF000020206020680400505050600007008780A
:1020000088780507070600008080B0C888C8B0053A
:102010000505060000708880887005070706000027
:10202000080868988898680505050600007088F813
:102030008070050707060000304840F0404040052A
:1020400007070600FE788888780888700507070665
:1020500000008080B0C88888880307070601004018
:1020600000C0404040E00409090601FE10003010A5
:10207000101090906005070706000080808890E0AF
:102080009088030707060100C04040404040E0053B
:102090000505060000D0A8A8A888050505060000CB
:1020A000B0C8888888050505060000708888887093
:1020B0000507070600FEB0C888C8B080800507077E
:1020C0000600FE689888986808080505050600005F
:1020D000B0C880808005050506000070807008F09B
:1020E0000507070600004040F04040483005050560
:1020F000060000888888986805050506000088881D
:102100005050200505050600008888A8A850050540
:102110000506000088502050880507070600FE8845
:10212000889868088870050505060000F8102040AA
:10213000F8040707060100304020C02040300107A6
:1021400007060200808080808080800407070601E7
:1021500000C02040304020C005030306000448A80A
:1021600090000000010000000000010000000000DD
:10217000010000000000010000000000010000005C
:10218000000001000000000001000000000001004C
:10219000000000000100000000000100000000003D
:1021A000010000000000010000000000010000002C
:1021B000000001000000000001000000000001001C
:1021C000000000000100000000000100000000000D
:1021D00001000000000001000000000001000000FC
:1021E00000000100000000000100000000000100EC
:1021F00000000000010000000000010000000000DD
:1022000001000000000001000000000001000000CB
:1022100000000100000000000100000000000100BB
:102220000000000001000000000006000001070798
:10223000060200800080808080800507070600FF7E
:102240002078A0A0A07820050707060000304840AD
:10225000E04048B00505050600008870507088050C
:1022600008080600FF88885020F820202001070772
:10227000060200808080008080800508080600FF3C
:102280007080E09048380870030101060107A0053E
:1022900007070600007088A8C8A88870040606060C
:1022A00001017090B05000F00605050600002448BA
:1022B000904824040202060102F010040101060104
:1022C00003F00507070600007088E8C8C888700595
:1022D0000101060007F803030306010440A04005BE
:1022E00006060600002020F82020F8040505060157
:1022F0000360902040F0040505060103E010601023
:10230000E002020206020640800506060600FF887B
:102310008888C8B08005070706000078E8E86828C4
:102320002828010101060203800202020602FE4083
:102330008003050506010340C04040E00406060690
:1023400001016090906000F00605050600009048CD
:102350002448900609090600FF40C04040E40C14E0
:102360003C040609090600FF40C04040E814040888
:102370001C0509090600FFC0204020C8182878085D
:102380000507070600002000202040887005080887
:102390000600004020708888F88888050808060034
:1023A000001020708888F88888050808060000203A
:1023B00050708888F8888805080806000048B070C2
:1023C0008888F8888805080806000050007088880A
:1023D000F888880508080600002050708888F8886A
:1023E000880607070600003C50909CF0909C050969
:1023F000090600FE708880808088702040050808EB
:1024000006000040F88080F08080F805080806008B
:102410000010F88080F08080F80508080600002091
:10242000F88080F08080F805080806000050F880E9
:1024300080F08080F80308080601008040E04040FA
:102440004040E00308080601002040E040404040D2
:10245000E003080806010040A0E040404040E003DF
:102460000808060100A000E040404040E0050707E2
:10247000060000F04848E84848F005080806000053
:10248000285088C8A89888880508080600004020B9
:1024900070888888887005080806000010207088F9
:1024A0008888887005080806000020507088888891
:1024B0008870050808060000285070888888887091
:1024C0000508080600005000708888888870050597
:1024D0000506000088502050880507070600007098
:1024E0009898A8C8C8700508080600004020888889
:1024F0008888887005080806000010208888888869
:1025000088700508080600002050008888888870B8
:10251000050808060000500088888888887005082B
:102520000806000010208888502020200507070694
:10253000000080F088F080808005070706000070AA
:102540008890A09088B00508080600004020007020
:1025500008788878050808060000102000700878C0
:1025600088780508080600002050007008788878F0
:1025700005080806000028500070087888780507CC
:1025800007060000500070087888780508080600E3
:10259000002050207008788878060505060000782D
:1025A000147C907C0507070600FE708880887020E8
:1025B000400508080600004020007088F88070057B
:1025C00008080600001020007088F88070050808D0
:1025D0000600002050007088F8807005070706008C
:1025E0000050007088F880700308080601008040E1
:1025F00000C0404040E0030808060100408000C0E1
:10260000404040E003080806010040A000C04040F0
:1026100040E0060A0A0600FEA4A800FC8480808030
:1026200084FC060A0A0600FE549400FC8404040498
:1026300084FC050808060000285000B0C888888877
:102640000508080600004020007088888870040A89
:102650000A0602FE30408090909090909090040A7C
:102660000A0600FEC020109090909090909006076F
:1026700007060001448C8C8480403C060707060056
:102680000188C4C4840408F0050505060001200083
:10269000F8002005080806000040F0C888889878EF
:1026A00010050808060000E0F88888888888F80582
:1026B00005050600012030F8302005080806000056
:1026C0002070F820202020E00509090600FF207076
:1026D000A8A8B8888850200509090600FFE080C036
:1026E000B0A8A83028280509090600FFF8A888889E
:1026F000888888A8F8050A0A0600FE205050505025
:1027000088A8A88870436172642072656D6F7665D1
:1027100064004361726420696E736572746564005D
:1027200001050800FF060121023520FFFF07FF0613
:10273000FF09005022165680808080008015335398
:10274000A0A0A00257575050F850F85050025757C9
:102750002070A07028702013355580A040A0200262
:10276000475740A0A040A0A050251353808080125E
:10277000265640808080804012265680404040404F
:10278000800245559060F060900255552020F82059
:1027900020113353604080044151F011335340E025
:1027A0004002465610102040808012365640A0A0AD
:1027B000A0A04012365640C0404040E0024656605D
:1027C00090106080F0024656F02060109060024643
:1027D000562060A0F02020024656F080E010906065
:1027E0000246566080E0909060024656F01020202D
:1027F000404002465660906090906002465660905D
:1028000090701060122555C0C000C0C011365660CF
:102810006000604080123656204080804020034394
:1028200053F000F012365680402020408012365679
:1028300040A020400040015858304898A8A8904037
:1028400030024656609090F09090024656E090E03C
:102850009090E0024656609080809060024656E07C
:1028600090909090E0024656F080E08080F0024622
:1028700056F080E0808080024656609080B0906084
:102880000246569090F0909090123656E0404040AC
:1028900040E002465670202020A04002465690A0FC
:1028A000C0A0A0900246568080808080F0024656EC
:1028B00090F0F090909002465690D0F0B0B0900218
:1028C0004656609090909060024656E09090E0806E
:1028D00080014757609090D0B06010024656E0905B
:1028E00090E09090024656609040209060123656DC
:1028F000E0404040404002465690909090906002E8
:102900004656909090906060024656909090F0F0FD
:10291000900246569090606090900256568888507B
:10292000202020024656F010204080F0123656E05B
:1029300080808080E0024656808040201010123651
:1029400056E020202020E016325240A0014151F0F4
:102950001622528040024454709090700246568075
:1029600080E09090E01234546080806002465610FF
:10297000107090907002445460B0C06002465620BF
:102980005040E0404001455560907010600246564E
:102990008080E09090901236564000C04040E01198
:1029A00037572000202020A040024656808090E02B
:1029B0009090123656C040404040E0025454D0A897
:1029C000A8A8024454E09090900244546090906013
:1029D000014555E090E080800145557090701010E1
:1029E000024454A0D0808012345460C020C00246FB
:1029F000564040E040502002445490909070123471
:102A000054A0A0A04002545488A8A8500244549056
:102A10006060900145559090709060024454F020A1
:102A200040F0024757304020C020403022165680E8
:102A30008080808080024757C02040304020C00600
:102A4000425250A0FFFFFFFFFFFFFFFFFFFFFFFF0E
:102A5000FFFFFFFFFFFFFFFFFFFFFFFFFFFFFFFF86
:102A6000FFFFFFFFFF090050221656800080808084
:102A7000800146562070A0A070200246562050E0EB
:102A80004050A002555588705070880256568850A4
:102A9000F820F8202217578080800080808002472D
:102AA000577080E0907010E0173151A002565670B8
:102AB000A8C8C8A87014355560A06000E00343534F
:102AC00050A050123353E02020143151E0025656EA
:102AD00070E8D8E8D870173151E015335340A04062
:102AE00012355540E04000E014355540A02040E04C
:102AF000143555C020C020C01622524080014555D3
:102B0000909090E08002565678E8E86828282411D2
:102B10005180112252408014355540C04040E0148D
:102B2000355540A04000E0034353A050A002475752
:102B3000808080A060F0200247578080A0D01020C5
:102B40007002475780408060A0F020123656400047
:102B50004080A04002475740206090F0909002478C
:102B60005720406090F0909002475760906090F03E
:102B7000909002475750A06090F090900247579075
:102B8000006090F0909002475760906090F09090B5
:102B900002465670A0A0F0A0B00147576090808018
:102BA0009060400247574020F080E080F002475795
:102BB0002040F080E080F00247576090F080E08095
:102BC000F00247579000F080E080F01237578040C5
:102BD000E0404040E01237572040E0404040E012E3
:102BE000375740A0E0404040E0123757A000E04097
:102BF0004040E00256567048E84848700247575037
:102C0000A090D0B090900247574020609090906084
:102C10000247572040609090906002475760906054
:102C20009090906002475750A0609090906002474B
:102C30005790006090909060123353A040A00246DD
:102C40005670B0B0D0D0E00247574020909090909E
:102C500060024757204090909090600247576090E4
:102C600090909090600247579000909090906002F2
:102C700057571020885020202002465680E0909020
:102C8000E0800246566090A0A090A00247574020E6
:102C90000070909070024757204000709090700232
:102CA00047572050007090907002475750A0007016
:102CB0009090700246565000709090700247576096
:102CC000906070909070025454F068B0781135554F
:102CD000608080604002475740200060B0C06002C2
:102CE000475720400060B0C06002475760900060C6
:102CF000B0C060024656500060B0C06012375780C6
:102D00004000C04040E0123757204000C04040E043
:102D100012375740A000C04040E0123656A000C015
:102D20004040E0024757A040A01070906002475713
:102D300050A000E090909002475740200060909093
:102D400060024757204000609090600247576090B3
:102D5000006090906002475750A000609090600221
:102D600046569000609090601235554000E000405B
:102D700002445470B0D0E002475740200090909039
:102D80007002475720400090909070024757609023
:102D9000009090907002465690009090907001487C
:102DA0005820400090907090600147578080E090DC
:102DB000E080800147579000909070906000000084
:102DC000000000000F000000000000000F000000E5
:102DD000000000000F000000000000000F000000D5
:102DE000000000000F000000000000000F000000C5
:102DF000000000000F000000000000000F000000B5
:102E0000000000000F000000000000000F000000A4
:102E1000000000000F000000000000000F00000094
:102E2000000000000F000000000000000F00000084
:102E3000000000000F000000000000000F00000074
:102E4000000000000F000000000000000F00000064
:102E5000000000000F000000000000000F0FFFFF47
:102E6000FFFFFFFFEF3000000000007FFF60000069
:102E70000000001FFF4000000000000FFF400000A6
:102E80000001800FFF83EFC000018C07FF87FFE088
:102E900000018C03FF86386000018001FF86186303
:102EA000E0F98C7CFF861867F1FD8CFE7F86186E3A
:102EB000318D8CC63F86186C398D8CC71F86186C77
:102EC00019818CC71F86186C19818CC71F86186FD3
:102ED0009F81CDC71F061867DF80EFC71F441861A9
:102EE0009F002FC22F400000000000002F20000094
:102EF000000000004F1FFFFFFFFFFFFF8F000000DB
:102F0000000000000F000000000000000F000000A3
:102F1000000000000F000000000000000F00000093
:102F2000000000000F000000000000000F00000083
:102F3000000000000F000000000000000F00000073
:102F4000000000000F000000000000000F00000063
:102F5000000000000F000000000000000F00000053
:102F6000000000000F000000000000000F00000043
:102F7000000000000F000000000000000F00000033
:102F8000000000000F000000000000000F00000023
:102F9000000000000F000000000000000F00000013
:102FA0000000000000000000000000000000000021
:102FB0000000000000000000000000000000000011
:102FC0000000000000000000000000000000000001
:102FD00000000000000000000000000000000000F1
:102FE00000000000000000000000000000000000E1
:102FF0000000000000000000000000B02000B02031
:103000000059002D2D3A2D2D000000000000000079
:1030100000000000007FFFE0000000000000000052
:10302000000000007000E000000000000000000050
:1030300000000061F86000000000000000000000D7
:10304000000041F820000000000000000000000027
:103050000040F02000000000000000000000000020
:103060004060200000000000000000000000005848
:1030700001A07F80000000000000004104005C63AC
:10308000A0FFC0000000000000002082005EF7A04A
:10309000FFC0000000000000002082005EF7A0FFDB
:1030A000C0000000000000004104005C63A07F80BD
:1030B000000000000000008208005801A07F80008E
:1030C000000000000001041000406020FFC000006C
:1030D000000000000104100040F020FFC0000000CC
:1030E0000000000082080041F820FFC0000000003E
:1030F00000000041040061F8603F00000000000093
:1031000000000000007000E01E0000000000000051
:1031100001FFFF807FFFE00C0000000000000001C5
:10312000FFFF800000000000000000000000000021
:1031300000007FFFE0000000000000000000000031
:10314000007000E00000000000000000000000002F
:10315000630C600000000000000000000000004759
:103160000E200000000000000000000000004F0FD3
:10317000200000000000000000000000005F0FA021
:103180000000000000000000000000005E07A07FBB
:103190008000000000000000410400406020FFC0EB
:1031A0000000000000000020820040F020FFC0006E
:1031B00000000000000020820040F020FFC000005E
:1031C00000000000004104004060207F80000000FB
:1031D000000000008208005E07A07F800000000061
:1031E0000000010410005F0FA0FFC00000000000FD
:1031F00000010410004F0F20FFC00000000000007D
:1032000000820800470E20FFC00000000000000000
:10321000410400630C603F0000000000000000005B
:1032200000007000E01E0000000000000001FFFF31
:10323000807FFFE00C0000000000000001FFFF8025
:1032400000000000091200FC0A01E803D720FFFD7E
:103250000EFD0BFD00000009000E010B0B09040020
:1032600080808080808080000080800404040903C6
:103270000790909090080A0A090000242424FF2453
:1032800024FF242424070B0B0901FF107C9290508B
:10329000381412927C10070A0A09010042A4A448BB
:1032A0001010244A4A84070A0A090100609090908D
:1032B000606294889462010404090407808080801D
:1032C000030C0C0903FF20404080808080808040F8
:1032D0004020030C0C0903FF8040402020202020C8
:1032E0002040408007070709010310925438549288
:1032F00010070707090101101010FE10101002043A
:10330000040904FEC0C04080070101090104FE0257
:103310000202090400C0C0070A0A090100020404ED
:1033200008101020404080070A0A09010038448232
:1033300082828282824438070A0A090100103050D2
:10334000901010101010FE070A0A0901003844827C
:10335000020408102040FE070A0A090100FE0204C8
:1033600008180402028478070A0A090100040C14F0
:10337000244484FE040404070A0A090100FE808034
:1033800080F80402028478070A0A0901003C4080A0
:1033900080B8C482824438070A0A090100FE020488
:1033A00004080810101010070A0A090100384482A6
:1033B00044384482824438070A0A090100384482AA
:1033C00082463A02020478020707090400C0C000DE
:1033D0000000C0C00209090904FEC0C0000000C00E
:1033E000C0408005090909020008102040804020E3
:1033F0001008070404090102FE0000FE050909097E
:103400000200804020100810204080070A0A0901AD
:103410000038448202040810100010070A0A09014B
:103420000038449AAAAAAAAA9C403C070A0A0901A1
:103430000010282828447C44828282070A0A090155
:1034400000F8848284F884828284F8070A0A0901D9
:10345000003C42808080808080423C070A0A09014B
:1034600000F88482828282828284F8070A0A090133
:1034700000FE808080F880808080FE070A0A0901B3
:1034800000FE808080F88080808080070A0A090121
:103490000038448280808E82824438070A0A0901FB
:1034A0000082828282FE8282828282050A0A090268
:1034B00000F82020202020202020F8070A0A0901F7
:1034C000003E080808080808888870070A0A0901E9
:1034D0000082848890A0D088848282070A0A090129
:1034E00000808080808080808080FE070A0A090139
:1034F000008282C6AA928282828282070A0A090117
:10350000008282C2A2928A86828282070A0A090106
:10351000007C82828282828282827C070A0A09017E
:1035200000F884828284F880808080080B0B090177
:10353000FF384482828282828A443A01070A0A0959
:103540000100F884828284F890888482070A0A093C
:1035500001007C8280807C020202827C070A0A09C8
:103560000100FE101010101010101010070A0A09A8
:10357000010082828282828282824438070A0A099A
:10358000010082828244444428282810070A0A093C
:1035900001008282828292929292AA44070A0A09C8
:1035A000010082824428101028448282070A0A09F6
:1035B000010082824428101010101010070A0A0916
:1035C0000100FE0204081020408080FE040C0C095B
:1035D00003FFF080808080808080808080F0070AF8
:1035E0000A09010080404020101008040402040C65
:1035F0000C0902FFF010101010101010101010F035
:10360000070404090106102844820801010900FF8B
:10361000FF03030309030A8040200707070901008D
:103620007C02027E82867A070A0A09010080808075
:10363000BCC2828282C2BC0707070901007C82806B
:103640008080827C070A0A0901000202027A8682CF
:103650008282867A0707070901007C8282FE8082C7
:103660007C070A0A0901001C22222020F8202020C1
:1036700020070A0A0901FD7A84848478807C82828A
:103680007C070A0A090100808080BCC28282828293
:1036900082050A0A090200600000E02020202020A4
:1036A000F8050D0D0902FD18000038080808080883
:1036B00008888870070A0A09010080808084889041
:1036C000B0C88482050A0A090200E02020202020D8
:1036D000202020F8070707090100EC9292929292AD
:1036E00082070707090100BCC28282828282070723
:1036F000070901007C82828282827C070A0A090112
:10370000FDB8C4828282C4B8808080070A0A090199
:10371000FD3A46828282463A020202070707090101
:10372000009C6242404040400707070901007C823C
:10373000807C02827C0709090901002020FC2020EE
:103740002020221C070707090100828282828286CC
:103750007A070707090100828244442828100707D6
:10376000070901008282929292AA44070707090181
:103770000082442810284482070A0A0901FD4242B7
:103780002424241818109060070707090100FE047C
:1037900008102040FE060B0B0902001C20202020F0
:1037A000C0202020201C010C0C0904FF8080808098
:1037B0008080808080808080060B0B090100E010F3
:1037C0001010100C10101010E0070303090107621D
:1037D000928CFFFFFFFFFFFFFFFFFFFFFFFFFFFFD9
:1037E000FFFFFFFFFFFFFFFFFFFFFFFFFFFFFFFFE9
:1037F000FFFFFF00000009000E010B0B0904008011
:103800008000008080808080808006080809010098
:1038100008789490A0A47840070A0A0901001C22A5
:103820002020F8202060A25C070606090103827CA4
:1038300044447C82070A0A090100828244287C10E1
:103840007C101010010B0B0904FF80808080800029
:103850008080808080040B0B0902FF609080609064
:1038600090906010906003020209030BA0A0080969
:10387000090900013C4299A5A1A599423C05070709
:10388000090103609070907800F8070808090101A9
:103890001224489090482412060404090102FC04F2
:1038A0000404050101090204F80809090900013CA2
:1038B00042B9A5BDA9A5423C060101090109FC04C4
:1038C00004040903066090906007090909010110CA
:1038D0001010FE10101000FE04060609010460908E
:1038E000106080F0040606090104609020109060CA
:1038F00003030309030A2040800709090901FE8226
:1039000082828282C6BA8080070A0A0901007E8A02
:103910008A8A7A0A0A0A0A0A020202090404C0C050
:103920000403030902FD2090600306060901044018
:10393000C0404040E0050606090104708888700018
:10394000F80708080901019048241212244890073A
:103950000A0A09010040C0404042E60A121A06075E
:103960000A0A09010040C040404CF2020C101E0738
:103970000A0A0901006090201092660A121A0607CE
:103980000A0A0901001000101020408082827C0782
:103990000E0E0901002010080010282828447C443D
:1039A000828282070E0E09010008102000102828CC
:1039B00028447C44828282070E0E090100102844AC
:1039C0000010282828447C44828282070D0D0901BA
:1039D0000034580010282828447C44828282070D35
:1039E0000D09010028280010282828447C448282E0
:1039F00082070E0E090100102828101028282844DC
:103A00007C44828282070A0A0901001E2828284E67
:103A1000784888888E070D0D0901FD3C4280808022
:103A2000808080423C082418070E0E0901002010F7
:103A30000800FE808080F880808080FE070E0E09DE
:103A4000010008102000FE808080F880808080FEC9
:103A5000070E0E09010010284400FE808080F880C7
:103A6000808080FE070D0D090100282800FE80805F
:103A700080F880808080FE050E0E09020040201034
:103A800000F82020202020202020F8050E0E09021A
:103A90000010204000F82020202020202020F805C1
:103AA0000E0E09020020508800F82020202020203F
:103AB0002020F8050D0D090200505000F8202020AC
:103AC0002020202020F8070A0A09010078444242F9
:103AD000F24242424478070D0D0901003458008239
:103AE00082C2A2928A86828282070E0E090100207B
:103AF0001008007C82828282828282827C070E0E83
:103B0000090100081020007C8282828282828282E7
:103B10007C070E0E090100102844007C82828282FC
:103B2000828282827C070D0D0901003458007C825C
:103B3000828282828282827C070D0D090100282800
:103B4000007C82828282828282827C07070709014E
:103B50000182442810284482070C0C0901FF027CD2
:103B6000868A8A9292A2A2C27C80070E0E09010068
:103B70002010080082828282828282824438070E6C
:103B80000E090100081020008282828282828282D5
:103B90004438070E0E0901001028440082828282F8
:103BA000828282824438070D0D0901002828008294
:103BB000828282828282824438070E0E09010008C6
:103BC00010200082824428101010101010070A0ADA
:103BD0000901008080FC828282FC808080060A0AC3
:103BE00009010038444448D04844444458070B0B6A
:103BF000090100201008007C02027E82867A070BF1
:103C00000B090100081020007C02027E82867A07E0
:103C10000B0B090100102844007C02027E82867A88
:103C2000070A0A0901003458007C02027E82867A63
:103C3000070A0A0901002828007C02027E82867A8F
:103C4000070C0C09010010282810007C02027E825B
:103C5000867A0707070901006C12127E90926C07A2
:103C60000A0A0901FD7C82808080827C104830072E
:103C70000B0B090100201008007C8282FE80827CF0
:103C8000070B0B090100081020007C8282FE808255
:103C90007C070B0B090100102844007C8282FE8007
:103CA000827C070A0A0901002828007C8282FE80A3
:103CB000827C050C0C0902008040200000E02020DE
:103CC000202020F8050C0C0902001020400000E024
:103CD0002020202020F8050C0C090200205088002C
:103CE00000E02020202020F8050B0B090200505096
:103CF0000000E02020202020F8070B0B09010048DD
:103D00003050083C448282824438070A0A09010084
:103D1000345800BCC28282828282070B0B090100E8
:103D2000201008007C82828282827C070B0B0901B2
:103D300000081020007C82828282827C070B0B09A3
:103D40000100102844007C82828282827C070A0A59
:103D50000901003458007C82828282827C070A0A30
:103D60000901002828007C82828282827C0709095E
:103D700009010010381000FE001038100709090969
:103D800001FF027C8A8A92A2A27C80070B0B0901A8
:103D900000402010008282828282867A070B0B0903
:103DA0000100081020008282828282867A070B0B33
:103DB000090100102844008282828282867A070AE2
:103DC0000A0901002828008282828282867A070EF0
:103DD0000E0901FD04081000424224242418181082
:103DE0009060070B0B0901FE8080B8C4828282C4F8
:103DF000B88080070D0D0901FD24240042422424CF
:103E000024181810906000060900FE06018902FEC1
:103E100020FFFE07FE06FE00000006000701060662
:103E2000060200808080800080030303060103A057
:103E3000A0A00507070600FF5050F850F8505005A5
:103E400009090600FE2070A8A07028A870200608A6
:103E5000080600FF40A84810204854080507070638
:103E600000FF609090609890680103030602038051
:103E700080800207070602FF408080808080400229
:103E800007070602FF8040404040408005050506C8
:103E900000008850F850880505050600002020F82D
:103EA00020200204040602FEC040408005010106F5
:103EB0000002F8020202060200C0C0040606060163
:103EC00000101020408080040606060100609090DB
:103ED00090906003060606010040C0404040E004A8
:103EE00006060601006090102040F0040606060158
:103EF00000F020601010E0050606060000103050AB
:103F000090F810040606060100F080E01010E004AE
:103F100006060601006080E0909060040606060137
:103F200000F010102040400406060601006090607A
:103F30009090600406060601006090907010600288
:103F40000505060200C0C000C0C00207070602FE49
:103F5000C0C000C040408005050506000018608014
:103F60006018050303060001F800F80505050600C2
:103F700000C0300830C004070706010060901060E0
:103F80004000400506060600007090A8B08070054D
:103F90000606060000205088F888880506060600F8
:103FA00000F088F08888F004060606010060908022
:103FB000809060040606060100E090909090E00476
:103FC0000606060100F080E08080F0040606060187
:103FD00000F080E08080800406060601006090808A
:103FE000B090600406060601009090F09090900357
:103FF0000606060100E040404040E00506060600D7
:104000000038101010906004060606010090A0C051
:10401000A090900406060601008080808080F00554
:10402000060606000088D8A8A888880406060601A7
:104030000090D0B090909005060606000070888829
:10404000888870040606060100E09090E0808004F5
:1040500007070601FF609090D0B0601004060606C6
:104060000100E09090E09090040606060100609048
:1040700040209060050606060000F8202020202041
:1040800004060606010090909090906004060606D3
:104090000100909090F06060050606060000888898
:1040A000A8A8D88805060606000088502020508859
:1040B0000506060600008888502020200406060613
:1040C0000100F010204080F0030606060100E080A9
:1040D000808080E0040606060100808040201010E9
:1040E000030606060100E020202020E00503030669
:1040F00000032050880501010600FEF802020206B6
:1041000002048040040404060100709090700406CC
:10411000060601008080E09090E00404040601009F
:104120007080807004060606010010107090907078
:1041300004040406010060B0C07004060606010015
:10414000205040E040400406060601FE609090705A
:1041500010600406060601008080E090909003063F
:10416000060601004000C04040E00308080601FECA
:10417000200060202020A040040606060100808068
:10418000A0C0A090030606060100C040404040E0E9
:10419000050404060000D0A8A88804040406010051
:1041A000E090909004040406010060909060040682
:1041B000060601FEE09090E080800406060601FEFF
:1041C000709090701010040404060100A0D080804C
:1041D00004040406010070C030E004060606010075
:1041E0004040E0405020040404060100909090708C
:1041F00004040406010090906060050404060000B9
:1042000088A8A85004040406010090606090040689
:10421000060601FE90909070906004040406010070
:10422000F02040F003070706010020404080404096
:10423000200107070602FF808080808080800307BE
:104240000706010080404020404080040202060131
:104250000350A0FFFFFFFFFFFFFFFFFFFFFFFFFF78
:10426000FFFFFFFFFFFFFFFFFFFFFFFFFFFFFFFF5E
:10427000FFFFFFFF00000006000701060606020020
:104280008000808080800406060601FF2070A0A0C8
:1042900070200507070600FF304840F04040F80551
:1042A0000505060000A8508850A80506060600006F
:1042B0008850F820F8200107070602FF8080800060
:1042C0008080800407070601FF708060906010E026
:1042D000030101060105A006070706000078849483
:1042E000A494847803050506010160A06000E00540
:1042F00005050600002850A050280403030601000D
:10430000F01010040101060102F006070706000084
:104310007884B4A4A48478040101060105F00403A0
:10432000030601026090600507070600FF2020F8E1
:10433000202000F803050506010140A02040E0030D
:104340000505060101C0204020C002020206020449
:1043500040800405050601FF9090B0D08005060658
:1043600006000078E8E868282801010106020280BA
:104370000202020602FE408003050506010140C05C
:104380004040E003050506010140A04000E00505AE
:1043900005060000A0502850A00508080600FF40B0
:1043A000C04050703078100508080600FF40C0403B
:1043B00050680810380508080600FFC0204030F09B
:1043C000307810040707060100200020608090600C
:1043D0000507070600004020205070888805070761
:1043E000060000102020507088880507070600008E
:1043F00020502050708888050707060000285020AC
:10440000507088880507070600005000205070880B
:104410008805070706000020502050708888050690
:104420000606000078A0F0A0A0B80408080601FE67
:1044300060908080906020400407070601004020C3
:10444000F080E080F00407070601002040F080E0E3
:1044500080F00407070601002050F080E080F0049F
:1044600007070601005000F080E080F00307070610
:1044700001008040E0404040E003070706010020C3
:1044800040E0404040E003070706010040A0E04054
:104490004040E0030707060100A000E0404040E084
:1044A0000506060600007048E8484870040707063D
:1044B000010050A090D0B090900407070601004082
:1044C00020609090906004070706010020406090F3
:1044D0009090600407070601002050609090906063
:1044E00004070706010050A0609090906004070741
:1044F00006010050006090909060050505060000E0
:1045000088502050880408080601FF1070B0B0D011
:10451000D0E0800407070601004020909090906052
:104520000407070601002040909090906004070760
:10453000060100205090909090600407070601004B
:1045400050009090909060050707060000102088AA
:104550005020202004060606010080E09090E080B4
:104560000406060601006090A0A090A004070706BC
:1045700001004020007090907004070706010020A1
:1045800040007090907004070706010020500070F2
:1045900090907004070706010050A0007090907082
:1045A000040606060100500070909070040707068C
:1045B00001002050207090907005040406000070E7
:1045C000A8B0780406060601FE70808070204004C2
:1045D000070706010040200060B0C070040707060E
:1045E000010020400060B0C07004070706010020F1
:1045F000500060B0C070040606060100500060B0B4
:10460000C070030707060100804000C04040E0037F
:104610000707060100204000C04040E003070706EE
:10462000010040A000C04040E0030606060100A0D3
:1046300000C04040E00407070601003060107090A1
:10464000906004070706010050A000E090909004DD
:1046500007070601004020006090906004070706ED
:1046600001002040006090906004070706010020D0
:1046700050006090906004070706010050A00060A1
:10468000909060040606060100500060909060055E
:1046900005050600002000F80020040404060100BF
:1046A00070B0D0E004070706010040200090909011
:1046B00070040707060100204000909090700407E6
:1046C0000706010020500090909070040606060135
:1046D000005000909090700409090601FE204000EF
:1046E0009090907090600408080601FE8080E09031
:1046F00090E080800408080601FE500090909070C1
:104700009060507265686561742041425320636F08
:104710006E66005072656865617420504C4120637C
:104720006F6E66005049442D43005049442D4300AC
:104730005049442D44005049442D44005049442DD3
:1047400049005049442D49005049442D50005049DA
:10475000442D500020022046616374002002204650
:10476000616374002002204D6178002002204D61B9
:1047700078002002204D696E002002204D696E00F5
:104780004F6666004F6E20004F6666004F6E200039
:104790004175746F74656D700046616E207370654D
:1047A00065640046616E20737065656400426564EF
:1047B00000426564004E6F7A7A6C65004E6F7A7ABB
:1047C0006C6500436F6E74726F6C0043616E6E6F48
:1047D0007420656E746572207375626469723A2024
:1047E0000053746F7265206D656D6F72790042655C
:1047F0006400426564004E6F7A7A6C65004E6F7A91
:104800007A6C650046616E20737065656400466170
:104810006E2073706565640054656D7065726174B7
:104820007572650077D764DD11241FBECFEFD1E22A
:10483000DEBFCDBF00E00CBF14E0A0E0B2E0E2E4D8
:10484000F4ED01E00BBF02C007900D92A03FB1074D
:10485000D9F725E1A0EFB4E001C01D92A536B2075B
:10486000E1F714E2C3E1D4E200E006C021970109B8
:10487000802FFE010E9475E9C231D10780E0080750
:10488000A9F70E9428D80C9410EA0C9400002F92EB
:104890003F924F925F926F927F928F929F92AF92D0
:1048A000BF92CF92DF92EF92FF920F931F93CF931D
:1048B000DF93CDB7DEB7CB56D1090FB6F894DEBF84
:1048C0000FBECDBF87E40E94DD45F82E882309F492
:1048D000C9C20E9403460E9427E76430710509F4AB
:1048E000F4C054F46230710509F4D7C00CF0E1C093
:1048F00077FF17C00C947C416A35710509F461C2D9
:1049000034F46C31710509F427C10C947C416B358A
:10491000710509F45AC26C35710509F45BC20C9437
:104920007C4180918A0C81110C947C410E947F858E
:1049300088EE9CE00E9453810E94F5AB6093DB0CF3
:104940007093DC0C8093DD0C9093DE0C2091E80CCE
:104950003091E90C4091EA0C5091EB0C60915207B8
:104960007091530780915407909155070E945CE223
:10497000811174C02091EC0C3091ED0C4091EE0C43
:104980005091EF0C6091560770915707809158072E
:10499000909159070E945CE2811160C020E030E0F4
:1049A00040E752E460911F02709120028091210241
:1049B000909122020E94BEE62EE3C22E25E1D22E65
:1049C0007B018C0124EF3CE040EF5CE06CEE7CE08E
:1049D00088EE9CE00E9476928091E80C9091E90C20
:1049E000A091EA0CB091EB0C80935207909353077F
:1049F000A0935407B09355078091EC0C9091ED0C67
:104A0000A091EE0CB091EF0C80935607909357074E
:104A1000A0935807B09359078091F00C9091F10C36
:104A2000A091F20CB091F30C80935A0790935B071E
:104A3000A0935C07B0935D078091F40C9091F50C06
:104A4000A091F60CB091F70C80935E0790935F07EE
:104A5000A0936007B09361070C947C4160912F0292
:104A600070913002072E000C880B990B0E9462E2B5
:104A700020911F0230912002409121025091220288
:104A80000E9492DE20E030E040E752E40E94BEE661
:104A900020E030E048EC52E48DCF80918A0C811107
:104AA0000C947C410E94048681E00E94EC810C946D
:104AB0007C4180918A0C81110C947C410E94048677
:104AC00080E00E94EC810C947C418AEA95E00E948F
:104AD000B9C480E50E94DD45882339F00E94034671
:104AE0000E942CE76B017C0103C0C12CD12C760104
:104AF00083E50E94DD45882361F00E94034620E0A3
:104B000030E04AE754E40E9492DE0E942CE76B01F9
:104B10007C010E9496710E94F5ABC60ED71EE81E5E
:104B2000F91E0E94F5AB6093DB0C7093DC0C809354
:104B3000DD0C9093DE0C0E94F5AB6C157D058E05A7
:104B40009F0510F00C947C410E94426F80E00E940F
:104B5000A57F0E94EFC4EFCF80911F0290912002A9
:104B6000A0912102B091220280932005909321050B
:104B7000A0932205B093230580912F0290913002DB
:104B800090931F0580931E0584E690E09093300279
:104B900080932F020E94F5AB6093DB0C7093DC0CCA
:104BA0008093DD0C9093DE0C11E010930B0280914A
:104BB000520790915307A0915407B09155078093E5
:104BC000E80C9093E90CA093EA0CB093EB0C809165
:104BD000560790915707A0915807B09159078093B5
:104BE000EC0C9093ED0CA093EE0CB093EF0C809135
:104BF0005A0790915B07A0915C07B0915D07809385
:104C0000F00C9093F10CA093F20CB093F30C809104
:104C10005E0790915F07A0916007B0916107809354
:104C2000F40C9093F50CA093F60CB093F70C109243
:104C30001F0210922002109221021092220288E597
:104C40000E94DD45882311F080E009C089E50E94BB
:104C5000DD458111F9CF8AE50E94DD4581278093EA
:104C6000010281110C947F418AE50E94DD4581118A
:104C70000C947F418091010281110C94854188E55B
:104C80000E94DD4581110C948541809101028111C2
:104C90000C948B4189E50E94DD4581110C948B4178
:104CA00088E50E94DD458823D1F00E94F845672BF6
:104CB000682B692BA1F00E9403462091C20C309111
:104CC000C30C4091C40C5091C50C0E94E1E5609367
:104CD000520770935307809354079093550789E5C3
:104CE0000E94DD458823D1F00E94F845672B682B90
:104CF000692BA1F00E9403462091C60C3091C70C8D
:104D00004091C80C5091C90C0E94E1E56093560790
:104D10007093570780935807909359078AE50E942C
:104D2000DD458823D1F00E94F845672B682B692B5D
:104D3000A1F00E9403462091CA0C3091CB0C409107
:104D4000CC0C5091CD0C0E94E1E560935A07709312
:104D50005B0780935C0790935D074AE557E066E543
:104D600077E082E597E00E94495B10920B02809108
:104D7000200590912105A0912205B09123058093F3
:104D80001F0290932002A0932102B09322028091EF
:104D90001E0590911F059093300280932F020E9470
:104DA000F5AB6093DB0C7093DC0C8093DD0C90937F
:104DB000DE0C1092050B1092040B1092030B0C9456
:104DC0007C411092D20C0C947C4181E08093D20CF7
:104DD0000C947C4185E40E94DD45811102C00E9453
:104DE0009671B7EFAB2EB2E0BB2E12E5E12E17E0C5
:104DF000F12E02ECC02E0CE0D02E10E0D5018D91EA
:104E00005D010E94DD45882311F1133051F40E94A9
:104E10000346F70160837183828393830E94ACD23F
:104E200016C00E940346D6012D913D914D915C9193
:104E30000E94E1E5F70160837183828393834AE5F1
:104E400057E066E577E082E597E00E94495B1F5FE7
:104E5000F4E0EF0EF11C24E0C20ED11C143071F608
:104E60000C947C418DE40E94DD45882311F40C9460
:104E7000B1400E9403460E9427E76237710511F492
:104E80000C94A9310CF096C06F31710509F464C51A
:104E9000ACF56631710509F46BC2C4F4613171057A
:104EA00009F4FCC134F46230710508F454C10C9467
:104EB0007C416431710509F402C20CF055C26231C3
:104EC000710511F40C94BF300C947C416A3171056A
:104ED00009F487C23CF46831710509F465C20CF429
:104EE0004DC275C26C31710509F4DDC20CF487C284
:104EF0006E31710509F409C30C947C416535710567
:104F000011F40C94F7300CF56135710511F40C9423
:104F10009D307CF46A32710509F4A6C560357105CF
:104F200011F40C9490306032710511F00C947C41B6
:104F300074C46335710511F40C94BA3014F00C94F8
:104F4000BF301092D60C0C947C416A36710511F476
:104F50000C946030E4F46836710509F4CCC50CF0AB
:104F6000FDC56C35710511F00C947C41F7EF8F2E67
:104F7000F2E09F2E06E817E0AAE3AA2EADE0BA2ED3
:104F800026E73DE03CAF2BAF312C0C9479316D36E8
:104F9000710509F4D0C66037710509F4CCC56B36CC
:104FA000710511F00C947C41109238151092371550
:104FB0000C947C41623E710511F40C9400350CF0A8
:104FC00068C0683C710511F40C947F3354F5683760
:104FD000710511F40C94873294F46537710511F45E
:104FE0000C9495316737710509F4B1C063377105C9
:104FF00011F00C947C41E2EEF3E00C9490316C38AB
:10500000710509F49AC56E3B710509F454C76937F7
:10501000710511F00C947C4181E080930B020C949B
:105020007C416D3C710511F40C944E34C4F46B3C1E
:10503000710511F40C940D3414F00C942C34693C6B
:10504000710511F00C947C4132E2E32E3DE0F32E29
:1050500007EF12E044E0D42ED00E0C94F3336C3DF5
:10506000710511F40C94C5346D3D710511F40C9467
:10507000D6346E3C710511F00C947C41B2ECEB2EF1
:10508000BCE0FB2E07EF12E083E0D82ED00E0C948C
:10509000B534643F31E0730711F40C94B43D64F50A
:1050A0006D3251E0750711F40C947E399CF468312F
:1050B00091E0790711F40C9460356C32A1E07A0725
:1050C00011F40C94CE366A3F710511F00C947C41BA
:1050D0000C94443A6F32B1E07B0711F40C94843A9B
:1050E00014F40C94703A6039714011F00C947C41C6
:1050F0000E9496710C947C41683522E0720711F48D
:105100000C948D3E94F4663F41E0740711F40C94C6
:10511000BA3D14F40C94B73D673F714011F00C9404
:105120007C410E94894C0C947C41603A93E0790761
:1051300009F4DDC3673EA3E07A0711F40C949A40AA
:105140006335734011F00C947C410C94BD3DE2E357
:10515000F3E00C949132E091F804F091F9048F019E
:105160000E5F1F4F80E50E94DD45882371F00E948D
:1051700003460E942CE76B017C01AA24A394672BB1
:10518000682B692B31F4A12C04C0A12CC12CD12C8B
:10519000760183E50E94DD45882391F00E94034655
:1051A00020E030E04AE754E40E9492DE0E942CE7BF
:1051B0006B017C01BB24B394672B682B692B09F42A
:1051C000B12C6AE270E0C8010E94D8E9009711F0A2
:1051D000FC011082F801CF0121912032E1F3A110EE
:1051E00007C0B11005C0222319F00E94DEC404C01C
:1051F00089E995E00E94B9C481E00E94EAC40E9456
:1052000096710E94F5AB6093DB0C7093DC0C80937D
:10521000DD0C9093DE0CC114D104E104F104C9F05B
:105220000E94F5ABC60ED71EE81EF91E0E94F5AB14
:105230006C157D058E059F05F0F40E942BC481112D
:105240001AC00E94426F80E00E94A57F0E94EFC4B6
:10525000EDCF0E9431C4882311F40C947C410E944C
:105260002BC481110BC00E94426F80E00E94A57F79
:105270000E94EFC4F4CF80E00E94EAC480914D0800
:10528000882331F08AE895E00E94B9C40C947C41EF
:1052900088E795E00E94B9C40C947C418FE695E0C4
:1052A0000E94B9C45F988A989FB7F89480910801CA
:1052B0008E7F809308019FBF12980C947C41EFE58C
:1052C000F5E08491882341F09091C00095FFFCCFD8
:1052D0008093C6003196F5CF8091C00085FFFCCF4A
:1052E0008AE08093C6001092D40A1092D30A40E05C
:1052F00050E0BA018EE798E00E941F628BE1EEE772
:10530000F8E0DE01159601900D928A95E1F7809103
:105310007C0890917D089C838B8383EE92E09A8336
:10532000898340E050E0BE016F5F7F4F8FE994E0DA
:105330000E94BF53CE0101960E94887EE1E5F5E010
:105340008491882341F09091C00095FFFCCF809319
:10535000C6003196F5CF8091C00085FFFCCF8AE072
:105360008093C6000C947C410E94C15C0C947C41EB
:1053700010924D0810924E080C947C410091F80454
:105380001091F9040C5F1F4F6AE270E0C8010E949F
:10539000D8E9009711F0DC011C9241E061E0C801FE
:1053A0000E94A2550C947C4180914E08882319F0EC
:1053B00081E080934D080E94F5AB609331137093A8
:1053C000321380933313909334130C947C41809167
:1053D0004D08882311F40C947C4110924D080C94D4
:1053E0007C4180914E08882311F40C947C4183E524
:1053F0000E94DD4581110C9491410C947C41809177
:105400004E08882309F439C0EBECF1E0849188233D
:1054100041F09091C00095FFFCCF8093C60031967B
:10542000F5CF6091CE0A7091CF0A8091D00A909109
:10543000D10A4AE00E942A5AE9ECF1E084918823DB
:1054400041F09091C00095FFFCCF8093C60031964B
:10545000F5CF6091C60A7091C70A8091C80A9091F1
:10546000C90A4AE00E942A5A8091C00085FFFCCFF9
:105470008AE08093C6000C947C41EDEDF1E08491CC
:10548000882341F09091C00095FFFCCF8093C60027
:105490003196F5CF8091C00085FFFCCF8AE08093E4
:1054A000C6000C947C418091F8049091F9046AE262
:1054B00070E004960E94D8E98C01892BD9F02091E4
:1054C000860C3091870C40E6429FC001439F900DAF
:1054D00011246EE470E08A5F944F0E94D8E960E284
:1054E00070E00E94D8E901969093F9048093F80443
:1054F000F80110828091F8049091F90441E060E095
:1055000004960E94A2550C947C4180914E088823F9
:1055100011F40C947C4189E19AE00E94DD6189E1FB
:105520009AE00E94776810924B0810924C08809184
:10553000F8049091F9046AE270E004960E94D8E9B8
:105540008C01892BD9F02091860C3091870C40E694
:10555000429FC001439F900D11246EE470E08A5F6A
:10556000944F0E94D8E960E270E00E94D8E9019669
:105570009093F9048093F804D8011C920091F804E8
:105580001091F90480914E08882311F40C947C4109
:105590005801B4E0AB0EB11C89E19AE00E94776833
:1055A00010924D081D8218861C821B8283EE92E0A9
:1055B0009A8389838AE798E090939A088093990860
:1055C000F80184818F3209F090C06FE270E0C5016C
:1055D0000E94D8E98C010F5F1F4FAAE0EA2E9E01BE
:1055E0002F5F3F4F49010115110509F484C06FE297
:1055F00070E0C8010E94D8E96C01009709F47CC0F2
:105600000817190708F078C03C01601A710AA30155
:10561000B801CE0180960E9401EAE0E2F0E0EC0FD2
:10562000FD1FE60DF71D10828E01005E1F4FF80171
:105630008191882339F09091C00095FFFCCF809331
:10564000C600F6CF8091C00085FFFCCFE092C60077
:105650006091990870919A086115710511F06C5F5D
:105660007F4F21E0AE01405E5F4FCE0105960E9464
:105670007F68811132C0E7E1F2E08491882371F004
:105680009091C00095FFFCCF8093C6003196F5CF76
:105690009091C00095FFFCCF8093C600D8018D91FA
:1056A0008D018111F5CFE5E1F2E08491882341F08D
:1056B0009091C00095FFFCCF8093C6003196F5CF46
:1056C0008091C00085FFFCCF8AE08093C600CE01A8
:1056D00001960E94887E0C947C4190929A08809258
:1056E000990886010F5F1F4F7ECF8BE998E090935A
:1056F0009A088093990885016091990870919A0899
:105700006115710511F06C5F7F4F18A21BA222E09A
:10571000A801CE0180960E947F688823F1F0CE0117
:1057200080960E942D538823C1F06CA57DA58EA57F
:105730009FA541E00E94899F882379F0E8A9B0E203
:10574000EB9FF0011124E95CFA4F309731F085EEC0
:1057500080831BA20E949F61F82ECE0180960E943A
:10576000D94AFF2041F1E7E0F2E08491882341F03B
:105770009091C00095FFFCCF8093C6003196F5CF85
:10578000F8018191882339F09091C00095FFFCCFFA
:105790008093C600F6CF8091C00085FFFCCF8AE0E1
:1057A0008093C6001092CE0A1092CF0A1092D00AAF
:1057B0001092D10A2CC0EFEEF1E08491882341F0E1
:1057C0009091C00095FFFCCF8093C6003196F5CF35
:1057D000F8018191882339F09091C00095FFFCCFAA
:1057E0008093C600F6CFEDEEF1E08491882341F07E
:1057F0009091C00095FFFCCF8093C6003196F5CF05
:105800008091C00085FFFCCF8AE08093C600CE0166
:1058100001960E94887E0C947C4180914D088111F4
:105820000E9496710091F8041091F9040C5F1F4FCB
:105830006AE270E0C8010E94D8E97C0161E270E090
:10584000C8010E94D8E9009719F08C010F5F1F4F23
:10585000E114F10411F0F701108280E50E94DD45AA
:10586000F82E8091F8049091F9040817190708F4AC
:10587000F12C80914E08882311F40C947C4141E076
:105880004F2561E0C8010E94A25583E50E94DD45D5
:105890008823B9F08091F8049091F904801791075A
:1058A00080F40E94F845AB01BC014093CE0A5093AE
:1058B000CF0A6093D00A7093D10A89E19AE00E94DE
:1058C0001F6280914E08882319F081E080934D0873
:1058D000F1100C947C410E94F5AB609331137093EE
:1058E000321380933313909334130C947C41809142
:1058F000F8049091F9046AE270E005960E94D8E9F4
:105900008C01892BD9F02091860C3091870C40E6D0
:10591000429FC001439F900D11246EE470E08A5FA6
:10592000944F0E94D8E960E270E00E94D8E90196A5
:105930009093F9048093F804D8011C928091F804A4
:105940009091F90421E020934C0841E060E0059635
:105950000E94A2550C947C410E94F5AB6093F40424
:105960007093F5048093F6049093F704009131133B
:10597000109132132091331330913413601B710B4B
:10598000820B930B28EE33E040E050E00E9483E569
:10599000CA01B9012CE330E040E050E00E9483E509
:1059A0007F936F933F932F9382E495E09F938F9320
:1059B0008E010F5F1F4F1F930F930E942DE2EFE8A0
:1059C000FAE094910FB6F894DEBF0FBECDBFEFE8BA
:1059D000FAE0992349F08091C00085FFFCCF9093B5
:1059E000C60031969491F5CFF8018191882339F062
:1059F0009091C00095FFFCCF8093C600F6CF8091B8
:105A0000C00085FFFCCF8AE08093C600C8010E94D9
:105A1000DEC480913615882311F40C947C411092D9
:105A2000361500913E1510E0000F111F055C1A4E4F
:105A3000D8016D917C91072E000C880B990B0E9468
:105A400062E2209170023091710240917202509195
:105A500073020E9412E8181614F00C947C41F801AD
:105A6000118210820C947C4183E50E94DD458823DD
:105A700011F40C947C410E9403460E9427E7F62E05
:105A8000E72E862F9E2D8C0180E50E94DD45882320
:105A900031F00F3F110509F010F40C94A1410DE015
:105AA00010E0E7E7F2E0819191918017910711F4FE
:105AB0000C947C4122E0EF3AF207A9F70930110576
:105AC00039F48F2D9E2D909338158093371504C08F
:105AD00017FF02C00C947C4161E0802F0E94B9AA9C
