:100000000C94A20C0C945A480C942F480C9404485D
:100010000C94D9470C94AE470C9483470C945847E2
:100020000C942D470C940D2D0C94FE2C0C94EF2C5D
:100030000C94D30C0C94D30C0C94D30C0C94D30CC4
:100040000C94D30C0C94EA320C94D30C0C94D30C77
:100050000C94D30C0C94D30C0C940B4A0C94E346E4
:100060000C94D30C0C944F320C94D30C0C94D30CF2
:100070000C94D30C0C94D30C0C94D30C0C94D30C84
:100080000C94D30C0C94D30C0C94D30C0C94D30C74
:100090000C94D30C0C94D30C0C94D30C0C94D30C64
:1000A0000C94D30C0C94D30C0C94D30C0C94D30C54
:1000B0000C94D30C0C94D30C0C94D30C0C94D30C44
:1000C0000C94D30C0C94D30C0C94D30C0C94D30C34
:1000D0000C94D30C0C94D30C0C94D30C0C94D30C24
:1000E0000C94D30C32453545244528452E456C45A6
:1000F00039453D45434547454B455145554559458E
:100100006C455F4563456745FF4504460946134610
:100110001D46964627462F46374641464B4655468E
:1001200064466E469646784682468C46084AD73BD9
:100130003BCE016E84BCBFFDC12F3D6C74319ABDB6
:1001400056833DDA3D00C77F11BED9E4BB4C3E91DA
:100150006BAAAABE000000803F05A84CCDB2D44EC9
:10016000B93836A9020C50B9918688083CA6AAAACB
:100170002ABE000000803F004E414E494E4954596E
:10018000494E46CDCCCC3D0AD7233C17B7D1387762
:10019000CC2B329595E6241FB14F0A000020410078
:1001A00000C84200401C4620BCBE4CCA1B0E5AAEC2
:1001B000C59D74434F4D4D554E49434154494F4E93
:1001C0000044525952554E004552524F5253004925
:1001D0004E464F004543484F0020746F6F206C6FB0
:1001E0006E6720657874727573696F6E20707265C2
:1001F00076656E7465640A0020636F6C64206578B0
:1002000074727573696F6E2070726576656E746551
:10021000640A0047322F47332062616420706172A4
:10022000616D65746572730A002569730025696DD7
:1002300020256973002569682025696D202569736B
:1002400000256964202569682025696D202569736A
:100250000025697920256964202569682025696D54
:1002600020256973005072696E742074696D653A57
:10027000200050726F7465637465642050696E0A63
:1002800000D401CF01C801C101B3016F666600440B
:10029000454255473A004B494C4C45442E20004DB1
:1002A0003131332053006F6B0020573A00436170A7
:1002B0003A454D455247454E43595F50415253458B
:1002C000523A300A004361703A434153455F4C490A
:1002D0004748545F4252494748544E4553533A3079
:1002E0000A004361703A544F47474C455F4C4947B9
:1002F0004854533A300A004361703A534F465457BA
:100300004152455F504F5745523A300A00436170A1
:100310003A4C4556454C494E475F444154413A306A
:100320000A004361703A5A5F50524F42453A300AD0
:10033000004361703A4155544F4C4556454C3A3054
:100340000A004361703A5052494E545F4A4F423A54
:10035000310A004361703A50524F47524553533A65
:10036000300A004361703A4155544F5245504F5244
:10037000545F54454D503A310A004361703A454547
:1003800050524F4D3A310A004649524D574152455D
:100390005F4E414D453A4D61726C696E20312E3190
:1003A0002E3620284769746875622920534F5552AC
:1003B00043455F434F44455F55524C3A68747470EF
:1003C000733A2F2F6769746875622E636F6D2F4DB6
:1003D00061726C696E4669726D776172652F4D61ED
:1003E000726C696E2050524F544F434F4C5F5645CC
:1003F0005253494F4E3A312E30204D414348494ED9
:10040000455F545950453A536E617070792049499F
:100410002045585452554445525F434F554E543A27
:100420003120555549443A63656465326132662D21
:10043000343161322D343734382D396231322D6305
:1004400035356336326633363766660A002F2F201D
:10045000007A325F6D696E3A20007A5F6D696E3A9C
:100460002000795F6D696E3A2000785F6D696E3AA1
:1004700020005265706F7274696E6720656E6473D8
:10048000746F70207374617475730A0053657474AB
:10049000696E672054726176656C20416363656C98
:1004A00065726174696F6E3A200053657474696E89
:1004B00067205265747261637420416363656C6583
:1004C000726174696F6E3A200053657474696E6767
:1004D000205072696E7420416363656C657261744B
:1004E000696F6E3A200053657474696E67205072AC
:1004F000696E7420616E642054726176656C20416F
:100500006363656C65726174696F6E3A20005A208E
:10051000456E6473746F702041646A7573746D65A1
:100520006E742073657420746F20286D6D293A00F5
:10053000205A00205900580020204D61783A2000B0
:10054000205A00205900580020204D696E3A2000A2
:100550004F6E20004F666600536F667420656E64B0
:1005600073746F70733A2000000136372603FF3C26
:100570003D380EFF2E303E1213FF0C0809FFFFFF1F
:100580001A1C18FFFF08440AFF4324221EFFFFFF26
:10059000FFFFFF20643A0020693A0020703A0043D0
:1005A000290A0061626C656420286D696E2074659B
:1005B0006D702000436F6C6420657874727564659B
:1005C0007320617265200023646566696E65202072
:1005D00044454641554C545F4B6420002364656696
:1005E000696E65202044454641554C545F4B692057
:1005F0000023646566696E65202044454641554C7C
:10060000545F4B702000504944204175746F7475DD
:100610006E652066696E6973686564212050757423
:1006200020746865206C617374204B702C204B69BA
:1006300020616E64204B6420636F6E7374616E740E
:10064000732066726F6D2062656C6F7720696E74BF
:100650006F20436F6E66696775726174696F6E2E85
:10066000680A00504944204175746F74756E6520A6
:100670006661696C6564212074696D656F75740AC3
:1006800000504944204175746F74756E6520666131
:10069000696C6564212054656D7065726174757252
:1006A0006520746F6F20686967680A00204B643AA0
:1006B0002000204B693A2000204B703A20000A208D
:1006C000436C617373696320504944200A002054CD
:1006D000753A2000204B753A2000206D61783A2051
:1006E00000206D696E3A200020643A200020626983
:1006F00061733A2000546F6F206661722066726FDA
:100700006D207265666572656E636520706F696ED7
:10071000740A004E6F2063617365206C69676874AA
:100720000A00416374697665204578747275646562
:10073000723A2000556E6B6E6F776E20636F6D6D31
:10074000616E643A202200656E7175657565696E2B
:10075000672022004E6F204C696E65204E756D62D9
:100760006572207769746820636865636B73756D63
:100770002C204C617374204C696E653A20004B4903
:100780004C4C45442E20005072696E746572207383
:10079000746F707065642064756520746F20657275
:1007A000726F72732E2046697820746865206572B6
:1007B000726F7220616E6420757365204D3939390E
:1007C00020746F20726573746172742E20285465D2
:1007D0006D706572617475726520697320726573DE
:1007E00065742E2053657420697420616674657287
:1007F0002072657374617274696E67290A004E6FA6
:1008000020436865636B73756D2077697468206C2D
:10081000696E65206E756D6265722C204C61737413
:10082000204C696E653A2000636865636B73756D73
:10083000206D69736D617463682C204C6173742042
:100840004C696E653A20004C696E65204E756D628C
:100850006572206973206E6F74204C617374204C34
:10086000696E65204E756D6265722B312C204C616E
:100870007374204C696E653A20004D313130002090
:10088000496E76616C69642065787472756465720E
:1008900020000000000000000000000080BF0000F9
:1008A00046430000464300002443202F0020403AE6
:1008B00000205A3A0020593A0020436F756E742088
:1008C000583A0020453A00205A3A0020593A005838
:1008D0003A00000020002300260029002C002F00F1
:1008E00032000001000003010601090105050505AC
:1008F000070508080808020202020A0A0808040498
:1009000004040101010101010101030303030303C5
:100910000303040707070C0C0C0C0C0C0C0C020254
:10092000020206060606060606060B0B0B0B0B0B51
:100930000B0B0102102020080810204010204080DE
:100940000201020108040201010204081020408093
:100950008040201008040201800402018040201021
:10096000080402010804020101020408102040806A
:10097000010204081020408000000A0B02090C0D3F
:100980000E08070304010000000000000000000042
:100990000000000000000000000000000000000057
:1009A0000000000012111000000000000000000014
:1009B00000000000000000000000000000004B49A3
:1009C0004C4C45442E2000202D20496E76616C69E8
:1009D00064206578747275646572206E756D6265E9
:1009E0007220210A004572726F723A002020506C0A
:1009F000616E6E6572427566666572427974657382
:100A00003A20002046726565204D656D6F72793A17
:100A10002000436F6D70696C65643A204A616E20F6
:100A2000313520323031380A00207C20417574681D
:100A30006F723A202852657661724261742C20539D
:100A40006E6170707920636F6E666967290A003283
:100A50003031372D31302D31302031323A303000C5
:100A6000204C61737420557064617465643A200091
:100A7000312E312E360A004D61726C696E002053A2
:100A80006F6674776172652052657365740A002021
:100A90005761746368646F672052657365740A00F8
:100AA0002042726F776E206F757420526573657483
:100AB0000A002045787465726E616C20526573651A
:100AC000740A00506F77657255700A007374617212
:100AD000740A00205A3A0020593A0020583A00651A
:100AE0006E6473746F7073206869743A2000656374
:100AF000686F3A0024F4D43050C38E20C2A240174D
:100B0000828B7011127A910D816CD90AA861E1086B
:100B1000C7586607615143061E4B5D05C145A704D2
:100B20001A411104093D9803713931034036DB0243
:100B300065339102D4305402802E1D02632CEE01E5
:100B4000752AC501B028A001102781018F256401F5
:100B50002B244B01E0223401AC211F018D200D011B
:100B6000801FFC00841EED00971DDF00B81CD20022
:100B7000E61BC600201BBC00641AB200B219A80014
:100B80000A19A0006A189900D117910040178B002C
:100B9000B516840031167E00B31579003A1573003E
:100BA000C7146F0058146A00EE13660088136300C0
:100BB00025135E00C7125B006C125700151254001B
:100BC000C111510070114F0021114B00D610490086
:100BD0008D1047004610440002104200C00F400034
:100BE000800F3E00420F3C00060F3B00CB0E38004A
:100BF000930E37005C0E3500270E3400F30D3200E3
:100C0000C10D3100900D3000600D2E00320D2D0011
:100C1000050D2C00D90C2B00AE0C2900850C2900E9
:100C20005C0C2700350C27000E0C2600E80B240076
:100C3000C40B2400A00B23007D0B23005A0B2100C2
:100C4000390B2100180B2000F80A1F00D90A1E00DA
:100C5000BB0A1E009D0A1D00800A1D00630A1C00BD
:100C6000470A1B002C0A1B00110A1A00F7091A0078
:100C7000DD091900C4091900AB0919009209170010
:100C80007B091800630917004C0916003609160085
:100C9000200916000A091500F5081500E0081400DF
:100CA000CC081400B8081400A4081400900813001D
:100CB0007D0812006B081300580812004608120045
:100CC0003408110023081100120811000108110056
:100CD000F0071000E0071000D0071000C007100058
:100CE000B0070F00A107100091070E0083070F0047
:100CF00074070F0065070E0057070E0049070E0026
:100D00003B070D002E070E0020070D0013070D00F6
:100D100006070D00F9060C00ED060D00E0060C00BC
:100D2000D4060C00C8060C00BC060C00B0060C0073
:100D3000A4060B0099060C008D060B0082060B0022
:100D400077060B006C060B0061060A0057060B00C5
:100D50004C060A0042060A0038060A002E060A005F
:100D600024060A001A060A001006090007060A00EF
:100D7000FD050900F4050900EB050900E20509007D
:100D8000D9050900D0050900C7050900BE050900FD
:100D9000B5050800AD050800A50509009C0508007B
:100DA000940508008C050800840508007C050800EF
:100DB000740508006C050700650508005D0507005F
:100DC000560508004E0507004705070040050800C6
:100DD00038050700310507002A050700230507002D
:100DE0001C050600160507000F050700080506008C
:100DF00002050700FB040600F5040700EE040600E8
:100E0000E8040600E2040700DB040600D50406003F
:100E1000CF040600C9040600C3040600BD04060092
:100E2000B7040600B1040500AC040600A6040600E1
:100E3000A00405009B04060095040500900406002C
:100E40008A04050085040500800406007A04050074
:100E500075040500700405006B04050066040500B8
:100E6000610405005C0405005704050052040500F8
:100E70004D04050048040500430405003E04040039
:100E80003A04050035040500300404002C04050074
:100E900027040400230405001E0404001A040400AF
:100EA00016040500110404000D04040009040500E3
:100EB0000404040000040400FC030400F80304001C
:100EC000F4030400F0030400EC030400E80304004E
:100ED000E4030400E0030400DC030400D80304007E
:100EE000D4030400D0030400CC030400C8030300AF
:100EF000C503030024F404D9201BC40C5C0E980421
:100F0000C4095F0265077101F405F900FB04B30031
:100F100048048700C10369005803550003034500D6
:100F2000BE023A008402310053022A002902250041
:100F300004022000E4011C00C8011900AF011700E1
:100F40009801140084011300710110006101100068
:100F500051010E0043010D0036010B002B010B0067
:100F600020010B00150109000C0109000301080014
:100F7000FB000800F3000800EB000700E400060097
:100F8000DE000600D8000600D2000600CC000500F6
:100F9000C7000500C2000500BD000400B900040040
:100FA000B5000400B1000400AD000400A900040075
:100FB000A5000300A20003009F0004009B000300A3
:100FC00098000300950002009300030090000300C6
:100FD0008D0002008B0003008800020086000200E2
:100FE00084000300810002007F0002007D000200F7
:100FF0007B00020079000200770001007600020009
:101000007400020072000100710002006F00020013
:101010006D0001006C0002006A000100690002001E
:101020006700010066000100650001006400020025
:101030006200010061000100600001005F00020029
:101040005D0001005C0001005B0001005A0001002E
:10105000590001005800010057000100560001002E
:10106000550001005400010053000000530001002E
:101070005200010051000100500001004F0001002A
:101080004E0000004E0001004D0001004C00010028
:101090004B0000004B0001004A0001004900010024
:1010A0004800000048000100470001004600000021
:1010B0004600010045000000450001004400010019
:1010C0004300000043000100420000004200010014
:1010D0004100000041000100400001003F0000000D
:1010E0003F0001003E0000003E0001003D00000006
:1010F0003D0001003C0000003C0000003C000100FD
:101100003B0000003B0001003A0000003A000100F3
:1011100039000000390001003800000038000000EC
:1011200038000100370000003700010036000000E1
:1011300036000000360001003500000035000000D8
:1011400035000100340000003400000034000100CC
:1011500033000000330000003300010032000000C3
:1011600032000000320001003100000031000000B8
:1011700031000100300000003000000030000100AC
:101180002F0000002F0000002F0000002F000100A2
:101190002E0000002E0000002E0001002D00000097
:1011A0002D0000002D0000002D0001002C0000008B
:1011B0002C0000002C0000002C0001002B0000007F
:1011C0002B0000002B0000002B0001002A00000073
:1011D0002A0000002A0000002A0001002900000067
:1011E000290000002900000029000000290001005A
:1011F000280000002800000028000000280000004F
:101200002800010027000000270000002700000040
:101210002700000027000100260000002600000033
:101220002600000026000000260001002500000026
:10123000250000002500000025000000250000001A
:10124000250001002400000024000000240000000C
:1012500024000000240001002300000023000000FF
:1012600023000000230000002300000023000000F2
:1012700023000100220000002200000022000000E4
:1012800022000000220000002200010021000000D6
:1012900021000000210000002100000021000000CA
:1012A00021000000210001002000000020000000BB
:1012B00020000000200000002000000020000000AE
:1012C00020000000200001001F0000001F0000009F
:1012D0001F0000001F0000001F0000001F00000092
:1012E0001F0001001E0000001E0000001E00000084
:1012F0001E00000048617264636F64656420446589
:101300006661756C742053657474696E6773204CE4
:101310006F616465640A00E8030000E80300000AE6
:1013200000000010270000000096430000964300D4
:1013300000A0400000C84100002042000020420000
:1013400000C8430000C04220440020490020204D36
:101350003330312050005049442073657474696EF5
:1013600067733A0A0020204D363636205A005A322A
:1013700020456E6473746F702061646A7573746D58
:10138000656E743A0A00205A0020590020204D3220
:101390003036205800486F6D65206F66667365743F
:1013A0003A0A00204500205A002059002058002009
:1013B000420020540020204D32303520530041643B
:1013C00076616E6365643A20533C6D696E5F666555
:1013D0006564726174653E20543C6D696E5F747221
:1013E0006176656C5F66656564726174653E204216
:1013F0003C6D696E5F7365676D656E745F74696D72
:10140000655F6D733E20583C6D61785F78795F6AE7
:1014100065726B3E205A3C6D61785F7A5F6A6572D7
:101420006B3E20453C6D61785F655F6A65726B3E1F
:101430000A0020540020520020204D323034205029
:1014400000416363656C65726174696F6E20287515
:101450006E6974732F7332293A20503C7072696E32
:10146000745F616363656C3E20523C7265747261A7
:1014700063745F616363656C3E20543C7472617693
:10148000656C5F616363656C3E0A00204500205A0D
:101490000020590020204D3230312058004D617815
:1014A000696D756D20416363656C65726174696F08
:1014B0006E2028756E6974732F7332293A0A0020E2
:1014C0004500205A0020590020204D32303320584A
:1014D000004D6178696D756D206665656472617433
:1014E00065732028756E6974732F73293A0A00207A
:1014F0004500205A0020590020204D393220580044
:1015000053746570732070657220756E69743A0A41
:101510000020204D3230302044300A0020204D324F
:1015200030302044002044697361626C65640A00B5
:1015300046696C616D656E742073657474696E675D
:10154000733A002020473231202020203B20556E66
:1015500069747320696E206D6D0A0070012C019012
:10156000012701B0012201C0011D01F00118011085
:1015700002130130020E016002090190020401C051
:1015800002FF000003FA004003F5008003F000D0E2
:1015900003EB002004E6007004E100E004DC0040FE
:1015A00005D700C005D2004006CD00D006C8008097
:1015B00007C3003008BE00F008B900C009B400B08D
:1015C0000AAF00B00BAA00D00CA500000EA000507E
:1015D0000F9B00C01096005012910000148C00C0A8
:1015E000158700B0178200B0197D00D01B7800006D
:1015F0001E730040206E0090226900F024640040B9
:10160000275F0090295A00E02B5500102E50002033
:10161000304B0010324600E033410090353C001062
:1016200037370070383200A0392D00B03A2800A0BA
:101630003B2300603C1E00103D1900903D1400103B
:101640003E0F00703E0A00C03E0500003F00004013
:101650003FFBFF803FF6FFC03FF1FF6265640A0079
:101660002C2073797374656D2073746F707065646A
:1016700021204865617465725F49443A20004865DD
:101680006174696E67206661696C656400486561B4
:1016900074696E67206661696C6564004572723AB0
:1016A000204D494E54454D50004D494E54454D50E6
:1016B00020747269676765726564004572723A20CA
:1016C0004D415854454D50004D415854454D5020C2
:1016D0007472696767657265640000002100240008
:1016E00027002A002D003000330001010000040112
:1016F00007010A0100002200250028002B002E000F
:101700003100340002010000050108010B01290A23
:10171000002062797465733B206372632000536517
:101720007474696E67732053746F72656420280047
:10173000202863616C63756C6174656429210A00FB
:1017400020213D2000454550524F4D20435243201B
:101750006D69736D61746368202D202873746F72D6
:101760006564292000290A002062797465733B2092
:1017700063726320002073746F72656420736574F4
:1017800074696E677320726574726965766564202A
:101790002800204D61726C696E3D563431290A0073
:1017A00028454550524F4D3D00454550524F4D2024
:1017B00076657273696F6E206D69736D61746368AD
:1017C000200020746F6F206C6F6E672065787472D4
:1017D0007573696F6E2070726576656E7465640AE4
:1017E0000020636F6C6420657874727573696F6E26
:1017F0002070726576656E7465640A006F6B0062B6
:101800007573793A2070617573656420666F722014
:10181000696E7075740A00627573793A207061752B
:1018200073656420666F7220757365720A00627555
:1018300073793A2070726F63657373696E670A001B
:101840004B494C4C45442E20004B494C4C20636185
:101850007573656420627920746F6F206D7563689D
:1018600020696E6163746976652074696D65202DE9
:101870002063757272656E7420636F6D6D616E6446
:101880003A20005072696E7465722068616C7465EC
:10189000642E206B696C6C28292063616C6C656414
:1018A000210A000000000000000000000080BF00CE
:1018B00000484200004842000080400000000057FD
:1018C00061726E696E673A20486F6D696E6720427B
:1018D000756D702044697669736F72203C20310AFF
:1018E000000202040000A0400000A04000000040F0
:1018F000000046430000464300002543FFFFFF452C
:1019000072726F722077726974696E6720746F20CB
:10191000454550524F4D210A00544845524D414CC7
:101920002052554E4157415900546865726D616CA3
:101930002052756E6177617900526573656E643A05
:1019400020008F6C11241FBECFEFD1E2DEBFCDBFD0
:1019500000E00CBF13E0A0E0B2E0EAE8F0EF00E046
:101960000BBF02C007900D92AE30B107D9F72CE043
:10197000AEE0B3E001C01D92A038B207E1F71CE071
:10198000C2EADCE000E006C021970109802FFE01D9
:101990000E941278C13AD10780E00807A9F70E9497
:1019A00028690C9443780C9400002F923F924F9238
:1019B0005F926F927F928F929F92AF92BF92CF92DF
:1019C000DF92EF92FF920F931F93CF93DF93CDB7E8
:1019D000DEB7C258D1090FB6F894DEBF0FBECDBF37
:1019E00000917B0520E6029F800111240D5C1C4FB5
:1019F00080916E0B80FF1AC0EEEEFAE084917F01B9
:101A00003FEFE31AF30A811102C0780104C00E947B
:101A1000442EF701F3CFD7018D917D01882319F072
:101A20000E94442EF8CF8AE00E94442E81E090E08C
:101A30009093750B8093740B1092BA041092B904B2
:101A40008FE38093BD041092BC041092BB041092EB
:101A500028031092290310922A0310922B03F801F5
:101A600080810F5F1F4F8032D1F38E34B1F48181BA
:101A700090ED980F9A3020F08D3211F08B3269F48E
:101A80003296DF0131962C9120532A30D0F3CD01CC
:101A9000FC01019620812032D9F3F0937C0BE09376
:101AA0007B0B7F01BFEFEB1AFB0A10816AE270E04B
:101AB000C7010E941A78009731F0FC0131978081AC
:101AC0008032E1F311821D3429F0143519F01734F6
:101AD00009F0CFC0F70180812FEFE21AF20A8032BD
:101AE000C9F380538A3008F0C4C01093BD0420911C
:101AF000BB043091BC044AE03196429FC001439F31
:101B0000900D1124DF0111972C91022E000C330B44
:101B100020533109280F391F808180538A3060F3A8
:101B20003093BC042093BB04DF0131968C9180324A
:101B3000D9F31D3449F04091B9045091BA04009191
:101B40007B0B61E070E058C02E31310591F03CF420
:101B50002731310571F02C31310569F70AC025377D
:101B600031054CF32737310524F0203A43E03407A0
:101B700011F7B093BA04A093B9047BC0813209F481
:101B800045C09FEBB92EB80E89E1A82EAB1408F41E
:101B90005EC0DF01FD01908111969032D9F3A0ED76
:101BA000A90FAA3008F047C04F01EB2CF12C6701B8
:101BB00083E0D594C7948A95E1F7C601885D9C4F70
:101BC0006C018B2D8770DB0102C0AA0FBB1F8A95A9
:101BD000E2F7CD01D6019C91892B8C93811491045D
:101BE000A1F1801AC701825F9C4FDC018C92808139
:101BF00081548A3188F5DF01FD0131968C91811184
:101C0000BDCF5093BA044093B90433C01D3409F0DA
:101C1000B8CF2032310509F0B4CFF093BA04E09385
:101C2000B90463E270E0CF010E941A78009709F1CD
:101C3000DC011C921EC0A3EDA90FA23008F4B4CFA2
:101C40009B3211F00C940F28AFCF812CCBCF4115D4
:101C5000510569F6AD01CBCFDF0131969C919053D0
:101C60009A30D0F3CD01FC010196A081A032D9F3C6
:101C7000C2CF8091BD048D3411F40C94861A843542
:101C800011F40C94B727873411F00C94F12780914C
:101C9000BB049091BC048430910509F4D9C55CF46F
:101CA00097FF02C00C94082820912C0282309105E5
:101CB0000CF00DC11CC08A35910511F40C94C419A7
:101CC00054F48530910509F400C64C9711F40C9436
:101CD000AD180C9408288B35910511F40C94C81993
:101CE0008C35910511F40C94CD190C9408282223FD
:101CF00011F40C9408280E94CA2D80EA9BE00E94EF
:101D0000DC660E94392E80916E0B83FD8FC0C090DF
:101D1000AC0BD090AD0BE090AE0BF090AF0B2091E0
:101D20005605309157054091580550915905C70106
:101D3000B6010E94F470882309F478C080912F0BBB
:101D4000811138C06091310270913202072E000C6F
:101D5000880B990B0E94FA709B01AC016091DF0A1D
:101D60007091E00A8091E10A9091E20A0E94F47079
:101D700087FF20C0C0925605D0925705E0925805C3
:101D8000F0925905EEEEFAE084918F010F5F1F4F3C
:101D9000882321F00E94442EF801F6CFE8EFF1E00D
:101DA00084918F010F5F1F4F882321F00E94442EE2
:101DB000F801F6CFC090AC0BD090AD0BE090AE0B1D
:101DC000F090AF0B20915605309157054091580582
:101DD00050915905C701B6010E940A7520E030E014
:101DE00048E453E40E943177181604F5C092560572
:101DF000D0925705E0925805F0925905EEEEFAE0C0
:101E000084918F010F5F1F4F882321F00E94442E81
:101E1000F801F6CFE9EDF1E084918F010F5F1F4FDC
:101E2000882321F00E94442EF801F6CF2091A00BC8
:101E30003091A10B4091A20B5091A30B60914A05E8
:101E400070914B0580914C0590914D050E94F47066
:101E500081111DC02091A40B3091A50B4091A60BC0
:101E60005091A70B60914E0570914F0580915005E0
:101E7000909151050E94F470811109C06091000297
:101E80007091010280910202909103021AC0609148
:101E9000040270910502072E000C880B990B0E941A
:101EA000FA7020910002309101024091020250919B
:101EB00003020E9459712AE037ED43E25CE30E947D
:101EC00059710E94A22B0E94982B0C94082822235F
:101ED00011F40C94082811E0029709F010E00E9418
:101EE000CA2D82E50E94BE2D882309F42AC10E94D2
:101EF0005C2D6B017C0140904A0550904B05609031
:101F00004C0570904D0520914E0530914F05409144
:101F10005005509151052E8B3F8B488F598F8091E2
:101F2000A00B9091A10BA091A20BB091A30B8A8F53
:101F30009B8FAC8FBD8F2091A40B3091A50B40914E
:101F4000A60B5091A70B2AA33BA34CA35DA320E0B3
:101F500030E0A901C701B6010E94F470882309F49A
:101F60005DC4A30192016A8D7B8D8C8D9D8D0E9435
:101F7000F47081110DC02E893F89488D598D6AA159
:101F80007BA18CA19DA10E94F470882309F446C412
:101F900020E030E0A901C701B6010E94F470881F5B
:101FA0008827881F181309C080E090E0A0E8BFE3ED
:101FB0008EA79FA7A8ABB9AB08C020E030E040E8EF
:101FC0005FEB2EA73FA748AB59ABA30192016A8DE7
:101FD0007B8D8C8D9D8D0E940A756EA37FA388A733
:101FE00099A72E893F89488D598D6AA17BA18CA123
:101FF0009DA10E940A756AA77BA78CA79DA72EA109
:102000003FA148A559A5CA01B9010E9459714B01C8
:102010005C012AA53BA54CA55DA5CA01B9010E949A
:1020200059719B01AC01C501B4010E940B750E945E
:1020300076776E8F7F8F88A399A320E030E040E011
:102040005FE30E9459714B015C01A7019601C70132
:10205000B6010E9459716B017C01A5019401C50173
:10206000B4010E9459719B01AC01C701B6010E94E5
:102070000A750E9476779B01AC016EA57FA588A9A1
:1020800099A90E9459714B015C012A8D3B8D4C8DA1
:102090005D8DC301B2010E940B7520E030E040E08D
:1020A0005FE30E9459716B017C016AA57BA58CA539
:1020B0009DA590582E8D3F8D48A159A10E94E7758E
:1020C0009B01AC01C501B4010E9459719B01AC0197
:1020D000C701B6010E940B75A30192010E940A7507
:1020E0006B017C012AA13BA14CA15DA16E897F8976
:1020F000888D998D0E940B7520E030E040E05FE311
:102100000E9459712B013C012E8D3F8D48A159A190
:102110006EA17FA188A599A50E94E7759B01AC01DE
:10212000C501B4010E9459719B01AC01C301B20108
:102130000E940B752E893F89488D598D0E940A7522
:1021400014C089E40E94BE2D882329F00E945C2DD2
:102150006B017C0103C0C12CD12C76018AE40E9462
:10216000BE2D8823D9F00E945C2D6AA37BA38CA38B
:102170009DA320E030E0A901C701B6010E94F470E0
:1021800081111AC020E030E0A9016AA17BA18CA1D5
:102190009DA10E94F47081110FC040C320E030E087
:1021A000A901C701B6010E94F470882309F436C35F
:1021B0001AA21BA21CA21DA2D701C601B0588E8B69
:1021C0009F8BA88FB98F2AA13BA14CA15DA150582C
:1021D0002A8F3B8F4C8F5D8F9C01AD01BC01CD01DF
:1021E0000E9459714B015C012A8D3B8D4C8D5D8D98
:1021F000CA01B9010E9459719B01AC01C501B4012A
:102200000E940B750E9476772A966CAF7DAF8EAFD9
:102210009FAF2A9780914A0590914B05A0914C055C
:10222000B0914D058E8F9F8FA8A3B9A3A7019601EA
:10223000BC01CD010E940B756EA77FA788AB99AB3F
:10224000A0904E05B0904F05C0905005D09051051C
:10225000AEA2BFA2C8A6D9A62AA13BA14CA15DA14E
:10226000C601B5010E940B756AAB7BAB8CAB9DAB15
:10227000C090A00BD090A10BE090A20BF090A30B0C
:10228000CEAADFAAE8AEF9AE2EA53FA548A959A966
:10229000C701B6010E940A756B017C012091A40B55
:1022A0003091A50B4091A60B5091A70B2AAF3BAFE5
:1022B0004CAF5DAF2AA93BA94CA95DA96AAD7BAD26
:1022C0008CAD9DAD0E940A754B015C018091520559
:1022D00090915305A0915405B091550522968CAF6D
:1022E0009DAFAEAFBFAF22979C01AD016091A80B2F
:1022F0007091A90B8091AA0B9091AB0B0E940A756B
:102300006AA77BA78CA79DA72091AC0B3091AD0B42
:102310004091AE0B5091AF0B2E962CAF3DAF4EAF10
:102320005FAF2E978091560590915705A091580563
:10233000B091590526968CAF9DAFAEAFBFAF269733
:10234000A70196016E897F89888D998D0E945971A8
:102350002B013C01A50194016A8D7B8D8C8D9D8D97
:102360000E9459719B01AC01C301B2010E940B751F
:102370002B013C01A50194016E897F89888D998D7F
:102380000E9459714B015C01A70196016A8D7B8DFA
:102390008C8D9D8D0E9459719B01AC01C501B401CA
:1023A0000E940A75A30192010E947E756B017C0157
:1023B00020E030E0A9010E94F47087FF0AC02BEDF5
:1023C0003FE049EC50E4C701B6010E940B756B0178
:1023D0007C01112351F02BED3FE049EC50E4C701A3
:1023E000B6010E940A756B017C0120E030E0A90172
:1023F000C701B6010E94F470811120C02EA93FA927
:1024000048AD59AD6E8D7F8D88A199A10E94F47061
:10241000811114C02AAD3BAD4CAD5DAD6EA17FA165
:1024200088A599A50E94F470811108C01BEDC12EEA
:102430001FE0D12E19ECE12E10E4F12E2A962CADDE
:102440003DAD4EAD5FAD2A97C701B6010E945971EF
:102450009B01AC010E9459714B015C012AA53BA56F
:102460004CA55DA5CA01B9010E9459719B01AC013F
:10247000C501B4010E940B750E9476774B015C0187
:102480002FE632E143E85AE30E94F47087FDC2C1AF
:10249000C501B4010E9480760E9454767FA36EA38A
:1024A000672B21F421E030E03FA32EA3AEA0BFA014
:1024B000B50180E090E00E94F8704B015C019B0147
:1024C000AC01C701B6010E94E7756E8F7F8F88A3AC
:1024D00099A3A50194016AA57BA58CA59DA50E9441
:1024E000E7752A966CAF7DAF8EAF9FAF2A97269681
:1024F0002CAD3DAD4EAD5FAD26972E966CAD7DAD4E
:102500008EAD9FAD2E970E940A75A50194010E9481
:10251000E7752E966CAF7DAF8EAF9FAF2E972E8D49
:102520003F8D48A159A1CA01B9010E94597120E00B
:1025300030E040E05FE30E9459719B01AC0160E034
:1025400070E080E89FE30E940A756AA77BA78CA7CA
:102550009DA72296CCACDDACEEACFFAC2297C98631
:10256000DA86EB86FC862696ACACBDACCEACDFAC96
:102570002697AD86BE86CF86D88A60910402709178
:102580000502072E000C880B990B0E94FA7020910F
:1025900000023091010240910202509103020E9418
:1025A00059712AE037ED43E25CE30E9459716EAB4A
:1025B0007FAB88AF99AF0E94D7469B01AC012853EF
:1025C0003F4F4F4F5F4F2AAF3BAF4CAF5DAF4E8891
:1025D0005F88688C798C22242394312CB9E1DB2E1E
:1025E000AEA0BFA02A143B0409F402C10E94394BDB
:1025F0000E94D746DC01CB012AAD3BAD4CAD5DADB1
:10260000821B930BA40BB50BB7FD0EC00E94D746DF
:102610009B01AC0128533F4F4F4F5F4F2AAF3BAF59
:102620004CAF5DAF0E941764DA94DD20E9F12AA572
:102630003BA54CA55DA56A8D7B8D8C8D9D8D0E94E3
:1026400059714B015C012E8D3F8D48A159A1B201FA
:10265000C3010E945971A50194010E940B757B0171
:102660008C012AA53BA54CA55DA5B201C3010E9422
:1026700059714B015C012E8D3F8D48A159A16A8D86
:102680007B8D8C8D9D8D0E9459719B01AC01C50184
:10269000B4010E940A752B013C01C701D8018A8F41
:1026A0009B8FAC8FBD8F4FC0B10180E090E00E9446
:1026B000F8702E8D3F8D48A159A10E9459714B0190
:1026C0005C010E94E4756B017C01C501B4010E94AC
:1026D0006C774B015C01A70196016E897F89888D1B
:1026E000998D0E9459712B013C01A50194016AA1A9
:1026F0007BA18CA19DA10E9459719B01AC01C301DA
:10270000B2010E940B752B013C01A50194016E8959
:102710007F89888D998D0E9459714B015C01A701B9
:1027200096016AA17BA18CA19DA10E9459719B0178
:10273000AC01C501B4010E940A756A8F7B8F8C8F32
:102740009D8FF9E1DF2E9201A3016EA57FA588A9D7
:1027500099A90E940B7569837A838B839C832A8D48
:102760003B8D4C8D5D8D6AA97BA98CA99DA90E948A
:102770000B756D837E838F8398872A962CAD3DAD34
:102780004EAD5FAD2A9769857A858B859C850E94C1
:102790000B7569877A878B879C872E962CAD3DAD0C
:1027A0004EAD5FAD2E976D857E858F8598890E9491
:1027B0000B756D877E878F87988BCE0101960E945F
:1027C000DC66C0902D03EEA8FFA808AD19AD9E01F0
:1027D000235F3F4FAE01475F5F4FBE016B5F7F4F8F
:1027E000CE0101960E949B553FEF231A330AF8CE83
:1027F000C0902D03EEA8FFA808AD19AD2CEA3BE070
:1028000048EA5BE064EA7BE080EA9BE00E949B553B
:102810000E94982B0E94392E0C940828E5EEF9E0CE
:1028200084918F010F5F1F4F882321F00E94442E57
:10283000F801F6CFE3E1F2E084918F010F5F1F4FC3
:10284000882311F40C9408280E94442EF801F4CF38
:1028500080E50E94BE2D882329F00E941C2D6B016B
:102860007C0103C0C12CD12C760183E50E94BE2DD2
:10287000882361F00E945C2D20E030E04AE754E4B8
:102880000E9459710E9454766B017C010E94194C80
:102890000E94392E80917D0B90917E0BA0917F0B31
:1028A000B091800BC80ED91EEA1EFB1E0E94D746AF
:1028B000DC01CB018C199D09AE09BF09B7FD02C02F
:1028C0000C9408280E941764F1CF80912C02882371
:1028D00011F40C9408280E94CA2D89E40E94BE2D90
:1028E000882329F00E945C2D2B013C0103C0412C60
:1028F000512C32018AE40E94BE2D882329F00E94C7
:102900005C2D4B015C0103C0812C912C540180E5AE
:102910000E94BE2D882329F00E945C2D6B017C0152
:1029200003C0C12CD12C760181E50E94BE2D8823E5
:1029300039F00E945C2D6E8B7F8B888F998F04C03D
:102940001E8A1F8A188E198E20912D03EB962FAFA9
:10295000EB976091040270910502072E000C880B22
:10296000990B0E94FA70209100023091010240916F
:102970000202509103020E9459712AE037ED43E2AE
:102980005CE30E945971EF966CAF7DAF8EAF9FAF45
:10299000EF9780914A0590914B05A0914C05B0911D
:1029A0004D058A8F9B8FAC8FBD8FA3019201BC0117
:1029B000CD010E940B752A966CAF7DAF8EAF9FAF95
:1029C0002A9740904E0550904F05609050057090AA
:1029D0005105A5019401C301B2010E940B752E9609
:1029E0006CAF7DAF8EAF9FAF2E972091A00B309133
:1029F000A10B4091A20B5091A30BC701B6010E94FD
:102A00000B7562966CAF7DAF8EAF9FAF62972091D2
:102A1000A40B3091A50B4091A60B5091A70B6E898A
:102A20007F89888D998D0E940B7566966CAF7DAFFE
:102A30008EAF9FAF6697AA8CBB8CCC8CDD8CA982A5
:102A4000BA82CB82DC824D825E826F8278860E945F
:102A5000D7469B01AC0128533F4F4F4F5F4FE9963C
:102A60002CAF3DAF4EAF5FAFE997EDEC8E2EECECA7
:102A70009E2EA92CEDE3BE2E1E8A1A8E1AA21E8E41
:102A80000E94394B0E94D7468B019C01E996CCAC41
:102A9000DDACEEACFFACE9970C191D092E093F091E
:102AA00037FD0EC09B01AC0128533F4F4F4F5F4F86
:102AB000E9962CAF3DAF4EAF5FAFE9970E94176428
:102AC000A5019401BE89AA8DFAA1EE8D6B2F7A2FF4
:102AD0008F2F9E2F0E940B752B011C0120E030E0F0
:102AE00040E85FE30E943177181634F4412C512CF2
:102AF00060E8262E7FE3372E8091A00B9091A10BEA
:102B0000A091A20BB091A30B6A968CAF9DAFAEAF14
:102B1000BFAF6A97A0904A05B0904B05C0904C0596
:102B2000D0904D05A296ACAEBDAECEAEDFAEA297B4
:102B30003F922F925F924F926A96ACACBDACCEACF6
:102B4000DFAC6A976296ECACFDAC0EAD1FAD629740
:102B50002A962CAD3DAD4EAD5FAD2A97A2966CADD9
:102B60007DAD8EAD9FADA2970E94AA390F900F90B8
:102B70000F900F906EA37AA78EA79AABC090A40B6C
:102B8000D090A50BE090A60BF090A70BA696CCAE2C
:102B9000DDAEEEAEFFAEA69720914E0530914F050B
:102BA0004091500550915105AA962CAF3DAF4EAFC4
:102BB0005FAFAA973F922F925F924F92A696ACACCE
:102BC000BDACCEACDFACA6976696ECACFDAC0EAD62
:102BD0001FAD66972E962CAD3DAD4EAD5FAD2E97D9
:102BE000AA966CAD7DAD8EAD9FADAA970E94AA3915
:102BF0000F900F900F900F906EAB7AAF8EAF239621
:102C00009FAF239789819A81AB81BC81AE968CAFAF
:102C10009DAFAEAFBFAFAE97AD80BE80CF80D88442
:102C2000E296ACAEBDAECEAEDFAEE2976B961FAE17
:102C30006B977E896A8D9AA18E8D272F362F492F0B
:102C4000582F642D752D822D932D0E940A752FE625
:102C500032E143E05BE30E94F47087FF06C06B96AD
:102C6000BFAC6B97B110CEC1B4C1242D352D422D10
:102C7000532DBE89AA8DFAA1EE8D6B2F7A2F8F2F3F
:102C80009E2F0E940B7520E030E040E05FE30E9441
:102C900059713B014C019F928F937F926F936A967B
:102CA000ACACBDACCEACDFAC6A976296ECACFDAC24
:102CB0000EAD1FAD62972A962CAD3DAD4EAD5FAD0A
:102CC0002A97A2966CAD7DAD8EAD9FADA2970E9466
:102CD000AA390F900F900F900F90E3966FAFE39784
:102CE000E4967FAFE497E5968FAFE597EA969FAFBE
:102CF000EA979F928F927F926F92A696ACACBDACF2
:102D0000CEACDFACA6976696ECACFDAC0EAD1FADBD
:102D100066972E962CAD3DAD4EAD5FAD2E97AA9623
:102D20006CAD7DAD8EAD9FADAA970E94AA390F9074
:102D30000F900F900F905B018C012EA13AA54EA52C
:102D40005AA9AE966CAD7DAD8EAD9FADAE970E948B
:102D50000B7520E030E040E05FE30E9459719B0179
:102D6000AC01E3966FADE397E4967FADE497E5960B
:102D70008FADE597EA969FADEA970E940A756B01C1
:102D80007C01E894F7F82EA93AAD4EAD23965FADDD
:102D90002397E2966CAD7DAD8EAD9FADE2970E941C
:102DA0000B7520E030E040E05FE30E9459719B0129
:102DB000AC01B501C8010E940A759B01AC015F77A7
:102DC000C701B6010E940B752DEC3CEC4CEC5DE3A9
:102DD0000E94F47018160CF042CFAEAABAAE0EAF35
:102DE00023961FAF2397E396CFACE397CEA2E4964A
:102DF000DFACE497DAA6E596EFACE597EEA6EA96A7
:102E0000FFACEA97FAAA2301140121E06B962FAFD9
:102E10006B970FCFA7019601C701B6010E940B75F2
:102E20009B01AC01BE89AA8DFAA1EE8D6B2F7A2F82
:102E30008F2F9E2F0E940B75962E872E782E692E2F
:102E400020E030E040E85FE3D401F3016B2F7A2FFC
:102E50008F2F9E2F0E94317787FFD4C06F927F9271
:102E60008F929F926A96ACACBDACCEACDFAC6A9749
:102E70006296ECACFDAC0EAD1FAD62972A962CAD00
:102E80003DAD4EAD5FAD2A97A2966CAD7DAD8EADDA
:102E90009FADA2970E94AA390F900F900F900F90AC
:102EA0006B966FAF6B97E3967FAFE397E4968FAF28
:102EB000E497E5969FAFE5976F927F928F929F92EE
:102EC000A696ACACBDACCEACDFACA6976696ECAC2F
:102ED000FDAC0EAD1FAD66972E962CAD3DAD4EAD43
:102EE0005FAD2E97AA966CAD7DAD8EAD9FADAA97C6
:102EF0000E94AA390F900F900F900F905B018C01E8
:102F00006B962FAD6B97E3963FADE397E4964FAD8D
:102F1000E497E5965FADE597AE966CAD7DAD8EAD71
:102F20009FADAE970E940B7520E030E040E05FE37C
:102F30000E9459719B01AC016EA17AA58EA59AA938
:102F40000E940A756B017C01E894F7F89501A801CD
:102F5000E2966CAD7DAD8EAD9FADE2970E940B7594
:102F600020E030E040E05FE30E9459719B01AC013A
:102F70006EA97AAD8EAD23969FAD23970E940A75F8
:102F80009B01AC015F77C701B6010E940B752DEC68
:102F90003CEC4CEC5DE30E94317718169CF1AEAA34
:102FA000BAAE0EAF23961FAF23976B963FAD6B97CC
:102FB0003EA3E3964FADE3974AA7E4965FADE4974F
:102FC0005EA7E5968FADE5978AAB492C582C272C48
:102FD000362C7E896A8D9AA18E8D272F362F492F08
:102FE000582F642D752D822D932D0E940A756B012B
:102FF0007C012DEC3CEC4CEC5DE30E943177181623
:103000000CF008CF7E896A8D9AA18E8D272F362FDE
:10301000492F582F642D752D822D932D0E940A75EE
:103020004B015C018EA19AA5AEA5BAA989839A83AA
:10303000AB83BC838EA99AADAEAD2396BFAD23976B
:103040008D839E83AF83B887242D352D422D532D3C
:1030500060E070E080E89FE30E940A756B017C01EC
:1030600020915205309153054091540550915505DA
:103070000E9459716E8B7F8B888F998F2091A80B3E
:103080003091A90B4091AA0B5091AB0B642D752D7B
:10309000822D932D0E9459719B01AC016E897F890D
:1030A000888D998D0E940B7569877A878B879C879D
:1030B000209156053091570540915805509159057A
:1030C000C701B6010E9459716B017C012091AC0BC4
:1030D0003091AD0B4091AE0B5091AF0B642D752D1F
:1030E000822D932D0E9459719B01AC01C701B6013D
:1030F0000E940B756D877E878F87988BCE01019616
:103100000E94DC66EB96CFACEB97EF96ECACFDAC97
:103110000EAD1FADEF979E01235F3F4FAE01475F9E
:103120005F4FBE016B5F7F4FCE0101960E949B55A2
:1031300020E030E040E85FE3642D752D822D932D73
:103140000E94F47087FF05C04E8A5A8E2AA23E8ED6
:1031500097CC0E94982B0C9408280E94194C409000
:1031600000025090010260900202709003024092AF
:10317000B5045092B6046092B7047092B80480917E
:103180000402909105029093B4048093B30484E602
:1031900090E090930502809304020E94392E81E012
:1031A00080933A0588E50E948F2D282E89E50E949C
:1031B0008F2D082F8AE50E948F2D382E211005C0F3
:1031C000011105C011E0182705C0011102C010E06F
:1031D00001C0182F80E1EAE4F5E0A0EABBE001902D
:1031E0000D928A95E1F7111105C0211003C000234B
:1031F00009F4A0C020E030E040EA50E460918D0B7B
:1032000070918E0B80918F0B9091900B0E940B759B
:103210006B017C016093A80B7093A90B8093AA0BA0
:103220009093AB0B8090520590905305A09054055D
:10323000B0905505A50194010E94317718160CF045
:1032400066C0A7019601C501B4010E94F47087FF12
:1032500018C0E7EBF8E185919591A591B491809321
:10326000000290930102A0930202B0930302C09265
:103270005205D0925305E0925405F09255050E94F4
:10328000BB2B85E595E5A5E0B3E480930002909320
:103290000102A0930202B09303020E94BB2BC090D4
:1032A000A80BD090A90BE090AA0BF090AB0BA70154
:1032B000960160915205709153058091540590914B
:1032C00055050E9431771816C4F4E7EBF8E18591B3
:1032D0009591A591B4918093000290930102A093DF
:1032E0000202B0930302C0925205D0925305E092BD
:1032F0005405F09255050E94BB2B0E94194C409238
:1033000000025092010260920202709203021111B7
:1033100005C0211003C0011107C00CC080E090E07F
:103320000E94A8621123B9F381E090E00E94A86294
:10333000111102C0332021F082E090E00E94A862C7
:103340000E94322C8091AD0A80933A058091B50499
:103350009091B604A091B704B091B8048093000294
:1033600090930102A0930202B09303028091B304F0
:103370009091B40490930502809304020E94392E28
:103380000E9454310C940828109232030C9408289F
:1033900081E0809332030C94082885E40E94BE2DBE
:1033A000B82E811102C00E94194C33E5832E32E001
:1033B000932E4AE4C42E45E0D42E51E9E52E5BE07D
:1033C000F52E00E010E0A12CD4018D914D010E945A
:1033D000BE2D882309F44EC0F6012081318142813F
:1033E0005381CF57DF4F2883C158D040CE57DF4F8E
:1033F0003883C258D040C158DF4F4883CF57D040A0
:10340000C058DF4F5883C058D0400E945C2DD60171
:103410006D937D938D939C931397CF57DF4F2881A6
:10342000C158D040CE57DF4F3881C258D040C15824
:10343000DF4F4881CF57D040C058DF4F5881C05828
:10344000D04003301105B1F00E940A759B01AC0118
:10345000F70160817181828193810E940B75D70190
:103460006D937D938D939C931397C8010E94DA2BE3
:10347000AA24A3940F5F1F4FB4E0CB0ED11CE4E04D
:10348000EE0EF11C0430110509F09ECFAA2019F0B0
:103490000E94322C37C0BB20A9F1C0905605D090B5
:1034A0005705E0905805F09059052091AD053091F1
:1034B000AE054091AF055091B005C701B6010E941D
:1034C00059710E943C776093D80B7093D90B80930D
:1034D000DA0B9093DB0BC701B6010E944F762FB732
:1034E000F8946093C50A7093C60A8093C70A9093B4
:1034F000C80A2FBF1092C80B1092C90B1092CA0BAA
:103500001092CB0B0E9454310C9408288091BB047C
:103510009091BC048737910509F4C5C50CF086C0AD
:103520008C35910509F468C40CF047C08C349105C2
:1035300009F43FC2DCF48F31910509F429C14CF440
:103540008131910509F416C1429709F403C40C9422
:1035500008288A32910509F4EDC18B34910511F0E8
:103560000C9408280E947B680C94082882359105E9
:1035700009F4E7C3B4F48D34910509F434C28135FC
:10358000910511F00C9408280E946E490E94194C74
:103590000E94D5631092690B1092680B00E010E056
:1035A000B9C38435910509F4D5C30CF4CEC3853570
:1035B000910509F406C40C9408288E36910509F487
:1035C00045C2B4F48A36910509F473C354F48836BD
:1035D000910509F40CC28936910509F406C30C94CF
:1035E00008288C36910509F4B5C20CF481C345C393
:1035F0008137910509F4B6C26CF48F36910509F450
:1036000038C28037910511F00C94082886E992E0C1
:103610000E94E7638337910509F47DC40CF475C4F7
:103620008637910509F408C50C940828823E910557
:1036300011F40C945C230CF046C08B3C910509F40A
:1036400026C614F58C38910509F4B8C27CF4883785
:10365000910509F4ACC58937910511F00C9408283F
:1036600010923A051092AD0A0C940828883C9105F6
:1036700009F4A3C5893C910509F4E7C58B39910587
:1036800011F00C940828CEC28E3C910509F4F2C6C4
:1036900054F48C3C910509F418C68D3C910509F44D
:1036A0007EC60C9408288C3D910509F4DFC78D3D3A
:1036B000910509F4E8C7833D910511F00C940828A1
:1036C000EEEEFAE03DC78C3AF1E09F0711F40C945E
:1036D000D42644F58F3231E0930711F40C9477240B
:1036E0006CF48D3251E0950711F40C9485238E32E1
:1036F000914011F40C9423240C9408288039B1E0F3
:103700009B0711F40C94D1268A39E1E09E0709F455
:1037100025C28336914011F00C940828E5EEF9E0BB
:103720000C949427863F21E0920711F40C9485278E
:103730007CF4843F41E0940711F40C948227853F88
:10374000914011F00C9408280E945D4C0C940828BC
:103750008A39A2E09A0709F4D4C6873EB3E09B07F2
:1037600011F40C94A927873F914011F00C9408287C
:103770000C9488275F988A989FB7F89480910801E5
:103780008E7F809308019FBF479812980C94082859
:103790008091DE0B9091DF0B019719F40E94D746C0
:1037A00008C06091E80B7091E90B8091EA0B909151
:1037B000EB0B0091E40B1091E50B2091E60B30919F
:1037C000E70B601B710B820B930B28EE33E040E09C
:1037D00050E00E94CF748091E00B9091E10BA0919A
:1037E000E20BB091E30BBC01CD01620F731F841F8C
:1037F000951F2CE3C22ED12CE12CF12CA7019601B0
:103800000E94CF74762E672ECA01B901A7019601D6
:103810000E94CF746B017C01CA01B90128E130E03C
:1038200040E050E00E94CF744B015C01C9016DE69D
:1038300071E00E94CF778E010F5F1F4F61157105F8
:1038400099F06F927F92DF92CF929F928F929F9387
:103850008F937F936F9381E592E09F938F931F9354
:103860000F930E94C57026C0009789F06F927F92D7
:10387000DF92CF929F928F929F938F9381E492E0F9
:103880009F938F931F930F930E94C57013C0811451
:103890009104A104B104B1F06F927F92DF92CF92B4
:1038A0009F928F9285E392E09F938F931F930F9344
:1038B0000E94C5700FB6F894DEBF0FBECDBFEEEE0E
:1038C000FAE023C0C114D104E104F10469F06F925D
:1038D0007F92DF92CF928DE292E09F938F931F931E
:1038E0000F930E94C570E6CF6F927F9289E292E0BB
:1038F0009F938F931F930F930E94C5700F900F900B
:103900000F900F900F900F90DACF84917F01BFEF4F
:10391000EB1AFB0A882321F00E94442EF701F5CF11
:10392000B80185E692E00E9482398AE00E94442E26
:103930000C94082883E50E94BE2D882311F40C9472
:1039400008280E943C2DE82E80E50E94BE2D882389
:1039500039F00E942C2D8B0177FF04C00C940828AD
:103960000DE010E0902FE8E6F5E08BE28E0F249159
:10397000921729F031968E13FACF0C941928E5EEA0
:10398000F9E084918F010F5F1F4F882321F00E947F
:10399000442EF801F6CFE2E7F2E084918F010F5F49
:1039A0001F4F882311F40C9408280E94442EF8011C
:1039B000F4CF8091DE0B9091DF0B019711F00C9406
:1039C000082882E090E09093DF0B8093DE0B0E944A
:1039D000D7466093E80B7093E90B8093EA0B9093C2
:1039E000EB0B0C9408280E949E670C94082888E62C
:1039F00090E00E94B12E81110C94082880916E0BEA
:103A000083FF02C00C94082883E50E94BE2D882302
:103A1000C9F00E945C2D0E944F767093DA0A609381
:103A2000D90A80E00E9424490E945C2D20E030E009
:103A30004AEA52E40E94F470181614F00E949E673D
:103A40000E945C2D0E94813A0C9408288EE40E940A
:103A5000BE2D882311F40C9408280E942C2D60930D
:103A6000760C7093770C8093780C9093790C0C946F
:103A7000082883E50E948F2D882359F083E50E9452
:103A8000BE2D882319F00E943C2D01C080E0809358
:103A90006E0BEEEEFAE084918F010F5F1F4F8823CB
:103AA00021F00E94442EF801F6CFEFE8F2E0849175
:103AB0008F010F5F1F4F882321F00E94442EF801D1
:103AC000F6CF80916E0B8823A1F101E8C02E02E0B1
:103AD000D02EE12CF12C20E080916E0B90E00E2C8A
:103AE00002C0959587950A94E2F780FF17C0BB2422
:103AF000B394B20E222319F08CE20E94442EF601F8
:103B000025913491F901849189010F5F1F4F88231A
:103B100021F00E94442E9801F5CF2B2DFFEFEF1AD4
:103B2000FF0A32E0C30ED11C45E0E416F104A1F611
:103B30000CC0EBE8F2E084918F010F5F1F4F8823E8
:103B400021F00E94442EF801F6CF8AE00E94442E14
:103B50000C940828109206020C9408280E943C2C11
:103B60000C94082883E50E94BE2D882369F00E94EA
:103B70003C2D80934E028D3310F40C9408288CE376
:103B800080934E020C940828EEEEFAE084918F01A7
:103B90000F5F1F4F882321F00E94442EF801F6CFBB
:103BA00040914E0250E060E070E08FE992E00E94A8
:103BB00012398AE00E94442E0C94082880916E0BE2
:103BC00083FF02C00C94082883E50E94BE2D882341
:103BD00011F40C9408280E945C2D0E944F7670937B
:103BE000D60A6093D50A0C94082889E690E00E94D2
:103BF000B12E811111C0E6EAF2E084918F010F5FCE
:103C00001F4F882321F00E94442EF801F6CF0E9416
:103C100004328AE00E94442E1092750B1092740BAD
:103C20000C942F2B83E50E94BE2D882311F40C9455
:103C300008280E943C2D80937A0B8D3318F08CE37A
:103C400080937A0B0E94D7466B017C0120917A0BFE
:103C500030E0A8EEB3E00E94FB74DC01CB018C0DD8
:103C60009D1DAE1DBF1D8093760B9093770BA09387
:103C7000780BB093790B0C9408288DE690E00E94A5
:103C8000B12E81110C94082880916E0B83FF02C025
:103C90000C94082883E50E94BE2D8AA381110C9400
:103CA0002E2882E50E94BE2D81110C942E280C94A2
:103CB000082883E50E94BE2D882339F00E942C2D10
:103CC0008B016F3F710519F010F00FEF10E080E5E8
:103CD0000E94BE2D811106C01093690B0093680BE2
:103CE0000C9408280E943C2D81110C940828F4CFD4
:103CF00080E50E94BE2D811106C01092690B1092C2
:103D0000680B0C9408280E942C2D672B11F00C9442
:103D10000828F3CF62E370E080E090E00E949F46C5
:103D20000E94394B0F5F1F4F0331110599F762E372
:103D300070E080E090E00E949F460E94394B0C9416
:103D40000828109231030C94082881E080933103F5
:103D50000C94082883E50E94BE2D8823A1F00E94C0
:103D60005C2D20E030E04AE754E40E9459710E9443
:103D7000547660934F027093500280935102909357
:103D800052020C94082888E50E948F2D81110C9412
:103D90005B2989E50E948F2D81110C945B298AE5AE
:103DA0000E948F2D81110C945B2985E40E948F2D38
:103DB00081110C945B290E94194C0E94D5630C94CC
:103DC000082883E50E948F2D882311F40C9408287D
:103DD0000E945C2D20E030E04AE754E40E945971D3
:103DE0000E9454766093810B7093820B8093830BB7
:103DF0009093840B0C940828F3E5CF2EF2E0DF2E8D
:103E0000A1EAEA2EA5E0FA2E10E0D6018D916D010F
:103E10000E948F2D882309F46DC0133009F063C010
:103E20000E945C2D4B015C0120E030E040EA51E44F
:103E30000E94F47087FF4EC0A50194016091AD050A
:103E40007091AE058091AF059091B0050E94E77525
:103E50002B013C019B01AC0160913C0B70913D0B2F
:103E600080913E0B90913F0B0E94597160933C0BE7
:103E700070933D0B80933E0B90933F0BA3019201F7
:103E80006091580B7091590B80915A0B90915B0B7C
:103E90000E9459716093580B7093590B80935A0B81
:103EA00090935B0B60918D0570918E0580918F05CD
:103EB000909190050E94F870A30192010E9459719F
:103EC0000E94547660938D0570938E0580938F05C4
:103ED000909390058092AD059092AE05A092AF05AB
:103EE000B092B00507C00E945C2DF701608371831A
:103EF000828393831F5FF4E0EF0EF11C143009F00E
:103F000084CF0E94DE3B0C9408280E94194C0E942A
:103F100054310C940828E8E8F3E084918F010F5F96
:103F20001F4F882321F00E94442EF801F6CFEAE7C4
:103F3000F3E084918F010F5F1F4F882321F00E94CF
:103F4000442EF801F6CFE3E6F3E084918F010F5F92
:103F50001F4F882321F00E94442EF801F6CFE3E59D
:103F6000F3E084918F010F5F1F4F882321F00E949F
:103F7000442EF801F6CFE2E4F3E084918F010F5F65
:103F80001F4F882321F00E94442EF801F6CFE1E371
:103F9000F3E084918F010F5F1F4F882321F00E946F
:103FA000442EF801F6CFE2E2F3E084918F010F5F37
:103FB0001F4F882321F00E94442EF801F6CFEDE038
:103FC000F3E084918F010F5F1F4F882321F00E943F
:103FD000442EF801F6CFE7EFF2E084918F010F5FF6
:103FE0001F4F882321F00E94442EF801F6CFE2EE05
:103FF000F2E084918F010F5F1F4F882321F00E9410
:10400000442EF801F6CFE5ECF2E084918F010F5FCA
:104010001F4F882321F00E94442EF801F6CFEDEACD
:10402000F2E084918F010F5F1F4F882309F4F0C7DE
:104030000E94442EF801F5CF85E40E948F2D88233D
:1040400081F00E944D2D882361F0EEEEFAE084911C
:104050008F010F5F1F4F882321F00E94442EF8012B
:10406000F6CF81E40E948F2D882381F00E944D2D90
:10407000882361F0EDE4F4E084918F010F5F1F4F1E
:10408000882321F00E94442EF801F6CF0091B90454
:104090001091BA04D8018D918D01882309F455CD72
:1040A0000E94442EF7CFE2E7F4E084918F010F5F86
:1040B0001F4F882321F00E94442EF801F6CFEAE634
:1040C000F4E084918F010F5F1F4F882321F00E943D
:1040D000442EF801F6CF659903C00BE812E002C048
:1040E00000E912E0F80181918F01882319F00E9404
:1040F000442EF8CF8AE00E94442EE2E6F4E0849158
:104100008F010F5F1F4F882321F00E94442EF8017A
:10411000F6CF8091030181FD03C00BE812E002C0DD
:1041200000E912E0D8018D918D01882319F00E94D9
:10413000442EF8CF8AE00E94442EEAE5F4E0849110
:104140008F010F5F1F4F882321F00E94442EF8013A
:10415000F6CF4B9903C00BE812E002C000E912E071
:10416000F80181918F01882319F00E94442EF8CF25
:104170008AE00E94442EE1E5F4E084918F010F5F14
:104180001F4F882321F00E94442EF801F6CF4A9950
:1041900003C00BE812E002C000E912E0D8018D91E3
:1041A0008D01882309F4D1CC0E94442EF7CF81E001
:1041B00080933A058093AD0A2BC788EC90E00E946B
:1041C000B12E811125C784E40E948F2D8823D1F15F
:1041D0000E945C2D11E020E030E0A9010E94F47003
:1041E000811101C010E01093B60A112359F100911A
:1041F0002C0310E00E945C2D000F111F000F111FF7
:10420000F801EE54F54F608371838283938320E03D
:1042100030E0A9016091B20A7091B30A8091B40AAA
:104220009091B50A0E94F47081110CC080E090E07A
:10423000A0EEBFE38093B20A9093B30AA093B40AAE
:10424000B093B50A0E948666E3C661E9E62E65E092
:10425000F62E03E512E074E0D72ED00EF80181911E
:104260008F010E948F2D882351F00E945C2D0E94A7
:104270005476D7016D937D938D939C931397B4E0FF
:10428000EB0EF11CD012EACF0E94B13AC1C64CE449
:10429000E42E4BE0F42E03E512E054E0D52ED00ED0
:1042A000F80181918F010E948F2D882341F00E9497
:1042B0005C2DD7016D937D938D939C931397B4E000
:1042C000EB0EF11CD012ECCFA3C683E50E948F2D1C
:1042D0008823D9F00E945C2DAB01BC014093440BB4
:1042E0005093450B6093460B7093470B4093400BE4
:1042F0005093410B6093420B7093430B86EE94E016
:104300000E944C398AE00E94442E80E50E948F2D45
:10431000882399F00E945C2DAB01BC014093440BB3
:104320005093450B6093460B7093470B89EC94E0D8
:104330000E944C398AE00E94442E82E50E948F2D13
:10434000882399F00E945C2DAB01BC014093480B7F
:104350005093490B60934A0B70934B0B8AEA94E09D
:104360000E944C398AE00E94442E84E50E948F2DE1
:10437000882309F44DC60E945C2DAB01BC0140931B
:10438000400B5093410B6093420B7093430B8CE8AE
:1043900094E00E944C398AE00E94442E39C683E59D
:1043A0000E948F2D882351F00E945C2D6093640B36
:1043B0007093650B8093660B9093670B84E50E9466
:1043C0008F2D882351F00E945C2D6093600B7093B9
:1043D000610B8093620B9093630B82E40E948F2D9C
:1043E000882351F00E941C2D60935C0B70935D0B31
:1043F00080935E0B90935F0B88E50E948F2D88233E
:1044000051F00E945C2D6093300B7093310B8093C0
:10441000320B9093330B89E50E948F2D882351F046
:104420000E945C2D6093340B7093350B8093360B98
:104430009093370B8AE50E948F2D882351F00E94BC
:104440005C2D6093380B7093390B80933A0B9093EB
:104450003B0B85E40E948F2D882309F4D9C50E9467
:104460005C2D60933C0B70933D0B80933E0B9093BF
:104470003F0BCEC593E5A92E92E0B92E2AE4C22EB9
:1044800025E0D22E3EE3E32E35E0F32E00E010E0EF
:10449000F50181915F010E948F2D882311F10E9407
:1044A0005C2D2B013C01D7012D913D914D915C91EB
:1044B0000E940A759B01AC01F601608171818281C5
:1044C00093810E940B75D6016D937D938D939C9380
:1044D0001397F7014082518262827382C8010E9461
:1044E000DA2B0F5F1F4FF4E0CF0ED11C24E0E20E59
:1044F000F11C0330110561F60E94322C0E945431E8
:1045000087C58AE50E948F2D882351F00E945C2D7B
:104510006093AE0A7093AF0A8093B00A9093B10A89
:104520004091AE0A5091AF0A6091B00A7091B10A01
:104530008EE095E00E944C398AE00E94442E68C5C6
:1045400084918F010F5F1F4F882321F00E94442E1A
:10455000F801F6CF83E50E948F2D882321F00E9479
:104560004D2D80934D02E8E5F5E084918F010F5FBA
:104570001F4F882321F00E94442EF801F6CF80912E
:104580004D02811103C0E4E5F5E002C0E0E5F5E08D
:1045900084918F010F5F1F4F882321F00E94442ECA
:1045A000F801F6CFE8E4F5E084918F010F5F1F4F2B
:1045B000882321F00E94442EF801F6CF4091410259
:1045C00050914202609143027091440286E495E06A
:1045D0000E944C3940914502509146026091470239
:1045E0007091480283E495E00E944C394091490261
:1045F00050914A0260914B0270914C0280E495E028
:104600000E944C39E8E3F5E084918F010F5F1F4F62
:10461000882321F00E94442EF801F6CF4091350204
:1046200050913602609137027091380286E395E02E
:104630000E944C394091390250913A0260913B02FC
:1046400070913C0283E395E00E944C3940913D0219
:1046500050913E0260913F027091400280E395E0EC
:104660000E944C398AE00E94442ED2C483E50E9405
:10467000BE2D882309F4CCC40E942C2D7093050212
:1046800060930402C5C48DED90E00E94B12E8111AB
:10469000BFC483E50E94BE2D882309F4B9C40091EC
:1046A0002C0310E00E942C2D000F111FF801ED5C6F
:1046B000FD4F71836083ACC480E50E948F2D8823F9
:1046C00009F4A6C40E942C2DF62EC62ED72E83E503
:1046D0000E94BE2D882321F00E942C2D8B0102C048
:1046E0000FEF1FEFC8010196039708F091C4D7FCA4
:1046F0008FC4E8E6F5E08BE28E0F9491F91609F489
:1047000087C431968E13F9CF85C785E40E94BE2DEC
:10471000811110C080E50E948F2D882391F00E94A6
:104720005C2D6093CD0A7093CE0A8093CF0A90934C
:10473000D00A07C00E943C2D882361F3E5EEF9E022
:1047400071C089E40E948F2D882381F00E945C2D26
:104750002CEA35EC47E25EE30E9459716093C90A86
:104760007093CA0A8093CB0A9093CC0A84E40E9487
:104770008F2D882381F00E945C2D2CEA35EC47E2D6
:104780005EE30E94E7756093D10A7093D20A80932A
:10479000D30A9093D40AEEEEFAE084918F010F5F72
:1047A0001F4F882321F00E94442EF801F6CF40913C
:1047B000CD0A5091CE0A6091CF0A7091D00A8BE950
:1047C00095E00E944C392CEA35EC47E25EE36091BB
:1047D000C90A7091CA0A8091CB0A9091CC0A0E94B2
:1047E000E775AB01BC0187E995E00E942F392CEAFF
:1047F00035EC47E25EE36091D10A7091D20A809174
:10480000D30A9091D40A0E945971AB01BC0183E98B
:1048100095E00E942F398AE00E94442EF9C30E943D
:10482000442EF80184918F010F5F1F4F8111F7CF44
:104830000EE912E0D8018D918D01882309F485C914
:104840000E94442EF7CF83E50E948F2D182F8823D6
:1048500071F00E945C2D0E944F767093320260933B
:10486000310221E0672B09F020E020932F0B80E537
:104870000E948F2D882359F020913102309132020D
:10488000232B11F00E944D2D80932F0BC1C31111CA
:10489000BFC3EEEEFAE084918F010F5F1F4F8823B4
:1048A00021F00E94442EF801F6CF80912F0B811148
:1048B00003C06AE972E002C06DE872E084EB95E043
:1048C0000E948239609131027091320283EA95E050
:1048D0000E946939EFE9F5E084918F010F5F1F4F66
:1048E000882309F495C30E94442EF801F5CF85E48E
:1048F0000E94BE2D882321F00E942C2D8B0102C026
:1049000000E010E083E40E94BE2D882339F00E946D
:104910002C2DE0967FAF6EAFE09706C0E5E0F0E0AB
:10492000E096FFAFEEAFE09785E50E948F2D6F9682
:104930008FAF6F97882329F00E944D2D6F968FAF10
:104940006F9717FD07C0C12CD12CB6E1EB2EB3E455
:10495000FB2E06C0C12CD12CACE8EA2EA2E4FA2E24
:1049600083E50E94BE2D882321F00E945C2D6B01FF
:104970007C01C701B6010E944F760115110511F4A3
:1049800010922C03072E000C880B990B0E94FA70D2
:104990006E8F7EA38AA79EA70E94D7464B015C011B
:1049A000012B19F40FEA12E00BC002EC12E0D8015F
:1049B0008D918D01882309F4C8C80E94442EF7CF39
:1049C000F80181918F01882319F00E94442EF8CFBD
:1049D0008AE00E94442E0E946E498FE78093DD0A90
:1049E00081E080930602AA968CAE9DAEAEAEBFAEBD
:1049F000AA976E968CAE9DAEAEAEBFAE6E971AAA5B
:104A0000F0E4FEAB2CE12AAF36E43EAF23961FAEB6
:104A1000239727961FAE27972B961FAE2B972F967F
:104A20001FAE2F976A961CAE1DAE1EAE1FAE6A97C4
:104A300066961CAE1DAE1EAE1FAE6697C12CD12C65
:104A40007601FFE74F2E512C612C712C8FE790E0FF
:104A5000A0E0B0E08A8F9B8FAC8FBD8FAE961CAE6E
:104A60001DAE1EAE1FAEAE9791E0A3969FAFA3976B
:104A70001BA21AA2212C312C00E010E0809106022A
:104A8000882309F487C10E94D7466E8B7F8B888F5D
:104A9000998F8091DB0A882309F4A3C00E94824980
:104AA0002090DF0A3090E00A0091E10A1091E20ABA
:104AB0009101A80123966FAD239727967FAD279785
:104AC0002B968FAD2B972F969FAD2F970E94F4704A
:104AD00087FF0CC023962FAE239727963FAE2797CC
:104AE0002B960FAF2B972F961FAF2F979101A801F1
:104AF0006AA97EA98AAD9EAD0E943177181624F46A
:104B00002AAA3EAA0AAF1EAFA396AFADA3972E8DD9
:104B10003EA14AA55EA5B101C801AA2309F447C078
:104B20000E94317718160CF05CC04E895F89688D41
:104B3000798D481959096A097B09DB01CA0188582E
:104B40009341A109B109B7FD4CC08A8D9B8DAC8DF5
:104B5000BD8D84199509A609B709B595A7959795AF
:104B600087958093DD0AAE964CAF5DAF6EAF7FAF99
:104B7000AE97BE8D2396BFAF2397EEA12796EFAFDA
:104B80002797FAA52B96FFAF2B972EA52F962FAF21
:104B90002F978E899F89A88DB98DAA968CAF9DAFCE
:104BA000AEAFBFAFAA97A3961FAEA3971AC00E943D
:104BB000F47087FF16C08E899F89A88DB98DAA963B
:104BC0002CAD3DAD4EAD5FADAA97821B930BA40BF0
:104BD000B50BAC01BD01485853416109710977FF1C
:104BE00090C320E030E040EA51E46E8D7EA18AA5BA
:104BF0009EA50E940B759B01AC01B101C8010E94EA
:104C0000317718166CF4E1E8F6E084918F010F5FBC
:104C10001F4F882309F4FCC10E94442EF801F5CFF0
:104C200080E398EFAFEFBFEF6E962CAD3DAD4EAD8C
:104C30005FAD6E97821B930BA40BB50B2E893F893A
:104C4000488D598D820F931FA41FB51FB7FD0FC04C
:104C50000E9404328AE00E94442E8E899F89A88D8A
:104C6000B98D6E968CAF9DAFAEAFBFAF6E978E898C
:104C70009F89A88DB98D880F991FAA1FBB1FAA965F
:104C80002CAD3DAD4EAD5FADAA97821B930BA40B2F
:104C9000B50B88199909AA09BB0981389F44A2411B
:104CA000B10560F0E3E6F6E084918F010F5F1F4FDE
:104CB000882309F4ADC1E8D7F801F6CF4AA15BA17A
:104CC000E0968EAD9FADE097841795070CF0D6CE99
:104CD000E6E0F6E084918F010F5F1F4F882319F003
:104CE000D3D7F801F7CFB701A60181EF95E00E9475
:104CF0004C398AE0C9D766964CAD5DAD6EAD7FADDF
:104D000066978CED95E00E944C398AE0BDD76A9693
:104D10004CAD5DAD6EAD7FAD6A9787EC95E00E94BE
:104D20004C398AE0B1D76F96AFAC6F97AA2009F4DF
:104D30006FC1C092CD0AD092CE0AE092CF0AF09213
:104D4000D00A2CEA35EC47E25EE366966CAD7DADA9
:104D50008EAD9FAD66970E9459716093C90A70939A
:104D6000CA0A8093CB0A9093CC0A2CEA35EC47E22E
:104D70005EE36A966CAD7DAD8EAD9FAD6A970E9485
:104D8000E7756093D10A7093D20A8093D30A909307
:104D9000D40A3EC18091060281113AC10E946E4937
:104DA00037C10E94194C34C18EE3C82E85E0D82E3D
:104DB0009AE4E92E95E0F92E2DE9222E2BE0322EF1
:104DC00000E010E091012D593B403F8B2E8BD1012B
:104DD0008D911D01882309F488C0F701408051801E
:104DE00062807380F801EB5CFD4F2081318142814C
:104DF0005381F801EF5BFD4F608171818281938166
:104E00000E940B7520E030E040E05FE30E945971A2
:104E10009B01AC01C301B2010E943177181644F422
:104E2000F801ED55F74E85909590A590B49003C08C
:104E3000812C912C5401F801EB57F44F20813181E2
:104E400042815381C301B2010E940A759B01AC01EA
:104E5000C501B4010E940A754B015C0120E030E0FD
:104E600040EA51EC0E94317787FD28C020E030E015
:104E700040EA51E4C501B4010E94F4701816F4F040
:104E8000D6012D913D914D915C91C501B4010E94D7
:104E90000A759B01AC01C301B2010E940B75F701B9
:104EA0006083718382839383D6018D929D92AD92AC
:104EB000BC9213978E899F897DD417C0E5EEF9E0E7
:104EC00084918F010F5F1F4F882319F0DDD6F80101
:104ED000F7CFE5EFF6E084918F010F5F1F4F882336
:104EE00009F496C0D1D6F801F6CFB4E0CB0ED11CB0
:104EF0000C5F1F4FE4E0EE0EF11C0C30110509F0C1
:104F000061CFFACA0E94F55083C00E94954280C0CA
:104F100083E505D6882311F0C0D501C081E091E07A
:104F200089270E94643F74C084918F010F5F1F4FD7
:104F3000882319F0A9D6F801F7CFE3E1F7E08491CF
:104F40008F010F5F1F4F882309F462C09DD6F801BF
:104F5000F6CF81E080932C0283E5E1D5811103C077
:104F60000E94FE6855C099D5811152C0F9CFF090CA
:104F7000BB04FF2001F1EEEEFAE084918F010F5F98
:104F80001F4F882319F080D6F801F7CF84E57CD62F
:104F90006F2D70E080E090E04AE07DD680E274D62C
:104FA0000EE912E0D8018D918D01882311F40C9443
:104FB000A51D6AD6F7CF10922D03EEEEFAE084918C
:104FC0008F010F5F1F4F882319F05ED6F801F7CFCE
:104FD00060E070E082E297E00E9469398AE054D68E
:104FE00017C0EEEEFAE084918F010F5F1F4F882308
:104FF00019F04AD6F801F7CF60917B0B70917C0BCA
:1050000084E397E00E94823982E23ED68AE03CD671
:105010001092750B1092740B0E94736720C3411598
:10502000510519F4AF0141505109812C912C0C9478
:10503000D50D61E0802F0E949C456E2D802F0E942F
:105040006D45F12CB701802F0E94D845093011051C
:10505000F9F6F092690BE092680BDACF2DD50E9439
:105060004F767093DA0A6093D90A80E00E9424494F
:1050700023D520E030E04AEA52E40E94F47018168A
:105080001CF00E949E6702C00E947B680E94813AC9
:1050900081E0809306021A8E1B8E1C8E1D8E1E8E42
:1050A0001F8E18A219A21E8A1EA25CE35AA78CE1C9
:1050B0008EA796E49AABC12CD12CB0E8EB2E1FEB57
:1050C000F12E812C912C54016091D90A7091DA0A49
:1050D000072E000C880B990B0E94FA70162F072FD1
:1050E000782E692E262F372F482F592FB601C7014A
:1050F0000E94F4708823D1F02091DF0A3091E00AF9
:105100004091E10A5091E20A612F702F872D962D70
:105110000E94F470881F8827881F8E8BCAA0CC201D
:1051200049F0882339F08091060272CF1C2D0D2D95
:105130007E2C6F2C0E94D7466B017C01DC01CB01D9
:105140002E8D3F8D48A159A1821B930BA40BB50B4B
:10515000B7FD37C0D701C60188519C4FAF4FBF4F35
:105160008E8F9F8FA8A3B9A30E940432E9EAF2E0D0
:1051700084912F019FEF491A590A882319F084D589
:10518000F201F6CF81149104A104B104B1F0D5016C
:10519000C401805F984DAF4FBF4FBC01CD016C196A
:1051A0007D098E099F0928EE33E040E050E00E941F
:1051B000CF74CA01B90111D602C08FE365D58AE068
:1051C00063D50E94176455D52090DF0A3090E00A1D
:1051D0004090E10A5090E20A9101A201612F702FE4
:1051E000872D962D0E940A759F7781149104A10442
:1051F000B10449F420E030E040E85FE30E94F4703D
:1052000087FF0BC008C020E030E040E450E40E947B
:105210003177181614F446015701AE89AA2379F1A3
:105220002A8D3B8D4C8D5D8D211531054105510534
:1052300041F0D701C601821B930BA40BB50BB7FD40
:105240001EC09101A2016EA17AA58EA59AA90E9405
:105250000A7520E030E040EC5FE30E94F47087FDC7
:1052600062CFD701C601805A9541AF4FBF4F8A8F99
:105270009B8FAC8FBD8F2EA23AA64EA65AAA8091C4
:105280000602882309F44FCF81149104A104B104CC
:1052900029F4C12ED02EE72CF62C16CF90E1C91A96
:1052A00097E2D90AE108F108C818D908EA08FB080A
:1052B000F7FE39CFEECF0E94194C88E530D4882311
:1052C00019F05F9A10923B0589E529D4882319F0DB
:1052D0008A9A10923C058AE522D4882359F09FB718
:1052E000F894809108018160809308019FBF479ADC
:1052F00010923D0585E413D4882309F489CE129ACF
:1053000087CEAAA0BBA01A141B040CF05FC1AE96F6
:105310008CAC9DACAEACBFACAE97880E991EAA1EED
:10532000BB1EAE962CAD3DAD4EAD5FADAE97281B0E
:10533000390B4A0B5B0BCA01B901A30192010E9410
:10534000C074A50194010E94F6774A8C5B8C6C8C2A
:105350007D8C420E531E641E751E34E143165104AB
:10536000610471040CF14CEE4416510461047104A3
:105370003CF450E845165104610471041CF105C069
:105380006BEE462E512C612C712C4A8E5B8E6C8EEE
:105390007D8E8EEF90E0A0E0B0E084199509A6091B
:1053A000B7092C013D0112C024E130E040E050E09B
:1053B0002A8F3B8F4C8F5D8F54E1452E512C612CF1
:1053C000712C04C04A8E5B8E6C8E7D8EEDEEF6E005
:1053D00084919F012F5F3F4F8823B9F0CF57DF4F54
:1053E0002883C158D040CE57DF4F3883C258D040B1
:1053F0004BD4CF57DF4F2881C158D040CE57DF4F15
:105400003881C258D040F901E3CF6A8D7B8D8C8DF5
:105410009D8DE3D4E8EEF6E084919F012F5F3F4F2E
:105420008823B9F0CF57DF4F2883C158D040CE57DB
:10543000DF4F3883C258D04027D4CF57DF4F288161
:10544000C158D040CE57DF4F3881C258D040F90103
:10545000E3CFC301B201C1D44AA95EA96AAD7EAD52
:1054600081EE96E00E944C3923964FAD2397279604
:105470005FAD27972B966FAD2B972F967FAD2F970C
:105480008AED96E00E944C394AA15BA14330510558
:105490000CF49CC0C301B2010E94FA7020E030E01D
:1054A00040E850E40E9459716B017C012AA93EA991
:1054B0004AAD5EAD23966FAD239727967FAD2797B4
:1054C0002B968FAD2B972F969FAD2F970E940A7525
:1054D0002BED3FE049E450E40E94597120E030E0B8
:1054E00040E05FE30E9459719B01AC01C701B60126
:1054F0000E94E7756B017C01C501B4010E94FA703E
:105500002FE632E143E85AE30E9459714B015C01F6
:10551000B701A60184ED96E00E944C39B501A401C3
:105520008EEC96E00E944C392AE939E949E15FE3C3
:10553000C701B6010E9459716B017C019B01AC014E
:105540000E940B75A50194010E94E77566966CAFE9
:105550007DAF8EAF9FAF6697A5019401C701B601DD
:105560000E94597120E030E040E05EE30E945971F2
:105570006A966CAF7DAF8EAF9FAF6A97EEEBF6E0A9
:1055800084915F015FEFA51AB50A882319F07CD3D7
:10559000F501F6CFB701A60188EB96E00E944C39E1
:1055A00066964CAD5DAD6EAD7FAD669782EB96E0D5
:1055B0000E944C396A964CAD5DAD6EAD7FAD6A9779
:1055C0008CEA96E00E944C398AE05ED38A8D9B8DEE
:1055D000AC8DBD8D840D951DA61DB71DB595A795E8
:1055E000979587958093DD0A8AA19BA101969BA33D
:1055F0008AA3AE8CAAAABEA0BEAAAAA4AAAEBEA422
:10560000BEAE8E889F88A88CB98C21E0A3962FAF60
:10561000A397E7CA0E94194C60E08F2D0E949C4519
:105620000F3FBFEF1B0751F48F2D62D731E020E011
:10563000892B09F030E0032F122F05C0013011052E
:1056400059F000E010E08F2D53D78017910709F42F
:10565000DFCC0E941764F7CF01E010E0F4CFCE5703
:10566000DF4F0FB6F894DEBF0FBECDBFDF91CF91F5
:105670001F910F91FF90EF90DF90CF90BF90AF9070
:105680009F908F907F906F905F904F903F902F9062
:10569000089582E08093D80A08958FB7F894909186
:1056A000750C2091740C291759F0E92FF0E0EC509B
:1056B000F44F208130E09F5F9F779093750C02C07C
:1056C0002FEF3FEF8FBFC9010895FF920F931F93F4
:1056D000CF93DF93FC0120812B3319F1D0917C050E
:1056E000D430F8F4F62EBC01C091C0040C2F10E0A9
:1056F000F0E6CF9FC00111248D5C9C4F0E942E7854
:10570000F801E65AFA4FF082CF5FC43018F4C09324
:10571000C00402C01092C004DF5FD0937C0581E01A
:1057200001C080E0DF91CF911F910F91FF9008950C
:1057300080E1E0EAFBE0AAE4B5E001900D928A95F1
:10574000E1F70895CF92EF92FF920F931F93C090CD
:105750002D037B018C012CEA3BE048EA5BE064EA24
:105760007BE080EA9BE00E949B551F910F91FF9088
:10577000EF90CF900895CF92EF92FF920F931F93E7
:10578000E0900002F09001020091020210910302E9
:10579000C0902D0326E535E042E555E06EE475E066
:1057A0008AE495E00E949B551F910F91FF90EF9026
:1057B000CF900895CF92DF92EF92FF920F931F93B5
:1057C000CF93DF93EC01CC0FDD1FCC0FDD1FFE016B
:1057D000E25CFA4F20E030E0A901608171818281B2
:1057E00093810E940B75FE01EF56F44F20813181A9
:1057F000428153810E940B756B017C01FE01EB57C6
:10580000F44F6083718382839383FE01EE56F74FDA
:1058100065917591859194918E010F5B1D4FA70144
:1058200096010E940B75F8016083718382839383D4
:10583000FE01E256F74F6591759185919491CB5C8D
:10584000DD4FA70196010E940B75688379838A83D7
:105850009B83DF91CF911F910F91FF90EF90DF908D
:10586000CF90089526E535E042E555E06EE475E019
:105870008AE495E00C941B3B88E893E190938E0AB0
:1058800080938D0A80916F008D7F80936F0090913F
:10589000DC0B8091DD0B981711F08FD6F8CF1092AA
:1058A0008C0A10928B0A80916F00826080936F0047
:1058B0000E94194C80E090E00E94FB4B60932A0507
:1058C00070932B0580932C0590932D0581E090E03B
:1058D0000E94FB4B60932E0570932F05809330053B
:1058E0009093310582E090E00E94FB4B609332057B
:1058F0007093330580933405909335058CE0EAE28C
:10590000F5E0AAE4B5E001900D928A95E1F7AACFFF
:105910009F92AF92BF92CF92DF92EF92FF920F933E
:105920001F93CF93DF9300D01F92CDB7DEB7902E99
:10593000A12EB22ED32E7C01EE0CFF1CEE0CFF1C10
:105940008701065B1A4FF8011082118212821382BE
:1059500049835A836B837C8385DF49815A816B81BC
:105960007C81F8014083518362837383C0902D034F
:1059700020E030E0A901692D7A2D8B2D9D2D0E940C
:10598000F470811108C0F701E155F74EE590F590EC
:105990000591149106C0892D9A2DAB2DBD2D7C014A
:1059A0008D0126E535E042E555E06EE475E08AE4D8
:1059B00095E00E949B550E94194C10927A050F9019
:1059C0000F900F900F90DF91CF911F910F91FF904B
:1059D000EF90DF90CF90BF90AF909F9008951F926F
:1059E0000F920FB60F9211248F9382E08093D80A02
:1059F0008F910F900FBE0F901F9018951F920F92CE
:105A00000FB60F9211248F9382E08093D80A8F9162
:105A10000F900FBE0F901F9018951F920F920FB608
:105A20000F9211248F9382E08093D80A8F910F9068
:105A30000FBE0F901F9018958091BE049091BF04E7
:105A4000009731F04AE050E060E070E00C94486F5D
:105A500060E070E0CB0108958091BE049091BF0496
:105A6000009731F04AE050E060E070E00C94206E66
:105A700060E070E0CB010895EFDF97FD0AC0ECDF36
:105A80006F3F71058105910509F02CF4E5DF862F44
:105A9000089580E008958FEF08958091BE0490915D
:105AA000BF04892B31F0E8DF91E0811103C090E061
:105AB00001C091E0892F08950F931F93CF93809198
:105AC000BE049091BF040097F1F0FC018F01C191D9
:105AD0002C2F2F7D89F0C53411F0C536B9F7F801A8
