:100000000C94A20C0C9423400C94F83F0C94CD3F1C
:100010000C94A23F0C94773F0C944C3F0C94213FDE
:100020000C94F63E0C945C2C0C944D2C0C943E2CB1
:100030000C94D30C0C94D30C0C94D30C0C94D30CC4
:100040000C94D30C0C9410320C94D30C0C94D30C51
:100050000C94D30C0C94D30C0C94D4410C94AC3E63
:100060000C94D30C0C949E310C94D30C0C94D30CA4
:100070000C94D30C0C94D30C0C94D30C0C94D30C84
:100080000C94D30C0C94D30C0C94D30C0C94D30C74
:100090000C94D30C0C94D30C0C94D30C0C94D30C64
:1000A0000C94D30C0C94D30C0C94D30C0C94D30C54
:1000B0000C94D30C0C94D30C0C94D30C0C94D30C44
:1000C0000C94D30C0C94D30C0C94D30C0C94D30C34
:1000D0000C94D30C0C94D30C0C94D30C0C94D30C24
:1000E0000C94D30C4E3B513B403B443B4A3B883B3A
:1000F000553B593B5F3B633B673B6D3B713B753BFE
:10010000883B7B3B7F3B833BC83DCD3DD23DDC3DC7
:10011000E63D5F3EF03DF83D003E0A3E143E1E3E89
:100120002D3E373E5F3E413E4B3E553E084AD73B53
:100130003BCE016E84BCBFFDC12F3D6C74319ABDB6
:1001400056833DDA3D00C77F11BED9E4BB4C3E91DA
:100150006BAAAABE000000803F05A84CCDB2D44EC9
:10016000B93836A9020C50B9918688083CA6AAAACB
:100170002ABE000000803F004E414E494E4954596E
:10018000494E46CDCCCC3D0AD7233C17B7D1387762
:10019000CC2B329595E6241FB14F0A000020410078
:1001A00000C84200401C4620BCBE4CCA1B0E5AAEC2
:1001B000C59D74434F4D4D554E49434154494F4E93
:1001C0000044525952554E004552524F5253004925
:1001D0004E464F004543484F0020746F6F206C6FB0
:1001E0006E6720657874727573696F6E20707265C2
:1001F00076656E7465640A0020636F6C64206578B0
:1002000074727573696F6E2070726576656E746551
:10021000640A0047322F47332062616420706172A4
:10022000616D65746572730A002569730025696DD7
:1002300020256973002569682025696D202569736B
:1002400000256964202569682025696D202569736A
:100250000025697920256964202569682025696D54
:1002600020256973005072696E742074696D653A57
:10027000200050726F7465637465642050696E0A63
:1002800000D401CF01C801C101B3016F666600440B
:10029000454255473A004B494C4C45442E20004DB1
:1002A0003131332053006F6B0020573A00436170A7
:1002B0003A454D455247454E43595F50415253458B
:1002C000523A300A004361703A434153455F4C490A
:1002D0004748545F4252494748544E4553533A3079
:1002E0000A004361703A544F47474C455F4C4947B9
:1002F0004854533A300A004361703A534F465457BA
:100300004152455F504F5745523A300A00436170A1
:100310003A4C4556454C494E475F444154413A306A
:100320000A004361703A5A5F50524F42453A300AD0
:10033000004361703A4155544F4C4556454C3A3054
:100340000A004361703A5052494E545F4A4F423A54
:10035000310A004361703A50524F47524553533A65
:10036000300A004361703A4155544F5245504F5244
:10037000545F54454D503A310A004361703A454547
:1003800050524F4D3A310A004649524D574152455D
:100390005F4E414D453A4D61726C696E20312E3190
:1003A0002E3620284769746875622920534F5552AC
:1003B00043455F434F44455F55524C3A68747470EF
:1003C000733A2F2F6769746875622E636F6D2F4DB6
:1003D00061726C696E4669726D776172652F4D61ED
:1003E000726C696E2050524F544F434F4C5F5645CC
:1003F0005253494F4E3A312E30204D414348494ED9
:10040000455F545950453A536E617070792049499F
:100410002045585452554445525F434F554E543A27
:100420003120555549443A63656465326132662D21
:10043000343161322D343734382D396231322D6305
:1004400035356336326633363766660A002F2F201D
:10045000007A325F6D61783A20007A5F6D61783A98
:100460002000795F6D696E3A2000785F6D696E3AA1
:1004700020005265706F7274696E6720656E6473D8
:10048000746F70207374617475730A0053657474AB
:10049000696E672054726176656C20416363656C98
:1004A00065726174696F6E3A200053657474696E89
:1004B00067205265747261637420416363656C6583
:1004C000726174696F6E3A200053657474696E6767
:1004D000205072696E7420416363656C657261744B
:1004E000696F6E3A200053657474696E67205072AC
:1004F000696E7420616E642054726176656C20416F
:100500006363656C65726174696F6E3A20005A208E
:10051000456E6473746F702041646A7573746D65A1
:100520006E742073657420746F20286D6D293A00F5
:10053000205A00205900580020204D61783A2000B0
:10054000205A00205900580020204D696E3A2000A2
:100550004F6E20004F666600536F667420656E64B0
:1005600073746F70733A2000000136372603FF3C26
:100570003D380EFF2E303E1213FF0C0809FFFFFF1F
:100580001A1C18FFFF08440AFF4324221EFFFFFF26
:10059000FFFFFF20643A0020693A0020703A0043D0
:1005A000290A0061626C656420286D696E2074659B
:1005B0006D702000436F6C6420657874727564659B
:1005C0007320617265200023646566696E65202072
:1005D00044454641554C545F4B6420002364656696
:1005E000696E65202044454641554C545F4B692057
:1005F0000023646566696E65202044454641554C7C
:10060000545F4B702000504944204175746F7475DD
:100610006E652066696E6973686564212050757423
:1006200020746865206C617374204B702C204B69BA
:1006300020616E64204B6420636F6E7374616E740E
:10064000732066726F6D2062656C6F7720696E74BF
:100650006F20436F6E66696775726174696F6E2E85
:10066000680A00504944204175746F74756E6520A6
:100670006661696C6564212074696D656F75740AC3
:1006800000504944204175746F74756E6520666131
:10069000696C6564212054656D7065726174757252
:1006A0006520746F6F20686967680A00204B643AA0
:1006B0002000204B693A2000204B703A20000A208D
:1006C000436C617373696320504944200A002054CD
:1006D000753A2000204B753A2000206D61783A2051
:1006E00000206D696E3A200020643A200020626983
:1006F00061733A2000546F6F206661722066726FDA
:100700006D207265666572656E636520706F696ED7
:10071000740A004E6F2063617365206C69676874AA
:100720000A00416374697665204578747275646562
:10073000723A2000556E6B6E6F776E20636F6D6D31
:10074000616E643A202200656E7175657565696E2B
:10075000672022004E6F204C696E65204E756D62D9
:100760006572207769746820636865636B73756D63
:100770002C204C617374204C696E653A20004B4903
:100780004C4C45442E20005072696E746572207383
:10079000746F707065642064756520746F20657275
:1007A000726F72732E2046697820746865206572B6
:1007B000726F7220616E6420757365204D3939390E
:1007C00020746F20726573746172742E20285465D2
:1007D0006D706572617475726520697320726573DE
:1007E00065742E2053657420697420616674657287
:1007F0002072657374617274696E67290A004E6FA6
:1008000020436865636B73756D2077697468206C2D
:10081000696E65206E756D6265722C204C61737413
:10082000204C696E653A2000636865636B73756D73
:10083000206D69736D617463682C204C6173742042
:100840004C696E653A20004C696E65204E756D628C
:100850006572206973206E6F74204C617374204C34
:10086000696E65204E756D6265722B312C204C616E
:100870007374204C696E653A20004D313130002090
:10088000496E76616C69642065787472756465720E
:1008900020000000000000000000000080BF0000F9
:1008A00046430000464300002443202F0020403AE6
:1008B00000205A3A0020593A0020436F756E742088
:1008C000583A0020453A00205A3A0020593A005838
:1008D0003A004B494C4C45442E2000202D20496EB7
:1008E00076616C6964206578747275646572206ED7
:1008F000756D62657220210A004572726F723A004E
:100900002020506C616E6E6572427566666572423B
:10091000797465733A20002046726565204D656DD7
:100920006F72793A2000436F6D70696C65643A208C
:100930004E6F7620323520323031370A00207C204D
:10094000417574686F723A2028526576617242610F
:10095000742C20536E6170707920636F6E666967C6
:10096000290A00323031372D31302D3130203132EB
:100970003A303000204C61737420557064617465A6
:10098000643A2000312E312E360A004D61726C69B6
:100990006E0020536F6674776172652052657365CF
:1009A000740A00205761746368646F67205265732E
:1009B00065740A002042726F776E206F7574205242
:1009C000657365740A002045787465726E616C20E9
:1009D00052657365740A00506F77657255700A002E
:1009E00073746172740A00205A3A0020593A002048
:1009F000583A00656E6473746F7073206869743A56
:100A000020006563686F3A0024F4D43050C38E2010
:100A1000C2A24017828B7011127A910D816CD90A93
:100A2000A861E108C7586607615143061E4B5D0582
:100A3000C145A7041A411104093D980371393103D6
:100A40004036DB0265339102D4305402802E1D0201
:100A5000632CEE01752AC501B028A0011027810181
:100A60008F2564012B244B01E0223401AC211F01AE
:100A70008D200D01801FFC00841EED00971DDF00FE
:100A8000B81CD200E61BC600201BBC00641AB200D2
:100A9000B219A8000A19A0006A189900D11791008C
:100AA00040178B00B516840031167E00B31579000F
:100AB0003A157300C7146F0058146A00EE136600ED
:100AC0008813630025135E00C7125B006C12570089
:100AD00015125400C111510070114F0021114B002B
:100AE000D61049008D104700461044000210420005
:100AF000C00F4000800F3E00420F3C00060F3B003D
:100B0000CB0E3800930E37005C0E3500270E3400F4
:100B1000F30D3200C10D3100900D3000600D2E003C
:100B2000320D2D00050D2C00D90C2B00AE0C290028
:100B3000850C29005C0C2700350C27000E0C2600C4
:100B4000E80B2400C40B2400A00B23007D0B230022
:100B50005A0B2100390B2100180B2000F80A1F0046
:100B6000D90A1E00BB0A1E009D0A1D00800A1D0036
:100B7000630A1C00470A1B002C0A1B00110A1A00FA
:100B8000F7091A00DD091900C4091900AB09190099
:100B9000920917007B091800630917004C09160019
:100BA00036091600200916000A091500F508150077
:100BB000E0081400CC081400B8081400A4081400BD
:100BC000900813007D0812006B08130058081200EB
:100BD0004608120034081100230811001208110001
:100BE00001081100F0071000E0071000D007100006
:100BF000C0071000B0070F00A107100091070E00FA
:100C000083070F0074070F0065070E0057070E00DB
:100C100049070E003B070D002E070E0020070D00B0
:100C200013070D0006070D00F9060C00ED060D0078
:100C3000E0060C00D4060C00C8060C00BC060C0034
:100C4000B0060C00A4060B0099060C008D060B00E4
:100C500082060B0077060B006C060B0061060A008B
:100C600057060B004C060A0042060A0038060A0026
:100C70002E060A0024060A001A060A0010060900B9
:100C800007060A00FD050900F4050900EB05090047
:100C9000E2050900D9050900D0050900C7050900CA
:100CA000BE050900B5050800AD050800A505090049
:100CB0009C050800940508008C05080084050800C0
:100CC0007C050800740508006C0507006505080030
:100CD0005D050700560508004E050700470507009B
:100CE0004005080038050700310507002A05070000
:100CF000230507001C050600160507000F05070061
:100D00000805060002050700FB040600F5040700BD
:100D1000EE040600E8040600E2040700DB04060017
:100D2000D5040600CF040600C9040600C30406006B
:100D3000BD040600B7040600B1040500AC040600BB
:100D4000A6040600A00405009B0406009504050007
:100D5000900406008A04050085040500800406004E
:100D60007A04050075040500700405006B04050095
:100D700066040500610405005C04050057040500D5
:100D8000520405004D040500480405004304050015
:100D90003E0404003A040500350405003004040054
:100DA0002C04050027040400230405001E0404008D
:100DB0001A04040016040500110404000D040400C4
:100DC000090405000404040000040400FC030400FA
:100DD000F8030400F4030400F0030400EC0304002F
:100DE000E8030400E4030400E0030400DC0304005F
:100DF000D8030400D4030400D0030400CC0304008F
:100E0000C8030300C503030024F404D9201BC40C49
:100E10005C0E9804C4095F0265077101F405F900CE
:100E2000FB04B30048048700C10369005803550060
:100E300003034500BE023A008402310053022A0037
:100E40002902250004022000E4011C00C801190049
:100E5000AF01170098011400840113007101100004
:100E60006101100051010E0043010D0036010B001D
:100E70002B010B0020010B00150109000C010900DA
:100E800003010800FB000800F3000800EB00070066
:100E9000E4000600DE000600D8000600D2000600CE
:100EA000CC000500C7000500C2000500BD0004001D
:100EB000B9000400B5000400B1000400AD00040056
:100EC000A9000400A5000300A20003009F00040085
:100ED0009B000300980003009500020093000300AC
:100EE000900003008D0002008B00030088000200C8
:100EF0008600020084000300810002007F000200DF
:100F00007D0002007B0002007900020077000100F2
:100F100076000200740002007200010071000200FD
:100F20006F0002006D0001006C0002006A00010009
:100F30006900020067000100660001006500010011
:100F40006400020062000100610001006000010015
:100F50005F0002005D0001005C0001005B00010019
:100F60005A0001005900010058000100570001001B
:100F7000560001005500010054000100530000001C
:100F80005300010052000100510001005000010017
:100F90004F0001004E0000004E0001004D00010016
:100FA0004C0001004B0000004B0001004A00010012
:100FB000490001004800000048000100470001000E
:100FC0004600000046000100450000004500010009
:100FD0004400010043000000430001004200000003
:100FE00042000100410000004100010040000100FA
:100FF0003F0000003F0001003E0000003E000100F5
:101000003D0000003D0001003C0000003C000000ED
:101010003C0001003B0000003B0001003A000000E2
:101020003A000100390000003900010038000000DA
:1010300038000000380001003700000037000100D0
:1010400036000000360000003600010035000000C8
:1010500035000000350001003400000034000000BD
:1010600034000100330000003300000033000100B1
:1010700032000000320000003200010031000000A8
:10108000310000003100010030000000300000009D
:10109000300001002F0000002F0000002F00000092
:1010A0002F0001002E0000002E0000002E00010085
:1010B0002D0000002D0000002D0000002D0001007B
:1010C0002C0000002C0000002C0000002C0001006F
:1010D0002B0000002B0000002B0000002B00010063
:1010E0002A0000002A0000002A0000002A00010057
:1010F000290000002900000029000000290000004C
:10110000290001002800000028000000280000003D
:101110002800000028000100270000002700000030
:101120002700000027000000270001002600000023
:101130002600000026000000260000002600010016
:10114000250000002500000025000000250000000B
:1011500025000000250001002400000024000000FC
:1011600024000000240000002400010023000000EF
:1011700023000000230000002300000023000000E3
:1011800023000000230001002200000022000000D4
:1011900022000000220000002200000022000100C6
:1011A00021000000210000002100000021000000BB
:1011B00021000000210000002100010020000000AB
:1011C000200000002000000020000000200000009F
:1011D0002000000020000000200001001F0000008F
:1011E0001F0000001F0000001F0000001F00000083
:1011F0001F0000001F0001001E0000001E00000074
:101200001E0000001E00000070012C01900127014B
:10121000B0012201C0011D01F001180110021301EB
:1012200030020E016002090190020401C002FF00B9
:101230000003FA004003F5008003F000D003EB0048
:101240002004E6007004E100E004DC004005D70063
:10125000C005D2004006CD00D006C8008007C300FC
:101260003008BE00F008B900C009B400B00AAF00F1
:10127000B00BAA00D00CA500000EA000500F9B00E0
:10128000C01096005012910000148C00C015870009
:10129000B0178200B0197D00D01B7800001E7300CB
:1012A00040206E0090226900F024640040275F0017
:1012B00090295A00E02B5500102E500020304B0092
:1012C00010324600E033410090353C0010373700C3
:1012D00070383200A0392D00B03A2800A03B23001E
:1012E000603C1E00103D1900903D1400103E0F00A0
:1012F000703E0A00C03E0500003F0000403FFBFF7B
:10130000803FF6FFC03FF1FF6265640A002C207346
:10131000797374656D2073746F70706564212048F3
:1013200065617465725F49443A200048656174697B
:101330006E67206661696C65640048656174696EFA
:1013400067206661696C6564004572723A204D4998
:101350004E54454D50004D494E54454D50207472E9
:1013600069676765726564004572723A204D41583D
:1013700054454D50004D415854454D5020747269AC
:101380006767657265640000002100240027002A59
:10139000002D003000330001010000040107010AA4
:1013A0000100002200250028002B002E003100340F
:1013B0000002010000050108010B010000200023CC
:1013C00000260029002C002F00320000010000033D
:1013D00001060109010505050507050808080802B9
:1013E0000202020A0A0808040404040101010101BE
:1013F0000101010303030303030303040707070CAD
:101400000C0C0C0C0C0C0C02020202060606060662
:101410000606060B0B0B0B0B0B0B0B01021020200F
:101420000808102040102040800201020108040238
:1014300001010204081020408080402010080402AE
:101440000180040201804020100804020108040207
:10145000010102040810204080010204081020400D
:101460008000000A0B02090C0D0E0807030401009E
:10147000000000000000000000000000000000006C
:101480000000000000000000000000000012111029
:10149000000000000000000000000000000000004C
:1014A0000000000000000048617264636F646564BE
:1014B0002044656661756C742053657474696E6749
:1014C00073204C6F616465640A00E8030000E80360
:1014D00000000A00000010270000000096430000F2
:1014E00096430000A0400000C841000020420000D8
:1014F00020420000C8430000C042204400204900B0
:1015000020204D3330312050005049442073657401
:1015100074696E67733A0A0020204D363636205AB9
:10152000005A3220456E6473746F702061646A756E
:1015300073746D656E743A0A00205A0020590020B9
:10154000204D323036205800486F6D65206F66663A
:101550007365743A0A00204500205A002059002083
:10156000580020420020540020204D3230352053B6
:1015700000416476616E6365643A20533C6D696E28
:101580005F66656564726174653E20543C6D696E8A
:101590005F74726176656C5F6665656472617465BF
:1015A0003E20423C6D696E5F7365676D656E745F6A
:1015B00074696D655F6D733E20583C6D61785F782E
:1015C000795F6A65726B3E205A3C6D61785F7A5F25
:1015D0006A65726B3E20453C6D61785F655F6A6548
:1015E000726B3E0A0020540020520020204D323001
:1015F00034205000416363656C65726174696F6E7D
:101600002028756E6974732F7332293A20503C700C
:1016100072696E745F616363656C3E20523C7265F3
:1016200074726163745F616363656C3E20543C74E3
:10163000726176656C5F616363656C3E0A0020458C
:1016400000205A0020590020204D3230312058000F
:101650004D6178696D756D20416363656C6572617C
:1016600074696F6E2028756E6974732F7332293A0E
:101670000A00204500205A0020590020204D323019
:10168000332058004D6178696D756D20666565641D
:1016900072617465732028756E6974732F73293AAB
:1016A0000A00204500205A0020590020204D3932E0
:1016B00020580053746570732070657220756E69D0
:1016C000743A0A0020204D3230302044300A002085
:1016D000204D3230302044002044697361626C65D3
:1016E000640A0046696C616D656E7420736574747C
:1016F000696E67733A002020473231202020203B5A
:1017000020556E69747320696E206D6D0A00290A78
:10171000002062797465733B206372632000536517
:101720007474696E67732053746F72656420280047
:10173000202863616C63756C6174656429210A00FB
:1017400020213D2000454550524F4D20435243201B
:101750006D69736D61746368202D202873746F72D6
:101760006564292000290A002062797465733B2092
:1017700063726320002073746F72656420736574F4
:1017800074696E677320726574726965766564202A
:101790002800204D61726C696E3D563431290A0073
:1017A00028454550524F4D3D00454550524F4D2024
:1017B00076657273696F6E206D69736D61746368AD
:1017C000200020746F6F206C6F6E672065787472D4
:1017D0007573696F6E2070726576656E7465640AE4
:1017E0000020636F6C6420657874727573696F6E26
:1017F0002070726576656E7465640A006F6B0062B6
:101800007573793A2070617573656420666F722014
:10181000696E7075740A00627573793A207061752B
:1018200073656420666F7220757365720A00627555
:1018300073793A2070726F63657373696E670A001B
:101840004B494C4C45442E20004B494C4C20636185
:101850007573656420627920746F6F206D7563689D
:1018600020696E6163746976652074696D65202DE9
:101870002063757272656E7420636F6D6D616E6446
:101880003A20005072696E7465722068616C7465EC
:10189000642E206B696C6C28292063616C6C656414
:1018A000210A0000000000000000000000244300A6
:1018B00000484200004842000080400000000057FD
:1018C00061726E696E673A20486F6D696E6720427B
:1018D000756D702044697669736F72203C20310AFF
:1018E000000202040000A0400000A04000000040F0
:1018F000000046430000464300002543FFFF01452A
:1019000072726F722077726974696E6720746F20CB
:10191000454550524F4D210A00544845524D414CC7
:101920002052554E4157415900546865726D616CA3
:101930002052756E6177617900526573656E643A05
:101940002000EF6B11241FBECFEFD1E2DEBFCDBF71
:1019500000E00CBF13E0A0E0B2E0EAE4FFEE00E03C
:101960000BBF02C007900D92AE30B107D9F72CE043
:10197000AEE0B3E001C01D92A038B207E1F71CE071
:10198000C2EADCE000E006C021970109802FFE01D9
:101990000E947277C13AD10780E00807A9F70E9438
:1019A00088680C94A3770C9400002F923F924F927A
:1019B0005F926F927F928F929F92AF92BF92CF92DF
:1019C000DF92EF92FF920F931F93CF93DF93CDB7E8
:1019D000DEB7C258D1090FB6F894DEBF0FBECDBF37
:1019E00000917B0520E6029F800111240D5C1C4FB5
:1019F00080916E0B80FF1AC0E2E0FAE084917F01D3
:101A00003FEFE31AF30A811102C0780104C00E947B
:101A1000932DF701F3CFD7018D917D01882319F024
:101A20000E94932DF8CF8AE00E94932D81E090E0F0
:101A30009093750B8093740B1092BA041092B904B2
:101A40008FE38093BD041092BC041092BB041092EB
:101A500028031092290310922A0310922B03F801F5
:101A600080810F5F1F4F8032D1F38E34B1F48181BA
:101A700090ED980F9A3020F08D3211F08B3269F48E
:101A80003296DF0131962C9120532A30D0F3CD01CC
:101A9000FC01019620812032D9F3F0937C0BE09376
:101AA0007B0B7F01BFEFEB1AFB0A10816AE270E04B
:101AB000C7010E947A77009731F0FC01319780814D
:101AC0008032E1F311821D3429F0143519F01734F6
:101AD00009F0CFC0F70180812FEFE21AF20A8032BD
:101AE000C9F380538A3008F0C4C01093BD0420911C
:101AF000BB043091BC044AE03196429FC001439F31
:101B0000900D1124DF0111972C91022E000C330B44
:101B100020533109280F391F808180538A3060F3A8
:101B20003093BC042093BB04DF0131968C9180324A
:101B3000D9F31D3449F04091B9045091BA04009191
:101B40007B0B61E070E058C02E31310591F03CF420
:101B50002731310571F02C31310569F70AC025377D
:101B600031054CF32737310524F0203A43E03407A0
:101B700011F7B093BA04A093B9047BC0813209F481
:101B800045C09FEBB92EB80E89E1A82EAB1408F41E
:101B90005EC0DF01FD01908111969032D9F3A0ED76
:101BA000A90FAA3008F047C04F01EB2CF12C6701B8
:101BB00083E0D594C7948A95E1F7C601885D9C4F70
:101BC0006C018B2D8770DB0102C0AA0FBB1F8A95A9
:101BD000E2F7CD01D6019C91892B8C93811491045D
:101BE000A1F1801AC701825F9C4FDC018C92808139
:101BF00081548A3188F5DF01FD0131968C91811184
:101C0000BDCF5093BA044093B90433C01D3409F0DA
:101C1000B8CF2032310509F0B4CFF093BA04E09385
:101C2000B90463E270E0CF010E947A77009709F16E
:101C3000DC011C921EC0A3EDA90FA23008F4B4CFA2
:101C40009B3211F00C947627AFCF812CCBCF41156E
:101C5000510569F6AD01CBCFDF0131969C919053D0
:101C60009A30D0F3CD01FC010196A081A032D9F3C6
:101C7000C2CF8091BD048D3411F40C94F1198435D8
:101C800011F40C941E27873411F00C94582780917E
:101C9000BB049091BC048430910509F4D9C55CF46F
:101CA00097FF02C00C946F2720912C02823091057F
:101CB0000CF00DC11CC08A35910511F40C942F193C
:101CC00054F48530910509F400C64C9711F40C9436
:101CD000AD180C946F278B35910511F40C943319C2
:101CE0008C35910511F40C9438190C946F2722232C
:101CF00011F40C946F270E94192D80EA9BE00E943A
:101D00003C660E94882D80916E0B83FD8FC0C09031
:101D1000AC0BD090AD0BE090AE0BF090AF0B2091E0
:101D20005605309157054091580550915905C70106
:101D3000B6010E945470882309F478C080912F0B5B
:101D4000811138C06091310270913202072E000C6F
:101D5000880B990B0E945A709B01AC016091D30AC9
:101D60007091D40A8091D50A9091D60A0E9454703D
:101D700087FF20C0C0925605D0925705E0925805C3
:101D8000F0925905E2E0FAE084918F010F5F1F4F56
:101D9000882321F00E94932DF801F6CFE8EFF1E0BF
:101DA00084918F010F5F1F4F882321F00E94932D94
:101DB000F801F6CFC090AC0BD090AD0BE090AE0B1D
:101DC000F090AF0B20915605309157054091580582
:101DD00050915905C701B6010E946A7420E030E0B5
:101DE00048E453E40E949176181604F5C092560513
:101DF000D0925705E0925805F0925905E2E0FAE0DA
:101E000084918F010F5F1F4F882321F00E94932D33
:101E1000F801F6CFE9EDF1E084918F010F5F1F4FDC
:101E2000882321F00E94932DF801F6CF2091A00B7A
:101E30003091A10B4091A20B5091A30B60914A05E8
:101E400070914B0580914C0590914D050E94547006
:101E500081111DC02091A40B3091A50B4091A60BC0
:101E60005091A70B60914E0570914F0580915005E0
:101E7000909151050E945470811109C06091000237
:101E80007091010280910202909103021AC0609148
:101E9000040270910502072E000C880B990B0E941A
:101EA0005A7020910002309101024091020250913B
:101EB00003020E94B9702AE037ED43E25CE30E941E
:101EC000B9700E94102B0E94062B0C946F272223BE
:101ED00011F40C946F2711E0029709F010E00E94B2
:101EE000192D82E50E940D2D882309F42AC10E9434
:101EF000AB2C6B017C0140904A0550904B056090E3
:101F00004C0570904D0520914E0530914F05409144
:101F10005005509151052E8B3F8B488F598F8091E2
:101F2000A00B9091A10BA091A20BB091A30B8A8F53
:101F30009B8FAC8FBD8F2091A40B3091A50B40914E
:101F4000A60B5091A70B2AA33BA34CA35DA320E0B3
:101F500030E0A901C701B6010E945470882309F43A
:101F60005DC4A30192016A8D7B8D8C8D9D8D0E9435
:101F7000547081110DC02E893F89488D598D6AA1F9
:101F80007BA18CA19DA10E945470882309F446C4B2
:101F900020E030E0A901C701B6010E945470881FFB
:101FA0008827881F181309C080E090E0A0E8BFE3ED
:101FB0008EA79FA7A8ABB9AB08C020E030E040E8EF
:101FC0005FEB2EA73FA748AB59ABA30192016A8DE7
:101FD0007B8D8C8D9D8D0E946A746EA37FA388A7D4
:101FE00099A72E893F89488D598D6AA17BA18CA123
:101FF0009DA10E946A746AA77BA78CA79DA72EA1AA
:102000003FA148A559A5CA01B9010E94B9704B0169
:102010005C012AA53BA54CA55DA5CA01B9010E949A
:10202000B9709B01AC01C501B4010E946B740E94A0
:10203000D6766E8F7F8F88A399A320E030E040E0B2
:102040005FE30E94B9704B015C01A7019601C701D3
:10205000B6010E94B9706B017C01A5019401C50114
:10206000B4010E94B9709B01AC01C701B6010E9486
:102070006A740E94D6769B01AC016EA57FA588A9E3
:1020800099A90E94B9704B015C012A8D3B8D4C8D42
:102090005D8DC301B2010E946B7420E030E040E02E
:1020A0005FE30E94B9706B017C016AA57BA58CA5DA
:1020B0009DA590582E8D3F8D48A159A10E9447752E
:1020C0009B01AC01C501B4010E94B9709B01AC0138
:1020D000C701B6010E946B74A30192010E946A7449
:1020E0006B017C012AA13BA14CA15DA16E897F8976
:1020F000888D998D0E946B7420E030E040E05FE3B2
:102100000E94B9702B013C012E8D3F8D48A159A131
:102110006EA17FA188A599A50E9447759B01AC017E
:10212000C501B4010E94B9709B01AC01C301B201A9
:102130000E946B742E893F89488D598D0E946A7464
:1021400014C089E40E940D2D882329F00E94AB2C35
:102150006B017C0103C0C12CD12C76018AE40E9462
:102160000D2D8823D9F00E94AB2C6AA37BA38CA3EE
:102170009DA320E030E0A901C701B6010E94547080
:1021800081111AC020E030E0A9016AA17BA18CA1D5
:102190009DA10E94547081110FC040C320E030E027
:1021A000A901C701B6010E945470882309F436C3FF
:1021B0001AA21BA21CA21DA2D701C601B0588E8B69
:1021C0009F8BA88FB98F2AA13BA14CA15DA150582C
:1021D0002A8F3B8F4C8F5D8F9C01AD01BC01CD01DF
:1021E0000E94B9704B015C012A8D3B8D4C8D5D8D39
:1021F000CA01B9010E94B9709B01AC01C501B401CB
:102200000E946B740E94D6762A966CAF7DAF8EAF1B
:102210009FAF2A9780914A0590914B05A0914C055C
:10222000B0914D058E8F9F8FA8A3B9A3A7019601EA
:10223000BC01CD010E946B746EA77FA788AB99ABE0
:10224000A0904E05B0904F05C0905005D09051051C
:10225000AEA2BFA2C8A6D9A62AA13BA14CA15DA14E
:10226000C601B5010E946B746AAB7BAB8CAB9DABB6
:10227000C090A00BD090A10BE090A20BF090A30B0C
:10228000CEAADFAAE8AEF9AE2EA53FA548A959A966
:10229000C701B6010E946A746B017C012091A40BF6
:1022A0003091A50B4091A60B5091A70B2AAF3BAFE5
:1022B0004CAF5DAF2AA93BA94CA95DA96AAD7BAD26
:1022C0008CAD9DAD0E946A744B015C0180915205FA
:1022D00090915305A0915405B091550522968CAF6D
:1022E0009DAFAEAFBFAF22979C01AD016091A80B2F
:1022F0007091A90B8091AA0B9091AB0B0E946A740C
:102300006AA77BA78CA79DA72091AC0B3091AD0B42
:102310004091AE0B5091AF0B2E962CAF3DAF4EAF10
:102320005FAF2E978091560590915705A091580563
:10233000B091590526968CAF9DAFAEAFBFAF269733
:10234000A70196016E897F89888D998D0E94B97049
:102350002B013C01A50194016A8D7B8D8C8D9D8D97
:102360000E94B9709B01AC01C301B2010E946B7461
:102370002B013C01A50194016E897F89888D998D7F
:102380000E94B9704B015C01A70196016A8D7B8D9B
:102390008C8D9D8D0E94B9709B01AC01C501B4016B
:1023A0000E946A74A30192010E94DE746B017C0199
:1023B00020E030E0A9010E94547087FF0AC02BED95
:1023C0003FE049EC50E4C701B6010E946B746B0119
:1023D0007C01112351F02BED3FE049EC50E4C701A3
:1023E000B6010E946A746B017C0120E030E0A90113
:1023F000C701B6010E945470811120C02EA93FA9C7
:1024000048AD59AD6E8D7F8D88A199A10E94547001
:10241000811114C02AAD3BAD4CAD5DAD6EA17FA165
:1024200088A599A50E945470811108C01BEDC12E8A
:102430001FE0D12E19ECE12E10E4F12E2A962CADDE
:102440003DAD4EAD5FAD2A97C701B6010E94B97090
:102450009B01AC010E94B9704B015C012AA53BA510
:102460004CA55DA5CA01B9010E94B9709B01AC01E0
:10247000C501B4010E946B740E94D6764B015C01C9
:102480002FE632E143E85AE30E94547087FDC2C14F
:10249000C501B4010E94E0750E94B4757FA36EA3CC
:1024A000672B21F421E030E03FA32EA3AEA0BFA014
:1024B000B50180E090E00E9458704B015C019B01E7
:1024C000AC01C701B6010E9447756E8F7F8F88A34C
:1024D00099A3A50194016AA57BA58CA59DA50E9441
:1024E00047752A966CAF7DAF8EAF9FAF2A97269621
:1024F0002CAD3DAD4EAD5FAD26972E966CAD7DAD4E
:102500008EAD9FAD2E970E946A74A50194010E9422
:1025100047752E966CAF7DAF8EAF9FAF2E972E8DE9
:102520003F8D48A159A1CA01B9010E94B97020E0AC
:1025300030E040E05FE30E94B9709B01AC0160E0D5
:1025400070E080E89FE30E946A746AA77BA78CA76B
:102550009DA72296CCACDDACEEACFFAC2297C98631
:10256000DA86EB86FC862696ACACBDACCEACDFAC96
:102570002697AD86BE86CF86D88A60910402709178
:102580000502072E000C880B990B0E945A702091AF
:1025900000023091010240910202509103020E9418
:1025A000B9702AE037ED43E25CE30E94B9706EAB8C
:1025B0007FAB88AF99AF0E94A03E9B01AC0128532E
:1025C0003F4F4F4F5F4F2AAF3BAF4CAF5DAF4E8891
:1025D0005F88688C798C22242394312CB9E1DB2E1E
:1025E000AEA0BFA02A143B0409F402C10E9401431B
:1025F0000E94A03EDC01CB012AAD3BAD4CAD5DADF0
:10260000821B930BA40BB50BB7FD0EC00E94A03E1E
:102610009B01AC0128533F4F4F4F5F4F2AAF3BAF59
:102620004CAF5DAF0E947763DA94DD20E9F12AA513
:102630003BA54CA55DA56A8D7B8D8C8D9D8D0E94E3
:10264000B9704B015C012E8D3F8D48A159A1B2019B
:10265000C3010E94B970A50194010E946B747B01B3
:102660008C012AA53BA54CA55DA5B201C3010E9422
:10267000B9704B015C012E8D3F8D48A159A16A8D27
:102680007B8D8C8D9D8D0E94B9709B01AC01C50125
:10269000B4010E946A742B013C01C701D8018A8FE2
:1026A0009B8FAC8FBD8F4FC0B10180E090E00E9446
:1026B00058702E8D3F8D48A159A10E94B9704B01D1
:1026C0005C010E9444756B017C01C501B4010E944C
:1026D000CC764B015C01A70196016E897F89888DBC
:1026E000998D0E94B9702B013C01A50194016AA14A
:1026F0007BA18CA19DA10E94B9709B01AC01C3017B
:10270000B2010E946B742B013C01A50194016E89FA
:102710007F89888D998D0E94B9704B015C01A7015A
:1027200096016AA17BA18CA19DA10E94B9709B0119
:10273000AC01C501B4010E946A746A8F7B8F8C8FD3
:102740009D8FF9E1DF2E9201A3016EA57FA588A9D7
:1027500099A90E946B7469837A838B839C832A8DE9
:102760003B8D4C8D5D8D6AA97BA98CA99DA90E948A
:102770006B746D837E838F8398872A962CAD3DADD5
:102780004EAD5FAD2A9769857A858B859C850E94C1
:102790006B7469877A878B879C872E962CAD3DADAD
:1027A0004EAD5FAD2E976D857E858F8598890E9491
:1027B0006B746D877E878F87988BCE0101960E9400
:1027C0003C66C0902D03EEA8FFA808AD19AD9E0190
:1027D000235F3F4FAE01475F5F4FBE016B5F7F4F8F
:1027E000CE0101960E94FB543FEF231A330AF8CE24
:1027F000C0902D03EEA8FFA808AD19AD2CEA3BE070
:1028000048EA5BE064EA7BE080EA9BE00E94FB54DC
:102810000E94062B0E94882D0C946F27E9EFF8E0A8
:1028200084918F010F5F1F4F882321F00E94932D09
:10283000F801F6CFE3E1F2E084918F010F5F1F4FC3
:10284000882311F40C946F270E94932DF801F4CF84
:1028500080E50E940D2D882329F00E946B2C6B01CE
:102860007C0103C0C12CD12C760183E50E940D2D83
:10287000882361F00E94AB2C20E030E04AE754E46A
:102880000E94B9700E94B4756B017C010E94E04304
:102890000E94882D80917D0B90917E0BA0917F0BE3
:1028A000B091800BC80ED91EEA1EFB1E0E94A03EEE
:1028B000DC01CB018C199D09AE09BF09B7FD02C02F
:1028C0000C946F270E947763F1CF80912C028823AC
:1028D00011F40C946F270E94192D89E40E940D2D8C
:1028E000882329F00E94AB2C2B013C0103C0412C12
:1028F000512C32018AE40E940D2D882329F00E9478
:10290000AB2C4B015C0103C0812C912C540180E560
:102910000E940D2D882329F00E94AB2C6B017C01B5
:1029200003C0C12CD12C760181E50E940D2D882396
:1029300039F00E94AB2C6E8B7F8B888F998F04C0EF
:102940001E8A1F8A188E198E20912D03EB962FAFA9
:10295000EB976091040270910502072E000C880B22
:10296000990B0E945A70209100023091010240910F
:102970000202509103020E94B9702AE037ED43E24F
:102980005CE30E94B970EF966CAF7DAF8EAF9FAFE6
:10299000EF9780914A0590914B05A0914C05B0911D
:1029A0004D058A8F9B8FAC8FBD8FA3019201BC0117
:1029B000CD010E946B742A966CAF7DAF8EAF9FAF36
:1029C0002A9740904E0550904F05609050057090AA
:1029D0005105A5019401C301B2010E946B742E96AA
:1029E0006CAF7DAF8EAF9FAF2E972091A00B309133
:1029F000A10B4091A20B5091A30BC701B6010E94FD
:102A00006B7462966CAF7DAF8EAF9FAF6297209173
:102A1000A40B3091A50B4091A60B5091A70B6E898A
:102A20007F89888D998D0E946B7466966CAF7DAF9F
:102A30008EAF9FAF6697AA8CBB8CCC8CDD8CA982A5
:102A4000BA82CB82DC824D825E826F8278860E945F
:102A5000A03E9B01AC0128533F4F4F4F5F4FE9967B
:102A60002CAF3DAF4EAF5FAFE997EDEC8E2EECECA7
:102A70009E2EA92CEDE3BE2E1E8A1A8E1AA21E8E41
:102A80000E9401430E94A03E8B019C01E996CCACC0
:102A9000DDACEEACFFACE9970C191D092E093F091E
:102AA00037FD0EC09B01AC0128533F4F4F4F5F4F86
:102AB000E9962CAF3DAF4EAF5FAFE9970E947763C9
:102AC000A5019401BE89AA8DFAA1EE8D6B2F7A2FF4
:102AD0008F2F9E2F0E946B742B011C0120E030E091
:102AE00040E85FE30E949176181634F4412C512C93
:102AF00060E8262E7FE3372E8091A00B9091A10BEA
:102B0000A091A20BB091A30B6A968CAF9DAFAEAF14
:102B1000BFAF6A97A0904A05B0904B05C0904C0596
:102B2000D0904D05A296ACAEBDAECEAEDFAEA297B4
:102B30003F922F925F924F926A96ACACBDACCEACF6
:102B4000DFAC6A976296ECACFDAC0EAD1FAD629740
:102B50002A962CAD3DAD4EAD5FAD2A97A2966CADD9
:102B60007DAD8EAD9FADA2970E94D5380F900F908E
:102B70000F900F906EA37AA78EA79AABC090A40B6C
:102B8000D090A50BE090A60BF090A70BA696CCAE2C
:102B9000DDAEEEAEFFAEA69720914E0530914F050B
:102BA0004091500550915105AA962CAF3DAF4EAFC4
:102BB0005FAFAA973F922F925F924F92A696ACACCE
:102BC000BDACCEACDFACA6976696ECACFDAC0EAD62
:102BD0001FAD66972E962CAD3DAD4EAD5FAD2E97D9
:102BE000AA966CAD7DAD8EAD9FADAA970E94D538EB
:102BF0000F900F900F900F906EAB7AAF8EAF239621
:102C00009FAF239789819A81AB81BC81AE968CAFAF
:102C10009DAFAEAFBFAFAE97AD80BE80CF80D88442
:102C2000E296ACAEBDAECEAEDFAEE2976B961FAE17
:102C30006B977E896A8D9AA18E8D272F362F492F0B
:102C4000582F642D752D822D932D0E946A742FE6C6
:102C500032E143E05BE30E94547087FF06C06B964D
:102C6000BFAC6B97B110CEC1B4C1242D352D422D10
:102C7000532DBE89AA8DFAA1EE8D6B2F7A2F8F2F3F
:102C80009E2F0E946B7420E030E040E05FE30E94E2
:102C9000B9703B014C019F928F937F926F936A961C
:102CA000ACACBDACCEACDFAC6A976296ECACFDAC24
:102CB0000EAD1FAD62972A962CAD3DAD4EAD5FAD0A
:102CC0002A97A2966CAD7DAD8EAD9FADA2970E9466
:102CD000D5380F900F900F900F90E3966FAFE3975A
:102CE000E4967FAFE497E5968FAFE597EA969FAFBE
:102CF000EA979F928F927F926F92A696ACACBDACF2
:102D0000CEACDFACA6976696ECACFDAC0EAD1FADBD
:102D100066972E962CAD3DAD4EAD5FAD2E97AA9623
:102D20006CAD7DAD8EAD9FADAA970E94D5380F904A
:102D30000F900F900F905B018C012EA13AA54EA52C
:102D40005AA9AE966CAD7DAD8EAD9FADAE970E948B
:102D50006B7420E030E040E05FE30E94B9709B01BB
:102D6000AC01E3966FADE397E4967FADE497E5960B
:102D70008FADE597EA969FADEA970E946A746B0162
:102D80007C01E894F7F82EA93AAD4EAD23965FADDD
:102D90002397E2966CAD7DAD8EAD9FADE2970E941C
:102DA0006B7420E030E040E05FE30E94B9709B016B
:102DB000AC01B501C8010E946A749B01AC015F7748
:102DC000C701B6010E946B742DEC3CEC4CEC5DE34A
:102DD0000E94547018160CF042CFAEAABAAE0EAFD5
:102DE00023961FAF2397E396CFACE397CEA2E4964A
:102DF000DFACE497DAA6E596EFACE597EEA6EA96A7
:102E0000FFACEA97FAAA2301140121E06B962FAFD9
:102E10006B970FCFA7019601C701B6010E946B7493
:102E20009B01AC01BE89AA8DFAA1EE8D6B2F7A2F82
:102E30008F2F9E2F0E946B74962E872E782E692ED0
:102E400020E030E040E85FE3D401F3016B2F7A2FFC
:102E50008F2F9E2F0E94917687FFD4C06F927F9212
:102E60008F929F926A96ACACBDACCEACDFAC6A9749
:102E70006296ECACFDAC0EAD1FAD62972A962CAD00
:102E80003DAD4EAD5FAD2A97A2966CAD7DAD8EADDA
:102E90009FADA2970E94D5380F900F900F900F9082
:102EA0006B966FAF6B97E3967FAFE397E4968FAF28
:102EB000E497E5969FAFE5976F927F928F929F92EE
:102EC000A696ACACBDACCEACDFACA6976696ECAC2F
:102ED000FDAC0EAD1FAD66972E962CAD3DAD4EAD43
:102EE0005FAD2E97AA966CAD7DAD8EAD9FADAA97C6
:102EF0000E94D5380F900F900F900F905B018C01BE
:102F00006B962FAD6B97E3963FADE397E4964FAD8D
:102F1000E497E5965FADE597AE966CAD7DAD8EAD71
:102F20009FADAE970E946B7420E030E040E05FE31D
:102F30000E94B9709B01AC016EA17AA58EA59AA9D9
:102F40000E946A746B017C01E894F7F89501A8016E
:102F5000E2966CAD7DAD8EAD9FADE2970E946B7435
:102F600020E030E040E05FE30E94B9709B01AC01DB
:102F70006EA97AAD8EAD23969FAD23970E946A7499
:102F80009B01AC015F77C701B6010E946B742DEC09
:102F90003CEC4CEC5DE30E94917618169CF1AEAAD5
:102FA000BAAE0EAF23961FAF23976B963FAD6B97CC
:102FB0003EA3E3964FADE3974AA7E4965FADE4974F
:102FC0005EA7E5968FADE5978AAB492C582C272C48
:102FD000362C7E896A8D9AA18E8D272F362F492F08
:102FE000582F642D752D822D932D0E946A746B01CC
:102FF0007C012DEC3CEC4CEC5DE30E9491761816C4
:103000000CF008CF7E896A8D9AA18E8D272F362FDE
:10301000492F582F642D752D822D932D0E946A748F
:103020004B015C018EA19AA5AEA5BAA989839A83AA
:10303000AB83BC838EA99AADAEAD2396BFAD23976B
:103040008D839E83AF83B887242D352D422D532D3C
:1030500060E070E080E89FE30E946A746B017C018D
:1030600020915205309153054091540550915505DA
:103070000E94B9706E8B7F8B888F998F2091A80BDF
:103080003091A90B4091AA0B5091AB0B642D752D7B
:10309000822D932D0E94B9709B01AC016E897F89AE
:1030A000888D998D0E946B7469877A878B879C873E
:1030B000209156053091570540915805509159057A
:1030C000C701B6010E94B9706B017C012091AC0B65
:1030D0003091AD0B4091AE0B5091AF0B642D752D1F
:1030E000822D932D0E94B9709B01AC01C701B601DE
:1030F0000E946B746D877E878F87988BCE010196B7
:103100000E943C66EB96CFACEB97EF96ECACFDAC37
:103110000EAD1FADEF979E01235F3F4FAE01475F9E
:103120005F4FBE016B5F7F4FCE0101960E94FB5443
:1031300020E030E040E85FE3642D752D822D932D73
:103140000E94547087FF05C04E8A5A8E2AA23E8E76
:1031500097CC0E94062B0C946F270E94E04380912D
:10316000000290910102A0910202B09103028093AB
:10317000B5049093B604A093B704B093B8048091BB
:103180000402909105029093B4048093B30484E602
:1031900090E090930502809304020E94882D81E0C4
:1031A00080933A0588E50E94DE2CF82E89E50E947E
:1031B000DE2C082F8AE50E94DE2CF11005C00111DB
:1031C00005C011E0182705C0011102C010E001C0C0
:1031D000182F90E1EAE4F5E0A0EABBE001900D923F
:1031E0009A95E1F7111105C0811103C0F11007C0D4
:1031F0000CC082E090E00E9408621123B9F380E0E5
:1032000090E00E940862111102C0002321F081E0C9
:1032100090E00E9408620E94812B8091220B809393
:103220003A058091B5049091B604A091B704B0918D
:10323000B8048093000290930102A0930202B0931D
:1032400003028091B3049091B4049093050280939B
:1032500004020E94882D0E94EE300C946F27109279
:1032600032030C946F2781E0809332030C946F2714
:1032700085E40E940D2DB82E811102C00E94E0430A
:1032800033E5832E32E0932E4AE4C42E45E0D42E5B
:1032900051E9E52E5BE0F52E00E010E0A12CD40111
:1032A0008D914D010E940D2D882309F44EC0F60129
:1032B0002081318142815381CF57DF4F2883C1580C
:1032C000D040CE57DF4F3883C258D040C158DF4F6F
:1032D0004883CF57D040C058DF4F5883C058D040A4
:1032E0000E94AB2CD6016D937D938D939C93139785
:1032F000CF57DF4F2881C158D040CE57DF4F38819C
:10330000C258D040C158DF4F4881CF57D040C05835
:10331000DF4F5881C058D04003301105B1F00E94F2
:103320006A749B01AC01F701608171818281938194
:103330000E946B74D7016D937D938D939C9313972B
:10334000C8010E94292BAA24A3940F5F1F4FB4E049
:10335000CB0ED11CE4E0EE0EF11C0430110509F097
:103360009ECFAA2019F00E94812B37C0BB20A9F163
:10337000C0905605D0905705E0905805F09059053B
:103380002091AD053091AE054091AF055091B0054B
:10339000C701B6010E94B9700E949C766093D80B59
:1033A0007093D90B8093DA0B9093DB0BC701B601B6
:1033B0000E94AF752FB7F8946093B90A7093BA0A58
:1033C0008093BB0A9093BC0A2FBF1092C80B109237
:1033D000C90B1092CA0B1092CB0B0E94EE300C94CA
:1033E0006F278091BB049091BC048737910509F445
:1033F000C1C50CF086C08C35910509F464C40CF08D
:1034000047C08C34910509F43FC2DCF48F3191053B
:1034100009F429C14CF48131910509F416C1429790
:1034200009F403C40C946F278A32910509F4EDC1A5
:103430008B34910511F00C946F270E94DB670C947C
:103440006F278235910509F4E7C3B4F48D349105F3
:1034500009F434C28135910511F00C946F270E9454
:1034600037410E94E0430E9435631092690B10922D
:10347000680B00E010E0B9C38435910509F4D5C3A9
:103480000CF4CEC38535910509F402C40C946F2762
:103490008E36910509F445C2B4F48A36910509F4D3
:1034A00073C354F48836910509F40CC2893691052A
:1034B00009F406C30C946F278C36910509F4B5C244
:1034C0000CF481C345C38137910509F4B6C26CF48D
:1034D0008F36910509F438C28037910511F00C94AC
:1034E0006F2786E992E00E9447638337910509F4CC
:1034F00079C40CF471C48637910509F404C50C94A1
:103500006F27823E910511F40C94C3220CF046C043
:103510008B3C910509F422C614F58C38910509F409
:10352000B8C27CF48837910509F4A8C5893791059C
:1035300011F00C946F2710923A051092220B0C9404
:103540006F27883C910509F49FC5893C910509F4D2
:10355000E3C58B39910511F00C946F27CEC28E3CD8
:10356000910509F4EEC654F48C3C910509F414C697
:103570008D3C910509F47AC60C946F278C3D91051A
:1035800009F4DBC78D3D910509F4E4C7833D91053E
:1035900011F00C946F27E2E0FAE039C78C3AF1E0C1
:1035A0009F0711F40C943B2644F58F3231E09307CA
:1035B00011F40C94DE236CF48D3251E0950711F474
:1035C0000C94EC228E32914011F40C948A230C94CA
:1035D0006F278039B1E09B0711F40C9438268A39A3
:1035E000E1E09E0709F425C28336914011F00C9466
:1035F0006F27E9EFF8E00C94FB26863F21E0920765
:1036000011F40C94EC267CF4843F41E0940711F40F
:103610000C94E926853F914011F00C946F270E948D
:10362000BF4B0C946F278A39A2E09A0709F4D0C6E1
:10363000873EB3E09B0711F40C941027873F91401D
:1036400011F00C946F270C94EF265F988A989FB71F
:10365000F894809108018E7F809308019FBF47985E
:1036600012980C946F278091DE0B9091DF0B0197DD
:1036700019F40E94A03E08C06091E80B7091E90B1C
:103680008091EA0B9091EB0B0091E40B1091E50B0C
:103690002091E60B3091E70B601B710B820B930BB3
:1036A00028EE33E040E050E00E942F748091E00B60
:1036B0009091E10BA091E20BB091E30BBC01CD0125
:1036C000620F731F841F951F2CE3C22ED12CE12C97
:1036D000F12CA70196010E942F74762E672ECA0145
:1036E000B901A70196010E942F746B017C01CA01E8
:1036F000B90128E130E040E050E00E942F744B0116
:103700005C01C9016DE671E00E942F778E010F5FA9
:103710001F4F6115710599F06F927F92DF92CF92E2
:103720009F928F929F938F937F936F9381E592E007
:103730009F938F931F930F930E94257026C000972D
:1037400089F06F927F92DF92CF929F928F929F9398
:103750008F9381E492E09F938F931F930F930E9426
:10376000257013C081149104A104B104B1F06F92CB
:103770007F92DF92CF929F928F9285E392E09F9308
:103780008F931F930F930E9425700FB6F894DEBF9E
:103790000FBECDBFE2E0FAE023C0C114D104E104C2
:1037A000F10469F06F927F92DF92CF928DE292E006
:1037B0009F938F931F930F930E942570E6CF6F9274
:1037C0007F9289E292E09F938F931F930F930E94C1
:1037D00025700F900F900F900F900F900F90DACFF1
:1037E00084917F01BFEFEB1AFB0A882321F00E942E
:1037F000932DF701F5CFB80185E692E00E94AD3830
:103800008AE00E94932D0C946F2783E50E940D2D72
:10381000882311F40C946F270E948B2CE82E80E5EE
:103820000E940D2D882339F00E947B2C8B0177FF9D
:1038300004C00C946F270DE010E0902FE8E6F5E04F
:103840008BE28E0F2491921729F031968E13FACFC6
:103850000C948027E9EFF8E084918F010F5F1F4FF0
:10386000882321F00E94932DF801F6CFE2E7F2E0E1
:1038700084918F010F5F1F4F882311F40C946F27E1
:103880000E94932DF801F4CF8091DE0B9091DF0B15
:10389000019711F00C946F2782E090E09093DF0B7A
:1038A0008093DE0B0E94A03E6093E80B7093E90BBF
:1038B0008093EA0B9093EB0B0C946F270E94FE66AB
:1038C0000C946F2788E690E00E94002E81110C94E2
:1038D0006F2780916E0B83FF02C00C946F2783E5E6
:1038E0000E940D2D8823C9F00E94AB2C0E94AF7559
:1038F0007093CE0A6093CD0A80E00E94ED400E9452
:10390000AB2C20E030E04AEA52E40E9454701816D2
:1039100014F00E94FE660E94AB2C0E94AC390C94FD
:103920006F278EE40E940D2D882311F40C946F27CD
:103930000E947B2C6093760C7093770C8093780CAC
:103940009093790C0C946F2783E50E94DE2C8823DA
:1039500059F083E50E940D2D882319F00E948B2CCD
:1039600001C080E080936E0BE2E0FAE084918F0169
:103970000F5F1F4F882321F00E94932DF801F6CF8F
:10398000EFE8F2E084918F010F5F1F4F882321F051
:103990000E94932DF801F6CF80916E0B8823A1F140
:1039A00001E8C02E02E0D02EE12CF12C20E0809125
:1039B0006E0B90E00E2C02C0959587950A94E2F765
:1039C00080FF17C0BB24B394B20E222319F08CE2FF
:1039D0000E94932DF60125913491F901849189017A
:1039E0000F5F1F4F882321F00E94932D9801F5CF80
:1039F0002B2DFFEFEF1AFF0A32E0C30ED11C45E07A
:103A0000E416F104A1F60CC0EBE8F2E084918F011A
:103A10000F5F1F4F882321F00E94932DF801F6CFEE
:103A20008AE00E94932D0C946F27109206020C944A
:103A30006F270E948B2B0C946F2783E50E940D2D1E
:103A4000882369F00E948B2C80934E028D3310F4F2
:103A50000C946F278CE380934E020C946F27E2E066
:103A6000FAE084918F010F5F1F4F882321F00E949D
:103A7000932DF801F6CF40914E0250E060E070E0E7
:103A80008FE992E00E943D388AE00E94932D0C94C9
:103A90006F2780916E0B83FF02C00C946F2783E524
:103AA0000E940D2D882311F40C946F270E94AB2CDB
:103AB0000E94AF757093CA0A6093C90A0C946F276D
:103AC00089E690E00E94002E811111C0E6EAF2E042
:103AD00084918F010F5F1F4F882321F00E94932D47
:103AE000F801F6CF0E94A3308AE00E94932D109235
:103AF000750B1092740B0C949D2A83E50E940D2D7A
:103B0000882311F40C946F270E948B2C80937A0BDE
:103B10008D3318F08CE380937A0B0E94A03E6B01EA
:103B20007C0120917A0B30E0A8EEB3E00E945B7438
:103B3000DC01CB018C0D9D1DAE1DBF1D8093760B4E
:103B40009093770BA093780BB093790B0C946F271D
:103B50008DE690E00E94002E81110C946F278091D9
:103B60006E0B83FF02C00C946F2783E50E940D2D1E
:103B70008AA381110C94952782E50E940D2D811155
:103B80000C9495270C946F2783E50E940D2D8823B4
:103B900039F00E947B2C8B016F3F710519F010F0FA
:103BA0000FEF10E080E50E940D2D811106C01093EB
:103BB000690B0093680B0C946F270E948B2C81116A
:103BC0000C946F27F4CF80E50E940D2D811106C063
:103BD0001092690B1092680B0C946F270E947B2C3B
:103BE000672B11F00C946F27F3CF62E370E080E055
:103BF00090E00E94683E0E9401430F5F1F4F033117
:103C0000110599F762E370E080E090E00E94683E61
:103C10000E9401430C946F27109231030C946F277C
:103C200081E0809331030C946F2783E50E940D2D72
:103C30008823A1F00E94AB2C20E030E04AE754E456
:103C40000E94B9700E94B47560934F027093500245
:103C500080935102909352020C946F2788E50E9442
:103C6000DE2C81110C94C22889E50E94DE2C811182
:103C70000C94C2288AE50E94DE2C81110C94C22883
:103C800085E40E94DE2C81110C94C2280C94E82853
:103C900083E50E94DE2C882311F40C946F270E9488
:103CA000AB2C20E030E04AE754E40E94B9700E9457
:103CB000B4756093810B7093820B8093830B909308
:103CC000840B0C946F27F3E5CF2EF2E0DF2EA1EAF0
:103CD000EA2EA5E0FA2E10E0D6018D916D010E942A
:103CE000DE2C882309F46DC0133009F063C00E94F4
:103CF000AB2C4B015C0120E030E040EA51E40E9433
:103D0000547087FF4EC0A50194016091AD0570917C
:103D1000AE058091AF059091B0050E9447752B01CB
:103D20003C019B01AC0160913C0B70913D0B80917B
:103D30003E0B90913F0B0E94B97060933C0B7093C7
:103D40003D0B80933E0B90933F0BA301920160913A
:103D5000580B7091590B80915A0B90915B0B0E94FC
:103D6000B9706093580B7093590B80935A0B9093D2
:103D70005B0B60918D0570918E0580918F05909100
:103D800090050E945870A30192010E94B9700E9490
:103D9000B47560938D0570938E0580938F05909315
:103DA00090058092AD059092AE05A092AF05B092BD
:103DB000B00507C00E94AB2CF7016083718382833A
:103DC00093831F5FF4E0EF0EF11C143009F084CFF1
:103DD0000E94093B0C946F270E94E0430E94EE3042
:103DE0000C946F27E8E8F3E084918F010F5F1F4F79
:103DF000882321F00E94932DF801F6CFEAE7F3E043
:103E000084918F010F5F1F4F882321F00E94932D13
:103E1000F801F6CFE3E6F3E084918F010F5F1F4FC7
:103E2000882321F00E94932DF801F6CFE3E5F3E01B
:103E300084918F010F5F1F4F882321F00E94932DE3
:103E4000F801F6CFE2E4F3E084918F010F5F1F4F9A
:103E5000882321F00E94932DF801F6CFE1E3F3E0EF
:103E600084918F010F5F1F4F882321F00E94932DB3
:103E7000F801F6CFE2E2F3E084918F010F5F1F4F6C
:103E8000882321F00E94932DF801F6CFEDE0F3E0B6
:103E900084918F010F5F1F4F882321F00E94932D83
:103EA000F801F6CFE7EFF2E084918F010F5F1F4F2B
:103EB000882321F00E94932DF801F6CFE2EEF2E084
:103EC00084918F010F5F1F4F882321F00E94932D53
:103ED000F801F6CFE5ECF2E084918F010F5F1F4F00
:103EE000882321F00E94932DF801F6CFEDEAF2E04D
:103EF00084918F010F5F1F4F882309F4F0C70E9440
:103F0000932DF801F5CF85E40E94DE2C882381F003
:103F10000E949C2C882361F0E2E0FAE084918F01FA
:103F20000F5F1F4F882321F00E94932DF801F6CFD9
:103F300081E40E94DE2C882381F00E949C2C88233F
:103F400061F0EDE4F4E084918F010F5F1F4F88234F
:103F500021F00E94932DF801F6CF0091B904109141
:103F6000BA04D8018D918D01882309F459CD0E949E
:103F7000932DF7CFE2E7F4E084918F010F5F1F4F9D
:103F8000882321F00E94932DF801F6CFEAE6F4E0B1
:103F900084918F010F5F1F4F882321F00E94932D82
:103FA000F801F6CF659903C00BE812E002C000E902
:103FB00012E0F80181918F01882319F00E94932D5E
:103FC000F8CF8AE00E94932DE2E6F4E084918F011D
:103FD0000F5F1F4F882321F00E94932DF801F6CF29
:103FE0008091030181FD03C00BE812E002C000E9EB
:103FF00012E0D8018D918D01882319F00E94932D34
:10400000F8CF8AE00E94932DEAE5F4E084918F01D5
:104010000F5F1F4F882321F00E94932DF801F6CFE8
:104020004A9903C00BE812E002C000E912E0F8016F
:1040300081918F01882319F00E94932DF8CF8AE097
:104040000E94932DE1E5F4E084918F010F5F1F4FF3
:10405000882321F00E94932DF801F6CF4B9903C0DD
:104060000BE812E002C000E912E0D8018D918D0149
:10407000882309F4D5CC0E94932DF7CF81E080935B
:104080003A058093220B2BC788EC90E00E94002E0B
:10409000811125C784E40E94DE2C8823D1F10E947F
:1040A000AB2C11E020E030E0A9010E945470811196
:1040B00001C010E010932B0B112359F100912C0338
:1040C00010E00E94AB2C000F111F000F111FF80110
:1040D000E95DF44F608371838283938320E030E055
:1040E000A9016091270B7091280B8091290B909169
:1040F0002A0B0E94547081110CC080E090E0A0EE69
:10410000BFE38093270B9093280BA093290BB093C8
:104110002A0B0E94E665E3C661E9E62E65E0F62E0D
:1041200003E512E074E0D72ED00EF80181918F01E3
:104130000E94DE2C882351F00E94AB2C0E94B475A3
:10414000D7016D937D938D939C931397B4E0EB0E01
:10415000F11CD012EACF0E94DC39C1C64CE4E42E37
:104160004BE0F42E03E512E054E0D52ED00EF8011A
:1041700081918F010E94DE2C882341F00E94AB2C9C
:10418000D7016D937D938D939C931397B4E0EB0EC1
:10419000F11CD012ECCFA3C683E50E94DE2C88234D
:1041A000D9F00E94AB2CAB01BC014093440B50935F
:1041B000450B6093460B7093470B4093400B509315
:1041C000410B6093420B7093430B86EE94E00E9488
:1041D00077388AE00E94932D80E50E94DE2C8823A8
:1041E00099F00E94AB2CAB01BC014093440B50935F
:1041F000450B6093460B7093470B89EC94E00E944B
:1042000077388AE00E94932D82E50E94DE2C882375
:1042100099F00E94AB2CAB01BC014093480B50932A
:10422000490B60934A0B70934B0B8AEA94E00E940F
:1042300077388AE00E94932D84E50E94DE2C882343
:1042400009F44DC60E94AB2CAB01BC014093400B5E
:104250005093410B6093420B7093430B8CE894E0B6
:104260000E9477388AE00E94932D39C683E50E9428
:10427000DE2C882351F00E94AB2C6093640B70936A
:10428000650B8093660B9093670B84E50E94DE2C90
:10429000882351F00E94AB2C6093600B7093610BEC
:1042A0008093620B9093630B82E40E94DE2C882340
:1042B00051F00E946B2C60935C0B70935D0B8093AC
:1042C0005E0B90935F0B88E50E94DE2C882351F0F3
:1042D0000E94AB2C6093300B7093310B8093320BA8
:1042E0009093330B89E50E94DE2C882351F00E94C5
:1042F000AB2C6093340B7093350B8093360B9093FB
:10430000370B8AE50E94DE2C882351F00E94AB2CEB
:104310006093380B7093390B80933A0B90933B0B5F
:1043200085E40E94DE2C882309F4D9C50E94AB2CB9
:1043300060933C0B70933D0B80933E0B90933F0B2F
:10434000CEC593E5A92E92E0B92E2AE4C22E25E02F
:10435000D22E3EE3E32E35E0F32E00E010E0F5012F
:1043600081915F010E94DE2C882311F10E94AB2C09
:104370002B013C01D7012D913D914D915C910E9403
:104380006A749B01AC01F601608171818281938125
:104390000E946B74D6016D937D938D939C931397BC
:1043A000F7014082518262827382C8010E94292BE8
:1043B0000F5F1F4FF4E0CF0ED11C24E0E20EF11C82
:1043C0000330110561F60E94812B0E94EE3087C5F3
:1043D0008AE50E94DE2C882351F00E94AB2C60936A
:1043E000230B7093240B8093250B9093260B409105
:1043F000230B5091240B6091250B7091260B8EE0BE
:1044000095E00E9477388AE00E94932D68C58491D8
:104410008F010F5F1F4F882321F00E94932DF80119
:10442000F6CF83E50E94DE2C882321F00E949C2C8D
:1044300080934D02E8E5F5E084918F010F5F1F4FF7
:10444000882321F00E94932DF801F6CF80914D0230
:10445000811103C0E4E5F5E002C0E0E5F5E08491F8
:104460008F010F5F1F4F882321F00E94932DF801C9
:10447000F6CFE8E4F5E084918F010F5F1F4F8823AA
:1044800021F00E94932DF801F6CF40914102509106
:104490004202609143027091440286E495E00E94DA
:1044A00077384091450250914602609147027091E1
:1044B000480283E495E00E94773840914902509188
:1044C0004A0260914B0270914C0280E495E00E9498
:1044D0007738E8E3F5E084918F010F5F1F4F882361
:1044E00021F00E94932DF801F6CF409135025091B2
:1044F0003602609137027091380286E395E00E949F
:1045000077384091390250913A0260913B027091A4
:104510003C0283E395E00E94773840913D02509140
:104520003E0260913F027091400280E395E00E945C
:1045300077388AE00E94932DD2C483E50E940D2D26
:10454000882309F4CCC40E947B2C709305026093ED
:104550000402C5C48DED90E00E94002E8111BFC4FD
:1045600083E50E940D2D882309F4B9C400912C0322
:1045700010E00E947B2C000F111FF801ED5CFD4F35
:1045800071836083ACC480E50E94DE2C882309F42B
:10459000A6C40E947B2CF62EC62ED72E83E50E9441
:1045A0000D2D882321F00E947B2C8B0102C00FEF80
:1045B0001FEFC8010196039708F091C4D7FC8FC480
:1045C000E8E6F5E08BE28E0F9491F91609F487C4C2
:1045D00031968E13F9CF8AC785E40E940D2D811183
:1045E00010C080E50E94DE2C882391F00E94AB2C45
:1045F0006093C10A7093C20A8093C30A9093C40A5D
:1046000007C00E948B2C882361F3E9EFF8E071C0AA
:1046100089E40E94DE2C882381F00E94AB2C2CEAD6
:1046200035EC47E25EE30E94B9706093BD0A709377
:10463000BE0A8093BF0A9093C00A84E40E94DE2CD5
:10464000882381F00E94AB2C2CEA35EC47E25EE334
:104650000E9447756093C50A7093C60A8093C70A83
:104660009093C80AE2E0FAE084918F010F5F1F4F38
:10467000882321F00E94932DF801F6CF4091C10AC2
:104680005091C20A6091C30A7091C40A8BE995E007
:104690000E9477382CEA35EC47E25EE36091BD0A70
:1046A0007091BE0A8091BF0A9091C00A0E9447751E
:1046B000AB01BC0187E995E00E945A382CEA35EC41
:1046C00047E25EE36091C50A7091C60A8091C70A0D
:1046D0009091C80A0E94B970AB01BC0183E995E0D2
:1046E0000E945A388AE00E94932DF9C30E94932DAC
:1046F000F80184918F010F5F1F4F8111F7CF0EE9F1
:1047000012E0D8018D918D01882309F489C90E9496
:10471000932DF7CF83E50E94DE2C182F882371F0AC
:104720000E94AB2C0E94AF757093320260933102ED
:1047300021E0672B09F020E020932F0B80E50E94F9
:10474000DE2C882359F02091310230913202232B44
:1047500011F00E949C2C80932F0BC1C31111BFC379
:10476000E2E0FAE084918F010F5F1F4F882321F070
:104770000E94932DF801F6CF80912F0B811103C079
:104780006AE972E002C06DE872E084EB95E00E9495
:10479000AD38609131027091320283EA95E00E9457
:1047A0009438EFE9F5E084918F010F5F1F4F882364
:1047B00009F495C30E94932DF801F5CF85E40E947A
:1047C0000D2D882321F00E947B2C8B0102C000E07C
:1047D00010E083E40E940D2D882339F00E947B2C89
:1047E000E0967FAF6EAFE09706C0E5E0F0E0E096C0
:1047F000FFAFEEAFE09785E50E94DE2C6F968FAF9E
:104800006F97882329F00E949C2C6F968FAF6F972B
:1048100017FD07C0C12CD12CB6E1EB2EB3E4FB2E63
:1048200006C0C12CD12CACE8EA2EA2E4FA2E83E516
:104830000E940D2D882321F00E94AB2C6B017C017E
:10484000C701B6010E94AF750115110511F4109250
:104850002C03072E000C880B990B0E945A706E8F48
:104860007EA38AA79EA70E94A03E4B015C01012B5C
:1048700019F40FEA12E00BC002EC12E0D8018D919E
:104880008D01882309F4CCC80E94932DF7CFF8013D
:1048900081918F01882319F00E94932DF8CF8AE02F
:1048A0000E94932D0E9437418FE78093D10A81E0C7
:1048B00080930602AA968CAE9DAEAEAEBFAEAA970E
:1048C0006E968CAE9DAEAEAEBFAE6E971AAAF0E4F9
:1048D000FEAB2CE12AAF36E43EAF23961FAE239702
:1048E00027961FAE27972B961FAE2B972F961FAE9E
:1048F0002F976A961CAE1DAE1EAE1FAE6A976696C7
:104900001CAE1DAE1EAE1FAE6697C12CD12C76011B
:10491000FFE74F2E512C612C712C8FE790E0A0E027
:10492000B0E08A8F9B8FAC8FBD8FAE961CAE1DAE54
:104930001EAE1FAEAE9791E0A3969FAFA3971BA2AA
:104940001AA2212C312C00E010E08091060288236D
:1049500009F487C10E94A03E6E8B7F8B888F998F50
:104960008091CF0A882309F4A3C00E944B41209074
:10497000D30A3090D40A0091D50A1091D60A910139
:10498000A80123966FAD239727967FAD27972B9687
:104990008FAD2B972F969FAD2F970E94547087FF56
:1049A0000CC023962FAE239727963FAE27972B96C2
:1049B0000FAF2B972F961FAF2F979101A8016AA9D0
:1049C0007EA98AAD9EAD0E949176181624F42AAA7B
:1049D0003EAA0AAF1EAFA396AFADA3972E8D3EA100
:1049E0004AA55EA5B101C801AA2309F447C00E94E7
:1049F000917618160CF05CC04E895F89688D798DB0
:104A0000481959096A097B09DB01CA018858934191
:104A1000A109B109B7FD4CC08A8D9B8DAC8DBD8DB0
:104A200084199509A609B709B595A795979587950E
:104A30008093D10AAE964CAF5DAF6EAF7FAFAE97AD
:104A4000BE8D2396BFAF2397EEA12796EFAF279792
:104A5000FAA52B96FFAF2B972EA52F962FAF2F974A
:104A60008E899F89A88DB98DAA968CAF9DAFAEAF68
:104A7000BFAFAA97A3961FAEA3971AC00E94547007
:104A800087FF16C08E899F89A88DB98DAA962CADF7
:104A90003DAD4EAD5FADAA97821B930BA40BB50B3A
:104AA000AC01BD01485853416109710977FF95C3B5
:104AB00020E030E040EA51E46E8D7EA18AA59EA5FB
:104AC0000E946B749B01AC01B101C8010E949176F8
:104AD00018166CF4E1E8F6E084918F010F5F1F4F28
:104AE000882309F4FCC10E94932DF801F5CF80E3DF
:104AF00098EFAFEFBFEF6E962CAD3DAD4EAD5FAD15
:104B00006E97821B930BA40BB50B2E893F89488DA2
:104B1000598D820F931FA41FB51FB7FD0FC00E94B0
:104B2000A3308AE00E94932D8E899F89A88DB98D2C
:104B30006E968CAF9DAFAEAFBFAF6E978E899F89DB
:104B4000A88DB98D880F991FAA1FBB1FAA962CADDF
:104B50003DAD4EAD5FADAA97821B930BA40BB50B79
:104B600088199909AA09BB0981389F44A241B10556
:104B700060F0E3E6F6E084918F010F5F1F4F88231A
:104B800009F4ADC1D0D7F801F6CF4AA15BA1E096F8
:104B90008EAD9FADE097841795070CF0D6CEE6E07A
:104BA000F6E084918F010F5F1F4F882319F0BBD768
:104BB000F801F7CFB701A60181EF95E00E947738A1
:104BC0008AE0B1D766964CAD5DAD6EAD7FAD6697B0
:104BD0008CED95E00E9477388AE0A5D76A964CADB7
:104BE0005DAD6EAD7FAD6A9787EC95E00E9477383A
:104BF0008AE099D76F96AFAC6F97AA2009F46FC17E
:104C0000C092C10AD092C20AE092C30AF092C40ACA
:104C10002CEA35EC47E25EE366966CAD7DAD8EAD79
:104C20009FAD66970E94B9706093BD0A7093BE0AEB
:104C30008093BF0A9093C00A2CEA35EC47E25EE30A
:104C40006A966CAD7DAD8EAD9FAD6A970E9447753B
:104C50006093C50A7093C60A8093C70A9093C80AE6
:104C60003EC18091060281113AC10E94374137C18D
:104C70000E94E04334C18EE3C82E85E0D82E9AE42A
:104C8000E92E95E0F92E2DE9222E2BE0322E00E0C0
:104C900010E091012D593B403F8B2E8BD1018D911E
:104CA0001D01882309F488C0F7014080518062808B
:104CB0007380F801EB5CFD4F20813181428153818B
:104CC000F801EF5BFD4F60817181828193810E94C9
:104CD0006B7420E030E040E05FE30E94B9709B011C
:104CE000AC01C301B2010E949176181644F4F80198
:104CF000ED55F74E85909590A590B49003C0812C0A
:104D0000912C5401F801EB57F44F208131814281FD
:104D10005381C301B2010E946A749B01AC01C501B9
:104D2000B4010E946A744B015C0120E030E040EA6B
:104D300051EC0E94917687FD28C020E030E040EAE7
:104D400051E4C501B4010E9454701816F4F0D60164
:104D50002D913D914D915C91C501B4010E946A7401
:104D60009B01AC01C301B2010E946B74F701608327
:104D7000718382839383D6018D929D92AD92BC9272
:104D800013978E899F8965D417C0E9EFF8E0849165
:104D90008F010F5F1F4F882319F0C5D6F801F7CF99
:104DA000E5EFF6E084918F010F5F1F4F882309F430
:104DB00096C0B9D6F801F6CFB4E0CB0ED11C0C5F8B
:104DC0001F4FE4E0EE0EF11C0C30110509F061CF2D
:104DD000FACA0E94555083C00E94884A80C083E569
:104DE000EDD5882311F0A8D501C081E091E0892795
:104DF0000E94474774C084918F010F5F1F4F882323
:104E000019F091D6F801F7CFE3E1F7E084918F0133
:104E10000F5F1F4F882309F462C085D6F801F6CFD3
:104E200081E080932C0283E5C9D5811103C00E94E3
:104E30005E6855C081D5811152C0F9CFF090BB0496
:104E4000FF2001F1E2E0FAE084918F010F5F1F4F34
:104E5000882319F068D6F801F7CF84E564D66F2D62
:104E600070E080E090E04AE065D680E25CD60EE932
:104E700012E0D8018D918D01882311F40C94101D3E
:104E800052D6F7CF10922D03E2E0FAE084918F0121
:104E90000F5F1F4F882319F046D6F801F7CF60E067
:104EA00070E082E297E00E9494388AE03CD617C016
:104EB000E2E0FAE084918F010F5F1F4F882319F021
:104EC00032D6F801F7CF60917B0B70917C0B84E3B5
:104ED00097E00E94AD3882E226D68AE024D610926E
:104EE000750B1092740B0E94D36627C341155105B0
:104EF00019F4AF0141505109812C912C0C94D50D1E
:104F000061E0802F0E94653D6E2D802F0E94363D0E
:104F1000F12CB701802F0E94A13D09301105F9F64F
:104F2000F092690BE092680BDACF15D50E94AF754D
:104F30007093CE0A6093CD0A80E00E94ED400BD5BD
:104F400020E030E04AEA52E40E94547018161CF047
:104F50000E94FE6602C00E94DB670E94AC3981E0BD
:104F6000809306021A8E1B8E1C8E1D8E1E8E1F8E27
:104F700018A219A21E8A1EA25CE35AA78CE18EA772
:104F800096E49AABC12CD12CB0E8EB2E1FEBF12E9E
:104F9000812C912C54016091CD0A7091CE0A072E7C
:104FA000000C880B990B0E945A70162F072F782E31
:104FB000692E262F372F482F592FB601C7010E947F
:104FC00054708823D1F02091D30A3091D40A4091B3
:104FD000D50A5091D60A612F702F872D962D0E94E9
:104FE0005470881F8827881F8E8BCAA0CC2049F058
:104FF000882339F08091060272CF1C2D0D2D7E2C56
:105000006F2C0E94A03E6B017C01DC01CB012E8D38
:105010003F8D48A159A1821B930BA40BB50BB7FD83
:1050200037C0D701C60188519C4FAF4FBF4F8E8FFD
:105030009F8FA8A3B9A30E94A330E9EAF2E084916C
:105040002F019FEF491A590A882319F06CD5F201F4
:10505000F6CF81149104A104B104B1F0D501C401CB
:10506000805F984DAF4FBF4FBC01CD016C197D09DA
:105070008E099F0928EE33E040E050E00E942F7433
:10508000CA01B901F9D502C08FE34DD58AE04BD5ED
:105090000E9477633DD52090D30A3090D40A409087
:1050A000D50A5090D60A9101A201612F702F872D49
:1050B000962D0E946A749F7781149104A104B10413
:1050C00049F420E030E040E85FE30E94547087FF3D
:1050D0000BC008C020E030E040E450E40E9491762C
:1050E000181614F446015701AE89AA2379F12A8DC6
:1050F0003B8D4C8D5D8D211531054105510541F0EC
:10510000D701C601821B930BA40BB50BB7FD1EC0C4
:105110009101A2016EA17AA58EA59AA90E946A7436
:1051200020E030E040EC5FE30E94547087FD62CFE6
:10513000D701C601805A9541AF4FBF4F8A8F9B8FD1
:10514000AC8FBD8F2EA23AA64EA65AAA8091060217
:10515000882309F44FCF81149104A104B10429F4E8
:10516000C12ED02EE72CF62C16CF90E1C91A97E26B
:10517000D90AE108F108C818D908EA08FB08F7FEBF
:1051800039CFEECF0E94E04388E518D4882319F088
:105190005F9A10923B0589E511D4882319F08A9A09
:1051A00010923C058AE50AD4882359F09FB7F894F9
:1051B000809108018160809308019FBF479A1092F7
:1051C0003D0585E4FBD3882309F489CE129A87CE66
:1051D0000E94E0430E94356382CEAAA0BBA01A14AD
:1051E0001B040CF05FC1AE968CAC9DACAEACBFACFA
:1051F000AE97880E991EAA1EBB1EAE962CAD3DAD75
:105200004EAD5FADAE97281B390B4A0B5B0BCA0145
:10521000B901A30192010E942074A50194010E948A
:1052200056774A8C5B8C6C8C7D8C420E531E641EB0
:10523000751E34E143165104610471040CF14CEE07
:1052400044165104610471043CF450E845165104BD
:10525000610471041CF105C06BEE462E512C612CCB
:10526000712C4A8E5B8E6C8E7D8E8EEF90E0A0E06E
:10527000B0E084199509A609B7092C013D0112C0B7
:1052800024E130E040E050E02A8F3B8F4C8F5D8F6F
:1052900054E1452E512C612C712C04C04A8E5B8E3A
:1052A0006C8E7D8EEDEEF6E084919F012F5F3F4F77
:1052B0008823B9F0CF57DF4F2883C158D040CE574D
:1052C000DF4F3883C258D0402ED4CF57DF4F2881CC
:1052D000C158D040CE57DF4F3881C258D040F90175
:1052E000E3CF6A8D7B8D8C8D9D8DC6D4E8EEF6E084
:1052F00084919F012F5F3F4F8823B9F0CF57DF4F35
:105300002883C158D040CE57DF4F3883C258D04091
:105310000AD4CF57DF4F2881C158D040CE57DF4F36
:105320003881C258D040F901E3CFC301B201A4D4FF
:105330004AA95EA96AAD7EAD81EE96E00E947738FB
:1053400023964FAD239727965FAD27972B966FAD8A
:105350002B972F967FAD2F978AED96E00E94773896
:105360004AA15BA1433051050CF49CC0C301B201BA
:105370000E945A7020E030E040E850E40E94B9708A
:105380006B017C012AA93EA94AAD5EAD23966FADA3
:10539000239727967FAD27972B968FAD2B972F9628
:1053A0009FAD2F970E946A742BED3FE049E450E4D3
:1053B0000E94B97020E030E040E05FE30E94B970E5
:1053C0009B01AC01C701B6010E9447756B017C01CE
:1053D000C501B4010E945A702FE632E143E85AE356
:1053E0000E94B9704B015C01B701A60184ED96E003
:1053F0000E947738B501A4018EEC96E00E947738C0
:105400002AE939E949E15FE3C701B6010E94B970B1
:105410006B017C019B01AC010E946B74A50194019E
:105420000E94477566966CAF7DAF8EAF9FAF669753
:10543000A5019401C701B6010E94B97020E030E0D7
:1054400040E05EE30E94B9706A966CAF7DAF8EAFAC
:105450009FAF6A97EEEBF6E084915F015FEFA51ACC
:10546000B50A882319F05FD3F501F6CFB701A6017D
:1054700088EB96E00E94773866964CAD5DAD6EADD8
:105480007FAD669782EB96E00E9477386A964CADC6
:105490005DAD6EAD7FAD6A978CEA96E00E9477387D
:1054A0008AE041D38A8D9B8DAC8DBD8D840D951D79
:1054B000A61DB71DB595A795979587958093D10A99
:1054C0008AA19BA101969BA38AA3AE8CAAAABEA087
:1054D000BEAAAAA4AAAEBEA4BEAE8E889F88A88C7F
:1054E000B98C21E0A3962FAFA397E2CA0E94E043B4
:1054F00060E08F2D0E94653D0F3FBFEF1B0759F401
:105500008F2D0E940E3D31E020E0892B09F030E024
:10551000032F122F05C00130110561F000E010E0EB
:105520008F2D0E940E3D8017910709F4D8CC0E9460
:105530007763F6CF01E010E0F3CFCE57DF4F0FB621
:10554000F894DEBF0FBECDBFDF91CF911F910F91B9
:10555000FF90EF90DF90CF90BF90AF909F908F9093
:105560007F906F905F904F903F902F90089582E0D2
:105570008093CC0A08958FB7F8949091750C209180
:10558000740C291759F0E92FF0E0EC50F44F20810A
:1055900030E09F5F9F779093750C02C02FEF3FEF35
:1055A0008FBFC9010895FF920F931F93CF93DF938D
:1055B000FC0120812B3319F1D0917C05D430F8F413
:1055C000F62EBC01C091C0040C2F10E0F0E6CF9F76
:1055D000C00111248D5C9C4F0E948E77F801E65A21
:1055E000FA4FF082CF5FC43018F4C093C00402C0F9
:1055F0001092C004DF5FD0937C0581E001C080E0A1
:10560000DF91CF911F910F91FF90089580E1E0EA23
:10561000FBE0AAE4B5E001900D928A95E1F70895C8
:10562000CF92EF92FF920F931F93C0902D037B01B7
:105630008C012CEA3BE048EA5BE064EA7BE080EA2C
:105640009BE00E94FB541F910F91FF90EF90CF9031
:105650000895CF92DF92EF92FF920F931F93CF9313
:10566000DF93EC01CC0FDD1FCC0FDD1FFE01E25CF0
:10567000FA4F20E030E0A90160817181828193813D
:105680000E946B74FE01EF56F44F208131814281FC
:1056900053810E946B746B017C01FE01EB57F44F48
:1056A0006083718382839383FE01EE56F74F659189
:1056B0007591859194918E010F5B1D4FA701960105
:1056C0000E946B74F8016083718382839383FE016F
:1056D000E256F74F6591759185919491CB5CDD4FC2
:1056E000A70196010E946B74688379838A839B83E8
:1056F000DF91CF911F910F91FF90EF90DF90CF90AE
:10570000089526E535E042E555E06EE475E08AE46B
:1057100095E00C94463A88E893E190938E0A809342
:105720008D0A80916F008D7F80936F009091DC0BCC
:105730008091DD0B981711F066D6F8CF10928C0A85
:1057400010928B0A80916F00826080936F000E949C
:10575000E04380E090E00E94C24360932A0570938A
:105760002B0580932C0590932D0581E090E00E94FD
:10577000C24360932E0570932F058093300590935C
:10578000310582E090E00E94C2436093320570933D
:10579000330580933405909335058CE0EAE2F5E01B
:1057A000AAE4B5E001900D928A95E1F7AACF9F9205
:1057B000AF92BF92CF92DF92EF92FF920F931F931F
:1057C000CF93DF9300D01F92CDB7DEB7902EA12EDE
:1057D000B22ED32E7C01EE0CFF1CEE0CFF1C8701B9
:1057E000065B1A4FF80110821182128213824983DC
:1057F0005A836B837C8385DF49815A816B817C81ED
:10580000F8014083518362837383C0902D0320E0AD
:1058100030E0A901692D7A2D8B2D9D2D0E945470A9
:10582000811108C0F701E155F74EE590F59005911B
:10583000149106C0892D9A2DAB2DBD2D7C018D01B3
:1058400026E535E042E555E06EE475E08AE495E052
:105850000E94FB540E94E04310927A050F900F9033
:105860000F900F90DF91CF911F910F91FF90EF90CC
:10587000DF90CF90BF90AF909F9008951F920F92AE
:105880000FB60F9211248F9382E08093CC0A8F91F0
:105890000F900FBE0F901F9018951F920F920FB68A
:1058A0000F9211248F9382E08093CC0A8F910F90F6
:1058B0000FBE0F901F9018951F920F920FB60F9268
:1058C00011248F9382E08093CC0A8F910F900FBEAA
:1058D0000F901F9018958091BE049091BF0400977F
:1058E00031F04AE050E060E070E00C94A86E60E0B7
:1058F00070E0CB0108958091BE049091BF040097A1
:1059000031F04AE050E060E070E00C94806D60E0BF
:1059100070E0CB010895EFDF97FD0AC0ECDF6F3F29
:1059200071058105910509F02CF4E5DF862F0895B6
:1059300080E008958FEF08958091BE049091BF0498
:10594000892B31F0E8DF91E0811103C090E001C0C4
:1059500091E0892F08950F931F93CF938091BE04F8
:105960009091BF040097F1F0FC018F01C1912C2FA1
:105970002F7D89F0C53411F0C536B9F7F8011082D2
:1059800060E070E00E941A6CF801C083562F472F28
:10599000382F292F0BC060E070E0CF911F910F913D
:1059A0000C941A6C50E040E030E020E0652F742F3A
:1059B000832F922FCF911F910F91089581548A3197
:1059C00050F5482F50E0FA0193E0F595E7959A9548
:1059D000E1F7E85DFC4F208130E08770B90102C03B
:1059E000759567958A95E2F760FF15C0FA01E25F49
:1059F000FC4F2081222339F080917B0B90917C0B0E
:105A0000820F911D02C080E090E09093BF048093CC
:105A1000BE0481E0089580E00895D0DF882341F03E
:105A200081E02091BE043091BF04232B09F480E073
:105A30000895BF92CF92DF92EF92FF920F931F9340
:105A4000CF93DF9380EAE82E8BE0F82E0AE415E08E
:105A50009EE2C92E93E0D92EC3E5D2E0BC2E84E0AD
:105A6000B80E8991ABDF8823D1F075DFF601208174
:105A7000211104C020913203222331F0F80120814A
:105A800031814281538103C020E030E0A9010E94AE
:105A90006B74F70160837183828393830AC0F8017A
:105AA00080819181A281B381F70180839183A28358
:105AB000B383F4E0EF0EF11C0C5F1F4F8FEFC81A99
:105AC000D80ABC12CECF86E4A8DF8823B9F043DF22
:105AD00020E030E0A9010E94917618167CF43BDFAB
