:100000000C94F6170C947E6B0C94536B0C94286B29
:100010000C94FD6A0C94D26A0C94A76A0C947C6AC6
:100020000C94516A0C9422390C9413390C940439B1
:100030000C9427180C9427180C9427180C94271844
:100040000C9427180C94CD6E0C9427180C94271838
:100050000C9427180C9427180C94A8970C94076AF2
:100060000C9427180C94033E0C9427180C94271812
:100070000C9427180C9427180C9427180C94271804
:100080000C9427180C9427180C9427180C942718F4
:100090000C9427180C9427180C9427180C942718E4
:1000A0000C9427180C9427180C9427180C942718D4
:1000B0000C9427180C9427180C9427180C942718C4
:1000C0000C9427180C9427180C9427180C942718B4
:1000D0000C9427180C9427180C9427180C942718A4
:1000E0000C9427181056195623562C563556505630
:1000F0005D5666563E564756A267A5679467986751
:100100009E67DC67A967AD67B367B767BB67C16701
:10011000C567C967DC67CF67D367D7672369286975
:100120002D6937694169BA694B6953695B696569CA
:100130006F69796988699269BA699C69A669B069C9
:10014000084AD73B3BCE016E84BCBFFDC12F3D6C3E
:1001500074319ABD56833DDA3D00C77F11BED9E4A4
:10016000BB4C3E916BAAAABE000000803F05A84C84
:10017000CDB2D44EB93836A9020C50B99186880850
:100180003CA6AAAA2ABE000000803F004E414E496C
:100190004E495459494E46CDCCCC3D0AD7233C1745
:1001A000B7D13877CC2B329595E6241FB14F0A0092
:1001B0000020410000C84200401C4620BCBE4CCA82
:1001C0001B0E5AAEC59D74434F4D4D554E4943418C
:1001D00054494F4E0044525952554E004552524FC9
:1001E000525300494E464F004543484F0020746F1C
:1001F0006F206C6F6E6720657874727573696F6EAF
:100200002070726576656E7465640A0020636F6C99
:100210006420657874727573696F6E20707265768C
:10022000656E7465640A0047322F4733206261644B
:1002300020706172616D65746572730A00536C653C
:1002400065702E2E2E00536E6170707933207265AA
:100250006164792E00436C69636B20746F20726552
:1002600073756D652E2E2E004E6F206D6F76652E88
:10027000002569730025696D20256973002569686B
:100280002025696D2025697300256964202569682A
:100290002025696D20256973002569792025696409
:1002A000202569682025696D2025697300507269D1
:1002B0006E742074696D653A200050726F746563C6
:1002C0007465642050696E0A004525692025730015
:1002D000536E61707079332072656164792E00E825
:1002E00001E301DC01D501C7016F666600444542A8
:1002F00055473A004B494C4C45442E20004D313176
:10030000332053006F6B0048656174696E67206429
:100310006F6E652E0020573A004525692025730031
:10032000536E61707079332072656164792E005369
:100330006E6170707933204F66662E004361703AAB
:10034000454D455247454E43595F504152534552E2
:100350003A300A004361703A434153455F4C494784
:1003600048545F4252494748544E4553533A300A25
:10037000004361703A544F47474C455F4C494748EA
:1003800054533A300A004361703A534F4654574130
:1003900052455F504F5745523A300A004361703A18
:1003A0004C4556454C494E475F444154413A300A0A
:1003B000004361703A5A5F50524F42453A300A004A
:1003C0004361703A4155544F4C4556454C3A300ABA
:1003D000004361703A5052494E545F4A4F423A319D
:1003E0000A004361703A50524F47524553533A30D6
:1003F0000A004361703A4155544F5245504F525490
:100400005F54454D503A310A004361703A454550BA
:10041000524F4D3A310A004649524D574152455FBD
:100420004E414D453A4D61726C696E20312E312E30
:100430003620284769746875622920534F55524306
:10044000455F434F44455F55524C3A68747470732E
:100450003A2F2F6769746875622E636F6D2F4D6137
:10046000726C696E4669726D776172652F4D61724B
:100470006C696E2050524F544F434F4C5F5645525B
:1004800053494F4E3A312E30204D414348494E4555
:100490005F545950453A536E617070793320455816
:1004A0005452554445525F434F554E543A312055AE
:1004B0005549443A63656465326132662D34316171
:1004C000322D343734382D396231322D633535636E
:1004D00036326633363766660A002F2F20007A32AE
:1004E0005F6D696E3A20007A5F6D696E3A2000791F
:1004F0005F6D696E3A2000785F6D696E3A20005238
:1005000065706F7274696E6720656E6473746F7066
:10051000207374617475730A004D31343520533C77
:10052000696E6465783E206F7574206F6620726115
:100530006E67652028302D31290A0053657474696F
:100540006E672054726176656C20416363656C65EB
:10055000726174696F6E3A200053657474696E67D6
:10056000205265747261637420416363656C6572C7
:100570006174696F6E3A200053657474696E672008
:100580005072696E7420416363656C657261746951
:100590006F6E3A200053657474696E6720507269FB
:1005A0006E7420616E642054726176656C204163C4
:1005B00063656C65726174696F6E3A20005A2045FC
:1005C0006E6473746F702041646A7573746D656EC8
:1005D000742073657420746F20286D6D293A002093
:1005E0005A00205900580020204D61783A20002000
:1005F0005A00205900580020204D696E3A20004FC3
:100600006E20004F666600536F667420656E6473DB
:10061000746F70733A2000000136372603FF3C3DAB
:10062000380EFF2E303E1213FF0C0809FFFFFF1A91
:100630001C18FFFF08440AFF4324221EFFFFFFFF90
:10064000FFFF4F666673657473206170706C696537
:1006500064004572723A20546F6F20666172210007
:10066000546F6F206661722066726F6D20726566CE
:100670006572656E636520706F696E740A004E6FF7
:100680002063617365206C696768740A0041637454
:100690006976652045787472756465723A200055F4
:1006A0006E6B6E6F776E20636F6D6D616E643A2056
:1006B00022004E6F204C696E65204E756D6265722A
:1006C000207769746820636865636B73756D2C208F
:1006D0004C617374204C696E653A20004B494C4C58
:1006E00045442E200053544F505045442E20005076
:1006F00072696E7465722073746F707065642064C3
:10070000756520746F206572726F72732E20466952
:100710007820746865206572726F7220616E642043
:10072000757365204D39393920746F207265737483
:100730006172742E202854656D70657261747572D3
:10074000652069732072657365742E20536574206B
:100750006974206166746572207265737461727465
:10076000696E67290A004E6F20436865636B737575
:100770006D2077697468206C696E65206E756D6296
:1007800065722C204C617374204C696E653A2000B0
:10079000636865636B73756D206D69736D617463F8
:1007A000682C204C617374204C696E653A20004CB3
:1007B000696E65204E756D626572206973206E6F7B
:1007C00074204C617374204C696E65204E756D62A7
:1007D00065722B312C204C617374204C696E653A24
:1007E00020004D3131300020496E76616C69642003
:1007F0006578747275646572200000000000000066
:1008000000000000000000004643000046430000D6
:100810005C43202F0020403A00205A3A0020593AE9
:100820000020436F756E7420583A0020453A00202E
:100830005A3A0020593A00583A004B494C4C45442A
:100840002E2000202D20496E76616C696420657829
:10085000747275646572206E756D62657220210A0E
:10086000004572726F723A002020506C616E6E65A6
:100870007242756666657242797465733A2000202B
:1008800046726565204D656D6F72793A2000436F41
:100890006D70696C65643A204A616E203235203291
:1008A0003031380A00207C20417574686F723A201C
:1008B0002852657661724261742C20536E617070AB
:1008C0007920636F6E666967290A00323031372DEF
:1008D00031302D31302031323A303000204C6173CC
:1008E0007420557064617465643A2000312E312E95
:1008F000360A004D61726C696E0020536F66747722
:100900006172652052657365740A002057617463D3
:1009100068646F672052657365740A002042726FC5
:10092000776E206F75742052657365740A002045D8
:10093000787465726E616C2052657365740A00503C
:100940006F77657255700A0073746172740A00459E
:100950006E6473746F707320256320256320256394
:1009600020256300205A3A0020593A0020583A00C6
:10097000656E6473746F7073206869743A200065E3
:1009800063686F3A004261636B004E657874206360
:100990006F726E6572004D34323800507265686552
:1009A000617420504C4100436F6F6C646F776E0030
:1009B0004368616E67652066696C616D656E740081
:1009C00044697361626C65207374657070657273DD
:1009D000004D38340053657420686F6D65206F6674
:1009E0006673657473005072656865617420414276
:1009F00053004C6576656C20636F726E6572730090
:100A0000486F6D65205A00473238205A00486F6D94
:100A100065205900473238205900486F6D652058CD
:100A2000004732382058004175746F20686F6D653B
:100A300000473238004D6F76652061786973004D4C
:100A400061696E004D6F76652058004D6F766520A8
:100A500059004D6F7665205A00457874727564654B
:100A600072004D6F766520302E316D6D004D6F76C2
:100A70006520316D6D004D6F76652031306D6D00F4
:100A80004D6F76652061786973004578747275647E
:100A90006572004D6F7665205A004D6F766520595E
:100AA000004D6F76652058004578747275646572E4
:100AB000004D6F7665205A004D6F76652059004DC8
:100AC0006F76652058005072657061726500496EDE
:100AD000697469616C697A6520454550524F4D00D3
:100AE000436F6E74726F6C00526573746F72652021
:100AF0006661696C73616665004C6F616420736543
:100B00007474696E677300496E697469616C697A9F
:100B10006520454550524F4D0053746F72652073E8
:100B2000657474696E67730046696C616D656E7497
:100B3000004D6F74696F6E0054656D7065726174FD
:100B4000757265004D61696E004D3330332055314B
:100B500020452569205325690050726568656174D8
:100B60002041425320636F6E660050726568656174
:100B70007420504C4120636F6E6600504944204100
:100B800075746F74756E6500504944204175746FBB
:100B900074756E65005049442D44005049442D44FD
:100BA000005049442D49005049442D4900504944C2
:100BB0002D50005049442D50002008204661637498
:100BC0000020082046616374002008204D617800F1
:100BD0002008204D6178002008204D617800200811
:100BE000204D696E002008204D696E002008204DC0
:100BF000696E004F6666004F6E20004175746F7419
:100C0000656D700046616E207370656564004661B5
:100C10006E207370656564004E6F7A7A6C65004E65
:100C20006F7A7A6C6500436F6E74726F6C005374E8
:100C30006F72652073657474696E6773004E6F7AA6
:100C40007A6C65004E6F7A7A6C650046616E20732F
:100C5000706565640046616E20737065656400545C
:100C6000656D70657261747572650020204E6F7AD3
:100C70007A6C653A20006368616E6765006F662074
:100C80007468652066696C616D656E740057616992
:100C90007420666F72207374617274005052494EF2
:100CA00054205041555345440020204E6F7A7A6CB1
:100CB000653A2000200066696C616D656E74207570
:100CC0006E6C6F6164005761697420666F720050CA
:100CD00052494E54205041555345440020204E6FF8
:100CE0007A7A6C653A20002000506C65617365204B
:100CF000776169742E2E2E0048656174696E6720D5
:100D00006E6F7A7A6C65005052494E5420504155AE
:100D10005345440020204E6F7A7A6C653A200020BB
:100D20000068656174206E6F7A7A6C652E0050726F
:100D300065737320627574746F6E20746F00505207
:100D4000494E54205041555345440020204E6F7A5F
:100D50007A6C653A2000746F20636F6E74696E75EB
:100D6000652E2E2E00616E64207072657373206292
:100D70007574746F6E00496E736572742066696C69
:100D8000616D656E74005052494E54205041555368
:100D900045440020204E6F7A7A6C653A200020008E
:100DA00066696C616D656E74206C6F61640057617B
:100DB000697420666F72005052494E54205041555C
:100DC0005345440020204E6F7A7A6C653A2000200B
:100DD0000066696C616D656E742065787472756407
:100DE00065005761697420666F72005052494E5415
:100DF0002050415553454400746F20726573756DE2
:100E000065005761697420666F72207072696E7434
:100E1000005052494E542050415553454400506CA7
:100E200065617365207265736574005052494E5454
:100E300045522048414C544544005072696E7465D7
:100E4000722068616C7465642E206B696C6C282953
:100E50002063616C6C6564210A00656E717565754F
:100E600065696E672022000000000000000000009D
:100E7000000000000048420000484200008040009E
:100E80000000005761726E696E673A20486F6D69A5
:100E90006E672042756D702044697669736F7220A9
:100EA0003C20310A000202040000A0400000A040E3
:100EB00000000040000046430000464300005C4341
:100EC000FFFFFF4D36303020486F74656E6420742C
:100ED0006F6F20636F6C6420746F206368616E674E
:100EE000652066696C616D656E740A004572726F8B
:100EF000722077726974696E6720746F204545505F
:100F0000524F4D210A00290A002062797465733B13
:100F100020637263200053657474696E6773205395
:100F2000746F72656420280000060900FE070192B4
:100F3000032120FFFF08FF07FF000000060000015B
:100F4000070706020080808080800080030202067E
:100F50000105A0A00507070600005050F850F85002
:100F6000500507070600002078A07028F02005072C
:100F700007060000C0C810204098180507070600A3
:100F8000006090A040A89068020303060104C040DE
:100F9000800307070601002040808080402003076F
:100FA000070601008040202020408005050506003E
:100FB0000120A870A8200505050600012020F820C2
:100FC000200203030602FFC0408005010106000362
:100FD000F8020202060200C0C0050505060001086D
:100FE00010204080050707060000708888888888E0
:100FF0007003070706010040C040404040E005077D
:1010000007060000708808708080F8050707060052
:1010100000F81020100808F005070706000010303F
:101020005090F81010050707060000F880F0080837
:101030008870050707060000708080F088887005BA
:101040000707060000F808102020202005070706E3
:101050000000708888708888700507070600007097
:10106000888878080870020505060200C0C000C024
:10107000C00206060602FFC0C000C0408004070789
:1010800006000010204080402010050303060002E7
:10109000F800F80407070601008040201020408077
:1010A00005070706000070880810200020050707C4
:1010B00006000070880868A8A870050707060000E9
:1010C000708888F8888888050707060000F08888F7
:1010D000F08888F005070706000070888080808807
:1010E00070050707060000F08888888888F00507E3
:1010F00007060000F88080F08080F80507070600EA
:1011000000F88080F0808080050707060000708866
:1011100080B8888870050707060000888888F888E6
:101120008888010707060200808080808080800513
:10113000070706000038101010109060050707061A
:1011400000008890A0C0A0908805070706000080D6
:101150008080808080F805070706000088D8A8886E
:101160008888880507070600008888C8A8988888A6
:1011700005070706000070888888888870050707BB
:10118000060000F08888F0808080050707060000D0
:1011900070888888A89068050707060000F088888E
:1011A000F0A0908805070706000078808070080886
:1011B000F0050707060000F8202020202020050762
:1011C0000706000088888888888870050707060059
:1011D00000888888888850200507070600008888CE
:1011E000888888A850050707060000888850205086
:1011F0008888050707060000888888502020200579
:101200000707060000F80810204080F803070706CB
:101210000100E08080808080E005050506000180F7
:1012200040201008030707060100E02020202020AE
:10123000E0050303060004205088050101060000B4
:10124000F80202020602058040050505060000704E
:10125000087888780507070600008080B0C888886D
:10126000F0050505060000708080887005070706F8
:101270000000080868988888780505050600007051
:1012800088F880700507070600003048E0404040BD
:10129000400506060600FF70888878087005070775
:1012A0000600008080B0C888888801070706020011
:1012B000800080808080800308080601FF200020D5
:1012C000202020A040040707060000808090A0C0D6
:1012D000A090030707060100C04040404040E005E1
:1012E0000505060000D0A8A8A8A805050506000069
:1012F000B0C8888888050505060000708888887051
:101300000506060600FFF08888F0808005060606C0
:1013100000FF788888780808050505060000B0C831
:1013200080808005050506000070807008F00407C5
:10133000070600004040E04040403005050506003B
:101340000088888898680505050600008888885008
:10135000200505050600008888A8A8500505050693
:10136000000088502050880506060600FF888888FF
:10137000780870050505060000F8102040F80307FE
:101380000706010020404080404020010707060278
:1013900000808080808080800307070601008040F5
:1013A00040204040800502020600026890000000D4
:1013B000060000000000060000000000060000001B
:1013C000000006000000000006000000000006000B
:1013D0000000000006000000000006000000000001
:1013E00006000000000006000000000006000000EB
:1013F00000000600000000000600000000000600DB
:1014000000000000060000000000060000000000D0
:1014100006000000000006000000000006000000BA
:1014200000000600000000000600000000000600AA
:1014300000000000060000000000060000000000A0
:10144000060000000000060000000000060000008A
:10145000000006000000000006000000000006007A
:101460000000000006000000000006000000000070
:1014700006000000000006000001070706020080C9
:101480000080808080800507070600002070A8A0EB
:10149000A87020050707060000304040E04050A833
:1014A00005050506000088705070880507070600CE
:1014B00000885020F820F8200107070602008080ED
:1014C00080008080800508080600003048205050C9
:1014D000209060030101060107A005070706000030
:1014E000F888B8B8B888F8050707060001700878CA
:1014F000887800F80505050600012850A050280549
:101500000303060001F808080202020602064080F2
:10151000050707060000F888A88898A8F8050101C3
:10152000060006F8040404060003609090600507B6
:10153000070600002020F8202000F804050506001A
:101540000360902040F0030505060003E020E02042
:10155000E002020206020640800508080600FF8835
:1015600088888898E88080050707060000789898A2
:1015700078181818020202060202C0C0020202060F
:1015800002FF408003050506000340C04040E0051F
:101590000707060001708888887000F805050506B1
:1015A0000001A0502850A00507070600008890A859
:1015B00058B808080507070600008890B848982022
:1015C00038050808060000C040C048D8380808059B
:1015D00007070600002000204080887005080806E4
:1015E00000004020007088F8888805080806000080
:1015F0001020007088F88888050808060000205030
:10160000007088F888880508080600006890007057
:1016100088F888880508080600005000708888F857
:1016200088880508080600002050207088F88888FF
:101630000507070600003860A0B8E0A0B805080854
:101640000600FF708880808870206005080806000A
:1016500000402000F880F080F80508080600000827
:101660001000F880F080F8050808060000205000FF
:10167000F880F080F80507070600005000F880F0B9
:1016800080F8030808060100804000E0404040E088
:10169000030808060100204000E0404040E0030845
:1016A0000806010040A000E0404040E003070706B4
:1016B0000100A000E0404040E00507070600007080
:1016C0004848E84848700508080600006890008807
:1016D000C8A89888050808060000402070888888F7
:1016E00088700508080600001020708888888870B7
:1016F00005080806000020500070888888700508DA
:101700000806000068900070888888700508080640
:101710000000500070888888887005050506000163
:1017200088502050880508080600FF1070A8A8A857
:10173000A87040050808060000402088888888882E
:1017400070050808060000102088888888887005C1
:10175000080806000020500088888888700508085E
:1017600006000050008888888888700508080600F0
:101770000010208850202020200509090600FFC005
:1017800040704848704040E00408080601FF60903F
:1017900090A09090E08005080806000040200070AE
:1017A000087888780508080600001020007008787E
:1017B00088780508080600002050007008788878AE
:1017C000050808060000689000700878887805070A
:1017D00007060000500070087888780508080600A1
:1017E000002050207008788878050606060000D092
:1017F0002878A0A8500506060600FF708088702093
:10180000600508080600004020007088F880700518
:1018100008080600001020007088F880700508088D
:101820000600002050007088F88070050707060049
:101830000050007088F8807003080806010080409E
:101840000040C04040E0030808060100204000407E
:10185000C04040E003080806010040A00040C0402E
:1018600040E0030707060100A00040C04040E0053B
:101870000707060000A040A0107888700508080639
:101880000000689000B0C888888805080806000035
:101890004020007088888870050808060000102025
:1018A00000708888887005080806000020500070C5
:1018B000888888700508080600006890007088888D
:1018C000887005070706000050007088888870053A
:1018D00005050600012000F800200507070600FFA7
:1018E0001070A8A8A8704005080806000040200055
:1018F00088888898680508080600001020008888F5
:101900008898680508080600002050008888889894
:101910006805070706000050008888889868050950
:10192000090600FF102000888888F808700407075F
:101930000601FFC04060506040E00508080600FF57
:101940005000888888780870000021002400270053
:101950002A002D00300033000101000004010701BE
:101960000A0100002200250028002B002E00310073
:10197000340002010000050108010B0100002000F5
:101980002300260029002C002F0032000001000057
:1019900003010601090105050505070508080808F2
:1019A000020202020A0A08080404040401010101F7
:1019B00001010101030303030303030304070707F2
:1019C0000C0C0C0C0C0C0C0C020202020606060697
:1019D000060606060B0B0B0B0B0B0B0B0102102064
:1019E0002008081020401020408002010201080455
:1019F00002010102040810204080804020100804E9
:101A00000201800402018040201008040201080441
:101A10000201010204081020408001020408102085
:101A2000408000000A0B02090C0D0E080703040198
:101A300000000000000000000000000000000000A6
:101A40000000000000000000000000000000121173
:101A50001000000000000000000000000000000076
:101A6000000000000000000024F4D43050C38E2099
:101A7000C2A24017828B7011127A910D816CD90A23
:101A8000A861E108C7586607615143061E4B5D0512
:101A9000C145A7041A411104093D98037139310366
:101AA0004036DB0265339102D4305402802E1D0291
:101AB000632CEE01752AC501B028A0011027810111
:101AC0008F2564012B244B01E0223401AC211F013E
:101AD0008D200D01801FFC00841EED00971DDF008E
:101AE000B81CD200E61BC600201BBC00641AB20062
:101AF000B219A8000A19A0006A189900D11791001C
:101B000040178B00B516840031167E00B31579009E
:101B10003A157300C7146F0058146A00EE1366007C
:101B20008813630025135E00C7125B006C12570018
:101B300015125400C111510070114F0021114B00BA
:101B4000D61049008D104700461044000210420094
:101B5000C00F4000800F3E00420F3C00060F3B00CC
:101B6000CB0E3800930E37005C0E3500270E340084
:101B7000F30D3200C10D3100900D3000600D2E00CC
:101B8000320D2D00050D2C00D90C2B00AE0C2900B8
:101B9000850C29005C0C2700350C27000E0C260054
:101BA000E80B2400C40B2400A00B23007D0B2300B2
:101BB0005A0B2100390B2100180B2000F80A1F00D6
:101BC000D90A1E00BB0A1E009D0A1D00800A1D00C6
:101BD000630A1C00470A1B002C0A1B00110A1A008A
:101BE000F7091A00DD091900C4091900AB09190029
:101BF000920917007B091800630917004C091600A9
:101C000036091600200916000A091500F508150006
:101C1000E0081400CC081400B8081400A40814004C
:101C2000900813007D0812006B081300580812007A
:101C30004608120034081100230811001208110090
:101C400001081100F0071000E0071000D007100095
:101C5000C0071000B0070F00A107100091070E0089
:101C600083070F0074070F0065070E0057070E006B
:101C700049070E003B070D002E070E0020070D0040
:101C800013070D0006070D00F9060C00ED060D0008
:101C9000E0060C00D4060C00C8060C00BC060C00C4
:101CA000B0060C00A4060B0099060C008D060B0074
:101CB00082060B0077060B006C060B0061060A001B
:101CC00057060B004C060A0042060A0038060A00B6
:101CD0002E060A0024060A001A060A001006090049
:101CE00007060A00FD050900F4050900EB050900D7
:101CF000E2050900D9050900D0050900C70509005A
:101D0000BE050900B5050800AD050800A5050900D8
:101D10009C050800940508008C050800840508004F
:101D20007C050800740508006C05070065050800BF
:101D30005D050700560508004E050700470507002A
:101D40004005080038050700310507002A0507008F
:101D5000230507001C050600160507000F050700F0
:101D60000805060002050700FB040600F50407004D
:101D7000EE040600E8040600E2040700DB040600A7
:101D8000D5040600CF040600C9040600C3040600FB
:101D9000BD040600B7040600B1040500AC0406004B
:101DA000A6040600A00405009B0406009504050097
:101DB000900406008A0405008504050080040600DE
:101DC0007A04050075040500700405006B04050025
:101DD00066040500610405005C0405005704050065
:101DE000520405004D0405004804050043040500A5
:101DF0003E0404003A0405003504050030040400E4
:101E00002C04050027040400230405001E0404001C
:101E10001A04040016040500110404000D04040053
:101E2000090405000404040000040400FC03040089
:101E3000F8030400F4030400F0030400EC030400BE
:101E4000E8030400E4030400E0030400DC030400EE
:101E5000D8030400D4030400D0030400CC0304001E
:101E6000C8030300C503030024F404D9201BC40CD9
:101E70005C0E9804C4095F0265077101F405F9005E
:101E8000FB04B30048048700C103690058035500F0
:101E900003034500BE023A008402310053022A00C7
:101EA0002902250004022000E4011C00C8011900D9
:101EB000AF01170098011400840113007101100094
:101EC0006101100051010E0043010D0036010B00AD
:101ED0002B010B0020010B00150109000C0109006A
:101EE00003010800FB000800F3000800EB000700F6
:101EF000E4000600DE000600D8000600D20006005E
:101F0000CC000500C7000500C2000500BD000400AC
:101F1000B9000400B5000400B1000400AD000400E5
:101F2000A9000400A5000300A20003009F00040014
:101F30009B0003009800030095000200930003003B
:101F4000900003008D0002008B0003008800020057
:101F50008600020084000300810002007F0002006E
:101F60007D0002007B000200790002007700010082
:101F7000760002007400020072000100710002008D
:101F80006F0002006D0001006C0002006A00010099
:101F900069000200670001006600010065000100A1
:101FA00064000200620001006100010060000100A5
:101FB0005F0002005D0001005C0001005B000100A9
:101FC0005A000100590001005800010057000100AB
:101FD00056000100550001005400010053000000AC
:101FE00053000100520001005100010050000100A7
:101FF0004F0001004E0000004E0001004D000100A6
:102000004C0001004B0000004B0001004A000100A1
:10201000490001004800000048000100470001009D
:102020004600000046000100450000004500010098
:102030004400010043000000430001004200000092
:102040004200010041000000410001004000010089
:102050003F0000003F0001003E0000003E00010084
:102060003D0000003D0001003C0000003C0000007D
:102070003C0001003B0000003B0001003A00000072
:102080003A0001003900000039000100380000006A
:102090003800000038000100370000003700010060
:1020A0003600000036000000360001003500000058
:1020B000350000003500010034000000340000004D
:1020C0003400010033000000330000003300010041
:1020D0003200000032000000320001003100000038
:1020E000310000003100010030000000300000002D
:1020F000300001002F0000002F0000002F00000022
:102100002F0001002E0000002E0000002E00010014
:102110002D0000002D0000002D0000002D0001000A
:102120002C0000002C0000002C0000002C000100FE
:102130002B0000002B0000002B0000002B000100F2
:102140002A0000002A0000002A0000002A000100E6
:1021500029000000290000002900000029000000DB
:1021600029000100280000002800000028000000CD
:1021700028000000280001002700000027000000C0
:1021800027000000270000002700010026000000B3
:1021900026000000260000002600000026000100A6
:1021A000250000002500000025000000250000009B
:1021B000250000002500010024000000240000008C
:1021C000240000002400000024000100230000007F
:1021D0002300000023000000230000002300000073
:1021E0002300000023000100220000002200000064
:1021F0002200000022000000220000002200010056
:10220000210000002100000021000000210000004A
:10221000210000002100000021000100200000003A
:10222000200000002000000020000000200000002E
:102230002000000020000000200001001F0000001E
:102240001F0000001F0000001F0000001F00000012
:102250001F0000001F0001001E0000001E00000003
:102260001E0000001E000000544845524D414C2005
:1022700052554E4157415900546865726D616C204A
:1022800052756E617761790056652D6A65726B00D3
:1022900056652D6A65726B0056652D6A65726B0016
:1022A000567A2D6A65726B00567A2D6A65726B00DC
:1022B00056792D6A65726B0056792D6A65726B00CE
:1022C00056792D6A65726B0056782D6A65726B00BF
:1022D00056782D6A65726B0056782D6A65726B00B0
:1022E0004D6F74696F6E004573746570732F6D6DFB
:1022F000004573746570732F6D6D005A737465704B
:10230000732F6D6D005A73746570732F6D6D005966
:1023100073746570732F6D6D005973746570732FCE
:102320006D6D005873746570732F6D6D0058737404
:102330006570732F6D6D004D6F74696F6E0053740F
:102340006570732F6D6D004A65726B004163636544
:102350006C65726174696F6E0056656C6F63697449
:102360007900436F6E74726F6C0046696C2E204466
:1023700069612E0046696C2E204469612E004F660B
:1023800066004F6E20004520696E206D6D3300435E
:102390006F6E74726F6C0020204E6F7A7A6C653AA3
:1023A000200020004261636B004D696E696D756DA0
:1023B0002054656D70206973203137302E004865D8
:1023C0006174696E67206661696C65640045787444
:1023D00072756465206D6F726500526573756D6509
:1023E000207072696E7400524553554D45204F5010
:1023F00054494F4E533A0020746F6F206C6F6E67D4
:1024000020657874727573696F6E20707265766579
:102410006E7465640A0020636F6C64206578747262
:102420007573696F6E2070726576656E7465640A87
:102430000000060900FE000000000001090008FE7F
:10244000000005080806000040F0C8888898781049
:10245000050808060000C0F88888888888F80505FF
:10246000050600012030F83020050808060000208D
:1024700070F820202020E00509090600FF2070A840
:10248000A8B8888870200509090600FFE080C0B060
:10249000A8283028280509090600FFF8A888888898
:1024A0008888A8F8050A0A0600FE20505050508877
:1024B000A8A8887003030306000340A0405A0059EF
:1024C000005800092000000000000000000000008B
:1024D00000007FFFE000000000000000000000009E
:1024E000007000E00000000000000000000000009C
:1024F00061F86000000000000000000000000041E2
:10250000F82000000000000000000000000040F083
:1025100020000000000000000000000000406020DB
:102520000000000000000000000000005801A07F33
:1025300080000000000000000000005C63A0FFC0FD
:10254000000000000000000000005EF7A0FFC000D7
:102550000000000000000000005EF7A0FFC00000C7
:1025600000000000000000005C63A07F800000000D
:10257000000000000000005801A07F800000000063
:10258000000000000000406020FFC00000000000CC
:10259000000000000040F020FFC00000000000002C
:1025A0000000000041F820FFC00000000000000013
:1025B00000000061F8603F00000000000000000023
:1025C00000007000E01E000000000000000000009D
:1025D000007FFFE00C000000000000000000000091
:1025E0000000000000000000000000000000007F6C
:1025F000FFE000000000000000000000000070008C
:10260000E0000000000000000000000000630C601B
:10261000000000000000000000000000470E200045
:1026200000000000000000000000004F0F2000002C
:10263000000000000000000000005F0FA00000008C
:102640000000000000000000005E07A07F80000086
:102650000000000000000000406020FFC0000000FB
:102660000000000000000040F020FFC0000000005B
:1026700000000000000040F020FFC000000000004B
:1026800000000000004060207F800000000000008B
:10269000000000005E07A07F800000000000000036
:1026A0000000005F0FA0FFC000000000000000005D
:1026B00000004F0F20FFC0000000000000000000DD
:1026C00000470E20FFC000000000000000000000D6
:1026D000630C603F0000000000000000000000707C
:1026E00000E01E00000000000000000000007FFF6E
:1026F000E00C0000000000000000000000000000EE
:1027000070012C0190012701B0012201C0011D01BF
:10271000F00118011002130130020E0160020901DC
:1027200090020401C002FF000003FA004003F5001C
:102730008003F000D003EB002004E6007004E10009
:10274000E004DC004005D700C005D2004006CD0003
:10275000D006C8008007C3003008BE00F008B900EA
:10276000C009B400B00AAF00B00BAA00D00CA5009D
:10277000000EA000500F9B00C01096005012910058
:1027800000148C00C0158700B0178200B0197D00BE
:10279000D01B7800001E730040206E00902269005C
:1027A000F024640040275F0090295A00E02B550078
:1027B000102E500020304B0010324600E033410014
:1027C00090353C001037370070383200A0392D00AA
:1027D000B03A2800A03B2300603C1E00103D1900C9
:1027E000903D1400103E0F00703E0A00C03E0500F0
:1027F000003F0000403FFBFF803FF6FFC03FF1FF7E
:102800006265640A002C2073797374656D2073749B
:102810006F7070656421204865617465725F49441A
:102820003A200048656174696E67206661696C656D
:10283000640048656174696E67206661696C6564EF
:10284000004572723A204D494E54454D50004D4955
:102850004E54454D50207472696767657265640017
:102860004572723A204D415854454D50004D4158E3
:1028700054454D5020747269676765726564002025
:10288000440020490020204D333031205000504971
:10289000442073657474696E67733A0A00204600B9
:1028A00020420020480020204D3134352053004D77
:1028B0006174657269616C206865617475702070FF
:1028C0006172616D65746572733A0A0020204D363D
:1028D0003636205A005A3220456E6473746F702069
:1028E00061646A7573746D656E743A0A00205A00EB
:1028F00020590020204D323036205800486F6D6539
:10290000206F66667365743A0A00204500205A00FD
:1029100020590020580020420020540020204D3231
:102920003035205300416476616E6365643A20530C
:102930003C6D696E5F66656564726174653E2054C6
:102940003C6D696E5F74726176656C5F6665656427
:10295000726174653E20423C6D696E5F7365676DA0
:10296000656E745F74696D655F6D733E20583C6D74
:1029700061785F78795F6A65726B3E205A3C6D6161
:10298000785F7A5F6A65726B3E20453C6D61785F67
:10299000655F6A65726B3E0A002054002052002079
:1029A000204D323034205000416363656C657261A4
:1029B00074696F6E2028756E6974732F7332293AAB
:1029C00020503C7072696E745F616363656C3E2079
:1029D000523C726574726163745F616363656C3EDF
:1029E00020543C74726176656C5F616363656C3E14
:1029F0000A00204500205A0020590020204D323086
:102A0000312058004D6178696D756D2041636365B3
:102A10006C65726174696F6E2028756E6974732FAE
:102A20007332293A0A00204500205A00205900201C
:102A3000204D3230332058004D6178696D756D201E
:102A40006665656472617465732028756E69747358
:102A50002F73293A0A00204500205A0020590020EF
:102A6000204D3932205800537465707320706572A0
:102A700020756E69743A0A0020204D3230302044AF
:102A8000300A0020204D3230302044002044697349
:102A900061626C65640A0046696C616D656E7420E4
:102AA00073657474696E67733A0020204D31343950
:102AB0002043203B20556E69747320696E20436566
:102AC0006C736975730A0020204732312020202062
:102AD0003B20556E69747320696E206D6D0A001F6E
:102AE000FFFFFFFFFFFF600000000001FF4000004C
:102AF000000000FF8000000000007F83CF00000C7A
:102B0000303F87FF80000C301F867980000C000F5B
:102B10008C30C7838C30E78C30CFC7CC31F38C300E
:102B2000DCECEC33B98C30D86C6C33198C30D06C55
:102B30000C33198C30D86C0C33198C30DC6C0E3B98
:102B4000198C30CF7C079F198C30C77C038F1940BC
:102B5000000000000002600000000000061FFFFFF0
:102B6000FFFFFFF8202863616C63756C6174656416
:102B700029210A0020213D2000454550524F4D207B
:102B8000435243206D69736D61746368202D202862
:102B900073746F726564292000290A0020627974B9
:102BA00065733B2063726320002073746F726564E9
:102BB0002073657474696E677320726574726965D9
:102BC000766564202800204D61726C696E3D563434
:102BD00031290A0028454550524F4D3D004545508A
:102BE000524F4D2076657273696F6E206D69736DFB
:102BF00061746368200048617264636F6465642077
:102C000044656661756C742053657474696E67738E
:102C1000204C6F616465640A00E8030000E803006B
:102C2000000A0000001027000000001643000016F4
:102C3000430000A0400000C84100002042000020E6
:102C4000420000C8430000C04220643A0020693AB4
:102C50000020703A0043290A0061626C65642028F4
:102C60006D696E2074656D702000436F6C64206523
:102C700078747275646573206172652000236465E1
:102C800066696E65202044454641554C545F4B644F
:102C9000200023646566696E6520204445464155E1
:102CA0004C545F4B69200023646566696E65202083
:102CB00044454641554C545F4B70200050494420D8
:102CC0004175746F74756E652066696E69736865A9
:102CD00064212050757420746865206C61737420C1
:102CE0004B702C204B6920616E64204B6420636F15
:102CF0006E7374616E74732066726F6D2062656CA2
:102D00006F7720696E746F20436F6E6669677572A6
:102D10006174696F6E2E680A0050494420417574D1
:102D20006F74756E65206661696C656421207469D5
:102D30006D656F75740A00504944204175746F7455
:102D4000756E65206661696C6564212054656D70DF
:102D50006572617475726520746F6F206869676849
:102D60000A00204B643A2000204B693A2000204B97
:102D7000703A20000A20436C6173736963205049E4
:102D800044200A002054753A2000204B753A200058
:102D9000206D61783A2000206D696E3A2000206431
:102DA0003A200020626961733A20005654726176BD
:102DB000206D696E005654726176206D696E005602
:102DC00054726176206D696E00566D696E00566DA5
:102DD000696E00566D696E00566D6178204500562B
:102DE0006D6178204500566D6178204500566D6113
:102DF00078205A00566D6178205A00566D6178200F
:102E00005A00566D6178205900566D61782059003E
:102E1000566D6178205900566D6178205800566DC6
:102E20006178205800566D61782058004D6F7469A4
:102E30006F6E00416D6178204500416D61782045DD
:102E400000416D6178205A00416D6178205A00413F
:102E50006D6178205900416D6178205900416D61A4
:102E600078205800416D6178205800412D747261BE
:102E700076656C00412D74726176656C00412D722F
:102E800065747261637400412D726574726163745C
:102E900000416363656C00416363656C004D6F7452
:102EA000696F6E00436F6E74726F6C005072657064
:102EB0006172650054756E6500496E666F207363BC
:102EC0007265656E004261627973746570205A00A4
:102ED0004D363030204230004368616E67652066B1
:102EE000696C616D656E74004261627973746570BE
:102EF000205A00466C6F7700466C6F770046616E13
:102F00002073706565640046616E2073706565644A
:102F1000004E6F7A7A6C65004E6F7A7A6C6500535A
:102F200070656564005370656564004D61696E008D
:102F3000526573656E643A20006F6B006275737939
:102F40003A2070617573656420666F7220696E70D7
:102F500075740A00627573793A20706175736564DF
:102F600020666F7220757365720A00627573793A14
:102F70002070726F63657373696E670A004B494C0A
:102F80004C45442E20004B494C4C206361757365C1
:102F900064206279204B494C4C20627574746F6ECA
:102FA0002F70696E0A004B494C4C45442E20004B53
:102FB000494C4C2063617573656420627920746F9D
:102FC0006F206D75636820696E6163746976652032
:102FD00074696D65202D2063757272656E7420634F
:102FE0006F6D6D616E643A20000085C211241FBEB2
:102FF000CFEFD1E2DEBFCDBF00E00CBF13E0A0E019
:10300000B2E0EEE8F2EA01E00BBF02C007900D92D9
:10301000AE3AB107D9F72FE0AEEAB3E001C01D9296
:10302000A936B207E1F717E1C6EFD7E100E006C025
:1030300021970109802FFE010E94FBD0C53FD107D7
:1030400080E00807A9F70E9498BB0C9445D10C9426
:1030500000002F923F924F925F926F927F928F92D9
:103060009F92AF92BF92CF92DF92EF92FF920F9317
:103070001F93CF93DF93CDB7DEB7C759D1090FB6F2
:10308000F894DEBF0FBECDBF0091010620E6029F7F
:10309000800111240E521C4F8091BB0E80FF1AC07C
:1030A000EFE7F9E084917F013FEFE31AF30A811122
:1030B00002C0780104C00E94593AF701F3CFD7014A
:1030C0008D917D01882319F00E94593AF8CF8AE04A
:1030D0000E94593A81E090E090937F0680937E06AB
:1030E00010925905109258058FE380935C05109259
:1030F0005B0510925A051092C8031092C9031092F2
:10310000CA031092CB03F80180810F5F1F4F8032FA
:10311000D1F38E34B1F4818190ED980F9A3020F084
:103120008D3211F08B3269F43296DF0131962C9199
:1031300020532A30D0F3CD01FC01019620812032AA
:10314000D9F3F0934E0FE0934D0F7F01BFEFEB1AD1
:10315000FB0A10816AE270E0C7010E940DD100975E
:1031600031F0FC01319780818032E1F311821D340E
:1031700029F0143519F0173409F0CEC0F701808119
:103180002FEFE21AF20A8032C9F380538A3008F036
:10319000C3C010935C0520915A0530915B054AE04D
:1031A0003196429FC001439F900D1124DF0111977A
:1031B0002C91022E000C330B20533109280F391F9C
:1031C000808180538A3060F330935B0520935A05E9
:1031D000DF0131968C918032D9F31D3451F000918A
:1031E0004D0F609158057091590588248394912C56
:1031F00055C02E31310591F03CF42731310571F085
:103200002C31310561F70AC02537310544F32737E2
:10321000310524F0203A43E0340709F7B09359050B
:10322000A093580579C0413209F442C0EFEBE40F96
:10323000EA3108F05DC0DC017D015D915032E1F3BF
:10324000C701A0EDA50FAA3008F046C0DC01EE2EA4
:10325000F12C6701F3E0D594C794FA95E1F7A60144
:1032600048535C4F6A014E2F4770F40102C0EE0FC5
:10327000FF1F4A95E2F7AF01F6015081452B4083CD
:103280001097A1F1A01BA70142555C4FFA01A08342
:10329000DC014C9141544A3180F5DC01CD010196AD
:1032A0004C914111C0CF709359056093580534C0BB
:1032B0001D3409F0BBCF2032310509F0B7CF909310
:1032C00059058093580563E270E00E940DD1009784
:1032D00019F1DC011C9220C0A3EDA50FA23008F467
:1032E000B5CF5B3211F00C94EA32B0CFA0E0CBCF77
:1032F0006115710569F6BD01CBCFAD011196FA01DB
:10330000908190539A30C8F3CA014F5F5F4FFC0120
:10331000A081A032C9F3C1CF80915C058D3411F436
:103320000C940726843511F40C949132873411F0F3
:103330000C94CC3280915A0590915B0584309105B4
:1033400009F41FC65CF497FF02C00C94E33220918D
:103350007F02823091050CF00DC11CC08A359105A9
:1033600011F40C94792554F48530910509F450C674
:103370004C9711F40C94C2240C94E3328B359105D4
:1033800011F40C947D258C35910511F40C94822553
:103390000C94E332222311F40C94E3320E94DF39BF
:1033A0008EE696E00E945CB70E944E3A8091BB0E7A
:1033B00083FD8FC0C0907A06D0907B06E0907C069B
:1033C000F0907D062091F20B3091F30B4091F40BBD
:1033D0005091F50BC701B6010E94DDC9882309F49D
:1033E00078C080911606811138C0609119027091E1
:1033F0001A02072E000C880B990B0E94E3C99B014F
:10340000AC016091120670911306809114069091A0
:1034100015060E94DDC987FF20C0C092F20BD09232
:10342000F30BE092F40BF092F50BEFE7F9E08491E7
:103430008F010F5F1F4F882321F00E94593AF80136
:10344000F6CFECE0F2E084918F010F5F1F4F8823ED
:1034500021F00E94593AF801F6CFC0907A06D09038
:103460007B06E0907C06F0907D062091F20B309177
:10347000F30B4091F40B5091F50BC701B6010E947C
:10348000F3CD20E030E048E453E40E941AD018164F
:1034900004F5C092F20BD092F30BE092F40BF09291
:1034A000F50BEFE7F9E084918F010F5F1F4F882341
:1034B00021F00E94593AF801F6CFEDEEF1E0849147
:1034C0008F010F5F1F4F882321F00E94593AF801A6
:1034D000F6CF20916E0630916F06409170065091A4
:1034E00071066091E60B7091E70B8091E80B90916B
:1034F000E90B0E94DDC981111DC020917206309137
:10350000730640917406509175066091EA0B7091B4
:10351000EB0B8091EC0B9091ED0B0E94DDC98111BA
:1035200009C06091000270910102809102029091A5
:1035300003021AC06091990270919A02072E000C42
:10354000880B990B0E94E3C920910002309101027F
:1035500040910202509103020E9442CA2AE037EDD4
:1035600043E25CE30E9442CA0E9490370E94863781
:103570000C94E332222311F40C94E33211E002970D
:1035800009F010E00E94DF3982E50E94D3398823D8
:1035900009F43CC10E9471396B017C014090E60B3B
:1035A0005090E70B6090E80B7090E90B2091EA0BCC
:1035B0003091EB0B4091EC0B5091ED0B2EA73FA7F8
:1035C00048AB59AB80916E0690916F06A091700642
:1035D000B09171068AAB9BABACABBDAB20917206D0
:1035E0003091730640917406509175062AAF3BAF37
:1035F0004CAF5DAF20E030E0A901C701B6010E94E9
:10360000DDC9882309F4A3C4A30192016AA97BA997
:103610008CA99DA90E94DDC981110DC02EA53FA5D1
:1036200048A959A96AAD7BAD8CAD9DAD0E94DDC99D
:10363000882309F48CC420E030E0A901C701B60159
:103640000E94DDC9881F8827881F18130BC080E0DF
:1036500090E0A0E8BFE32A968CAF9DAFAEAFBFAFBE
:103660002A970AC020E030E040E85FEB2A962CAFB2
:103670003DAF4EAF5FAF2A97A30192016AA97BA924
:103680008CA99DA90E94F3CD22966CAF7DAF8EAF21
:103690009FAF22972EA53FA548A959A96AAD7BAD3A
:1036A0008CAD9DAD0E94F3CD26966CAF7DAF8EAFF5
:1036B0009FAF269722962CAD3DAD4EAD5FAD2297C4
:1036C000CA01B9010E9442CA4B015C0126962CAD89
:1036D0003DAD4EAD5FAD2697CA01B9010E9442CA09
:1036E0009B01AC01C501B4010E94F4CD0E945FD0E2
:1036F0006EAB7FAB88AF99AF20E030E040E05FE396
:103700000E9442CA4B015C01A7019601C701B601A4
:103710000E9442CA6B017C01A5019401C501B4015C
:103720000E9442CA9B01AC01C701B6010E94F3CDC1
:103730000E945FD09B01AC012A966CAD7DAD8EAD31
:103740009FAD2A970E9442CA4B015C012AA93BA95E
:103750004CA95DA9C301B2010E94F4CD20E030E084
:1037600040E05FE30E9442CA6B017C0126966CAD8B
:103770007DAD8EAD9FAD269790582EA93FA948AD3F
:1037800059AD0E94D0CE9B01AC01C501B4010E948D
:1037900042CA9B01AC01C701B6010E94F4CDA3014E
:1037A00092010E94F3CD6B017C012AAD3BAD4CAD83
:1037B0005DAD6EA57FA588A999A90E94F4CD20E0F2
:1037C00030E040E05FE30E9442CA2B013C012EA999
:1037D0003FA948AD59AD22966CAD7DAD8EAD9FAD84
:1037E00022970E94D0CE9B01AC01C501B4010E947A
:1037F00042CA9B01AC01C301B2010E94F4CD2EA5C7
:103800003FA548A959A90E94F3CD14C089E40E949C
:10381000D339882329F00E9471396B017C0103C0E0
:10382000C12CD12C76018AE40E94D3398823D9F0A7
:103830000E9471396AAF7BAF8CAF9DAF20E030E062
:10384000A901C701B6010E94DDC981111AC020E09B
:1038500030E0A9016AAD7BAD8CAD9DAD0E94DDC9A4
:1038600081110FC074C320E030E0A901C701B60187
:103870000E94DDC9882309F46AC31AAE1BAE1CAED0
:103880001DAED701C601B0588EA79FA7A8ABB9AB94
:103890002AAD3BAD4CAD5DAD50582AAB3BAB4CAB0C
:1038A0005DAB9C01AD01BC01CD010E9442CA4B0140
:1038B0005C012AA93BA94CA95DA9CA01B9010E94D2
:1038C00042CA9B01AC01C501B4010E94F4CD0E9423
:1038D0005FD0A2966CAF7DAF8EAF9FAFA297809165
:1038E000E60B9091E70BA091E80BB091E90B8EAB42
:1038F0009FABA8AFB9AFA7019601BC01CD010E9453
:10390000F4CD2A966CAF7DAF8EAF9FAF2A97A09073
:10391000EA0BB090EB0BC090EC0BD090ED0B229625
:10392000ACAEBDAECEAEDFAE22972AAD3BAD4CAD58
:103930005DADC601B5010E94F4CD2E966CAF7DAF92
:103940008EAF9FAF2E97C0906E06D0906F06E0901E
:103950007006F09071066296CCAEDDAEEEAEFFAEB4
:1039600062972A962CAD3DAD4EAD5FAD2A97C7014B
:10397000B6010E94F3CD6B017C012091720630915B
:103980007306409174065091750666962CAF3DAF54
:103990004EAF5FAF66972E962CAD3DAD4EAD5FAD91
:1039A0002E9766966CAD7DAD8EAD9FAD66970E94ED
:1039B000F3CD4B015C018091EE0B9091EF0BA09148
:1039C000F00BB091F10B6A968CAF9DAFAEAFBFAF6D
:1039D0006A979C01AD01609176067091770680919F
:1039E0007806909179060E94F3CD26966CAF7DAF54
:1039F0008EAF9FAF269720917A0630917B0640913B
:103A00007C0650917D06A6962CAF3DAF4EAF5FAFC2
:103A1000A6978091F20B9091F30BA091F40BB091CB
:103A2000F50B6E968CAF9DAFAEAFBFAF6E97A70193
:103A300096016EA57FA588A999A90E9442CA2B016B
:103A40003C01A50194016AA97BA98CA99DA90E94AA
:103A500042CA9B01AC01C301B2010E94F4CD2B010B
:103A60003C01A50194016EA57FA588A999A90E9492
:103A700042CA4B015C01A70196016AA97BA98CA9E6
:103A80009DA90E9442CA9B01AC01C501B4010E94DC
:103A9000F3CDA30192010E9467CE6B017C0120E06F
:103AA00030E0A9010E94DDC987FF0AC02BED3FE08D
:103AB00049EC50E4C701B6010E94F4CD6B017C01D2
:103AC000112351F02BED3FE049EC50E4C701B60162
:103AD0000E94F3CD6B017C0120E030E0A901C70119
:103AE000B6010E94DDC9811126C062962CAD3DADA4
:103AF0004EAD5FAD62976EA97FA988AD99AD0E946A
:103B0000DDC9811118C066962CAD3DAD4EAD5FADDF
:103B1000669722966CAD7DAD8EAD9FAD22970E94CB
:103B2000DDC9811108C06BEDC62E6FE0D62E69ECA1
:103B3000E62E60E4F62EA2962CAD3DAD4EAD5FAD07
:103B4000A297C701B6010E9442CA9B01AC010E9424
:103B500042CA4B015C0126962CAD3DAD4EAD5FAD2A
:103B60002697CA01B9010E9442CA9B01AC01C50156
:103B7000B4010E94F4CD0E945FD04B015C012FE69E
:103B800032E143E85AE30E94DDC987FDDCC1C5018B
:103B9000B4010E9469CF0E943DCF7FAF6EAF672B0B
:103BA00021F421E030E03FAF2EAFAEACBFACB501A9
:103BB00080E090E00E94E1C94B015C019B01AC01F7
:103BC000C701B6010E94D0CE6EAB7FAB88AF99AF74
:103BD000A501940126966CAD7DAD8EAD9FAD269767
:103BE0000E94D0CEA2966CAF7DAF8EAF9FAFA29752
:103BF0006E962CAD3DAD4EAD5FAD6E97A6966CAD9D
:103C00007DAD8EAD9FADA6970E94F3CDA501940129
:103C10000E94D0CEA6966CAF7DAF8EAF9FAFA69719
:103C20002EA93FA948AD59ADCA01B9010E9442CAA7
:103C300020E030E040E05FE30E9442CA9B01AC011B
:103C400060E070E080E89FE30E94F3CD26966CAFC1
:103C50007DAF8EAF9FAF26976A96CCACDDACEEAC55
:103C6000FFAC6A97C986DA86EB86FC866E96ACACAA
:103C7000BDACCEACDFAC6E97AD86BE86CF86D88AA3
:103C80006091990270919A02072E000C880B990B93
:103C90000E94E3C92091000230910102409102028A
:103CA000509103020E9442CA2AE037ED43E25CE3EE
:103CB0000E9442CA62966CAF7DAF8EAF9FAF629793
:103CC0000E94FB699B01AC0128533F4F4F4F5F4F50
:103CD00066962CAF3DAF4EAF5FAF66974EA45FA424
:103CE00068A879A822242394312C59E1D52EAEACB2
:103CF000BFAC2A143B0409F412C10E94A8990E9487
:103D0000FB69DC01CB0166962CAD3DAD4EAD5FADE0
:103D10006697821B930BA40BB50BB7FD11C00E94D5
:103D2000FB699B01AC0128533F4F4F4F5F4F669695
:103D30002CAF3DAF4EAF5FAF669780E00E949DB461
:103D4000DA94DD2009F441C026962CAD3DAD4EAD90
:103D50005FAD26976AA97BA98CA99DA90E9442CA3A
:103D60004B015C012EA93FA948AD59ADB201C30179
:103D70000E9442CAA50194010E94F4CD7B018C01EE
:103D800026962CAD3DAD4EAD5FAD2697B201C30179
:103D90000E9442CA4B015C012EA93FA948AD59AD12
:103DA0006AA97BA98CA99DA90E9442CA9B01AC016A
:103DB000C501B4010E94F3CD2B013C01C701D8011C
:103DC0008AAB9BABACABBDAB4FC0B10180E090E028
:103DD0000E94E1C92EA93FA948AD59AD0E9442CA2F
:103DE0004B015C010E94CDCE6B017C01C501B40189
:103DF0000E9455D04B015C01A70196016EA57FA5DD
:103E000088A999A90E9442CA2B013C01A5019401ED
:103E10006AAD7BAD8CAD9DAD0E9442CA9B01AC01E9
:103E2000C301B2010E94F4CD2B013C01A501940114
:103E30006EA57FA588A999A90E9442CA4B015C0181
:103E4000A70196016AAD7BAD8CAD9DAD0E9442CAC3
:103E50009B01AC01C501B4010E94F3CD6AAB7BAB01
:103E60008CAB9DAB39E1D32E9201A3012A966CADA8
:103E70007DAD8EAD9FAD2A970E94F4CD69837A8384
:103E80008B839C832AA93BA94CA95DA92E966CAD76
:103E90007DAD8EAD9FAD2E970E94F4CD6D837E8358
:103EA0008F839887A2962CAD3DAD4EAD5FADA297A6
:103EB00069857A858B859C850E94F4CD69877A8790
:103EC0008B879C87A6962CAD3DAD4EAD5FADA6977A
:103ED0006D857E858F8598890E94F4CD6D877E875C
:103EE0008F87988BCE0101960E945CB7C090030625
:103EF0006296ECACFDAC0EAD1FAD62979E01235FE8
:103F00003F4FAE01475F5F4FBE016B5F7F4FCE01FA
:103F100001960E9474833FEF231A330AE8CEC090C3
:103F200003066296ECACFDAC0EAD1FAD62972AE7BE
:103F300036E046E756E062E776E08EE696E00E94DD
:103F400074830E9486370E944E3A0C94E332E1E675
:103F5000F8E084918F010F5F1F4F882321F00E94AA
:103F6000593AF801F6CFE7E2F2E084918F010F5F52
:103F70001F4F882311F40C94E3320E94593AF80140
:103F8000F4CF80E50E94D339882329F00E9431398B
:103F90006B017C0103C0C12CD12C760183E50E940A
:103FA000D339882361F00E94713920E030E04AE77C
:103FB00054E40E9442CA0E943DCF6B017C010E94E2
:103FC000A19A80913C02811105C060E08DE392E0EE
:103FD0000E9494640E944E3A80914F0F9091500F2E
:103FE000A091510FB091520FC80ED91EEA1EFB1EB0
:103FF0000E94FB69DC01CB018C199D09AE09BF0948
:10400000B7FD02C00C94E33280E00E949DB4F0CF73
:1040100080917F02882311F40C94E3320E94DF39EF
:1040200089E40E94D339882329F00E9471392B0139
:104030003C0103C0412C512C32018AE40E94D33947
:10404000882329F00E9471394B015C0103C0812C47
:10405000912C540180E50E94D339882329F00E94D5
:1040600071396B017C0103C0C12CD12C760181E533
:104070000E94D339882339F00E9471396EA77FA737
:1040800088AB99AB04C01EA61FA618AA19AA209136
:104090000306C157DF4F2883CF58D0406091990263
:1040A00070919A02072E000C880B990B0E94E3C9AD
:1040B00020910002309101024091020250910302CE
:1040C0000E9442CA2AE037ED43E25CE30E9442CA02
:1040D000C057DF4F688379838A839B83C059D04060
:1040E0008091E60B9091E70BA091E80BB091E90B62
:1040F0008AAB9BABACABBDABA3019201BC01CD01C4
:104100000E94F4CDA2966CAF7DAF8EAF9FAFA29709
:104110004090EA0B5090EB0B6090EC0B7090ED0B25
:10412000A5019401C301B2010E94F4CDA6966CAF23
:104130007DAF8EAF9FAFA69720916E0630916F0630
:104140004091700650917106C701B6010E94F4CDEE
:10415000AE966CAF7DAF8EAF9FAFAE9720917206DB
:104160003091730640917406509175066EA57FA537
:1041700088A999A90E94F4CDE2966CAF7DAF8EAF6D
:104180009FAFE297AAA8BBA8CCA8DDA8A982BA8253
:10419000CB82DC824D825E826F8278860E94FB69D0
:1041A0009B01AC0128533F4F4F4F5F4FC657DF4F26
:1041B000288339834A835B83CA58D0402DEC822EF2
:1041C0002CEC922EA92C2DE3B22E1EA61AAA1AAE02
:1041D0001EAA0E94A8990E94FB698B019C01C657E8
:1041E000DF4FC880D980EA80FB80CA58D0400C19C4
:1041F0001D092E093F0937FD11C09B01AC01285351
:104200003F4F4F4F5F4FC657DF4F288339834A8355
:104210005B83CA58D04080E00E949DB4A501940100
:10422000BEA5AAA9FAADEEA96B2F7A2F8F2F9E2FCC
:104230000E94F4CD2B011C0120E030E040E85FE358
:104240000E941AD0181634F4412C512C80E8282EE4
:104250009FE3392E80916E0690916F06A0917006B3
:10426000B0917106E6968CAF9DAFAEAFBFAFE6974B
:10427000A090E60BB090E70BC090E80BD090E90B54
:10428000EA96ACAEBDAECEAEDFAEEA973F922F92CD
:104290005F924F92E696ACACBDACCEACDFACE6978D
:1042A000AE96ECACFDAC0EAD1FADAE97A2962CADAC
:1042B0003DAD4EAD5FADA297EA966CAD7DAD8EADD6
:1042C0009FADEA970E94B3750F900F900F900F90DB
:1042D0006EAF23967FAF239727968FAF27972B96A6
:1042E0009FAF2B97C0907206D0907306E090740633
:1042F000F0907506EE96CCAEDDAEEEAEFFAEEE976C
:104300002091EA0B3091EB0B4091EC0B5091ED0BAF
:10431000C258DF4F288339834A835B83CE57D0400E
:104320003F922F925F924F92EE96ACACBDACCEAC6A
:10433000DFACEE97E296ECACFDAC0EAD1FADE297B4
:10434000A6962CAD3DAD4EAD5FADA697C258DF4FE2
:10435000688179818A819B81CE57D0400E94B37554
:104360000F900F900F900F902F966FAF2F9763962F
:104370007FAF639767968FAF67976B969FAF6B978B
:1043800089819A81AB81BC81CE57DF4F8883998325
:10439000AA83BB83C258D040AD80BE80CF80D88472
:1043A000CA57DF4FA882B982CA82DB82C658D04082
:1043B000A7961FAEA7977EA56AA99AAD8EA9272FAB
:1043C000362F492F582F642D752D822D932D0E9445
:1043D000F3CD2FE632E143E05BE30E94DDC987FFC6
:1043E00006C0A796BFACA797B11011C2F7C1242D84
:1043F000352D422D532DBEA5AAA9FAADEEA96B2FDE
:104400007A2F8F2F9E2F0E94F4CD20E030E040E0E5
:104410005FE30E9442CA3B014C019F928F937F92BF
:104420006F93E696ACACBDACCEACDFACE697AE9687
:10443000ECACFDAC0EAD1FADAE97A2962CAD3DAD74
:104440004EAD5FADA297EA966CAD7DAD8EAD9FADE2
:10445000EA970E94B3750F900F900F900F90A89657
:104460006FAFA897A9967FAFA997AA968FAFAA9783
:10447000C257DF4F9883CE58D0409F928F927F9241
:104480006F92EE96ACACBDACCEACDFACEE97E296E4
:10449000ECACFDAC0EAD1FADE297A6962CAD3DADDC
:1044A0004EAD5FADA697C258DF4F688179818A8192
:1044B0009B81CE57D0400E94B3750F900F900F9004
:1044C0000F905B018C012EAD23963FAD239727966D
:1044D0004FAD27972B965FAD2B97CE57DF4F688157
:1044E00079818A819B81C258D0400E94F4CD20E01E
:1044F00030E040E05FE30E9442CA9B01AC01A89615
:104500006FADA897A9967FADA997AA968FADAA97E8
:10451000C257DF4F9881CE58D0400E94F3CD6B0137
:104520007C01E894F7F82F962FAD2F9763963FAD57
:10453000639767964FAD67976B965FAD6B97CA575A
:10454000DF4F688179818A819B81C658D0400E9463
:10455000F4CD20E030E040E05FE30E9442CA9B01DE
:10456000AC01B501C8010E94F3CD9B01AC015F779E
:10457000C701B6010E94F4CD2DEC3CEC4CEC5DE3A0
:104580000E94DDC918160CF02CCF2F96AFAE2F97D6
:104590006396BFAE639767960FAF67976B961FAF33
:1045A0006B97A896CFACA897CEAEA996DFACA9978B
:1045B0002396DFAE2397AA96EFACAA972796EFAE85
:1045C0002797C257DF4FF880CE58D0402B96FFAECA
:1045D0002B972301140121E0A7962FAFA797EBCECD
:1045E000A7019601C701B6010E94F4CD9B01AC0161
:1045F000BEA5AAA9FAADEEA96B2F7A2F8F2F9E2FF9
:104600000E94F4CD962E872E782E692E20E030E081
:1046100040E85FE3D401F3016B2F7A2F8F2F9E2F99
:104620000E941AD087FFF3C06F927F928F929F9261
:10463000E696ACACBDACCEACDFACE697AE96ECACDF
:10464000FDAC0EAD1FADAE97A2962CAD3DAD4EADFF
:104650005FADA297EA966CAD7DAD8EAD9FADEA974A
:104660000E94B3750F900F900F900F90A7966FAFA9
:10467000A797A8967FAFA897A9968FAFA997AA9654
:104680009FAFAA976F927F928F929F92EE96ACAC5B
:10469000BDACCEACDFACEE97E296ECACFDAC0EADB3
:1046A0001FADE297A6962CAD3DAD4EAD5FADA69782
:1046B000C258DF4F688179818A819B81CE57D04073
:1046C0000E94B3750F900F900F900F905B018C01BB
:1046D000A7962FADA797A8963FADA897A9964FADDF
:1046E000A997AA965FADAA97CE57DF4F68817981C7
:1046F0008A819B81C258D0400E94F4CD20E030E0F6
:1047000040E05FE30E9442CA9B01AC016EAD23967C
:104710007FAD239727968FAD27972B969FAD2B972D
:104720000E94F3CD6B017C01E894F7F89501A80194
:10473000CA57DF4F688179818A819B81C658D040F2
:104740000E94F4CD20E030E040E05FE30E9442CAE6
:104750009B01AC012F966FAD2F9763967FAD63974A
:1047600067968FAD67976B969FAD6B970E94F3CD61
:104770009B01AC015F77C701B6010E94F4CD2DEC1F
:104780003CEC4CEC5DE30E941AD018160CF43FC0D0
:104790002F96AFAE2F976396BFAE639767960FAF16
:1047A00067976B961FAF6B97A7963FADA7973EAFE6
:1047B000A8964FADA89723964FAF2397A9965FADC4
:1047C000A99727965FAF2797AA968FADAA972B96A2
:1047D0008FAF2B97492C582C272C362C7EA56AA9F5
:1047E0009AAD8EA9272F362F492F582F642D752D5E
:1047F000822D932D0E94F3CD6B017C012DEC3CECBE
:104800004CEC5DE30E941AD018160CF0E9CE7EA5A0
:104810006AA99AAD8EA9272F362F492F582F642DBC
:10482000752D822D932D0E94F3CD4B015C018EAD31
:1048300023969FAD23972796AFAD27972B96BFADB5
:104840002B9789839A83AB83BC832F968FAD2F9749
:1048500063969FAD63976796AFAD67976B96BFAD55
:104860006B978D839E83AF83B887242D352D422D82
:10487000532D60E070E080E89FE30E94F3CD6B0170
:104880007C012091EE0B3091EF0B4091F00B509199
:10489000F10B0E9442CA6EA77FA788AB99AB20910B
:1048A0007606309177064091780650917906642D0E
:1048B000752D822D932D0E9442CA9B01AC016EA5DD
:1048C0007FA588A999A90E94F4CD69877A878B87EB
:1048D0009C872091F20B3091F30B4091F40B509197
:1048E000F50BC701B6010E9442CA6B017C01209101
:1048F0007A0630917B0640917C0650917D06642DAE
:10490000752D822D932D0E9442CA9B01AC01C701D7
:10491000B6010E94F4CD6D877E878F87988BCE017C
:1049200001960E945CB7C157DF4FC880CF58D04076
:10493000C057DF4FE880F9800A811B81C059D04001
:104940009E01235F3F4FAE01475F5F4FBE016B5F2C
:104950007F4FCE0101960E94748320E030E040E852
:104960005FE3642D752D822D932D0E94DDC987FF95
:1049700005C04EA65AAA2AAE3EAA2BCC0E94863764
:104980000C94E3320E94A19A80910002909101025E
:10499000A0910202B09103028093540590935505B3
:1049A000A0935605B09357058091990290919A0271
:1049B000909353058093520584E690E090939A0279
:1049C000809399020E944E3A81E08093D00588E559
:1049D0000E94A439E82E89E50E94A439082F8AE5AF
:1049E0000E94A439F82EE11005C0011105C011E0A4
:1049F000182705C0011102C010E001C0182F0E9445
:104A00007C37111105C0E11003C0002309F444C034
:104A100020E030E040EA50E460910C0670910D0611
:104A200080910E0690910F060E94F4CD6093760659
:104A30007093770680937806909379062091EE0B19
:104A40003091EF0B4091F00B5091F10B0E941AD076
:104A500018167CF419821A821B821C829E012F5F19
:104A60003F4F46E756E06AEE7BE086EE9BE00E9411
:104A70009B36111105C0E11003C0011107C00CC025
:104A800080E090E00E94BE5C1123B9F381E090E0E9
:104A90000E94BE5C111102C0FF2021F082E090E074
:104AA0000E94BE5C0E9493388091720E8093D00564
:104AB0008091540590915505A0915605B0915705E8
:104AC0008093000290930102A0930202B09303022C
:104AD000809152059091530590939A028093990288
:104AE0000E944E3A83E080933B020E94073D0C9463
:104AF000E3321092D1030C94E33281E08093D1032E
:104B00000C94E33285E40E94D339B82E811102C09F
:104B10000E94A19AB0EA8B2EB2E09B2E16EEC12E17
:104B20001BE0D12E01E6E02E06E0F02E00E010E0C2
:104B3000A12CD4018D914D010E94D339882309F411
:104B40004EC0F6012081318142815381CC56DF4F26
:104B50002883C459D040CB56DF4F3883C559D04045
:104B6000CA56DF4F4883C659D040C956DF4F5883D5
:104B7000C759D0400E947139D6016D937D938D93B2
:104B80009C931397CC56DF4F2881C459D040CB5605
:104B9000DF4F3881C559D040CA56DF4F4881C659CA
:104BA000D040C956DF4F5881C759D0400330110556
:104BB000B1F00E94F3CD9B01AC01F70160817181DE
:104BC000828193810E94F4CDD7016D937D938D9363
:104BD0009C931397C8010E94A937AA24A3940F5F3E
:104BE0001F4FB4E0CB0ED11CE4E0EE0EF11C0430FC
:104BF000110509F09ECFAA2019F00E94933803C036
:104C0000B1100E94EA790E94073D0C94E332809132
:104C10005A0590915B058837910509F48FC70CF010
:104C200095C08C35910509F4AFC50CF04FC08B349D
:104C3000910509F4EBC2BCF48131910509F4BFC1BF
:104C40002CF4029708F438C10C94E3328F319105AB
:104C500009F4C8C18A32910509F499C2429711F04A
:104C60000C94E33243C58235910509F438C514F537
:104C70008D34910509F4E8C20CF4CCC2813591055C
:104C800011F00C94E3320E9407970E94A19A0E94AF
:104C90004BB710923F0610923E0668EE73E080E03C
:104CA00090E00E94AC6360E08FE293E00E94946425
:104CB0000C94E3328435910509F418C50CF412C53F
:104CC0008535910509F447C50C94E3328F3691057B
:104CD00009F428C3C4F48B36910509F462C464F462
:104CE0008936910509F4DAC30CF03CC48836910585
:104CF00009F4AEC20C94E3328D36910509F416C462
:104D00000CF481C3FCC28337910509F4CBC554F47C
:104D10008137910509F47FC30CF0BFC584EF92E0A1
:104D20000E940C5E8637910509F44DC60CF082C6D0
:104D30008537910511F00C94E33260E080915805BD
:104D4000909159050E94B4640C94E332823E91051F
:104D500011F40C947C300CF051C0893C910509F49D
:104D60009EC7ECF48C38910509F481C354F489375B
:104D7000910509F4E9C68D37910509F424C40C9412
:104D8000E3328B39910509F4A6C3883C910509F4F7
:104D90003EC78139910511F00C94E332DAC68E3C9E
:104DA000910511F40C945A2FB4F48C3C910509F43C
:104DB000ACC714F00C94EF2E8B3C910511F00C94C1
:104DC000E332E7E8EE2EEEE0FE2E00EA12E0F4E039
:104DD000DF2ED00E8BC78C3D910511F40C9456300C
:104DE0008D3D910511F40C946330833D910511F0D4
:104DF0000C94E332EFE7F9E00C94C02F8C3AF1E029
:104E00009F0711F40C94DA305CF58F3231E0930790
:104E100011F40C94D43084F48D3251E0950711F4E0
:104E20000C94CE3014F00C94D1308C32914011F4AB
:104E30000C94A5300C94E3328039E1E09E0711F424
:104E40000C94D7308A39F1E09F0709F4E0C2833629
:104E5000914011F00C94E332E1E6F8E00C946C32EE
:104E6000873F31E0930711F40C94CA3194F4853FE5
:104E700051E0950711F40C94C43114F00C94C7312F
:104E8000843F914011F00C94E3320E94D6560C946A
:104E9000E3328A39E2E09E0711F40C94A12F873E99
:104EA000F3E09F0711F40C9481328835924011F0A1
:104EB0000C94E3320C94D631A0905805B09059056B
:104EC00080E50E94D339882359F00E9431396B0163
:104ED0007C0111E0672B682B692B31F410E004C0D2
:104EE00010E0C12CD12C760183E50E94D3398823B0
:104EF000F1F00E94713920E030E04AE754E40E946A
:104F000042CA0E943DCF6B017C01111112C0672B78
:104F1000682B692B71F4A114B10459F0D5018C915F
:104F2000882339F061E0C5010E94B46407C01123F1
:104F300091F360E085E592E00E94946483E090E064
:104F400090937F0680937E0681E08093A0060E9466
:104F5000A19A0E944E3AC114D104E104F104F1F087
:104F600080914F0F9091500FA091510FB091520F1F
:104F7000C80ED91EEA1EFB1E0E94FB69DC01CB0194
:104F80008C199D09AE09BF09B7FF15C08091A00615
:104F9000882389F080E00E949DB4EECF8091A00626
:104FA000882321F080E00E949DB4F8CF60E086E481
:104FB00092E00E9494641092A0060C94E33260E0A8
:104FC00088E692E00E9494645F988A989FB7F8946C
:104FD000809108018E7F809308019FBF47981298A7
:104FE0000C94E33280918D0C90918E0C019719F402
:104FF0000E94FB6908C06091970C7091980C809199
:10500000990C90919A0C0091930C1091940C209112
:10501000950C3091960C601B710B820B930B28EE54
:1050200033E040E050E00E94B8CD80918F0C909129
:10503000900CA091910CB091920CBC01CD01620F2B
:10504000731F841F951FACE3CA2ED12CE12CF12CC9
:10505000A70196010E94B8CD762E672ECA01B9012C
:10506000A70196010E94B8CD6B017C01CA01B9016C
:1050700028E130E040E050E00E94B8CD4B015C01F7
:10508000C9016DE671E00E94B8D08E010F5F1F4F1D
:105090006115710599F06F927F92DF92CF929F9286
:1050A0008F929F938F937F936F9389E992E09F9361
:1050B0008F931F930F930E9476C912C00097B1F08F
:1050C0006F927F92DF92CF929F928F929F938F9356
:1050D00089E892E09F938F931F930F930E9476C964
:1050E0000FB6F894DEBF0FBECDBF36C08114910459
:1050F000A104B10479F06F927F92DF92CF929F92D8
:105100008F928DE792E09F938F931F930F930E944E
:1051100076C9E6CFC114D104E104F10469F06F92BD
:105120007F92DF92CF9285E792E09F938F931F93B8
:105130000F930E9476C9D4CF6F927F9281E792E05D
:105140009F938F931F930F930E9476C90F900F9098
:105150000F900F900F900F9060E0C8010E94B46410
:10516000EFE7F9E084917F019FEFE91AF90A8823BC
:1051700021F00E94593AF701F5CFB8018DEA92E08B
:105180000E948B758AE00E94593A0C94E33283E5C1
:105190000E94D339882311F40C94E3320E945139D0
:1051A000E82E80E50E94D339882339F00E944139E6
:1051B0008B0177FF04C00C94E3320DE010E0902FD8
:1051C000E7E1F6E08BE28E0F2491921729F03196F9
:1051D0008E13FACF0C94F432E1E6F8E084918F015B
:1051E0000F5F1F4F882321F00E94593AF801F6CF34
:1051F000EAEBF2E084918F010F5F1F4F882311F4D7
:105200000C94E3320E94593AF801F4CF0E947F795E
:105210000C94E33280918D0C90918E0C019711F0DB
:105220000C94E33282E090E090938E0C80938D0C8E
:105230000E94FB696093970C7093980C8093990C73
:1052400090939A0C0C94E3320E94D1760C94E33242
:1052500088E690E00E94C63A81110C94E332809176
:10526000BB0E83FF02C00C94E33283E50E94D33966
:10527000882309F440C00E9471390E9438CF70938E
:1052800041066093400680E00E94BC960E947139FE
:1052900020E030E04AEA52E40E94DDC918163CF0F2
:1052A0000E94D17660E080ED92E00E9494640E94BA
:1052B00071392091120630911306409114065091D5
:1052C00015060E941AD01816B4F485E193E09F9356
:1052D0008F938091CC0390E001969F938F9389ECFC
:1052E00092E09F938F931F920E9462790FB6F89479
:1052F000DEBF0FBECDBF0E9455C20C94E3328EE4D8
:105300000E94D339882311F40C94E3320E9441396E
:105310006093440F7093450F8093460F9093470F0F
:105320000C94E33283E50E94A439882359F083E585
:105330000E94D339882319F00E94513901C080E0BE
:105340008093BB0EEFE7F9E084918F010F5F1F4F51
:10535000882321F00E94593AF801F6CFEDEEF2E0F1
:1053600084918F010F5F1F4F882321F00E94593ACB
:10537000F801F6CF8091BB0E8823A1F1FFEDCF2E6F
:10538000F2E0DF2EE12CF12C20E08091BB0E90E0CA
:105390000E2C02C0959587950A94E2F780FF17C0FE
:1053A000BB24B394B20E222319F08CE20E94593A26
:1053B000F60125913491F901849189010F5F1F4F06
:1053C000882321F00E94593A9801F5CF2B2DFFEF49
:1053D000EF1AFF0A32E0C30ED11C45E0E416F104D7
:1053E000A1F60CC0E9EEF2E084918F010F5F1F4F30
:1053F000882321F00E94593AF801F6CF8AE00E94F2
:10540000593A0C94E332109204020C94E3320E9455
:1054100042A70C94E33283E50E94D339882369F0D4
:105420000E94513980939B028D3310F40C94E33227
:105430008CE380939B020C94E332EFE7F9E08491D4
:105440008F010F5F1F4F882321F00E94593AF80106
:10545000F6CF40919B0250E060E070E08DEF92E06B
:105460000E941B758AE00E94593A0C94E3328091A5
:10547000BB0E83FF02C00C94E33283E50E94D33954
:10548000882311F40C94E3320E9471390E9438CFC2
:1054900070931C0D60931B0D0C94E33289E690E031
:1054A0000E94C63A811111C0E4E0F3E084918F01BB
:1054B0000F5F1F4F882321F00E94593AF801F6CF61
:1054C0000E94B73D8AE00E94593A10927F061092DE
:1054D0007E060C94D13483E50E94D339882311F4DD
:1054E0000C94E3320E94513980934C0F8D3318F0A5
:1054F0008CE380934C0F0E94FB696B017C0120912F
:105500004C0F30E0A8EEB3E00E94E4CDDC01CB010B
:105510008C0D9D1DAE1DBF1D8093480F9093490FAC
:10552000A0934A0FB0934B0F0C94E3328DE690E0BA
:105530000E94C63A81110C94E3328091BB0E83FF26
:1055400002C00C94E33283E50E94D3398AAF811103
:105550000C94093382E50E94D33981110C940933EC
:105560000C94E33283E50E94D339882339F00E94FA
:1055700041398B016F3F710519F010F00FEF10E00A
:1055800080E50E94D339811106C010933F06009335
:105590003E060C94E3320E94513981110C94E3329F
:1055A000F4CF80E50E94D339811106C010923F06E6
:1055B00010923E060C94E3320E944139672B11F0A1
:1055C0000C94E332F3CF8CE40E94A439882319F0C1
:1055D0000E94713904C060E070E080E090EC6EA33E
:1055E0007FA388A799A78AE50E94D339882319F059
:1055F0000E94713903C060E070E0CB0120E030E030
:1056000040E251E40E94F4CD6AA37BA38CA39DA346
:1056100088E50E94D339882319F00E94713903C0AC
:1056200060E070E0CB0120E030E040E450E40E9414
:10563000F4CD6E8F7F8F88A399A389E50E94D3391B
:10564000882319F00E94713903C060E070E0CB013B
:1056500020E030E040E450E40E94F4CD6A8F7B8F7C
:105660008C8F9D8FA0908D0CB0908E0C19821A8219
:105670001B821C8280916D068111A5C7C12CE12C73
:105680008E010F5F1F4F9E01265E3F4FAE01425EAF
:105690005F4FBE016E5D7F4FCE0186960E94515BCB
:1056A000882309F490C780E00E94413619821A824B
:1056B0001B821C821E8A1F8A188E198E80916D068D
:1056C000882331F040E0B801CE0146960E9495C093
:1056D000AA94AB2809F077C70E947F7974C710920B
:1056E000D00371C781E08093D0036DC783E50E942A
:1056F000D339882399F00E94713920E030E04AE7DD
:1057000054E40E9442CA0E943DCF60939C02709371
:105710009D0280939E0290939F0255C788E50E9448
:10572000A43981110C94823489E50E94A439811135
:105730000C9482348AE50E94A43981110C9482343D
:1057400085E40E94A43981110C9482340E94A19AAC
:105750000E944BB738C783E50E94A439882309F417
:1057600032C70E94713920E030E04AE754E40E94D9
:1057700042CA0E943DCF6093530F7093540F8093A1
:10578000550F9093560F1FC750EAC52E52E0D52EE5
:1057900066EFE62E6BE0F62E10E0F60181916F01C8
:1057A0000E94A439882309F46EC0133009F063C045
:1057B0000E9471394B015C0120E030E040EA51E485
:1057C0000E94DDC987FF4EC0A50194016091020CC3
:1057D0007091030C8091040C9091050C0E94D0CE26
:1057E0002B013C019B01AC016091AF0C7091B00C9E
:1057F0008091B10C9091B20C0E9442CA6093AF0CA0
:105800007093B00C8093B10C9093B20CA3019201F1
:105810006091930E7091940E8091950E9091960EDA
:105820000E9442CA6093930E7093940E8093950EDB
:105830009093960E6091D30C7091D40C8091D50CFE
:105840009091D60C0E94E1C9A30192010E9442CA24
:105850000E943DCF6093D30C7093D40C8093D50CF1
:105860009093D60C8092020C9092030CA092040CA0
:10587000B092050C08C00E947139D7016D937D93D9
:105880008D939C9313971F5FB4E0EB0EF11C1430C3
:1058900009F083CF0E944A8396C60E94A19A0E9473
:1058A000073D91C6E7E1F4E084918F010F5F1F4F40
:1058B000882321F00E94593AF801F6CFE9E0F4E09C
:1058C00084918F010F5F1F4F882321F00E94593A66
:1058D000F801F6CFE2EFF3E084918F010F5F1F4FE5
:1058E000882321F00E94593AF801F6CFE2EEF3E066
:1058F00084918F010F5F1F4F882321F00E94593A36
:10590000F801F6CFE1EDF3E084918F010F5F1F4FB7
:10591000882321F00E94593AF801F6CFE0ECF3E039
:1059200084918F010F5F1F4F882321F00E94593A05
:10593000F801F6CFE1EBF3E084918F010F5F1F4F89
:10594000882321F00E94593AF801F6CFECE9F3E000
:1059500084918F010F5F1F4F882321F00E94593AD5
:10596000F801F6CFE6E8F3E084918F010F5F1F4F57
:10597000882321F00E94593AF801F6CFE1E7F3E0DD
:1059800084918F010F5F1F4F882321F00E94593AA5
:10599000F801F6CFE4E5F3E084918F010F5F1F4F2C
:1059A000882321F00E94593AF801F6CFECE3F3E0A6
:1059B00084918F010F5F1F4F882309F404C60E9452
:1059C000593AF801F5CF85E40E94A439882381F083
:1059D0000E946239882361F0EFE7F9E084918F013A
:1059E0000F5F1F4F882321F00E94593AF801F6CF2C
:1059F00081E40E94A439882381F00E9462398823BF
:105A000061F0EAEDF4E084918F010F5F1F4F88236E
:105A100021F00E94593AF801F6CF009158051091F3
:105A20005905F80181918F01882309F4E7CC0E9480
:105A3000593AF7CFEFEFF4E084918F010F5F1F4FDA
:105A4000882321F00E94593AF801F6CFE7EFF4E0FD
:105A500084918F010F5F1F4F882321F00E94593AD4
:105A6000F801F6CF659903C006E013E002C00BE031
:105A700013E0D8018D918D01882319F00E94593AC5
:105A8000F8CF8AE00E94593AEFEEF4E084918F015A
:105A90000F5F1F4F882321F00E94593AF801F6CF7B
:105AA0008091030181FD03C006E013E002C00BE01A
:105AB00013E0F80181918F01882319F00E94593A6F
:105AC000F8CF8AE00E94593AE7EEF4E084918F0122
:105AD0000F5F1F4F882321F00E94593AF801F6CF3B
